:10000000C5C100000C94210E0C94F60D0C94CB0D80
:100010000C94A00D0C94750D0C944A0D0C941F0DAE
:100020000C94F40CE4C10000E2C10000E0C1000047
:1000300033C70000DCC10000DAC10000D8C10000F5
:10004000D6C10000D4C10000D2C10000D0C1000060
:10005000CEC10000CCC10000CAC100000C94AA0CA3
:10006000C6C100000C94750E0C944C0EC0C100006B
:10007000BEC10000BCC10000BAC10000B8C1000090
:10008000B6C10000B4C10000B2C10000B0C10000A0
:10009000AEC10000ACC10000AAC10000C5C700008D
:1000A000A6C10000A4C10000A2C10000A0C10000C0
:1000B0009EC100009CC100009AC1000098C10000D0
:1000C00096C1000094C1000092C1000090C10000E0
:1000D0008EC100008CC100008AC1000088C10000F0
:1000E00086C10000550C580C470C4B0C4F0C8F0C64
:1000F0005C0C600C660C6A0C6E0C740C780C7C0C3E
:100100008F0C820C860C8A0C00407A10F35A00A0E7
:10011000724E18090010A5D4E80000E876481700D0
:1001200000E40B54020000CA9A3B000000E1F50510
:10013000000080969800000040420F000000A0865A
:1001400001000000102700000000E803000000008C
:100150006400000000000A00000000000100000030
:1001600000002C76D888DC674F0823DFC1DFAE594A
:10017000E1B1B796E5E3E453C63AE651997696E8DD
:10018000E6C28426EB898C9B62ED407C6FFCEFBC61
:100190009C9F40F2BAA56FA5F490055A2AF75C938C
:1001A0006B6CF9676DC11BFCE0E40D47FEF520E6C2
:1001B000B500D0ED902E0300943577050080841EA5
:1001C000080000204E0A000000C80C333333330F00
:1001D000986E12831141EF8D2114893BE65516CF9D
:1001E000FEE6DB18D1844B381BF77C1D901DA4BBA9
:1001F000E424203284725E228100C9F124ECA1E55E
:100200003D27303B3235353B25753B303B25753B33
:10021000256C75200025753B25753B25753B25759F
:100220003B25753B25730A004D434F3A5245473AEB
:100230004E4F54204E45454445440A004D434F3AE5
:1002400042474E3A494E4954204F4B2C5453503D4F
:100250004E410A004D434F3A42474E3A5354500ADA
:10026000004D434F3A42474E3A4246520A004D43F0
:100270004F3A42474E3A494E49542047572C435033
:100280003D522D4E47412D2D2D2C52454C3D25756F
:100290002C5645523D322E332E310A0000002200EA
:1002A000250028002B002E00310034000201000040
:1002B000050108010B0105050505070508080808E3
:1002C000020202020A0A08080404040401010101EE
:1002D00001010101030303030303030304070707E9
:1002E0000C0C0C0C0C0C0C0C02020202060606068E
:1002F000060606060B0B0B0B0B0B0B0B010210205B
:10030000200808102040102040800201020108044B
:1003100002010102040810204080804020100804DF
:100320000201800402018040201008040201080438
:10033000020101020408102040800102040810207C
:10034000408000000A0B02090C0D0E08070304018F
:10035000000000000000000000000000000000009D
:10036000000000000000000000000000000012116A
:10037000100000000000000000000000000000006D
:1003800000000000000000000B10DD0E11241FBE55
:10039000CFEFD1E2DEBFCDBF00E00CBF12E0A0E0A6
:1003A000B2E0EAEEF1E300E00BBF02C007900D926D
:1003B000A838B107D9F725E0A8E8B2E001C01D923E
:1003C000A437B207E1F711E0C5ECD1E000E006C0C8
:1003D00021970109802FFE010E94C018C43CD1075B
:1003E00080E00807A9F70E94F60E0C94E41808CEE6
:1003F00008950895CF92DF92EF92FF920F931F938B
:100400000E949E0C0091F9041091FA042091FB04C3
:100410003091FC04601771078207930748F46093DA
:10042000F9047093FA048093FB049093FC043CC09D
:10043000E091F80448EE53E0E49F6001E59FD00CA2
:1004400011240D2C000CEE08FF080C0D1D1D2E1D97
:100450003F1D601771078207930730F16093F9041D
:100460007093FA048093FB049093FC048091FE0443
:100470009091FF0418161906BCF48091F7048823A4
:1004800099F010E0612F70E08091FE049091FF04DC
:10049000681779074CF48091000590910105F5D615
:1004A00060E01DD71F5FEECF1F910F91FF90EF907F
:1004B000DF90CF900895CF92DF92EF92FF920F934B
:1004C0001F93CF93DF93CDB7DEB760970FB6F89445
:1004D000DEBF0FBECDBF0091FE041091FF048091DE
:1004E000FD0490E0081719070CF05FC01016110604
:1004F000ECF4C0900005D0900105F12CE12C6F2D9B
:1005000070E06017710784F4C601BFD6FC018281D8
:10051000833241F48081811105C08181811102C043
:10052000EE24E394F394EBCFE1103FC084E190E03C
:100530000E94801019821A8223E22B831C821D8262
:100540001E821F8228872AE332E03F872E87188A7F
:1005500020E1FE013196DC0101900D922A95E1F730
:10056000DC0151961C921E92509753961C921E923B
:100570005297E0910205F0910305309729F490938A
:1005800001058093000507C0DC015396FC93EE93B0
:100590005297918B808B90930305809302050F5F98
:1005A0001F4F1093FF040093FE0460960FB6F8945B
:1005B000DEBF0FBECDBFDF91CF911F910F91FF9096
:1005C000EF90DF90CF9008950F931F93CF93DF9319
:1005D000EC016115710561F0FB0101900020E9F764
:1005E0003197E61BF70BE931F10518F0E9E101C09D
:1005F000E0E00E2F10E08B81282F2770C80133E038
:10060000880F991F3A95E1F7822B8B838C818F712C
:100610008C83EE2329F0A801CE0107960E94D518FD
:10062000FE01E00FF11F1782CE01DF91CF911F91E4
:100630000F910895CF93DF93FC01108211821282F3
:10064000148215821682DC0117968AE1ED01199257
:100650008A95E9F782E08383DF91CF9108950F9324
:100660001F93CF93DF93EC018C81829586958770E1
:1006700091F44B8146954695469550E0BE01695FE1
:100680007F4F85E693E00E94D518EB81E695E695CD
:10069000E695F0E076C0813031F48F814AE065E67E
:1006A00073E090E007C0823041F44AE065E673E011
:1006B0008F8198850E940B1267C0833041F44AE015
:1006C00065E673E08F8198850E9461125DC0843079
:1006D00051F46F81788589859A852AE045E653E053
:1006E0000E94151251C0853051F46F81788589853B
:1006F0009A852AE045E653E00E94401245C08730C3
:1007000011F020E030C02B85293008F028E06F81FF
:10071000788589859A8505E613E042E00E9461109C
:1007200033C0E22FF0E0AF01440F551FDA01AB599F
:10073000BC4FEC0FFD1F8781082E000C990B34E095
:10074000959587953A95E1F78F708A3098F4805D9A
:100750008C93DA01AA59BC4F87818F708A3060F47C
:10076000805D8C932F5FEB81E695E695E6952E17DD
:10077000C0F204C0895CECCF895CF3CFF0E0EE0FEF
:10078000FF1FEB59FC4F10828C8125E633E03F932D
:100790002F939D811F929F9384FB992790F91F921D
:1007A0009F9387701F928F938E811F928F93898161
:1007B0001F928F9385E192E09F938F931F9288E71A
:1007C0008F938DEE92E09F938F930E947A128DEE1D
:1007D00092E0B7D78DB79EB742960FB6F8949EBFFA
:1007E0000FBE8DBF81E0DF91CF911F910F910895D2
:1007F000FC012281211101C032CF80E00895BF9217
:10080000CF92DF92EF92FF920F931F93CF93DF93DC
:10081000CDB7DEB76B970FB6F894DEBF0FBECDBF76
:100820008EE494E0B0D6892B09F4B3C18EE494E051
:1008300088D69091EC02933608F0E3C0292F30E07F
:10084000F901E857FD4F8A3009F0D6C01082AE0199
:10085000465E5F4F6CE472E088E892E00E94E4112B
:1008600000E0E12CF12C10E0C12CD12C009709F410
:1008700094C026E0E216F10469F410924705109244
:10088000460580914A058F7E80934A05043009F021
:10089000A9C08AC033E0E316F10431F14CF431E031
:1008A000E316F10491F022E0E216F10499F008C099
:1008B00034E0E316F10439F125E0E216F10441F1E8
:1008C0000E94A111809348055BC00E94A1118093F2
:1008D0004C0556C00E94A111082F80914A05887FBF
:1008E000902F9770892B0CC020914A05277FB22E3C
:1008F0000E94A111892B11F480E001C088E08B29AE
:1009000080934A053DC00E94A11180934B0538C0D9
:10091000FC01043019F59081992391F19A3314F474
:10092000905305C0913614F0975501C09753929596
:10093000907F21812A3314F4205305C0213614F00E
:10094000275501C02753A1E0B0E0AC0FBD1FA10F98
:10095000B11D920F9C931F5F3296DDCF0190002056
:10096000E9F7E81BE2509C012E0F311DF9012081AF
:100970002D3009F4108220812A3009F410826C0194
:100980003FEFE31AF30AAE01465E5F4F6CE472E09C
:1009900080E090E00E94E41169CF85E0E816F10460
:1009A0000CF06BCF10E023C01A3108F019E1209150
:1009B0004905922F9770412F50E09A0163E0220F72
:1009C000331F6A95E1F7292B209349058F71806CBD
:1009D00080934A05BE016F5F7F4F8DE495E00E94D2
:1009E000CC1804C0B60186E495E0EEDD11E010926B
:1009F000EC02111109C0CDC080839F5F9093EC027F
:100A00000FCF1092EC020CCF81E2E6E4F5E0A5E214
:100A1000B5E001900D928A95E1F70091270501114B
:100A2000B8C08091290583FF16C091E2E5E2F5E0A8
:100A3000A4E0B5E001900D929A95E1F7877F80617F
:100A40008093080510920505809126058093060580
:100A500084E095E004DE80912905982F977093300B
:100A600009F097C090912A059230B1F410920505D3
:100A7000109206058FEF80930A05909309058091E7
:100A80000805807E8360809308056EE472E084E050
:100A900095E09ADDE4DD7DC0F0902605F1104CC0B4
:100AA0009D3059F498E088E10FB6F894A8958093AA
:100AB00060000FBE90936000FFCF9B3109F469C0C6
:100AC000963099F480912C05882321F011E08D3423
:100AD00009F010E01093980341E050E063E071E00A
:100AE00088E993E00E946E1854C0933111F473D1D9
:100AF00050C0913009F04DC020E030E0232B09F4C4
:100B000048C0829586958770853049F460912C05A0
:100B100070912D0580912E0590912F050AC08111AD
:100B200005C08CE295E00E94BE1103C060E070E059
:100B3000CB010E9400002DC09A3159F5829586950F
:100B40008770813019F400912C0507C0811105C010
:100B50008CE295E00E94A111082F10920505F092F9
:100B600006058FEF80930A058BE18093090580913C
:100B70000705877088608093070583E280930805E6
:100B800081E0023008F480E080930B0584E095E07A
:100B90002FDE6B960FB6F894DEBF0FBECDBFDF9190
:100BA000CF911F910F91FF90EF90DF90CF90BF906A
:100BB00008959F92AF92BF92CF92DF92EF92FF92F1
:100BC0000F931F93CF93DF931092050510920605A4
:100BD000CFEFC0930A058BE080930905809108054B
:100BE000807E83608093080564E572E084E095E090
:100BF000EBDCFEDD1092050510920605C0930A0598
:100C00008CE08093090580910805807E8360809345
:100C100008056AE672E084E095E0D6DCE9DD8091C3
:100C2000FE049091FF041816190634F5C0E06C2FED
:100C300070E08091FE049091FF0468177907E4F456
:100C4000809100059091010520D3FC0145855685D2
:100C500022819081911106C081E0233209F480E065
:100C6000895706C0818128E0929F800D1124875FFB
:100C700060E178D5CF5FDBCF8091FE049091FF04D7
:100C8000181619060CF055C08091F704811151C057
:100C900010E08CE5A82E91E1992EBB24B394612F2E
:100CA00070E08091FE049091FF04681779070CF0C2
:100CB00040C08091000590910105E7D2EC01888148
:100CC000882321F06981683008F4F2D28A81833266
:100CD00011F48F8301C0AF827E0183E0E80EF11C26
:100CE00098861B821C821D821E8260E0C7010E94C2
:100CF000AB0E6885862F807331F0C7010E94AB0E62
:100D0000C7010E94BB0E1AD66B017C0110922A0506
:100D100000E014D6DC01CB018C199D09AE09BF0996
:100D2000883C9105A105B10508F04FC001114DC0E7
:100D30003DC010929B0310929A0310922B041092C4
:100D40004D0410922904C1E0C093280410920304BA
:100D500084E17DD585E17BD58091B9008E7F80933C
:100D6000B9008091B9008D7F8093B90088E48093A9
:100D7000B80085E48093BC0088E897E090939D03D9
:100D800080939C0389E897E090939F0380939E0350
:100D9000C093F704DF91CF911F910F91FF90EF90D7
:100DA000DF90CF90BF90AF909F900895A89527DDDA
:100DB000809129058770813009F0ABCF01E08091E7
:100DC0002A05823009F0A4CFA4CFBF8661E0CE010E
:100DD00086D21F5F64CF47E852E061E18FEFC2D453
:100DE000E8CECF92DF92EF92FF920F931F93CF93B3
:100DF000DF93CDB7DEB7C857D1090FB6F894DEBF81
:100E00000FBECDBFCE018C579F4FFC01C190D1903A
:100E10007F0194D59F938F937F936F931F9289E067
:100E20008F931F9283E08F9382E092E09F938F9342
:100E30001F9288E78F938E010F5F1F4F1F930F93B1
:100E40000E947A12C8017DD49701A60168E770E07C
:100E5000C8010E94B6128AE0E8968FAFE897E9963B
:100E60001FAEE997C8016DD48EE494E00FD40FB69D
:100E7000F894DEBF0FBECDBFC858DF4F0FB6F89451
:100E8000DEBF0FBECDBFDF91CF911F910F91FF90BD
:100E9000EF90DF90CF9008951F920F920FB60F92B0
:100EA00011240F900FBE0F901F90189585ED809321
:100EB000BC008091BC0084FDFCCF109229040895F1
:100EC0004091E003262F30E0240F311D21323105FF
:100ED000DCF4209129042430C9F4FC0180E090E086
:100EE000861758F43091E0032191DC01A054BC4FE7
:100EF000A30FB11D2C930196F3CF8091E003680FEF
:100F00006093E00380E0089581E0089582E0089511
:100F1000089508950895E0919B0380919A03E8173E
:100F200030F4F0E0E056FC4F808190E008958FEFC0
:100F30009FEF089590919B0380919A03981750F426
:100F4000E92FF0E0E056FC4F208130E09F5F909366
:100F50009B0302C02FEF3FEFC901089580919A03D0
:100F600090E020919B03821B91090895CF92DF921C
:100F7000EF92FF920F931F93CF93DF937C01CB01EE
:100F80008A0120912A04222389F0EB016B01C40E0F
:100F9000D51ECC15DD0561F06991D701ED91FC916D
:100FA0000190F081E02DC7011995F3CF642F88DF00
:100FB000C801DF91CF911F910F91FF90EF90DF90CB
:100FC000CF900895CF93DF931F92CDB7DEB769839B
:100FD00020912A042223D1F020914D04203240F0A8
:100FE00021E030E0FC013383228380E090E014C0F4
:100FF00080912B04E82FF0E0E45DFB4F9981908312
:101000008F5F80932B0480934D0404C061E0CE0178
:10101000019656DF81E090E00F90DF91CF91089527
:10102000089580E090E008951F920F920FB60F92FE
:1010300011240BB60F922F933F934F935F936F93AF
:101040007F938F939F93AF93BF93EF93FF93809181
:10105000B900887F803609F49CC068F5883209F4AD
:101060005BC090F4803109F454C038F4882309F44B
:10107000F6C0883009F44DC0F5C0883109F44CC081
:10108000803209F45DC0EEC0803409F468C048F4D1
:10109000803309F455C0883309F0E4C080932704F5
:1010A000D8C0803509F44FC0883509F45DC0883454
:1010B00009F0D8C0D6C0883909F4C7C0A8F4883769
:1010C00009F467C038F4883609F463C0803709F43E
:1010D00060C0C8C0883809F4B8C0803909F45FC05E
:1010E000803809F0BFC05BC0803B09F486C038F48B
:1010F000803A09F466C0883A09F47FC0B3C0803CE6
:1011000009F4A7C0883C09F4A4C0883B09F48AC04C
:10111000A9C08091040410C09091260480912504F8
:10112000981770F5E091260481E08E0F80932604D5
:10113000F0E0EB5FFB4F80818093BB0085EC86C0C5
:10114000809327048EC0E091260481E08E0F809367
:1011500026048091BB00F0E0EB5FFB4F8083909111
:101160002604809125046EC0E091260481E08E0F54
:10117000809326048091BB00F0E0EB5FFB4F8083FF
:101180008091280481116DC081E08093030484EA7A
:1011900061C083E08093290410920204CFCF809134
:1011A0000204803208F051C0E091020481E08E0F09
:1011B000809302048091BB00F0E0EE51FC4F8083ED
:1011C000BDCF85EC8093BC0010922904809102046D
:1011D000803230F4E0910204F0E0EE51FC4F1082D6
:1011E0006091020470E0E0919E03F0919F0382EE13
:1011F00093E019951092020435C084E0809329048D
:101200001092E1031092E003E0919C03F0919D03A2
:1012100019958091E003811105C081E08093E0037E
:101220001092C003E091E10381E08E0F8093E1030F
:10123000F0E0E054FC4F80818093BB009091E1038B
:101240008091E003981708F479CF85E88093BC007B
:1012500009C085EC8093BC001092290403C0109251
:10126000270424DEFF91EF91BF91AF919F918F9161
:101270007F916F915F914F913F912F910F900BBE96
:101280000F900FBE0F901F901895FC0180E090E02A
:101290006817790760F0309751F08617970711F4B7
:1012A000CF0108950088F189E02D0196F1CF0895CE
:1012B00091E090932A0480934C0410922B04109296
:1012C0004D0481E090E09C0102C0220F331F6A951B
:1012D000E2F7B9018BEE94E075DE81E05CC28F929B
:1012E0009F92AF92BF92DF92EF92FF920F931F9364
:1012F000CF93DF93CDB7DEB7A1970FB6F894DEBFDB
:101300000FBECDBF8C01D62EFC018081882321F039
:101310006181683008F4CCDFF8018785882309F4FF
:101320007DC08085807309F46FC0803229F41382F8
:1013300014821582168205C0803119F4C801039603
:101340001AD5809129048111FCCFF801278181E011
:1013500080932904809328049FEF90932704109290
:101360002604809325048093040490910404822F22
:10137000880F892B8093040480910304813061F4E9
:1013800010920304809104048093BB008091BC0000
:1013900083FDF8CF85EC01C085EE8093BC00809181
:1013A00029048130E1F380912604823018F4909171
:1013B000260401C092E0A5E0B4E0E0EAF3E080E0BA
:1013C000891721F02D9121938F5FFACF10929B0303
:1013D00080939A038BEE94E0ADDDE12CF12CF82E96
:1013E0008BEE94E0A7DD9701282BAAE0B0E00E94E5
:1013F0008F186B5F7F4F8F4F9F4F2CE030E040E0A6
:1014000050E00E949E1802C020E030E0B90180E068
:1014100090E00E94FD174B015C0103C0812C912CD0
:101420005401F8012185328543855485C501B401F5
:101430000E94F917811102C0DD20B9F1F8018186FF
:101440009286A386B48692818081811107C081E053
:10145000933209F480E027E8F22E09C0F801F18008
:10146000F8E08F9FF00C11248F2D99E0F92EF80EE3
:10147000CE010196DFD8FF8285E28E83F801418597
:101480005285638574858C81877088628C838D8199
:10149000488759876A877B8791E09C871A82807189
:1014A000816E8D83CE010196A3D9A1960FB6F894D3
:1014B000DEBF0FBECDBFDF91CF911F910F91FF9087
:1014C000EF90DF90BF90AF909F908F900895089518
:1014D000CF92DF92EF92FF920F931F93CF93DF9300
:1014E0006C017A018B01C0E0D0E0CE15DF0581F000
:1014F000D8016D918D01D601ED91FC910190F081A3
:10150000E02DC6011995892B11F02196EECF7E01B1
:10151000C701DF91CF911F910F91FF90EF90DF9066
:10152000CF900895FC01538D448D252F30E0842FFA
:1015300090E0821B930B541710F0CF9608950197FB
:101540000895FC01918D828D981761F0828DDF01E5
:10155000A80FB11D5D968C91928D9F5F9F73928FA6
:1015600090E008958FEF9FEF0895FC01918D828D9B
:10157000981731F0828DE80FF11D858D90E0089568
:101580008FEF9FEF0895FC01918D228D892F90E0C0
:10159000805C9F4F821B91098F73992708958EE479
:1015A00094E0F1DF21E0892B09F420E0822F0895F7
:1015B000FC01848DDF01A80FB11DA35ABF4F2C91F0
:1015C000848D90E001968F739927848FA689B789BF
:1015D0002C93A089B1898C91837080648C93938DB6
:1015E000848D981306C00288F389E02D80818F7D59
:1015F00080830895EF92FF920F931F93CF93DF9311
:10160000EC0181E0888F9B8D8C8D981305C0E88953
:10161000F989808185FD25C0F62E0B8D10E00F5FC6
:101620001F4F0F731127E02E8C8DE8120BC00FB6E1
:1016300007FCFACFE889F989808185FFF5CFCE01D3
:10164000B7DFF2CF8B8DFE01E80FF11DE35AFF4F9C
:10165000F0829FB7F8940B8FEA89FB8980818062C2
:101660000AC09FB7F894EE89FF896083E889F989F9
:1016700080818370806480839FBF81E090E0DF91F0
:10168000CF911F910F91FF90EF900895CF93DF932B
:10169000EC01888D8823C1F0EA89FB89808185FD72
:1016A00005C0A889B9898C9186FD0EC00FB607FCCC
:1016B000F5CF808185FFF2CFA889B9898C9185FF0C
:1016C000EDCFCE0175DFE8CFDF91CF91089580E0B7
:1016D00090E0892B19F063DF811125C080E090E054
:1016E000892B41F080E090E0892B21F00E940000DE
:1016F00081111CC080E090E0892B41F080E090E0F7
:10170000892B21F00E940000811113C080E090E03D
:10171000892BA1F080E090E0892B81F00E940000ED
:1017200081110AC008950E940000D8CF0E940000D5
:10173000E1CF0E940000EACF0C94000008950E94BF
:10174000C818009761F0FC0101900020E9F731977B
:10175000AF01481B590BBC018EE494E0B9CE80E088
:1017600090E008958F3F11F09A0102C02EE432E01C
:10177000109205051092060580930A0560930905ED
:1017800080910805807E80930805B90184E095E08A
:101790000E94E4022DC8282F30914D04313208F008
:1017A0004AC0809129048111FCCF90914C0442E001
:1017B00040932904209328042FEF209327041092AC
:1017C000260430932504ECE2F4E0A5E0B4E020E048
:1017D000321721F041914D932F5FFACF10920404FC
:1017E00020910404990F922B909304049091030488
:1017F000913061F410920304909104049093BB0023
:101800009091BC0093FDF8CF95EC01C095EE9093BC
:10181000BC00909129049230E1F3909127049F3FFE
:1018200079F080912704803241F080912704803341
:1018300031F084E005C081E003C082E001C083E0B4
:1018400010922B0410924D0410922A04089590E0F7
:10185000FC01EE5BFC4F4491FC01E450FD4F2491F0
:10186000FC01EA54FD4F9491992309F466C0442386
:1018700009F455C050E0FA013197E231F10508F062
:101880004EC08827EE58FF4F8F4F0C94C0188091A0
:1018900080008F7707C0809180008F7D03C080918A
:1018A0008000877F809380003AC084B58F7702C024
:1018B00084B58F7D84BD33C08091B0008F7703C025
:1018C0008091B0008F7D8093B00029C080919000FE
:1018D0008F7707C0809190008F7D03C0809190002A
:1018E000877F809390001BC08091A0008F7707C0F6
:1018F0008091A0008F7D03C08091A000877F80939E
:10190000A0000DC0809120018F7707C08091200139
:101910008F7D03C080912001877F80932001E92F74
:10192000F0E0EE0FFF1FE456FD4FA591B4918FB785
:10193000F894EC91E22BEC938FBF08952FB7F894B5
:1019400060916C0570916D0580916E0590916F05A9
:101950002FBF08951F920F920FB60F9211242F934D
:101960003F938F939F93AF93BF9380916C0590911A
:101970006D05A0916E05B0916F0530916B0523E068
:10198000230F2D3720F40196A11DB11D05C026E8B7
:10199000230F0296A11DB11D20936B0580936C054A
:1019A00090936D05A0936E05B0936F0580916705C8
:1019B00090916805A0916905B0916A050196A11DF5
:1019C000B11D8093670590936805A0936905B09356
:1019D0006A05BF91AF919F918F913F912F910F9089
:1019E0000FBE0F901F9018951F920F920FB60F9277
:1019F00011240BB60F922F933F934F935F936F93E6
:101A00007F938F939F93AF93BF93EF93FF93E09157
:101A10000E02F0910F021995FF91EF91BF91AF91D6
:101A20009F918F917F916F915F914F913F912F91F6
:101A30000F900BBE0F900FBE0F901F9018951F9226
:101A40000F920FB60F9211240BB60F922F933F9364
:101A50004F935F936F937F938F939F93AF93BF93B6
:101A6000EF93FF93E0910C02F0910D021995FF9115
:101A7000EF91BF91AF919F918F917F916F915F9106
:101A80004F913F912F910F900BBE0F900FBE0F9073
:101A90001F9018951F920F920FB60F9211240BB63C
:101AA0000F922F933F934F935F936F937F938F93F7
:101AB0009F93AF93BF93EF93FF93E0910202F09156
:101AC00003021995FF91EF91BF91AF919F918F9173
:101AD0007F916F915F914F913F912F910F900BBE2E
:101AE0000F900FBE0F901F9018951F920F920FB678
:101AF0000F9211240BB60F922F933F934F935F9346
:101B00006F937F938F939F93AF93BF93EF93FF93C5
:101B1000E0910002F09101021995FF91EF91BF91C0
:101B2000AF919F918F917F916F915F914F913F9175
:101B30002F910F900BBE0F900FBE0F901F90189516
:101B40001F920F920FB60F9211240BB60F922F9384
:101B50003F934F935F936F937F938F939F93AF9335
:101B6000BF93EF93FF93E0910A02F0910B02199556
:101B7000FF91EF91BF91AF919F918F917F916F9165
:101B80005F914F913F912F910F900BBE0F900FBE21
:101B90000F901F9018951F920F920FB60F9211245D
:101BA0000BB60F922F933F934F935F936F937F9357
:101BB0008F939F93AF93BF93EF93FF93E0910802AE
:101BC000F09109021995FF91EF91BF91AF919F910B
:101BD0008F917F916F915F914F913F912F910F90D6
:101BE0000BBE0F900FBE0F901F9018951F920F9273
:101BF0000FB60F9211240BB60F922F933F934F9372
:101C00005F936F937F938F939F93AF93BF93EF9364
:101C1000FF93E0910602F09107021995FF91EF9171
:101C2000BF91AF919F918F917F916F915F914F91F4
:101C30003F912F910F900BBE0F900FBE0F901F90F2
:101C400018951F920F920FB60F9211240BB60F9298
:101C50002F933F934F935F936F937F938F939F93B4
:101C6000AF93BF93EF93FF93E0910402F0910502CD
:101C70001995FF91EF91BF91AF919F918F917F91B6
:101C80006F915F914F913F912F910F900BBE0F90ED
:101C90000FBE0F901F9018951F920F920FB60F92C4
:101CA00011240BB60F922F933F934F935F936F9333
:101CB0007F938F939F93AF93BF93EF93FF938EE4A4
:101CC00094E076DCFF91EF91BF91AF919F918F915E
:101CD0007F916F915F914F913F912F910F900BBE2C
:101CE0000F900FBE0F901F9018951F920F920FB676
:101CF0000F9211240BB60F922F938F939F93EF9314
:101D0000FF93E0915E04F0915F048081E0916404B0
:101D1000F091650482FD12C09081809167048F5F0D
:101D20008F7320916804821751F0E0916704F0E00E
:101D3000E25BFB4F958F8093670401C08081FF9128
:101D4000EF919F918F912F910F900BBE0F900FBE2F
:101D50000F901F901895FC01848191E090932A04C4
:101D600080934C0410922B0410924D048BEE94E05F
:101D700029D981E010CD0F931F93CF93DF93EC010E
:101D8000DDDD2D812370233029F004EB10E020E00D
:101D900030E004C008E110E020E030E0DC01CB01DD
:101DA000800F911FA21FB31F88839983AA83BB83CF
:101DB000DF91CF911F910F9108958091000590912F
:101DC0000105009791F0FC012089318930930105CC
:101DD000209300052DD28091FE049091FF0401977D
:101DE0009093FF048093FE04E8CF0895789484B51F
:101DF000826084BD84B5816084BD85B5826085BD07
:101E000085B5816085BD80916E00816080936E0094
:101E10001092810080918100826080938100809186
:101E20008100816080938100809180008160809337
:101E300080008091B10084608093B1008091B000F7
:101E400081608093B00080919100826080939100C6
:101E500080919100816080939100809190008160D9
:101E6000809390008091A10082608093A100809176
:101E7000A10081608093A1008091A0008160809387
:101E8000A000809121018260809321018091210135
:101E900081608093210180912001816080932001E5
:101EA00080917A00846080937A0080917A008260C9
:101EB00080937A0080917A00816080937A0080918B
:101EC0007A00806880937A001092C100A89580E023
:101ED00090E0892B11F00E940000E0915E04F091E7
:101EE0005F0482E08083E0915A04F0915B041082E9
:101EF000E0915C04F0915D0480E1808310926604BF
:101F0000E0916204F091630486E08083E0916004D4
:101F1000F0916104808180618083E0916004F091A0
:101F20006104808188608083E0916004F0916104A5
:101F3000808180688083E0916004F09161048081F9
:101F40008F7D80831F92CFEFCF938EE692E09F9399
:101F50008F930E94F106809199038D7F809399035E
:101F60000F900F900F900F9081E692E09F938F93C8
:101F70000E94F1060E945B020F900F9041E050E03A
:101F800063E071E088E993E00E945E181092050515
:101F900010920605C0930A058EE080930905809192
:101FA0000805807E8360809308056EE672E084E019
:101FB00095E00E94E4020E942F030E94EB0684E554
:101FC00092E09F938F930E94F1060F900F90809163
:101FD000990381FD10C081608093990388E292E0AB
:101FE0009F938F930E94F106809199038260809362
:101FF00099030F900F908CE392E09F938F930E9430
:10200000F106A8950F900F90A8950E94FF030E94DB
:10201000FA015DDBF9CFEEE4F4E01382128288EE80
:1020200093E0A0E0B0E084839583A683B7832AE1A0
:1020300032E03183208325EC30E03587248724EC9F
:1020400030E03787268720EC30E0318B208B21EC85
:1020500030E0338B228B22EC30E0358B248B26EC66
:1020600030E0378B268B118E128E138E148EEBEE92
:10207000F4E01382128284839583A683B7838CE273
:1020800092E09183808386E495E00E941A0385E2C2
:1020900095E00E941A0384E095E00E941A03E7EF9E
:1020A000F4E080E2868310861782128611861486F9
:1020B000138610828EE1818312821382148215822C
:1020C0000895EF920F931F93CF93DF93E80147FD9D
:1020D00002C034E001C034E1042E000C550B57FF60
:1020E00003C0519541955109E32E022F242FAE01D3
:1020F00072D4CE01DF91CF911F910F91EF9008958F
:102100000F931F93CF93DF938230910510F482E0F9
:1021100090E0E0917205F091730520E030E0A0E0DE
:10212000B0E0309719F14081518102811381481745
:102130005907C8F08417950769F4109731F0129683
:102140000C93129713961C9327C00093720510935B
:10215000730522C02115310519F04217530718F4F1
:102160009A01BD01EF01DF01F801DBCF2115310537
:10217000F9F0281B390B2430310580F48A819B81CA
:102180006115710521F0FB019383828304C0909354
:10219000730580937205FE01329644C0FE01E20F82
:1021A000F31F8193919322503109398328833AC0D8
:1021B0002091700530917105232B41F4209112027A
:1021C0003091130230937105209370052091100215
:1021D000309111022115310541F42DB73EB74091E0
:1021E000140250911502241B350BE0917005F091FB
:1021F0007105E217F307A0F42E1B3F0B28173907D0
:1022000078F0AC014E5F5F4F2417350748F04E0F52
:102210005F1F50937105409370058193919302C0A5
:10222000E0E0F0E0CF01DF91CF911F910F91089591
:10223000CF93DF93009709F481C0FC01329713829A
:102240001282A0917205B0917305109781F42081DC
:102250003181820F931F20917005309171052817ED
:10226000390751F5F0937105E093700567C0ED01F2
:1022700020E030E0CE17DF0740F44A815B819E0109
:1022800041155105F1F0EA01F5CFD383C2834081B6
:102290005181840F951FC817D90759F488819981F6
:1022A000840F951F0296918380838A819B819383FB
:1022B00082832115310529F4F0937305E0937205AB
:1022C0003DC0E901FB83EA8349915991C40FD51FB1
:1022D000EC17FD0761F480819181840F951F0296B0
:1022E000E90199838883828193819B838A83E0E0DB
:1022F000F0E012968D919C911397009719F0FD01D3
:10230000DC01F7CF8D919C9111979D012E5F3F4F7E
:10231000820F931F2091700530917105281739079E
:1023200069F4309729F4109273051092720502C077
:1023300013821282B0937105A0937005DF91CF9143
:102340000895FC0188279927E89421912032E9F328
:10235000293010F02E30C8F32B3239F02D3231F401
:10236000689403C085D0820F911D219120532A309B
:10237000C8F31EF4909581959F4F08951F93FC011B
:1023800099278827BC01E89411911032E9F319309C
:1023900010F01E30C8F31B3249F01D3241F468942E
:1023A00005C051D0610F711D811D911D11911053F8
:1023B0001A30B8F33EF490958095709561957F4FF3
:1023C0008F4F9F4F1F910895FA01A191B0810097FF
:1023D00019F41097E1F0CD01DC01CD010D90002042
:1023E00011F4C00113C0FB012191222319F0201523
:1023F000D9F7F3CFFB012191201519F41E92119604
:1024000006C02223C1F70D900020A1F7D001FA01E8
:10241000A193B0830895BB274A3031F4992322F465
:10242000BDE2909581959F4F4DC0BB272A3051F456
:10243000992342F4BDE290958095709561957F4F08
:102440008F4F9F4F1EC0592F482F372F262F660FB3
:10245000771F881F991F660F771F881F991F620FAC
:10246000731F841F951F660F771F881F991F08957C
:102470007AE0979F902D879F802D910D11240895CC
:10248000BB27FA01A62F6217710581059105330B51
:1024900030FB66F0AA27660F771F881F991FAA1FB7
:1024A000A21710F0A21B63953850A9F7A05DAA33BC
:1024B00008F0A95DA19336F7B111B1931082CA015A
:1024C000EEC4BB27FB015527AA27880F991FAA1F17
:1024D000A41710F0A41B83955051B9F7A05DAA333F
:1024E00008F0A95DA193009779F7B111B19311920A
:1024F000CB01D5C40F931F93CF93DF93CDB7DEB736
:102500002E970FB6F894DEBF0FBECDBF0E891F8980
:10251000888D998D2EE02C831A83098397FF02C042
:1025200080E090E801979E838D83AE01445E5F4F0B
:102530006A8D7B8DCE01019651D04D815E8157FD14
:102540000AC02F813885421753070CF49A01F8010D
:10255000E20FF31F10822E960FB6F894DEBF0FBE67
:10256000CDBFDF91CF911F910F9108950F931F93CE
:10257000CF93DF93CDB7DEB72E970FB6F894DEBFBB
:102580000FBECDBF8C01FA018EE08C831A830983C4
:1025900077FF02C060E070E8CB0101979E838D83D6
:1025A000A901BF01CE01019619D04D815E8157FD71
:1025B0000AC02F813885421753070CF49A01F8019D
:1025C000E20FF31F10822E960FB6F894DEBF0FBEF7
:1025D000CDBFDF91CF911F910F9108952F923F9220
:1025E0004F925F926F927F928F929F92AF92BF9223
:1025F000CF92DF92EF92FF920F931F93CF93DF93CF
:10260000CDB7DEB72B970FB6F894DEBF0FBECDBFA8
:102610006C017B018A01FC0117821682838181FF94
:10262000BFC1CE0101963C01F6019381F70193FDF4
:10263000859193FF81917F01882309F4ADC1853293
:1026400039F493FD859193FF81917F01853221F4C7
:10265000B60190E034D4E8CF912C212C312CFFE14D
:10266000F315D8F08B3279F038F4803279F0833278
:10267000A1F4232D20611DC08D3261F0803369F4F7
:10268000232D216016C0832D8260382EE32DE46057
:102690003E2E2AC0F32DF8601DC037FC2DC020ED62
:1026A000280F2A3040F08E32B9F436FC75C1232D44
:1026B0002064322E19C036FE06C08AE0989E200D96
:1026C0001124922E11C0EAE02E9E200D1124222EFC
:1026D000F32DF0623F2E08C08C3621F4832D8068E4
:1026E000382E02C0883641F4F70193FD859193FF9F
:1026F00081917F018111B3CF982F9F7D95549330A5
:1027000028F40C5F1F4F9FE399830DC0833631F08F
:10271000833771F0833509F055C020C0F8018081FE
:1027200089830E5F1F4F88248394912C530112C01C
:102730002801F2E04F0E511CF801A080B18036FE56
:1027400003C0692D70E002C06FEF7FEFC5019CD31D
:102750004C018201F32DFF773F2E15C0280122E0A6
:10276000420E511CF801A080B18036FE03C0692DD5
:1027700070E002C06FEF7FEFC5017BD34C01F32DFA
:10278000F0683F2E820133FC19C0822D90E088163C
:102790009906A0F4B60180E290E091D32A94F5CF97
:1027A000F50137FC859137FE81915F01B60190E01C
:1027B00086D321102A9421E0821A91088114910471
:1027C00079F7E1C0843611F0893639F5F80137FE22
:1027D00007C060817181828193810C5F1F4F08C0A7
:1027E00060817181072E000C880B990B0E5F1F4FC3
:1027F000F32DFF763F2E97FF09C090958095709539
:1028000061957F4F8F4F9F4FF0683F2E2AE030E059
:10281000A30191D3882E861844C0853731F4232D27
:102820002F7EB22E2AE030E025C0932D997FB92E5D
:102830008F36C1F018F4883579F0AEC0803719F0C2
:10284000883721F0A9C0E92FE061BE2EB4FE0DC08B
:10285000FB2DF460BF2E09C034FE0AC0292F26606C
:10286000B22E06C028E030E005C020E130E002C012
:1028700020E132E0F801B7FE07C0608171818281FA
:1028800093810C5F1F4F06C06081718180E090E0F2
:102890000E5F1F4FA3014FD3882E8618FB2DFF77A5
:1028A0003F2E36FE0DC0232D2E7FA22E891458F404
:1028B00034FE0BC032FC09C0832D8E7EA82E05C0CD
:1028C000B82CA32C03C0B82C01C0B92CA4FE0FC097
:1028D000FE01E80DF11D8081803321F49A2D997E4F
:1028E000A92E09C0A2FE06C0B394B39404C08A2DD9
:1028F000867809F0B394A3FC10C0A0FE06C0B21401
:1029000080F4280C922C9B180DC0B21458F4B60118
:1029100080E290E0D4D2B394F8CFB21418F42B181C
:1029200002C0982C212CA4FE0FC0B60180E390E0D9
:10293000C6D2A2FE16C0A1FC03C088E790E002C088
:1029400088E590E0B6010CC08A2D867851F0A1FE92
:1029500002C08BE201C080E2A7FC8DE2B60190E0EC
:10296000AED2891430F4B60180E390E0A8D29A94F4
:10297000F8CF8A94F301E80DF11D8081B60190E053
:102980009ED28110F6CF222009F44ECEB60180E20D
:1029900090E095D22A94F7CFF6018681978102C004
:1029A0008FEF9FEF2B960FB6F894DEBF0FBECDBF13
:1029B000DF91CF911F910F91FF90EF90DF90CF901B
:1029C000BF90AF909F908F907F906F905F904F904F
:1029D0003F902F9008958F929F92AF92BF92CF9287
:1029E000DF92EF92FF920F931F93CF93DF93CDB7B8
:1029F000DEB729970FB6F894DEBF0FBECDBF6A01D0
:102A0000122FB02E2BE3201720F0FF24F394F00EAA
:102A100002C02CE3F22E0F2D27E0AE014F5F5F4F77
:102A200050D1BC014981842F8970813031F0E1FCA3
:102A300006C0E0FE06C090E205C09DE203C09BE236
:102A400001C090E05E2D507143FF3CC0911102C067
:102A500083E001C084E0811718F4212F281B01C0F6
:102A600020E051110BC0F601822F30E2882319F0CB
:102A700031938150FBCFC20ED11C20E0992329F065
:102A8000D6019C93F60131966F01C6010396E2FED2
:102A90000AC03EE4D6013C9341E411964C93119751
:102AA00012963C9306C03EE6F601308341E6418330
:102AB0003283FC01322F40E2332309F442C04193B8
:102AC0003150FACF42FF44C0911102C083E001C0EF
:102AD00084E0811718F4212F281B01C020E0511138
:102AE0000BC0F601822F30E2882319F03193815018
:102AF000FBCFC20ED11C20E0992329F0D6019C9374
:102B0000F60131966F01C6010396E2FE0BC039E46F
:102B1000D6013C933EE411963C93119736E412960D
:102B20003C9307C039E6F60130833EE6318336E652
:102B30003283FC01322F40E2332319F041933150AC
:102B4000FBCFFC01E20FF11D10828EEF9FEFA6C0BC
:102B500021E030E0911102C020E030E016161706A7
:102B60001CF4FB01319602C0E1E0F0E02E0F3F1FA4
:102B7000BB2021F0EB2DF0E0319602C0E0E0F0E068
:102B80002E0F3F1FE12FF0E02E173F071CF4121B02
:102B9000212F01C020E08E2D887159F4F601822F7B
:102BA00030E2882319F031938150FBCFC20ED11C43
:102BB00020E0992329F0D6019C93F60131966F010C
:102BC00051110BC0F601822F90E3882319F09193E5
:102BD0008150FBCFC20ED11C20E00F2D060F9A8131
:102BE000342F307144FF03C0913309F401501016A3
:102BF00024F4093018F008E001C001E0AB0177FFD0
:102C000002C040E050E0FB01E41BF50BA1E0B0E0A6
:102C1000AC0FBD1FEA0FFB1F8EE2A82E4B01801ADE
:102C200091080B2D10E01195019511094F3FBFEF51
:102C30005B0721F4D601AC9211966D0164177507FC
:102C40002CF08416950614F4818101C080E3415074
:102C500051093196D60111967D014017510724F094
:102C6000D6018C936701E2CF6417750739F4963368
:102C700020F4953319F4311101C081E3F60180830A
:102C8000F701822F90E2882319F091938150FBCFB6
:102C9000F701E20FF11D108280E090E029960FB657
:102CA000F894DEBF0FBECDBFDF91CF911F910F9182
:102CB000FF90EF90DF90CF90BF90AF909F908F905C
:102CC0000895283008F027E03327DA01990F311DE5
:102CD00087FD916000966105710539F432602E5FC1
:102CE0003D9330E32A95E1F708959F3F30F0803817
:102CF0007105610509F03C5F3C5F3D93913008F040
:102D00008068911DDF93CF931F930F93FF92EF92F3
:102D1000192F987F9695E92F96959695E90FFF279D
:102D2000EE59FE4F99273327EE24FF24A701E70130
:102D300005900894079428F4360FE71EF81E491FE3
:102D4000511D660F771F881F991F0694A1F70590E4
:102D5000079428F4E70EF81E491F561FC11D770F70
:102D6000881F991F661F0694A1F70590079428F401
:102D7000F80E491F561FC71FD11D880F991F661FC8
:102D8000771F0694A1F70590079420F4490F561F6A
:102D9000C71FD81F990F661F771F881F0694A9F7B2
:102DA00084911095177041F0D695C7955795479522
:102DB000F794E7941A95C1F7E8E0F1E0689415906C
:102DC000159135916591959105907FE27395E11884
:102DD000F10A430B560BC90BD009C0F7E10CF11EE9
:102DE000431F561FC91FD01D7EF4703311F48A95FE
:102DF000E6CFE894015030F0080F0AF400270217DC
:102E000008F4202F2395022F7A3328F079E37D935D
:102E10002A95E9F710C07D932A9589F6069497952F
:102E20006795379517951794E118F10A430B560BE0
:102E3000C90BD00998F023957E9173957A3308F0E9
:102E400070E37C932013B8F77E9170617D9330F02E
:102E5000839571E37D9370E32A95E1F71124EF9058
:102E6000FF900F911F91CF91DF91992787FD90954A
:102E70000895FC010590615070400110D8F78095CD
:102E800090958E0F9F1F0895FC0161507040019036
:102E90000110D8F7809590958E0F9F1F0895DC0143
:102EA000FC01672F71917723E1F7329704C07C9181
:102EB0006D9370836291AE17BF07C8F308950F93A7
:102EC0001F93CF93DF93FB01238121FD03C08FEF7D
:102ED0009FEF2CC022FF16C0468157812481358187
:102EE0004217530744F4A081B1819D012F5F3F4FEA
:102EF000318320838C93268137812F5F3F4F378327
:102F0000268314C08B01EC01FB010084F185E02DC8
:102F10001995892BE1F6D80116968D919C911797FA
:102F2000019617969C938E931697CE01DF91CF91C1
:102F30001F910F910895FA01AA27283051F12031ED
:102F400081F1E8946F936E7F6E5F7F4F8F4F9F4F3D
:102F5000AF4FB1E03ED0B4E03CD0670F781F891F7F
:102F60009A1FA11D680F791F8A1F911DA11D6A0F4D
:102F7000711D811D911DA11D20D009F468943F9100
:102F80002AE0269F11243019305D3193DEF6CF01FF
:102F90000895462F4770405D4193B3E00FD0C9F7C5
:102FA000F6CF462F4F70405D4A3318F0495D31FD32
:102FB0004052419302D0A9F7EACFB4E0A695979585
:102FC000879577956795BA95C9F70097610571055B
:102FD00008959B01AC010A2E0694579547953795A5
:102FE0002795BA95C9F7620F731F841F951FA01DFF
:102FF000089540D008F481E00895E89409C097FB53
:103000003EF490958095709561957F4F8F4F9F4FBF
:103010009923A9F0F92F96E9BB279395F695879503
:1030200077956795B795F111F8CFFAF4BB0F11F4C6
:1030300060FF1BC06F5F7F4F8F4F9F4F16C088236D
:1030400011F096E911C0772321F09EE8872F762FA3
:1030500005C0662371F096E8862F70E060E02AF0E4
:103060009A95660F771F881FDAF7880F96958795D0
:1030700097F90895990F0008550FAA0BE0E8FEEFA5
:1030800016161706E807F907C0F012161306E4072C
:10309000F50798F0621B730B840B950B39F40A2625
:1030A00061F0232B242B252B21F408950A2609F403
:1030B000A140A6958FEF811D811D0895DC01CB01F4
:1030C000FC01F999FECF06C0F2BDE1BDF89A319638
:1030D00000B40D9241505040B8F70895DC01A40FA0
:1030E000B51F4150504040F0CB01840F951F2E91E9
:1030F00005D041505040D8F70895262FF999FECFBA
:1031000092BD81BDF89A019700B4021639F01FBA3A
:1031100020BD0FB6F894FA9AF99A0FBE0895A29FAF
:10312000B001B39FC001A39F700D811D1124911D9B
:10313000B29F700D811D1124911D0895A1E21A2ED8
:10314000AA1BBB1BFD010DC0AA1FBB1FEE1FFF1F4B
:10315000A217B307E407F50720F0A21BB30BE40B9B
:10316000F50B661F771F881F991F1A9469F76095E2
:103170007095809590959B01AC01BD01CF0108959C
:10318000EE0FFF1F881F8BBF0790F691E02D19945B
:1031900081E090E0F89418C0FB01DC0102C00190CE
:1031A0000D9241505040D8F70895FB01DC01415089
:1031B000504048F001900D920020C9F701C01D92C7
:1031C00041505040E0F7089511E0C5ECD1E000E037
:1031D00005C0802FFE01D4DF2196011DC63CD1071A
:0A31E00080E00807B1F7F894FFCF74
:1031EA00670A670A670A670A670A670A670A670A4D
:1031FA0000007405800000000000FA0A680A920ABA
:10320A00460BC30AA10AB50A00000000E207B60786
:10321A0011088A07AE079A078B07437A756A6E699F
:10322A006B20706F7A696F6D75206F003B00322ECC
:10323A00332E31004248313735302053656E736F73
:10324A0072204D616E6167657200312E30004761F0
:10325A007465776179207374617274757020636F15
:08326A006D706C6574652E00A7
:020000023000CC
:10E000000D9489F10D94B2F10D94B2F10D94B2F129
:10E010000D94B2F10D94B2F10D94B2F10D94B2F1F0
:10E020000D94B2F10D94B2F10D94B2F10D94B2F1E0
:10E030000D94B2F10D94B2F10D94B2F10D94B2F1D0
:10E040000D94B2F10D94B2F10D94B2F10D94B2F1C0
:10E050000D94B2F10D94B2F10D94B2F10D94B2F1B0
:10E060000D94B2F10D94B2F10D94B2F10D94B2F1A0
:10E070000D94B2F10D94B2F10D94B2F10D94B2F190
:10E080000D94B2F10D94B2F10D94B2F10D94B2F180
:10E090000D94B2F10D94B2F10D94B2F10D94B2F170
:10E0A0000D94B2F10D94B2F10D94B2F10D94B2F160
:10E0B0000D94B2F10D94B2F10D94B2F10D94B2F150
:10E0C0000D94B2F10D94B2F10D94B2F10D94B2F140
:10E0D0000D94B2F10D94B2F10D94B2F10D94B2F130
:10E0E0000D94B2F141546D656761323536300041AF
:10E0F000726475696E6F206578706C6F72657220DE
:10E1000073746B3530305632206279204D4C530099
:10E11000426F6F746C6F616465723E004875683F52
:10E1200000436F6D70696C6564206F6E203D200048
:10E130004350552054797065202020203D20005FF9
:10E140005F4156525F415243485F5F3D2000415658
:10E1500052204C696243205665723D20004743437C
:10E160002056657273696F6E203D20004350552024
:10E1700049442020202020203D20004C6F7720663D
:10E18000757365202020203D20004869676820665F
:10E190007573652020203D200045787420667573D6
:10E1A00065202020203D20004C6F636B2066757336
:10E1B000652020203D20004D617220203720323024
:10E1C000313300312E362E3800342E332E350056A2
:10E1D00023202020414444522020206F7020636F70
:10E1E00064652020202020696E73747275637469E1
:10E1F0006F6E2061646472202020496E74657272B3
:10E20000757074006E6F20766563746F7200726A49
:10E210006D702020006A6D70200057686174207056
:10E220006F72743A00506F7274206E6F7420737541
:10E2300070706F72746564004D7573742062652030
:10E2400061206C6574746572002000577269747483
:10E25000696E672045450052656164696E672045B7
:10E26000450045452065727220636E743D00504F35
:10E27000525400303D5A65726F2061646472003FF1
:10E280003D43505520737461747300403D454550C3
:10E29000524F4D207465737400423D426C696E6B41
:10E2A000204C454400453D44756D70204545505215
:10E2B0004F4D00463D44756D7020464C415348001B
:10E2C000483D48656C70004C3D4C69737420492F83
:10E2D0004F20506F72747300513D51756974005234
:10E2E0003D44756D702052414D00563D73686F7707
:10E2F00020696E7465727275707420566563746FF0
:10E30000727300593D506F727420626C696E6B00BD
:10E310002A0011241FBECFEFD1E2DEBFCDBF01E046
:10E320000CBF12E0A0E0B2E0EEE1FDEF03E00BBFB6
:10E3300002C007900D92A030B107D9F712E0A0E01B
:10E34000B2E001C01D92AE30B107E1F70F9460F367
:10E350000D948DFE01E20EBF0FEF0DBF11241FBE05
:10E360000D9460F30D9400F020E030E040ED57E0B4
:10E3700005C0FA013197F1F72F5F3F4F2817390792
:10E38000C0F308959C01260F311DC901A0E0B0E043
:10E390002F5F3F4FABBFFC018791882361F08093D3
:10E3A000C6008091C00086FFFCCF8091C0008064D1
:10E3B0008093C000EACF08958DE08093C6008091DD
:10E3C000C00086FFFCCF8091C00080648093C000B5
:10E3D0008AE08093C6008091C00086FFFCCF8091C8
:10E3E000C00080648093C00008950F94C2F10F9420
:10E3F000DCF10895FC019081992359F09093C600B7
:10E400008091C00086FFFCCF8091C0008064809323
:10E41000C0003196992379F70895282F982F929567
:10E420009F70892F805D8A3308F0895F8093C600D2
:10E430008091C00086FFFCCF8091C00080648093F3
:10E44000C000822F8F70982F905D9A3308F0995FEB
:10E450009093C6008091C00086FFFCCF8091C000E1
:10E4600080648093C00008959C01FB01853691056E
:10E470001CF46330710594F0C90164E670E00F94F8
:10E480002EFE605D7F4F6093C6008091C00086FFC6
:10E49000FCCF8091C00080648093C0002B30310598
:10E4A00014F43297B4F0C90164E670E00F942EFEC4
:10E4B0006AE070E00F942EFE605D7F4F6093C600AF
:10E4C0008091C00086FFFCCF8091C0008064809363
:10E4D000C000C9016AE070E00F942EFEC0968093E0
:10E4E000C6008091C00086FFFCCF8091C000806490
:10E4F0008093C00008951F93182F8EE692EE60E07F
:10E500000F94C2F11093C6008091C00086FFFCCF2B
:10E510008091C00080648093C0000F94DCF11F9153
:10E5200008952F923F924F925F926F927F928F92B7
:10E530009F92AF92BF92CF92DF92EF92FF920F9392
:10E540001F93DF93CF93CDB7DEB762970FB6F894E2
:10E55000DEBF0FBECDBF382E622ECA01DB015C01CB
:10E560006D01772420E2222E2E010894411C511CBB
:10E570008BC081E0A81680E0B80681E0C80680E084
:10E58000D80628F0C601AA27BB270F940DF2BB2797
:10E59000AD2D9C2D8B2D0F940DF28A2D0F940DF225
:10E5A0002092C6008091C00086FFFCCF8091C00001
:10E5B00080648093C0009DE29093C6008091C0006B
:10E5C00086FFFCCF8091C00080648093C0002092C1
:10E5D000C6008091C00086FFFCCF8091C00080649F
:10E5E0008093C00019828601750188249924A1E0D6
:10E5F0003A1651F03A1620F0B2E03B1661F409C029
:10E600000BBFF701779007C0C7010F9477FE782EF4
:10E6100002C0F7017080872D0F940DF22092C60082
:10E620008091C00086FFFCCF8091C0008064809301
:10E63000C000872D8052F401EF70F0708F3520F408
:10E64000E40DF51D708204C0E40DF51D8EE280839B
:10E650000894E11CF11C011D111D0894811C911CE2
:10E6600090E18916910409F0C2CF80E190E0A0E02A
:10E67000B0E0A80EB91ECA1EDB1E198AC2010F9493
:10E68000FAF10F94DCF16A94662009F072CF629679
:10E690000FB6F894DEBF0FBECDBFCF91DF911F91B3
:10E6A0000F91FF90EF90DF90CF90BF90AF909F9031
:10E6B0008F907F906F905F904F903F902F90089534
:10E6C0002F923F924F925F926F927F928F929F9282
:10E6D000AF92BF92CF92DF92EF92FF920F931F9370
:10E6E000DF93CF93CDB7DEB7CD53D1400FB6F894BB
:10E6F000DEBF0FBECDBF01E20EBF0FEF0DBF94B75F
:10E70000F894A89514BE80916000886180936000A1
:10E7100010926000789493FF05C0E0910002F091A0
:10E7200001021995279A2F9A8091C00082608093E8
:10E73000C00080E18093C40088E18093C1000000A4
:10E74000EE24FF24870144E0A42EB12CCC24DD2448
:10E7500024C0C5010197F1F70894E11CF11C011DCB
:10E76000111D21E2E2162EE4F20620E0020720E06D
:10E77000120718F031E0C32ED12CC801B70127ECE5
:10E780003BE140E050E00F9441FE611571058105C9
:10E79000910519F485B1805885B98091C00087FD35
:10E7A00003C0C114D104A9F2A6014F5F5F4FC25E3E
:10E7B000DE4F59834883CE51D140C25EDE4F8881FF
:10E7C0009981CE51D140019711F00D9410FEC05D9A
:10E7D000DE4F19821882C053D14060E0C15DDE4F28
:10E7E0001882CF52D14088249924C35DDE4F19820C
:10E7F0001882CD52D140C05EDE4F188219821A8233
:10E800001B82C052D140CE5CDE4F188219821A8220
:10E810001B82C253D140EE24FF2487010BBFF701B6
:10E8200007911691C45CDE4F19830883CC53D14005
:10E830000D940BFEC25EDE4F28813981CE51D1404E
:10E840002130310509F52091C600C25EDE4F1982E4
:10E850001882CE51D14022C02F5F3F4F4F4F5F4FA4
:10E86000213082E138078AE7480780E0580780F0C6
:10E87000C45CDE4FE881F981CC53D140EF5FFF4F9C
:10E8800019F0EE27FF27099420E030E040E050E047
:10E890008091C00087FFE0CF2091C600C35DDE4FAE
:10E8A00048815981CD52D1404F5F5F4FC35DDE4FEC
:10E8B00059834883CD52D140213209F063C64A3092
:10E8C000510508F05FC60894811C911C53E0851621
:10E8D000910409F059C600E010E018C081E280936D
:10E8E000C6008091C00086FFFCCF8091C00080648C
:10E8F0008093C0002F5F3F4F2931310579F70F9486
:10E90000DCF10F5F1F4F0530110519F020E030E0FA
:10E91000E5CF10920A0210920B0210920C02109294
:10E920000D02109206021092070210920802109235
:10E930000902109202021092030210920402109235
:10E9400005028FEE90EE60E00F94F5F180E191EE1C
:10E9500060E00F94C2F18091C00087FFFCCF9091DE
:10E96000C600903608F09F759032B8F09093C600BC
:10E970008091C00086FFFCCF8091C00080648093AE
:10E98000C000A0E2A093C6008091C00086FFFCCF2B
:10E990008091C00080648093C000983409F4D7C18E
:10E9A0009934B8F4923409F459C1933458F490333B
:10E9B00019F1903308F4E3C59F33A1F1903409F0C5
:10E9C000DEC5BDC0953409F470C1963409F0D7C5D1
:10E9D00098C1923509F42BC2933538F49C3409F46C
:10E9E000F5C1913509F0CBC518C2963509F445C279
:10E9F000993509F0C4C567C483E792EE62E00F94CD
:10EA0000F5F110920602109207021092080210927D
:10EA1000090210920A0210920B0210920C0210923C
:10EA20000D0213C18FE792EE62E00F94F5F18FEEC5
:10EA300090EE60E00F94F5F181E291EE60E00F94CA
:10EA4000C2F187EB91EE60E00F94F5F180E391EE77
:10EA500060E00F94C2F184EE90EE60E00F94F5F167
:10EA60008FE391EE60E00F94C2F186E090E061E008
:10EA700070E00F9434F20F94DCF18DE591EE60E0DC
:10EA80000F94C2F189EC91EE60E00F94F5F18EE401
:10EA900091EE60E00F94C2F183EC91EE60E00F9490
:10EAA000F5F18CE691EE60E00F94C2F18EE10F94E7
:10EAB0000DF288E90F940DF281E00F940DF20F949E
:10EAC000DCF18BE791EE60E00F94C2F119E0E0E039
:10EAD000F0E010935700E4918E2F0F940DF20F94F5
:10EAE000DCF18AE891EE60E00F94C2F1E3E0F0E03F
:10EAF00010935700E4918E2F0F940DF20F94DCF1D8
:10EB000089E991EE60E00F94C2F1E2E0F0E0109349
:10EB10005700E4918E2F0F940DF20F94DCF188EAE8
:10EB200091EE60E00F94C2F1E1E0F0E01093570045
:10EB30001491812F0F940DF20F94DCF107CF8BE825
:10EB400092EE62E00F94F5F18BE492EE60E00F94A8
:10EB5000F5F10F94DCF100E010E019C0C8016F2D51
:10EB60000F947FFEFF2031F489E492EE60E00F9471
:10EB7000C2F10BC0F092C6008091C00086FFFCCFAE
:10EB80008091C00080648093C0000F5F1F4FC80158
:10EB900081519F41A0E0B0E0ABBFFC01F790BAE229
:10EBA000FB1621F0E2E000301E07C1F60F94DCF105
:10EBB0000F94DCF187E592EE60E00F94F5F10F948D
:10EBC000DCF1CC24DD2400E010E01EC0C8010F946D
:10EBD00077FEF82E882331F489E492EE60E00F94FA
:10EBE000C2F10BC08093C6008091C00086FFFCCFAD
:10EBF0008091C00080648093C000FE1419F00894D6
:10EC0000C11CD11C0F5F1F4FC80181519F41A0E063
:10EC1000B0E0ABBFFC01E790FAE2EF1621F022E092
:10EC20000030120799F60F94DCF10F94DCF182E6C4
:10EC300092EE60E00F94C2F1C60161E070E00F94C3
:10EC400034F20F94DCF10F94DCF110920202109276
:10EC50000302109204021092050278CE89E992EE26
:10EC600062E00F94F5F1279A2F9A16C02F9880E052
:10EC700090E0E0EDF7E03197F1F7019684369105E9
:10EC8000C1F72F9A80E090E0E0EDF7E03197F1F7DF
:10EC9000019684369105C1F78091C00087FFE6CFC9
:10ECA0008091C00087FFFCCF64C485EA92EE62E0E9
:10ECB0000F94F5F140910202509103026091040219
:10ECC0007091050281E020E10F9491F2809102029F
:10ECD00090910302A0910402B091050280509F4FD1
:10ECE000AF4FBF4F8093020290930302A0930402A0
:10ECF000B093050280509041A040B04008F426CE69
:10ED0000A4CF83EB92EE62E00F94F5F140910602FE
:10ED100050910702609108027091090280E020E1A1
:10ED20000F9491F28091060290910702A09108023F
:10ED3000B091090280509F4FAF4FBF4F80930602A2
:10ED400090930702A0930802B0930902FFCD80ECD4
:10ED500092EE62E00F94F5F183E792EE60E00F949B
:10ED6000F5F18FE792EE60E00F94F5F18BE892EE0B
:10ED700060E00F94F5F189E992EE60E00F94F5F10F
:10ED800085EA92EE60E00F94F5F183EB92EE60E09D
:10ED90000F94F5F180EC92EE60E00F94F5F187ECC2
:10EDA00092EE60E00F94F5F188ED92EE60E00F9442
:10EDB000F5F18FED92EE60E00F94F5F18AEE92EEB0
:10EDC00060E00F94F5F183E093EEBDCD87EC92EE19
:10EDD00062E00F94F5F181E40F947BF282E40F94EA
:10EDE0007BF283E40F947BF284E40F947BF285E45E
:10EDF0000F947BF286E40F947BF287E40F947BF20E
:10EE000088E40F947BF28AE40F947BF28BE40F94F6
:10EE10007BF28CE40F947BF299CD88ED92EE62E068
:10EE20000F94F5F1772473948824992409C48FED05
:10EE300092EE62E00F94F5F140910A0250910B02BC
:10EE400060910C0270910D0282E020E10F9491F22A
:10EE500080910A0290910B02A0910C02B0910D02D8
:10EE600080509F4FAF4FBF4F80930A0290930B0289
:10EE7000A0930C02B0930D0269CD8AEE92EE62E08F
:10EE80000F94F5F184EE90EE60E00F94F5F18FECC5
:10EE900091EE60E00F94F5F1662477244301CC5D98
:10EEA000DE4F19821882C452D140D401C301B695F5
:10EEB000A79597958795CA5DDE4F88839983AA8326
:10EEC000BB83C652D140CC5DDE4FA881B981C4520C
:10EED000D1401196CC5DDE4FB983A883C452D14096
:10EEE000CD0162E070E00F9434F2B0E2B093C6005E
:10EEF0008091C00086FFFCCF8091C0008064809329
:10EF0000C000EDE2E093C6008091C00086FFFCCF18
:10EF10008091C00080648093C000F0E2F093C6004E
:10EF20008091C00086FFFCCF8091C00080648093F8
:10EF3000C000CA5DDE4FE880F9800A811B81C6529D
:10EF4000D140BB27A12F902F8F2D0F940DF2CA5DBA
:10EF5000DE4F8881C652D1400F940DF2B0E2FB2EF5
:10EF6000F092C6008091C00086FFFCCF8091C00067
:10EF700080648093C0000DE30093C6008091C000C0
:10EF800086FFFCCF8091C00080648093C00010E2B7
:10EF90001093C6008091C00086FFFCCF8091C00016
:10EFA00080648093C0008BBEF3012791C65DDE4F65
:10EFB0002883CA52D140A22EBB24CC24DD2408943D
:10EFC000611C711C811C911C8BBEF3018791282E42
:10EFD0003324442455240894611C711C811C911C09
:10EFE0008BBEF3013791C55DDE4F3883CB52D140E4
:10EFF0000894611C711C811C911C8BBEF30147910C
:10F00000C45DDE4F4883CC52D140ADEFEA2EAFEF66
:10F01000FA2EAFEF0A2FAFEF1A2F6E0C7F1C801E57
:10F02000911E142D032DF22CEE24EA0CFB1C0C1D5A
:10F030001D1D0F940DF220E22093C6008091C000A8
:10F0400086FFFCCF8091C00080648093C000C65DC5
:10F05000DE4F8881CA52D1400F940DF230E23093D6
:10F06000C6008091C00086FFFCCF8091C000806404
:10F070008093C000C45DDE4F8881CC52D1400F9494
:10F080000DF240E24093C6008091C00086FFFCCFA5
:10F090008091C00080648093C000C55DDE4F888190
:10F0A000CB52D1400F940DF250E25093C6008091A4
:10F0B000C00086FFFCCF8091C00080648093C000B8
:10F0C0008FEFE8168FEFF80680E0080780E018075A
:10F0D00031F484E092EE60E00F94C2F1DFC0D80119
:10F0E000C7018070907CA070B0708050904CA040A0
:10F0F000B040D1F52FEF3FE340E050E0E222F322B1
:10F1000004231523CA5DDE4FA880B980CA80DB8046
:10F11000C652D140AE0CBF1CC01ED11EAA0CBB1CD7
:10F12000CC1CDD1C8EE092EE60E00F94C2F1BB2798
:10F13000A12F902F8F2D0F940DF28E2D0F940DF285
:10F1400030E23093C6008091C00086FFFCCF8091F2
:10F15000C00080648093C0004EE34093C60080915D
:10F16000C00086FFFCCF87C08EE09EEFA0E0B0E03D
:10F17000E822F9220A231B239CE0E91694E9F90608
:10F1800090E0090790E0190709F088C0C45DDE4FE0
:10F19000A881CC52D140EA2EFF2400E010E0102FCD
:10F1A0000F2DFE2CEE24C55DDE4FB881CB52D14031
:10F1B000EB0EF11C011D111DD601C501817090706F
:10F1C000A070B070DC0199278827E80EF91E0A1F8D
:10F1D0001B1F20EF30E040E050E0A222B322C42207
:10F1E000D52241E1AA0CBB1CCC1CDD1C4A95D1F7F1
:10F1F000EA0CFB1C0C1D1D1D81E090E0A0E0B0E0BE
:10F20000282239224A225B2235E1220C331C441C7D
:10F21000551C3A95D1F7E20CF31C041D151D57013E
:10F220006801AA0CBB1CCC1CDD1C85E192EE60E0E1
:10F230000F94C2F1C801AA27BB270F940DF2BB2778
:10F24000A12F902F8F2D0F940DF28E2D0F940DF274
:10F2500090E29093C6008091C00086FFFCCF809121
:10F26000C00080648093C000AEE3A093C60080918C
:10F27000C00086FFFCCF8091C00080648093C000F6
:10F28000C601AA27BB270F940DF2BB27AD2D9C2DDD
:10F290008B2D0F940DF28A2D0F940DF20F94DCF14B
:10F2A000CC5DDE4FE881F981C452D140F99709F471
:10F2B0004DCBF4E0EF2EF12C012D112D6E0C7F1CA7
:10F2C000801E911EF2CD83E093EE62E00F94F5F183
:10F2D0008AE192EE60E00F94C2F18091C00087FF56
:10F2E000FCCF1091C6001F751093C6008091C0001E
:10F2F00086FFFCCF8091C00080648093C0000F9493
:10F30000DCF1812F81548A3108F036C1163409F4BA
:10F3100095C0173490F4133409F44EC0143430F40B
:10F320001134F1F0123409F01DC130C0143409F465
:10F3300059C0153409F016C16BC01A3409F4C4C0A1
:10F340001B3438F4173409F48FC0183409F00AC19B
:10F35000A1C01B3409F4D2C01C3409F003C1E8C0B9
:10F360008FEF81B90DC082B1809582B980E090E0C5
:10F37000E0EDF7E03197F1F70196883C9105C1F790
:10F380008091C00087FFEFCF12B8EFC08FEF84B934
:10F390000DC085B1809585B980E090E0E0EDF7E0A3
:10F3A0003197F1F70196883C9105C1F78091C00033
:10F3B00087FFEFCF15B8D9C08FEF87B90DC088B1DF
:10F3C000809588B980E090E0E0EDF7E03197F1F7C3
:10F3D0000196883C9105C1F78091C00087FFEFCF6F
:10F3E00018B8C3C08FEF8AB90DC08BB180958BB9A7
:10F3F00080E090E0E0EDF7E03197F1F70196883C8E
:10F400009105C1F78091C00087FFEFCF1BB8ADC059
:10F410008FEF8DB90DC08EB180958EB980E090E0F0
:10F42000E0EDF7E03197F1F70196883C9105C1F7DF
:10F430008091C00087FFEFCF1EB897C08FEF80BBD1
:10F440000DC081B3809581BB80E090E0E0EDF7E0F6
:10F450003197F1F70196883C9105C1F78091C00082
:10F4600087FFEFCF11BA81C08FEF83BB0DC084B38C
:10F47000809584BB80E090E0E0EDF7E03197F1F714
:10F480000196883C9105C1F78091C00087FFEFCFBE
:10F4900014BA6BC08FEF809301010FC080910201FD
:10F4A00080958093020180E090E0E0EDF7E03197F5
:10F4B000F1F70196883C9105C1F78091C00087FF64
:10F4C000EDCF1092020151C08FEF809304010FC065
:10F4D0008091050180958093050180E090E0E0ED4A
:10F4E000F7E03197F1F70196883C9105C1F78091DB
:10F4F000C00087FFEDCF1092050137C08FEF8093DA
:10F5000007010FC08091080180958093080180E079
:10F5100090E0E0EDF7E03197F1F70196883C910536
:10F52000C1F78091C00087FFEDCF109208011DC088
:10F530008FEF80930A010FC080910B01809580931B
:10F540000B0180E090E0E0EDF7E03197F1F70196F4
:10F55000883C9105C1F78091C00087FFEDCF1092E4
:10F560000B0103C085E292EEEEC98091C00087FFD7
:10F57000FCCF8091C600EAC988E392EEE4C98CE131
:10F5800091EEE1C988249924933011F1943028F444
:10F59000913089F09230B8F408C0953061F195301F
:10F5A000F0F0963009F048C043C02B3109F042C951
:10F5B00091E06BE13FC96227C15DDE4F2883CF52E6
:10F5C000D14092E037C9B22FA0E0622793E032C960
:10F5D000822F90E0A82BB92B622794E02BC92E3004
:10F5E00009F039C3622795E0C05DDE4F19821882A9
:10F5F000C053D1401FC9E1E0F0E0EC0FFD1FC05D3A
:10F60000DE4F08811981C053D140E00FF11F2083E4
:10F610000F5F1F4FC05DDE4F19830883C053D14079
:10F6200062270A171B0709F005C9D80196E002C92D
:10F63000261709F010C303C0973009F0FBC87724E0
:10F640009981933109F412C19431C8F4963009F4C8
:10F65000D8C0973050F4923009F406C1933009F4C1
:10F660006DC0913009F059C253C0913109F477C08F
:10F67000923108F0BBC0903109F04FC2F5C098310B
:10F6800009F487C0993150F4953109F4EFC09531F0
:10F6900008F4C6C1963109F040C2C2C19A3109F4DA
:10F6A0006CC09A3108F491C09B3109F45BC09D3164
:10F6B00009F033C29D81903359F48F81882311F46E
:10F6C0009EE11CC0813011F091E018C098E916C08D
:10F6D000892F807591F0903539F4E0E0F0E089E011
:10F6E0008093570094910AC0983539F4E3E0F0E034
:10F6F00089E080935700949101C090E01A821B82A8
:10F700008D818C831D829E831F8227E030E009C299
:10F710001A8288E08B8381E48C8386E58D8382E581
:10F720008E8389E48F8383E5888780E589878FE5E9
:10F730008A8782E38B872BE030E0F3C18A818139AD
:10F7400041F0823941F0803911F48FE005C080E04A
:10F7500003C082E001C08AE01A828B8344C0772410
:10F76000739482C08D81882311F48EE12CC0813086
:10F7700011F081E028C088E926C01A82E1E0F0E0BB
:10F7800089E08093570084918B831C8224E030E0D1
:10F79000C8C18B81803589F48C81883039F4E2E0EE
:10F7A000F0E089E08093570084910DC0E0E0F0E044
:10F7B00089E080935700849106C0E3E0F0E089E09F
:10F7C0008093570084911A82DFCF8D81836C99E0FA
:10F7D000E1E0F0E0082E90935700E89507B600FCB2
:10F7E000FDCF1A821B8223E030E09BC180EC8A832C
:10F7F000CE5CDE4F188219821A821B82C253D1401E
:10F800008EC18A8190E0A0E0B0E0582F44273327D2
:10F8100022278B8190E0A0E0B0E0DC0199278827C7
:10F82000282B392B4A2B5B2B8D8190E0A0E0B0E098
:10F83000282B392B4A2B5B2B8C8190E0A0E0B0E089
:10F84000BA2FA92F982F8827282B392B4A2B5B2BCF
:10F85000220F331F441F551FC05EDE4F288339839C
:10F860004A835B83C052D1401A8259C13A81C95C34
:10F87000DE4F3883C753D140CA5CDE4F1882C6536F
:10F88000D1408B81C82EDD24CA5CDE4F488159816E
:10F89000C653D140C42AD52A933109F082C0CE5C28
:10F8A000DE4F88819981AA81BB81C253D1408050AB
:10F8B000904CA340B04030F583E0CE5CDE4FE88052
:10F8C000F9800A811B81C253D140F70100935B008C
:10F8D00080935700E89507B600FCFDCFCE5CDE4F65
:10F8E000088119812A813B81C253D14000501F4FAA
:10F8F0002F4F3F4FCE5CDE4F088319832A833B8313
:10F90000C253D140C05EDE4F488159816A817B81FC
:10F91000C052D140DE011B9631E08C9111962C91A2
:10F9200011971296C75CDE4F2883C953D140C85C3B
:10F93000DE4F1882C853D14090E0C85CDE4FE881AA
:10F94000F981C853D1408E2B9F2B0C01FA01609393
:10F950005B0030935700E89511244E5F5F4F6F4F67
:10F960007F4F0EEFE02E0FEFF02ECE0CDF1CC114F8
:10F97000D10499F685E0C05EDE4F088119812A81A5
:10F980003B81C052D140F80120935B008093570027
:10F99000E89507B600FCFDCF81E180935700E8951C
:10F9A00035C0C05EDE4F88819981AA81BB81C0527B
:10F9B000D140B695A795979587957C018601ABE0D8
:10F9C000AA2EB12CAC0EBD1E0BC0D5016D915D01F0
:10F9D000C7010F947FFE0894E11CF11C01501040F8
:10F9E0000115110591F7A60160E070E0440F551F65
:10F9F000661F771FC05EDE4FE880F9800A811B8199
:10FA0000C052D1404E0D5F1D601F711F1A82C05E33
:10FA1000DE4F488359836A837B83C052D1407FC0C5
:10FA2000FA80C55CDE4FF882CB53D140C65CDE4F16
:10FA30001882CA53D1408B81C82EDD24C65CDE4FAC
:10FA400008811981CA53D140C02AD12A1A828981DA
:10FA5000BE016D5F7F4F843121F59601C05EDE4FA0
:10FA6000E880F9800A811B81C052D1400BBFF701A9
:10FA700087919691DB018C9311969C936E5F7F4FDB
:10FA8000D801C7010296A11DB11DC05EDE4F88835B
:10FA90009983AA83BB83C052D14022503040F1F6F3
:10FAA00036C0C05EDE4F288139814A815B81C052F9
:10FAB000D1400894C108D108760100E010E0089414
:10FAC000C11CD11C0894E11CF11C011D111DE20E8A
:10FAD000F31E041F151F21BDBB27A52F942F832FB5
:10FAE00082BD2F5F3F4F4F4F5F4FF89A80B5DB01CC
:10FAF0008D93BD012E153F054007510761F7C05E8C
:10FB0000DE4F288339834A835B83C052D1409601FC
:10FB10002D5F3F4FFB01108204C080EC8A8322E0FE
:10FB200030E08BE18093C6008091C00086FFFCCF5F
:10FB30008091C00080648093C000C15DDE4FF88179
:10FB4000CF52D140F093C6008091C00086FFFCCF19
:10FB50008091C00080648093C000432F3093C60022
:10FB60008091C00086FFFCCF8091C00080648093AC
:10FB7000C000922F2093C6008091C00086FFFCCF6A
:10FB80008091C00080648093C0008EE08093C600A6
:10FB90008091C00086FFFCCF8091C000806480937C
:10FBA000C00065E1C15DDE4FE880CF52D1406E25D7
:10FBB00069276427FE01319610C090819093C6009A
:10FBC0008091C00086FFFCCF31968091C000806498
:10FBD0008093C0006927215030402115310569F715
:10FBE0006093C6008091C00086FFFCCF8091C0006A
:10FBF00080648093C00085B1805885B9772081F4F6
:10FC0000C15DDE4F0881CF52D1400F5FC15DDE4F35
:10FC10000883CF52D14090E0A0E0B0E00D941AF4F8
:10FC200027982F9880E090E020ED37E0F901319798
:10FC3000F1F7019684369105C9F700008091C00064
:10FC40008D7F8093C00081E180935700E895EE2777
:10FC5000FF270994FFCF90E00D941AF497FB092E2B
:10FC600007260AD077FD04D02ED006D000201AF443
:10FC7000709561957F4F0895F6F7909581959F4F08
:10FC80000895A1E21A2EAA1BBB1BFD010DC0AA1FDD
:10FC9000BB1FEE1FFF1FA217B307E407F50720F0F5
:10FCA000A21BB30BE40BF50B661F771F881F991F70
:10FCB0001A9469F760957095809590959B01AC01B9
:10FCC000BD01CF010895AA1BBB1B51E107C0AA1FAC
:10FCD000BB1FA617B70710F0A61BB70B881F991FED
:10FCE0005A95A9F780959095BC01CD010895F99991
:10FCF000FECF92BD81BDF89A992780B50895262F31
:10FD0000F999FECF1FBA92BD81BD20BD0FB6F89400
:0EFD1000FA9AF99A0FBE01960895F894FFCF63
:040000033000E000E9
:00000001FF
