:1000000077C100000C947C0E0C94510E0C94260EBB
:100010000C94FB0D0C94D00D0C94A50D0C947A0D42
:100020000C944F0D96C1000094C1000092C10000D5
:100030000C94A70E8EC100008CC100008AC1000084
:1000400088C1000086C1000084C1000082C1000098
:1000500080C100007EC100007CC100000C94050D31
:1000600078C100000C94CF0C0C94A50C72C1000058
:1000700070C100006EC100006CC100006AC10000C8
:1000800068C1000066C1000064C1000062C10000D8
:1000900060C100005EC100005CC100005AC10000E8
:1000A00058C1000056C1000054C1000052C10000F8
:1000B00050C100004EC100004CC100004AC1000008
:1000C00048C1000046C1000044C1000042C1000018
:1000D00040C100003EC100003CC100003AC1000028
:1000E00038C1000000407A10F35A00A0724E18097F
:1000F0000010A5D4E80000E87648170000E40B548F
:10010000020000CA9A3B000000E1F505000080965D
:100110009800000040420F000000A086010000008F
:10012000102700000000E803000000006400000049
:1001300000000A00000000000100000000002C7612
:10014000D888DC674F0823DFC1DFAE59E1B1B7962D
:10015000E5E3E453C63AE651997696E8E6C284268A
:10016000EB898C9B62ED407C6FFCEFBC9C9F40F266
:10017000BAA56FA5F490055A2AF75C936B6CF967E2
:100180006DC11BFCE0E40D47FEF520E6B500D0EDA7
:10019000902E0300943577050080841E080000200F
:1001A0004E0A000000C80C333333330F986E1283AD
:1001B0001141EF8D2114893BE65516CFFEE6DB1881
:1001C000D1844B381BF77C1D901DA4BBE424203246
:1001D00084725E228100C9F124ECA1E53D272575DA
:1001E0003B25753B25753B25753B25753B25730ADE
:1001F00000005EBCE2613FDD83C29C7E20A3FD1F48
:1002000041009D23BE46DB65F88C11AF32CA57E929
:100210007400002200250028002B002E003100343D
:100220000002010000050108010B0100002100246B
:100230000027002A002D00300033000101000004D7
:100240000107010A01000020002300260029002CDC
:10025000002F003200000100000301060109010522
:10026000050505070508080808020202020A0A082F
:100270000804040404010101010101010103030355
:100280000303030303040707070C0C0C0C0C0C0CF2
:100290000C0202020206060606060606060B0B0BF9
:1002A0000B0B0B0B0B010210202008081020401034
:1002B000204080020102010804020101020408102A
:1002C0002040808040201008040201800402018048
:1002D0004020100804020108040201010204081071
:1002E000204080010204081020408000C60E5F12EA
:1002F00011241FBECFEFD1E2DEBFCDBF00E00CBFA7
:1003000013E0A0E0B2E0E2E3F7E300E00BBF02C0DD
:1003100007900D92A630B107D9F725E0A6E0B3E02B
:1003200001C01D92A438B207E1F711E0C7E7D1E0A0
:1003300000E006C021970109802FFE010E94391BB1
:10034000C637D10780E00807A9F70E94B80F0C94C0
:10035000881B56CEAF92BF92CF92DF92EF92FF9260
:100360000F931F93CF93DF936C017B018B01040FDD
:10037000151FEB015E01AE18BF08C017D10759F079
:100380006991D601ED91FC910190F081E02DC601BB
:100390001995892B79F7C501DF91CF911F910F91A5
:1003A000FF90EF90DF90CF90BF90AF900895FC0149
:1003B000538D448D252F30E0842F90E0821B930BCA
:1003C000541710F0CF96089501970895FC01918D70
:1003D000828D981761F0A28DAE0FBF2FB11D5D9673
:1003E0008C91928D9F5F9F73928F90E008958FEF15
:1003F0009FEF0895FC01918D828D981731F0828DC9
:10040000E80FF11D858D90E008958FEF9FEF08951F
:10041000FC01918D228D892F90E0805C9F4F821B83
:1004200091098F739927089581E294E0F1DF21E02B
:10043000892B09F420E0822F0895FC01A48DA80FD8
:10044000B92FB11DA35ABF4F2C91848D90E0019616
:100450008F739927848FA689B7892C93A089B18936
:100460008C91837080648C93938D848D981306C0D7
:100470000288F389E02D80818F7D80830895EF923B
:10048000FF920F931F93CF93DF93EC0181E0888F4E
:100490009B8D8C8D98131AC0E889F989808185FF1E
:1004A00015C09FB7F894EE89FF896083E889F989C0
:1004B00080818370806480839FBF81E090E0DF91C2
:1004C000CF911F910F91FF90EF900895F62E0B8D15
:1004D00010E00F5F1F4F0F731127E02E8C8D8E11D0
:1004E0000BC00FB607FCFACFE889F989808185FF38
:1004F000F5CFCE01A2DFF2CFEB8DEC0FFD2FF11D7A
:10050000E35AFF4FF0829FB7F8940B8FEA89FB897B
:1005100080818062D0CFCF93DF93EC01888D8823D8
:10052000B1F0AA89BB89E889F9898C9185FD03C05E
:10053000808186FD0CC00FB607FCF7CF8C9185FF3C
:10054000F2CF808185FFEDCFCE0177DFEACFDF915B
:10055000CF91089580E090E0892B21F065DF811133
:100560000E94000080E090E0892B49F080E090E05C
:10057000892B29F00E94000081110E94000080E078
:1005800090E0892B49F080E090E0892B29F00E94CF
:10059000000081110E94000080E090E0892B49F06A
:1005A00080E090E0892B29F00E94000081110C94DA
:1005B000000008953FB7F8948091190490911A04AF
:1005C000A0911B04B0911C0426B5A89B05C02F3F29
:1005D00019F00196A11DB11D3FBFBA2FA92F982F69
:1005E0008827BC01CD01620F711D811D911D42E064
:1005F000660F771F881F991F4A95D1F708958F922C
:100600009F92AF92BF92CF92DF92EF92FF926B01D7
:100610007C01D0DF4B015C01C114D104E104F10481
:10062000B1F0C8DF681979098A099B09683E7340EF
:100630008105910588F321E0C21AD108E108F1088B
:1006400088EE880E83E0981EA11CB11CE5CFFF90B8
:10065000EF90DF90CF90BF90AF909F908F900895D4
:100660000895DC0180E0615090F09D919827E92F7A
:10067000EF70F0E0EF50FE4F2491E92FE295EF701C
:10068000F0E0EF5FFD4FE491822F8E27ECCF0895CD
:10069000DC012C911196ED91FC91F8948181822BD3
:1006A00081839281322F30959323928387E090E06B
:1006B0000197F1F781818323818383E290E00197A1
:1006C000F1F790817894EFECF0E03197F1F7922315
:1006D00081E009F480E00895FC0190810180F281BD
:1006E000E02D292F209560FF14C0F8948281822389
:1006F00082838181892B8183A3E2B0E01197F1F796
:100700008281982B9283789487ED90E00197F1F79E
:100710000895F8948281822382838181892B818349
:10072000AFEFB0E01197F1F78281982B9283789424
:100730008FE090E0EBCFDF92EF92FF920F931F9349
:10074000CF93DF93EC01D62EE42E08E010E0FF24D7
:10075000F39461E08D2D8F2109F460E0CE01BCDFC0
:10076000FF0C01501109A9F7E11010C0F894E981BC
:10077000FA8191818881809589238183E981FA8139
:10078000928188818095892382837894DF91CF91AB
:100790001F910F91FF90EF90DF900895EF92FF92DD
:1007A0000F931F93CF93DF938C017B0140E065E5AE
:1007B000C2DFE70188E0E80EF11C699140E0C80162
:1007C000BADFCE15DF05C9F7DF91CF911F910F91E9
:1007D000FF90EF900895FC0190810180F281E02D5F
:1007E000F8948181292F20958223818378943DE795
:1007F00043E050E0315029F1DA011197F1F780819F
:100800008923C1F3F8948281822382838181892B99
:1008100081837894ABE7B7E01197F1F7F894818181
:1008200082238183A3E1B1E01197F1F780819823BE
:1008300081E009F080E07894E3E6F6E03197F1F7A3
:10084000089580E008956F927F928F929F92AF9269
:10085000BF92CF92DF92EF92FF920F931F93CF93AD
:10086000DF93EC017B018A018E819F81B4DF8111CE
:1008700002C090E032C0B7018E819F818FDF40E0DF
:100880006EEB8E819F8157DF7801680189E0C80E89
:10089000D11CAE80BF8088E0882E912C712C6624FC
:1008A0006394C501F5DE81117628660CE1E08E1AAD
:1008B0009108B9F7F70171927F01EC15FD0549F731
:1008C0008E819F8188DF8130A1F668E0C801C9DE92
:1008D00091E0F80120852813CCCF892FDF91CF91AB
:1008E0001F910F91FF90EF90DF90CF90BF90AF904E
:1008F0009F908F907F906F900895CF93DF9300D05B
:1009000000D000D0CDB7DEB7FB012081203191F0BF
:10091000AE014F5F5F4F97DF882331F08D818F33BA
:10092000A9F020F48F31A1F080E007C08F3521F0CD
:100930008F37D1F78CE001C08BE029960FB6F89481
:10094000DEBF0FBECDBFDF91CF9108958AE0F5CF16
:1009500089E0F3CF8F929F92AF92BF92CF92DF92B6
:10096000EF92FF920F931F93CF93DF938C017B0144
:10097000C4DFC82FD0E08823A1F0F80186819781D9
:100980002ADFB701F8018681978108DFF8014081ED
:1009900064E486819781CFDEF801D281D1110FC046
:1009A000D1E08D2FDF91CF911F910F91FF90EF90AC
:1009B000DF90CF90BF90AF909F908F900895C950D7
:1009C0006EEE72E0C33040F4EC2FF0E0EE0FFF1F4C
:1009D000E75EFD4F60817181F8018381882369F1B1
:1009E000808181112AC08FB7F89480901D04909067
:1009F0001E04A0901F04B09020048FBF6B01770FDE
:100A0000EE08FF08F8018681978142DE813041F2CD
:100A10002FB7F89480911D0490911E04A0911F049B
:100A2000B09120042FBF8C199D09AE09BF0988150C
:100A30009905AA05BB0530F3B3CF072E000C880B30
:100A4000990BDDDDAECFFC0190E080E068177907FF
:100A500060F0309751F08617970711F4CF01089591
:100A60000688F789E02D0196F1CF0895EF92FF9265
:100A70000F931F93CF93DF93C82F880FDD0B009147
:100A8000170510911805C8010197C817D907CCF4AC
:100A90002196E0901905F0901A050C171D0789F0B2
:100AA000BE01C701D0DFFC018785882341F08C2F70
:100AB000DF91CF911F910F91FF90EF9008952196B4
:100AC000ECCF80E0F5CF08950895BF92CF92DF92EA
:100AD000EF92FF920F931F93CF93DF93EC01B62E0B
:100AE000C72E8D85811104C0CE0175DE81110EC027
:100AF0001B861D861C8680E0DF91CF911F910F9190
:100B0000FF90EF90DF90CF90BF90089540E060EFAE
:100B1000CE0111DE01E0E12CD12C11E0CE01B8DDD7
:100B2000F82ECE01B5DD91E0F91218C0813099F5AB
:100B30001134F0F2DB86D11002C081E08D878B8109
:100B40008823B1F22396EB2DFC2DCF010896299135
:100B50002193E817F907D9F781E0CECFEE2DF0E029
:100B6000F8120FC08B851817A0F4DE01AE0FBF1F5F
:100B700013968C91802379F4F12C193008F41C879A
:100B8000D12EEC0FFD1F8381902F909589238383B5
:100B90000AC08113F1CFFE01EE0DF11D8381802B80
:100BA0008383FF24F3946F2DCE0196DD1F5F000F2A
:100BB00011F4E39401E087E08E1508F0AFCFB8CFD1
:100BC000FC0101900020E9F73197AF01481B590B58
:100BD000BC0181E294E0BECBCF93DF93F1DFEC0167
:100BE00081E392E0EDDF8C0F9D1FDF91CF9108959F
:100BF0008F929F92AF92BF92CF92DF92EF92FF922D
:100C00000F931F93CF93DF9300D000D01F921F92BA
:100C1000CDB7DEB76B018E010F5F1F4F9C01285FC0
:100C20003F4FF801DC014D91CD014193A217B3076D
:100C3000C9F776014801B8E08B0E911C84E3A82E19
:100C400082E0B82EF80181918F011F928F93BF929D
:100C5000AF92FF92EF920E94591BF2E0EF0EF11C4F
:100C60000F900F900F900F900F900F90081519058F
:100C700049F7D60150961C9228960FB6F894DEBF1D
:100C80000FBECDBFDF91CF911F910F91FF90EF90DD
:100C9000DF90CF90BF90AF909F908F900895DF929C
:100CA000EF92FF920F931F93CF93DF93CDB7DEB7F1
:100CB000AC970FB6F894DEBF0FBECDBF88E090E0D2
:100CC0000E9495128C0188E2D8018C938EEE1196C9
:100CD0008C9311978FEA12968C93129787E4139650
:100CE0008C9313978AE114968C93149786E115964A
:100CF0008C93159781E016968C93169786E217963B
:100D00008C938091170590911805F12CD12C181611
:100D100019060CF44EC0F801DE015796C80108967A
:100D200021912D93E817F907D9F78091CF048F5FB0
:100D30008093CF042CE632E03CA32BA38DA31EA20C
:100D40001FA218A61AA619A61CA61BA686E1FE01BC
:100D50007796DE01119601900D928A95E1F78AE16E
:100D600090E00E94951226E1FE013196DC0101908F
:100D70000D922A95E1F7FC01178A168A118E108EC2
:100D8000E0911B05F0911C05309709F050C090933D
:100D90001A058093190590931C0580931B0580917B
:100DA00017059091180501969093180580931705E3
:100DB00030C06F2D70E0809117059091180568176D
:100DC000790724F58091190590911A053CDEF80108
:100DD0009C01285F3F4FEE24E394DC015D91CD013F
:100DE00041915413E12C28173907B9F7EE2061F02F
:100DF000BE016F5F7F4FC801FBDE89E392E0E0DE5A
:100E0000CE010196E9DEDE2CF394D3CFDD2009F488
:100E100082CFAC960FB6F894DEBF0FBECDBFDF9188
:100E2000CF911F910F91FF90EF90DF900895DC011B
:100E30005996FC93EE935897978B868BACCF0F9374
:100E40001F93CF93DF93EC01E0E06115710551F042
:100E5000FB0101900020E9F73197E61BF70BE93120
:100E6000F10500F50E2F10E08B818770980193E05B
:100E7000220F331F9A95E1F7822B8B838C818F7120
:100E80008C83EE2329F0A801CE0107960E944A1B0D
:100E9000FE01E00FF11F1782CE01DF91CF911F916C
:100EA0000F910895E9E1DECF0F931F93CF93DF9366
:100EB000EC018C81829586958770A9F44B814695CB
:100EC0004695469550E0BE01695F7F4F8EE793E0FF
:100ED0000E944A1BEB81E695E695E695F0E0E25824
:100EE000FC4F108209C08130D9F58F814AE06EE74E
:100EF00073E090E00E9424148C812EE733E03F934E
:100F00002F939D811F929F9384FB992790F91F92A5
:100F10009F9387701F928F938E811F928F938981E9
:100F20001F928F938EED91E09F938F931F9288E78E
:100F30008F9386E093E09F938F930E94931486E0B3
:100F400093E03EDE8DB79EB742960FB6F8949EBFF3
:100F50000FBE8DBF81E0DF91CF911F910F9108955A
:100F6000823031F44AE06EE773E08F819885C2CF1A
:100F7000833041F44AE06EE773E08F8198850E94E8
:100F80007A14BACF843051F46F81788589859A8537
:100F90002AE04EE753E00E942E14AECF853051F484
:100FA0006F81788589859A852AE04EE753E00E9413
:100FB0005914A2CF873051F1AEE7B3E09E01295F0B
:100FC0003F4F40E0EB81E695E695E6954E1780F5BC
:100FD000B901F9018081082E000C990B54E0959518
:100FE00087955A95E1F78F708A30F0F4805D8C9385
:100FF0002F5F3F4FFB0180818F708A30B8F4805D96
:1010000011968C9311974F5F1296DCCF2B85293068
:1010100008F028E06F81788589859A850EE713E0CE
:1010200042E00E94781268CF895CE1CF895CE8CF0A
:10103000F0E0EE0FFF1F53CFFC012281211101C010
:1010400033CF80E0089510921E0510921F05809303
:1010500023056093220590912105907E90932105B0
:101060008F3F11F444E752E0BA018DE195E0E7DEED
:10107000E3CF2F923F924F925F926F927F928F9227
:101080009F92AF92BF92CF92DF92EF92FF920F9317
:101090001F93CF93DF93CDB7DEB761970FB6F89468
:1010A000DEBF0FBECDBF9091BF049923A9F19FB7BA
:1010B000F894C0901D04D0901E04E0901F04F0909E
:1010C00020049FBF4091C4045091C5046091C604A0
:1010D0007091C704C416D506E606F70668F040917D
:1010E000C8045091C9046091CA047091CB04C4161D
:1010F000D506E606F70648F5C092C404D092C504AA
:10110000E092C604F092C704C092C804D092C90409
:10111000E092CA04F092CB0461960FB6F894DEBF59
:101120000FBECDBFDF91CF911F910F91FF90EF9038
:10113000DF90CF90BF90AF909F908F907F906F90F7
:101140005F904F903F902F900895282E8091CD046E
:10115000882309F4ECC08091C1049091C204480F27
:10116000591F611D711D4C155D056E057F0508F049
:10117000DEC00091CC0410E0B80180911905909177
:101180001A0561DCFC018785882309F49DC08189EB
:10119000882309F499C0118AB801809119059091AA
:1011A0001A0551DCDC0150961C92A090D304B0903B
:1011B000D404B8018091190590911A0544DC8C0182
:1011C000AE014F5F5F4FBC01C5013DDB3090CC04E9
:1011D000A0901905B0901A05882309F458C06A81B7
:1011E00070E0762F6627770F770F770F2981B8E0A9
:1011F0002B9F90011124262B372BF8018081803101
:10120000D1F4688570E08F81AB01481B5109CA0198
:101210009695982F8827979587950E94121BCB014A
:101220004097B90153E0660F771F5A95E1F7607850
:101230009C01260F371F213854EE350744F1032D4A
:1012400010E0B901330F880B990B0E94CE1920E0F2
:1012500030E040E05CE30E942D1A2B013C01B80114
:10126000C501F1DB4C0120E030E04EEF52ECC30150
:10127000B2010E94C819882351F020E030E04AEA08
:1012800052E4C301B2010E94C8198111A5C0632DA7
:1012900070E0C501D8DBDC015496ED91FC913097EC
:1012A00009F019956091CC0470E080911905909136
:1012B0001A05C9DBBE016F5F7F4F9ADC8AE792E0B7
:1012C0007FDCCE01019688DC8091CC04209117054B
:1012D0003091180521503109821713060CF0F9C01E
:1012E000C5DB882309F418CF8093CC04C092C804CE
:1012F000D092C904E092CA04F092CB04082F10E007
:10130000B8018091190590911A059DDB21E0DC015F
:1013100051962C93A090D304B090D404B80180913E
:10132000190590911A058FDBBC01C50113DB809173
:10133000CD048111F1CE4091C00428EE33E0429FEC
:10134000C001439F900D1124092E000CAA0BBB0B6A
:101350004091C4045091C5046091C6047091C704C3
:10136000840F951FA61FB71F8C159D05AE05BF05E1
:1013700018F0222009F4D0CEC092C404D092C50443
:10138000E092C604F092C704C092C804D092C90487
:10139000E092CA04F092CB048FEF68DB8093CC0418
:1013A000FF24F394F092CD04082F10E0B80180914F
:1013B000190590911A0547DBFC01F18AE090D304EE
:1013C000F090D404B8018091190590911A053BDB87
:1013D000BC01C701BFDAA0CE8091BE04882361F0B2
:1013E000A3019201F40160857185828593850E9435
:1013F000C819882309F45FC0D4011E968C9180938C
:10140000DB04B801C5011FDBFC0140855185628505
:1014100073858091D804877088628093D804809106
:10142000D9044093DC045093DD046093DE04709390
:10143000DF0491E09093E0041092D6048071816EF5
:101440008093D90485ED94E0F7DD8091D004882362
:1014500009F1A0901905B0901A05B801C501F3DA99
:10146000DC011E968C918093FC04B801C501EBDA77
:10147000BE016F5F7F4FBCDBBE016F5F7F4F86EFAA
:1014800094E0DDDCFC0111829481907F9160948373
:10149000CF01D2DD6091CC0470E08091190590916C
:1014A0001A05D1DADC015296ED91FC91309719F0D2
:1014B000C301B20119956091CC0470E080911905C7
:1014C00090911A05C0DAFC014086518662867386C7
:1014D000FBCE1092CD042BCF80E0CBCD8F929F928C
:1014E000AF92BF92CF92DF92EF92FF920F931F9332
:1014F000CF93DF93CDB7DEB769970FB6F894DEBF11
:101500000FBECDBF10921E0510921F051FEF109346
:1015100023058BE08093220580912105807E8360E6
:101520008093210561E972E08DE195E088DC84DD3E
:1015300010921E0510921F05109323058CE08093D6
:10154000220580912105807E83608093210568EAD1
:1015500072E08DE195E073DC6FDD8091170590916D
:10156000180518161906D4F410E0612F70E0809168
:101570001705909118056817790784F4809119056B
:1015800090911A0560DADC011C964D915C911D97D3
:1015900066E01E968C9157DD1F5FE7CF809117059F
:1015A00090911805892BA9F41092BF0469960FB683
:1015B000F894DEBF0FBECDBFDF91CF911F910F9189
:1015C000FF90EF90DF90CF90BF90AF909F908F9063
:1015D00008950091D3041091D404D8011696ED918A
:1015E000FC9117971386158614861286118610862D
:1015F0001782168215821482138214961C921497F5
:1016000015961C92FF24F394BE016F5F7F4FF80183
:10161000868197815ADA882309F45BC067E0CE019E
:1016200001961FD898858913EFCFD8018C9181112D
:1016300020C016968D919C91CED8BE016F5F7F4FD2
:10164000F80186819781AAD840E064EBD80116960C
:101650008D919C9170D8F8018681978119D8E82ED8
:10166000D80116968D919C91B6D8E11002C0F80170
:10167000F082D8011196EC90BE016F5F7F4FC801D8
:101680003CD98E15D0F4F8018181D80111968C9344
:10169000119714968C9114978F5F14968C9389816F
:1016A000883231F080F4803119F0823209F0ACCF09
:1016B000F80185818F5F8583A7CFBE016F5F7F4F64
:1016C000C8011BD9E2CF8B3399F3823409F09CCF48
:1016D000EFCF0091D3041091D4048CE0D80111967F
:1016E0008C93D12CC12C2FE5B22E3FE7A32E4FE1D6
:1016F000942E5FE3852EF80184818C151D0409F07A
:101700000CF4C3C0EC2C0680F781E02D13861586FF
:10171000148612861186108617821682158214820C
:101720001382F12CBE016E5E7F4FD80116968D910B
:101730009C91CBD9882329F0EF1469F1F394EF142D
:1017400088F7F801F180FCE0FF1570F59CE0F92EB8
:10175000BE016E5E7F4FC801D0D88F1509F48DC0D1
:10176000AE014F5F5F4FBE016E5E7F4FC8016BD809
:10177000882309F482C08A89803109F47EC0ABE0F5
:10178000FA1609F47EC0BCE0FB16A1F0EAE0FE12F6
:101790007AC08D8210C067E0CE0142960E9431036C
:1017A000998D8913CBCFCDCF89E0F81688F689E0E3
:1017B000F82ECECFAD82D80116968D919C910BD884
:1017C000BE016E5E7F4FF801868197810E94CE0335
:1017D00040E06EE4D80116968D919C910E949B0387
:1017E00040E06B81F801868197810E949B0340E075
:1017F0006C81D80116968D919C910E949B038A89D9
:10180000803139F040E06D81F801868197810E9436
:101810009B03D80116968D919C910E94EB03BE010B
:101820006E5E7F4FF801868197810E94CE03D801BA
:101830004C9168E416968D919C910E949B0364E103
:1018400070E080E090E00E94FF02F8018081882330
:1018500031F06AE070E080E090E00E94FF02D80181
:1018600016968D919C910E94EB03F80181818F1552
:1018700008F48F2DD80111968C93BFEFCB1ADB0A99
:101880003ACFBD8298CF9D8296CFE091D304F0915C
:10189000D4041282F12CEE24E3940F2D10E08091F9
:1018A000170590911805081719070CF043C0C09050
:1018B000D304D090D404B8018091190590911A05F1
:1018C000C2D8AE014F5F5F4FBC01C6010E94230426
:1018D0002091190530911A05B801882331F0C9010A
:1018E000B2D8FC01E786F394D8CFC901ACD8DC01AB
:1018F0001F961C926091CC0470E080911905909124
:101900001A05A1D8DC015496ED91FC91309709F0AD
:101910001995B8018091190590911A0594D8BE01C6
:101920006F5F7F4F65D98CEA92E04AD9CE0101966C
:1019300053D9D9CF81E08093BF049BDB37CE43E3FB
:1019400052E061E18FEF7FDBC9CD1F920F920FB69E
:101950000F9211240BB60F922F933F934F935F93E7
:101960006F937F938F939F93AF93BF93EF93FF9367
:1019700081E294E00E941D02FF91EF91BF91AF912F
:101980009F918F917F916F915F914F913F912F9197
:101990000F900BBE0F900FBE0F901F9018951F92C7
:1019A0000F920FB60F9211240BB60F922F938F93B5
:1019B0009F93EF93FF93E0913104F0913204808183
:1019C000E0913704F091380482FD1DC09081809130
:1019D0003A048F5F8F7320913B04821741F0E091AE
:1019E0003A04F0E0EF5DFB4F958F80933A04FF914E
:1019F000EF919F918F912F910F900BBE0F900FBE83
:101A00000F901F9018958081F2CF1F920F920FB602
:101A10000F9211242F933F938F939F93AF93BF9374
:101A200080911D0490911E04A0911F04B091200488
:101A30003091180423E0230F2D3758F50196A11D8E
:101A4000B11D2093180480931D0490931E04A0934D
:101A50001F04B09320048091190490911A04A0915E
:101A60001B04B0911C040196A11DB11D80931904A3
:101A700090931A04A0931B04B0931C04BF91AF91E0
:101A80009F918F913F912F910F900FBE0F901F90BC
:101A9000189526E8230F0296A11DB11DD2CF1F92E3
:101AA0000F920FB60F9211240BB60F922F933F9304
:101AB0004F935F936F937F938F939F93AF93BF9356
:101AC000EF93FF93E0911102F09112021995FF91AB
:101AD000EF91BF91AF919F918F917F916F915F91A6
:101AE0004F913F912F910F900BBE0F900FBE0F9013
:101AF0001F9018951F920F920FB60F9211240BB6DC
:101B00000F922F933F934F935F936F937F938F9396
:101B10009F93AF93BF93EF93FF93E0910F02F091E8
:101B200010021995FF91EF91BF91AF919F918F9105
:101B30007F916F915F914F913F912F910F900BBECD
:101B40000F900FBE0F901F9018951F920F920FB617
:101B50000F9211240BB60F922F933F934F935F93E5
:101B60006F937F938F939F93AF93BF93EF93FF9365
:101B7000E0910502F09106021995FF91EF91BF9156
:101B8000AF919F918F917F916F915F914F913F9115
:101B90002F910F900BBE0F900FBE0F901F901895B6
:101BA0001F920F920FB60F9211240BB60F922F9324
:101BB0003F934F935F936F937F938F939F93AF93D5
:101BC000BF93EF93FF93E0910302F0910402199504
:101BD000FF91EF91BF91AF919F918F917F916F9105
:101BE0005F914F913F912F910F900BBE0F900FBEC1
:101BF0000F901F9018951F920F920FB60F921124FD
:101C00000BB60F922F933F934F935F936F937F93F6
:101C10008F939F93AF93BF93EF93FF93E0910D0248
:101C2000F0910E021995FF91EF91BF91AF919F91A5
:101C30008F917F916F915F914F913F912F910F9075
:101C40000BBE0F900FBE0F901F9018951F920F9212
:101C50000FB60F9211240BB60F922F933F934F9311
:101C60005F936F937F938F939F93AF93BF93EF9304
:101C7000FF93E0910B02F0910C021995FF91EF9107
:101C8000BF91AF919F918F917F916F915F914F9194
:101C90003F912F910F900BBE0F900FBE0F901F9092
:101CA00018951F920F920FB60F9211240BB60F9238
:101CB0002F933F934F935F936F937F938F939F9354
:101CC000AF93BF93EF93FF93E0910902F0910A0263
:101CD0001995FF91EF91BF91AF919F918F917F9156
:101CE0006F915F914F913F912F910F900BBE0F908D
:101CF0000FBE0F901F9018951F920F920FB60F9264
:101D000011240BB60F922F933F934F935F936F93D2
:101D10007F938F939F93AF93BF93EF93FF93E09144
:101D20000702F09108021995FF91EF91BF91AF91D1
:101D30009F918F917F916F915F914F913F912F91E3
:101D40000F900BBE0F900FBE0F901F9018951F9213
:101D50000F920FB60F9211240F900FBE0F901F908D
:101D60001895CF93DF93FC011082118212821482A6
:101D700015821682DC0117968AE1ED0119928A9587
:101D8000E9F782E08383DF91CF9108950F931F934A
:101D9000CF93DF93109224041092230488EE93E0F3
:101DA000A0E0B0E08093250490932604A09327043C
:101DB000B093280483E292E090932204809321045C
:101DC00085EC90E090932E0480932D0484EC90E0B9
:101DD0009093300480932F0480EC90E09093320431
:101DE0008093310481EC90E0909334048093330429
:101DF00082EC90E0909336048093350486EC90E07A
:101E0000909338048093370410923A0410923B0464
:101E100010923C0410923D048FE595E0A2DF8EE322
:101E200095E09FDF8DE195E09CDF1092BE0486E88F
:101E30008093CE048093CF0485ED94E092DFC1E0DF
:101E4000C093DB041092DA0486EF94E08ADFC0933B
:101E5000FC048AE28093FB04109218051092170587
:101E600010921A051092190510921C0510921B056C
:101E70001092BF0486E08093C0048CED95E09093AF
:101E8000C2048093C10484E08093C3048EE090E098
:101E90004CD3EC0149EA52E0FA01649183E692E006
:101EA000FC0124912223C9F030E0220F331FF901F5
:101EB000E55DFD4FA591B491F901EF5EFD4F0591F0
:101EC00014917FB7F8943C91262F209532233C93B0
:101ED000F8013081232320837FBFFA014491488396
:101EE000FC018491E82FF0E0EE0FFF1FEB5BFD4F4C
:101EF000859194919A8389831B861D861C861A86F8
:101F0000198618861F821E821D821C821B82D09316
:101F1000D204C093D10484E190E007D3FC01D783BD
:101F2000C68314821582108289E0818381E08283D6
:101F30008383138A128AF093D404E093D30410921B
:101F4000C4041092C5041092C6041092C7041092E3
:101F5000C8041092C9041092CA041092CB041092C3
:101F6000CD048093D004DF91CF911F910F910895FC
:101F7000CF93DF93CDB7DEB76B970FB6F894DEBF84
:101F80000FBECDBF789484B5826084BD84B5816076
:101F900084BD85B5826085BD85B5816085BD809134
:101FA0006E00816080936E001092810080918100AC
:101FB00082608093810080918100816080938100A4
:101FC000809180008160809380008091B100846066
:101FD0008093B1008091B00081608093B0008091C7
:101FE0009100826080939100809191008160809344
:101FF0009100809190008160809390008091A10079
:1020000082608093A1008091A10081608093A100F3
:102010008091A00081608093A00080912101826066
:102020008093210180912101816080932101809121
:10203000200181608093200180917A0084608093E8
:102040007A0080917A00826080937A0080917A0091
:10205000816080937A0080917A00806880937A0012
:102060001092C100A89580E090E0892B11F00E94A9
:102070000000E0913104F091320482E08083E0912D
:102080002D04F0912E041082E0912F04F091300481
:1020900080E1808310923904E0913504F091360498
:1020A00086E08083E0913304F09134048081806184
:1020B0008083E0913304F0913404808188608083D0
:1020C000E0913304F0913404808180688083E09152
:1020D0003304F091340480818F7D808380911704D4
:1020E0008D7F809317040E944F0641E050E063E02B
:1020F00071E086E194E00E94E11A10921E051092B0
:102100001F058FEF809323058EE080932205809139
:102110002105807E83608093210569EE72E08DE168
:1021200095E00E941F070E94540709DC8091170464
:1021300081FD04C08160826080931704A895992472
:102140009A947BE1872EE3E27E2EF0E0CF2EF0E042
:10215000DF2EA89581E294E00E940802892B09F401
:10216000AEC081E294E00E94E6019091150493369E
:1021700008F028C1E92FF0E0EF54FC4F8A3009F055
:102180001CC11082AE01465E5F4F63E073E081EBDD
:1021900093E033D300E0F12CE12C10E0A12CB12C22
:1021A000009709F486C026E0E216F10409F48BC01A
:1021B00023E0E216F10409F44BC0BCF421E0E2167E
:1021C000F104B9F122E0E216F104B9F1D3D280931F
:1021D00061058FEFE81AF80AAE01465E5F4F63E0D3
:1021E00073E090E080E009D3DBCF24E0E216F10455
:1021F00009F43DC025E0E216F10441F7FC0104308A
:1022000009F045C08081882321F38A33A4F58053E7
:102210008295807F91819A33A4F59053A1E0B0E03C
:10222000AC0FBD1FA10FB11D890F8C931F5F32969C
:10223000E9CFA0D280936505CCCF9CD2082F8091A6
:102240006305887F902F9770892B80936305C1CF9A
:1022500020916305622EE89463F88CD2892B29F0D3
:1022600088E0682A60926305B4CF80E0FACF82D21A
:1022700080936405AECF813614F08755C9CF87535C
:10228000C7CF913614F09755C9CF9753C7CF019058
:102290000020E9F7E81BE250E80FF92FF11D20813B
:1022A0002D3009F4108220812A3009F410825C015B
:1022B00090CF25E0E216F10434F4109215040CD905
:1022C0000E94AA0246CF1092600510925F0580918D
:1022D00063058F7E80936305043009F068C01A316E
:1022E00008F019E1909162059770412F50E09A0132
:1022F00063E0220F331F6A95E1F7922B90936205FA
:102300008F71806C80936305BE016F5F7F4F86E69F
:1023100095E00E94411B1092150481E2EFE5F5E083
:10232000AEE3B5E001900D928A95E1F7109140057A
:102330001111C5CF8091420583FF17C091E2EEE3F2
:10234000F5E0ADE1B5E001900D929A95E1F7877F58
:1023500080618093210510921E0580913F05809336
:102360001F058DE195E00E94540780914205982F4A
:102370009770933009F0A3CF90914305923029F5DF
:1023800010921E0510921F0590922305909322052E
:1023900080912105807E83608093210564E772E04F
:1023A0008DE195E00E941F070E94540788CFB50178
:1023B0008FE595E00E941F07AECF80839F5F9093CB
:1023C0001504C8CE10921504C5CE00913F05011129
:1023D0004AC09D3059F488E198E00FB6F894A8956A
:1023E000809360000FBE90936000FFCF9B3109F493
:1023F00066CF963099F49091450581E0992319F0C4
:102400009D3409F080E08093160441E050E063E0E1
:1024100071E086E194E00E94F11A51CF933111F4FA
:102420008EDA4DCF913009F04ACFC114D10409F4AE
:1024300046CF829586958770853059F46091450521
:102440007091460580914705909148050E940000D3
:1024500036CF811104C085E495E0A9D1F7CF60E0C3
:1024600070E0CB01F3CF9A3109F029CF82958695A0
:1024700087708130E9F41091450510921E05009394
:102480001F05909223058092220580912005877078
:102490008860809320057092210581E0123008F455
:1024A00080E0809324058DE195E00E941C0807CF11
:1024B0008111E3CF85E495E05DD1182FDECF8091C7
:1024C000190590911A05009791F0FC01268937892A
:1024D00030931A0520931905C4D080911705909167
:1024E000180501979093180580931705E8CF089574
:1024F000EF920F931F93CF93DF93E80134E047FDF2
:1025000034E1042E000C550B57FF03C05195419543
:102510005109E32E022F242FAE0136D4CE01DF91D4
:10252000CF911F910F91EF9008950F931F93CF9329
:10253000DF938230910510F482E090E0E091820513
:10254000F091830530E020E0B0E0A0E0309799F40E
:102550002115310509F44AC0281B390B24303105F7
:10256000D8F58A819B816115710589F1FB019383FF
:102570008283FE0111C0408151810281138148177D
:102580005907E0F04817590799F4109761F012962F
:102590000C93129713961C933296CF01DF91CF9133
:1025A0001F910F9108950093820510938305F4CF36
:1025B0002115310551F04217530738F0A901DB010D
:1025C0009A01BD01DF01F801C1CFEF01F9CF90936E
:1025D000830580938205CDCFFE01E20FF31F819327
:1025E00091932250310939832883D7CF20918005D8
:1025F00030918105232B41F4209115023091160270
:1026000030938105209380052091130230911402AC
:102610002115310541F42DB73EB740911702509175
:102620001802241B350BE0918005F0918105E2171B
:10263000F307A0F42E1B3F0B2817390778F0AC01E5
:102640004E5F5F4F2417350748F04E0F5F1F5093C2
:10265000810540938005819391939FCFF0E0E0E066
:102660009CCFCF93DF930097E9F0FC013297138260
:102670001282A0918205B0918305ED0130E020E047
:102680001097A1F420813181820F931F2091800542
:10269000309181052817390709F061C0F093810551
:1026A000E0938005DF91CF910895EA01CE17DF070F
:1026B000E8F54A815B819E0141155105B1F7E901B9
:1026C000FB83EA8349915991C40FD51FEC17FD078D
:1026D00061F4808191810296840F951FE9019983AD
:1026E0008883828193819B838A83F0E0E0E0129665
:1026F0008D919C9113970097B9F52D913C9111976D
:10270000CD010296820F931F2091800530918105A3
:102710002817390739F6309751F510928305109232
:102720008205B0938105A0938005BCCFD383C2837B
:1027300040815181840F951FC817D90761F44E5FFE
:102740005F4F88819981480F591F518340838A8147
:102750009B81938382832115310509F0B0CFF093DB
:102760008305E09382059ECFFD01DC01C0CF13827B
:102770001282D7CFFC0188279927E8942191203233
:10278000E9F3293010F02E30C8F32B3239F02D3216
:1027900031F4689403C085D0820F911D219120539C
:1027A0002A30C8F31EF4909581959F4F08951F938A
:1027B000FC0199278827BC01E89411911032E9F3B4
:1027C000193010F01E30C8F31B3249F01D3241F4AD
:1027D000689405C051D0610F711D811D911D11912B
:1027E00010531A30B8F33EF490958095709561952A
:1027F0007F4F8F4F9F4F1F910895FA01A191B08194
:10280000009719F41097E1F0CD01DC01CD010D9096
:10281000002011F4C00113C0FB012191222319F003
:102820002015D9F7F3CFFB012191201519F41E9241
:10283000119606C02223C1F70D900020A1F7D00108
:10284000FA01A193B0830895BB274A3031F499234C
:1028500022F4BDE2909581959F4F4DC0BB272A3051
:1028600051F4992342F4BDE290958095709561955D
:102870007F4F8F4F9F4F1EC0592F482F372F262F26
:10288000660F771F881F991F660F771F881F991F74
:10289000620F731F841F951F660F771F881F991F74
:1028A00008957AE0979F902D879F802D910D112498
:1028B0000895BB27FA01A62F6217710581059105BE
:1028C000330B30FB66F0AA27660F771F881F991F0E
:1028D000AA1FA21710F0A21B63953850A9F7A05D9C
:1028E000AA3308F0A95DA19336F7B111B193108214
:1028F000CA01B0C4BB27FB015527AA27880F991F1F
:10290000AA1FA41710F0A41B83955051B9F7A05D1E
:10291000AA3308F0A95DA193009779F7B111B1939B
:102920001192CB0197C40F931F93CF93DF93CDB731
:10293000DEB72E970FB6F894DEBF0FBECDBF0E895F
:102940001F89888D998D2EE02C831A83098397FF28
:1029500002C080E090E801979E838D83AE01445EC3
:102960005F4F6A8D7B8DCE01019619D04D815E81BE
:1029700057FD0AC02F813885421753070CF49A017E
:10298000020F131FF80110822E960FB6F894DEBFC7
:102990000FBECDBFDF91CF911F910F9108952F9260
:1029A0003F924F925F926F927F928F929F92AF92DF
:1029B000BF92CF92DF92EF92FF920F931F93CF932C
:1029C000DF9300D000D000D01F921F92CDB7DEB7AA
:1029D0007C013B018A01FC0117821682838181FF01
:1029E000D0C1CE0101965C01F7019381F30193FD03
:1029F000859193FF81913F01882309F449C1853274
:102A000039F493FD859193FF81913F01853221F443
:102A1000B70190E02FD4E8CF912C212C312CFFE18D
:102A2000F31538F08B3211F190F4803209F18332D2
:102A300029F137FC3CC020ED280F2A3050F536FE36
:102A400020C08AE0989E200D1124922E06C08D325F
:102A500091F0803371F7689430F8F30193FD85911C
:102A600093FF81913F018111DACF21C0689431F841
:102A7000689432F8F2CF689433F8EFCF689434F862
:102A8000ECCFEAE02E9E200D1124222E689435F81A
:102A9000E4CF8E3229F436FCFBC0689436F8DDCFE3
:102AA0008C3619F4689437F8D8CF8836B1F2982F5D
:102AB0009F7D95549330D8F0833691F18337B1F1EF
:102AC000833509F05EC02801F2E04F0E511CF80179
:102AD000C080D180692D70E036FC02C06FEF7FEFBF
:102AE000C601A2D34C01689437F882010AC00C5F7A
:102AF0001F4FFFE3F98388248394912C6501E894A8
:102B000037F833FE2AC0522C8114910459F5552010
:102B100009F46ACFB70180E290E0ACD35A94F7CFC2
:102B2000F801808189830E5F1F4FE5CF2801F2E015
:102B30004F0E511CF801C080D180692D70E036FC29
:102B400002C06FEF7FEFC6017AD34C018201D7CF6D
:102B5000B70180E290E08ED32A942814190409F07A
:102B6000B8F7D1CFF60137FC859137FE81916F011F
:102B7000B70190E07FD351105A94F1E08F1A910879
:102B8000C3CF843619F0893609F073C0F80137FED7
:102B900067C060817181828193810C5F1F4FF32D2B
:102BA000FF763F2E97FF09C09095809570956195AF
:102BB0007F4F8F4F9F4F689437F82AE030E0A50190
:102BC00089D3C82ECA188C2C432C36FE0CC0E8942E
:102BD00040F8C91440F434FE05C032FC03C0F32DA4
:102BE000FE7E4F2E892C44FEA6C0FE01EC0DF11D89
:102BF0008081803309F098C0242D297E422E842DB7
:102C00008870582E43FCA5C040FE9FC09C2C8214A7
:102C100018F42C0C922C981844FEA1C0B70180E344
:102C200090E028D342FE08C088E790E041FE02C051
:102C300088E590E0B7011ED3C91408F49CC0CA947B
:102C4000D12C9FEFC91AD90ACA0CDB1CF60182915C
:102C50006F01B70190E00ED3AC14BD04B9F757CFA4
:102C600060817181072E000C880B990B0E5F1F4F3E
:102C700096CFD32CE894D4F82AE030E08537E1F100
:102C8000232D297FD22E8F36A9F1F0F4883551F10A
:102C9000F701868197812B960FB6F894DEBF0FBEA1
:102CA000CDBFDF91CF911F910F91FF90EF90DF90FB
:102CB000CF90BF90AF909F908F907F906F905F90DC
:102CC0004F903F902F900895803749F0883701F753
:102CD000D4FE02C06894D2F820E130E00DC06894C0
:102CE000D4F8F6CF34FE03C0822F8660D82E20E1C0
:102CF00032E002C028E030E0F801D7FE0EC060816B
:102D00007181828193810C5F1F4FA501E3D2C82E90
:102D1000CA183D2CE89437F856CF6081718190E055
:102D200080E00E5F1F4FF1CF42FC02C0839467CF5B
:102D30008394839464CF842D867809F460CFF6CF92
:102D4000B70180E290E096D283948214C8F3512CAC
:102D500063CF522C5818821408F45ECFF8CF842D1C
:102D6000867809F469CF8BE241FE80E247FC8DE270
:102D7000B70190E060CFB70180E390E07BD29A94F6
:102D80005BCF8FEF9FEF87CF8F929F92AF92BF92D3
:102D9000CF92DF92EF92FF920F931F93CF93DF9327
:102DA00000D000D000D0CDB7DEB76A01F22EB02E31
:102DB000102FFBE3AF2EA01608F41BE31F5F012FBB
:102DC00027E0AE014F5F5F4F57D1BC018981982F3B
:102DD0009970913009F44EC09BE2E1FC04C09E2D35
:102DE0009170E0FC49C05E2D5071E82FE87083FFC0
:102DF00055C084E0911101C083E0EF2DE81B8F15D1
:102E000008F0E0E0D6018E2F20E25523C9F1992386
:102E100029F0D6019C93C60101966C0196012D5FA5
:102E20003F4FE2FE33C08EE4D6018C9391E41196BD
:102E30009C93119712968C93D9018E2F90E2811159
:102E40002AC0E20FF32FF11D10828EEF9FEF29961B
:102E50000FB6F894DEBF0FBECDBFDF91CF911F91AB
:102E60000F91FF90EF90DF90CF90BF90AF909F9029
:102E70008F9008959DE2B7CF90E2B5CF2D9381500A
:102E80008111FCCFCE0ED11CE0E0C1CF8EE6D60181
:102E90008C9391E6CCCF9D938150D1CF482F447035
:102EA00082FF3DC084E0911101C083E08F1510F4D2
:102EB000EF2DE81BD6018E2F20E2552309F199232F
:102EC00029F0D6019C93C60101966C0196012D5FF5
:102ED0003F4FE2FE1BC089E4D6018C938EE411962D
:102EE0008C93119786E412968C93D9018E2F90E2E1
:102EF000882309F4A6CF9D938150FACF2D9381505A
:102F00008111FCCFCE0ED11CE0E0D9CF89E6D601ED
:102F10008C938EE611968C93119786E6E4CF9B01F5
:102F200077FF02C030E020E0A1E0B0E0911102C0E4
:102F3000B0E0A0E0F9013196AE0FBF1F8B2C912CB1
:102F4000BB2009F461C05401EFEFAE1ABE0AAA0D0E
:102F5000BB1DFA161B0619F014F04F2D4A1B511118
:102F600088C0E3FC59C07601A42FB0E2A1114FC084
:102F7000C40ED11C992309F45BC040E0D601119620
:102F8000F60190836D01552309F448C0012F060F07
:102F90009A81582F507184FF03C0913309F4015076
:102FA00010160CF047C0093008F008E0EEE2FE2EE3
:102FB0005B01A01AB10885019194819491082F3F7B
:102FC000320729F4D601FC92F60131966F0162179F
:102FD000730794F1021713077CF5DB01A21BB30BF7
:102FE000AA24A394B12CAC0EBD1EAA0DBB1D119634
:102FF0008C9121503109D601119628153905F4F02C
:10300000F60180836D01DBCFB12CA12CA0CFF7019D
:10301000B1937F01A150AACF9111B0CFD601942FC7
:1030200050E302C05D9391509111FCCFC40ED11CAE
:1030300040E0ACCF01E0BACF80E3DBCF621773078B
:1030400031F4963388F4953311F4552369F0F60181
:103050008083FD01842F90E2811108C0A40FB11D6F
:103060001C9290E080E0F3CE81E3F1CF9193815008
:10307000F3CF911183CF8ACF283008F027E0332790
:10308000DA01990F311D87FD916000966105710588
:1030900039F432602E5F3D9330E32A95E1F70895CD
:1030A0009F3F30F080387105610509F03C5F3C5F5F
:1030B0003D93913008F08068911DDF93CF931F936B
:1030C0000F93FF92EF92192F987F9695E92F96957F
:1030D0009695E90FFF27E25CFE4F99273327EE24F0
:1030E000FF24A701E70105900894079428F4360F00
:1030F000E71EF81E491F511D660F771F881F991F75
:103100000694A1F70590079428F4E70EF81E491FCE
:10311000561FC11D770F881F991F661F0694A1F7C0
:103120000590079428F4F80E491F561FC71FD11D9C
:10313000880F991F661F771F0694A1F705900794C3
:1031400020F4490F561FC71FD81F990F661F771FFE
:10315000881F0694A9F784911095177041F0D695B1
:10316000C79557954795F794E7941A95C1F7E4EEFC
:10317000F0E06894159015913591659195910590C1
:103180007FE27395E118F10A430B560BC90BD00986
:10319000C0F7E10CF11E431F561FC91FD01D7EF45E
:1031A000703311F48A95E6CFE894015030F0080F9F
:1031B0000AF40027021708F4202F2395022F7A33F0
:1031C00028F079E37D932A95E9F710C07D932A953D
:1031D00089F6069497956795379517951794E11892
:1031E000F10A430B560BC90BD00998F023957E9139
:1031F00073957A3308F070E37C932013B8F77E91CF
:1032000070617D9330F0839571E37D9370E32A952F
:10321000E1F71124EF90FF900F911F91CF91DF9173
:10322000992787FD90950895FC01059061507040A5
:103230000110D8F7809590958E0F9F1F0895FC017F
:103240006150704001900110D8F7809590958E0FD5
:103250009F1F0895DC01FC01672F71917723E1F72F
:10326000329704C07C916D9370836291AE17BF0753
:10327000C8F308950F931F93CF93DF93182F092F4F
:10328000EB018B8181FD09C01FEF0FEF812F902F84
:10329000DF91CF911F910F91089582FF14C02E816D
:1032A0003F818C819D81281739073CF4E881F981A1
:1032B000CF0101969983888310838E819F81019627
:1032C0009F838E83E3CFE885F985812F1995892B1C
:1032D000A1F3DACFFA01AA27283051F1203181F188
:1032E000E8946F936E7F6E5F7F4F8F4F9F4FAF4F0E
:1032F000B1E03ED0B4E03CD0670F781F891F9A1F21
:10330000A11D680F791F8A1F911DA11D6A0F711DD4
:10331000811D911DA11D20D009F468943F912AE0E0
:10332000269F11243019305D3193DEF6CF010895C8
:10333000462F4770405D4193B3E00FD0C9F7F6CFF9
:10334000462F4F70405D4A3318F0495D31FD4052C1
:10335000419302D0A9F7EACFB4E0A6959795879557
:1033600077956795BA95C9F7009761057105089536
:103370009B01AC010A2E06945795479537952795E2
:10338000BA95C9F7620F731F841F951FA01D08957A
:1033900040D008F481E00895E89409C097FB3EF41A
:1033A00090958095709561957F4F8F4F9F4F992392
:1033B000A9F0F92F96E9BB279395F6958795779510
:1033C0006795B795F111F8CFFAF4BB0F11F460FFD0
:1033D0001BC06F5F7F4F8F4F9F4F16C0882311F028
:1033E00096E911C0772321F09EE8872F762F05C03C
:1033F000662371F096E8862F70E060E02AF09A95D7
:10340000660F771F881FDAF7880F9695879597F9CB
:103410000895990F0008550FAA0BE0E8FEEF161665
:103420001706E807F907C0F012161306E407F507B8
:1034300098F0621B730B840B950B39F40A2661F02C
:10344000232B242B252B21F408950A2609F4A140CF
:10345000A6958FEF811D811D08950BD078C069D08E
:1034600028F06ED018F0952309F05AC05FC01124DF
:10347000A2C07ED0A0F3959FD1F3950F50E0551FC9
:10348000629FF001729FBB27F00DB11D639FAA27B9
:10349000F00DB11DAA1F649F6627B00DA11D661F08
:1034A000829F2227B00DA11D621F739FB00DA11D29
:1034B000621F839FA00D611D221F749F3327A00DE3
:1034C000611D231F849F600D211D822F762F6A2F7F
:1034D00011249F5750408AF0E1F088234AF0EE0F04
:1034E000FF1FBB1F661F771F881F91505040A9F711
:1034F0009E3F510570F014C05EC05F3FECF3983EF4
:10350000DCF3869577956795B795F795E7959F5F77
:10351000C1F7FE2B880F911D9695879597F9089511
:1035200097F99F6780E870E060E008959FEF80EC76
:10353000089500240A941616170618060906089519
:1035400000240A9412161306140605060895092E7F
:103550000394000C11F4882352F0BB0F40F4BF2BEE
:1035600011F460FF04C06F5F7F4F8F4F9F4F08952E
:1035700057FD9058440F551F59F05F3F71F0479524
:10358000880F97FB991F61F09F3F79F08795089509
:10359000121613061406551FF2CF4695F1DF08C028
:1035A000161617061806991FF1CF86957105610545
:1035B00008940895E894BB2766277727CB0197F9ED
:1035C0000895DC01CB01FC01F999FECF06C0F2BDE4
:1035D000E1BDF89A319600B40D9241505040B8F7D1
:1035E0000895DC01A40FB51F4150504040F0CB01BD
:1035F000840F951F2E9105D041505040D8F7089563
:10360000262FF999FECF92BD81BDF89A019700B49B
:10361000021639F01FBA20BD0FB6F894FA9AF99A3B
:103620000FBE089597FB072E16F4009406D077FD81
:1036300008D00BD007FC05D03EF4909581959F4FA4
:103640000895709561957F4F0895AA1BBB1B51E1AA
:1036500007C0AA1FBB1FA617B70710F0A61BB70B02
:10366000881F991F5A95A9F780959095BC01CD01A7
:103670000895EE0FFF1F881F8BBF0790F691E02D76
:103680001994FB01DC0102C001900D9241505040A1
:10369000D8F70895FB01DC014150504048F00190FB
:1036A0000D920020C9F701C01D9241505040E0F733
:1036B00008950F931F93CF93DF93CDB7DEB72E9767
:1036C0000FB6F894DEBF0FBECDBF0E891F8986E00E
:1036D0008C831A8309838FEF9FE79E838D83AE01CE
:1036E000465E5F4F688D798DCE01019658D92F8146
:1036F0003885020F131FF80110822E960FB6F8942A
:10370000DEBF0FBECDBFDF91CF911F910F91089506
:1037100011E0C7E7D1E000E005C0802FFE01A9DF7E
:103720002196011DC837D10780E00807B1F7F8944A
:02373000FFCFC9
:10373200FFFFFF3003300330033003300330033028
:103742000330030000840580005E00BC00770100A6
:103752000000003F02AA01D7018B020802E601FA2B
:10376200010D0A0025303258005468652073656ED9
:10377200736F722077697468207468652067697650
:10378200656E206164647265737320616C72656139
:103792006479206578697374733A20004B756368A5
:1037A2006E696100322E332E310053656E736F7273
:1037B2002072656164696E67206572726F723A2069
:1037C20000445331384232302053656E736F722099
:1037D2004D616E6167657200312E3200546865205A
:1037E20073656E736F7220776974682074686520E0
:1037F200676976656E2061646472657373207761B0
:1038020073206E6F7420666F756E64206F6E207405
:103812006865206275733A20004761746577617943
:10382200207374617274757020636F6D706C65744F
:06383200652E003B0000C2
:020000023000CC
:10E000000D9489F10D94B2F10D94B2F10D94B2F129
:10E010000D94B2F10D94B2F10D94B2F10D94B2F1F0
:10E020000D94B2F10D94B2F10D94B2F10D94B2F1E0
:10E030000D94B2F10D94B2F10D94B2F10D94B2F1D0
:10E040000D94B2F10D94B2F10D94B2F10D94B2F1C0
:10E050000D94B2F10D94B2F10D94B2F10D94B2F1B0
:10E060000D94B2F10D94B2F10D94B2F10D94B2F1A0
:10E070000D94B2F10D94B2F10D94B2F10D94B2F190
:10E080000D94B2F10D94B2F10D94B2F10D94B2F180
:10E090000D94B2F10D94B2F10D94B2F10D94B2F170
:10E0A0000D94B2F10D94B2F10D94B2F10D94B2F160
:10E0B0000D94B2F10D94B2F10D94B2F10D94B2F150
:10E0C0000D94B2F10D94B2F10D94B2F10D94B2F140
:10E0D0000D94B2F10D94B2F10D94B2F10D94B2F130
:10E0E0000D94B2F141546D656761323536300041AF
:10E0F000726475696E6F206578706C6F72657220DE
:10E1000073746B3530305632206279204D4C530099
:10E11000426F6F746C6F616465723E004875683F52
:10E1200000436F6D70696C6564206F6E203D200048
:10E130004350552054797065202020203D20005FF9
:10E140005F4156525F415243485F5F3D2000415658
:10E1500052204C696243205665723D20004743437C
:10E160002056657273696F6E203D20004350552024
:10E1700049442020202020203D20004C6F7720663D
:10E18000757365202020203D20004869676820665F
:10E190007573652020203D200045787420667573D6
:10E1A00065202020203D20004C6F636B2066757336
:10E1B000652020203D20004D617220203720323024
:10E1C000313300312E362E3800342E332E350056A2
:10E1D00023202020414444522020206F7020636F70
:10E1E00064652020202020696E73747275637469E1
:10E1F0006F6E2061646472202020496E74657272B3
:10E20000757074006E6F20766563746F7200726A49
:10E210006D702020006A6D70200057686174207056
:10E220006F72743A00506F7274206E6F7420737541
:10E2300070706F72746564004D7573742062652030
:10E2400061206C6574746572002000577269747483
:10E25000696E672045450052656164696E672045B7
:10E26000450045452065727220636E743D00504F35
:10E27000525400303D5A65726F2061646472003FF1
:10E280003D43505520737461747300403D454550C3
:10E29000524F4D207465737400423D426C696E6B41
:10E2A000204C454400453D44756D70204545505215
:10E2B0004F4D00463D44756D7020464C415348001B
:10E2C000483D48656C70004C3D4C69737420492F83
:10E2D0004F20506F72747300513D51756974005234
:10E2E0003D44756D702052414D00563D73686F7707
:10E2F00020696E7465727275707420566563746FF0
:10E30000727300593D506F727420626C696E6B00BD
:10E310002A0011241FBECFEFD1E2DEBFCDBF01E046
:10E320000CBF12E0A0E0B2E0EEE1FDEF03E00BBFB6
:10E3300002C007900D92A030B107D9F712E0A0E01B
:10E34000B2E001C01D92AE30B107E1F70F9460F367
:10E350000D948DFE01E20EBF0FEF0DBF11241FBE05
:10E360000D9460F30D9400F020E030E040ED57E0B4
:10E3700005C0FA013197F1F72F5F3F4F2817390792
:10E38000C0F308959C01260F311DC901A0E0B0E043
:10E390002F5F3F4FABBFFC018791882361F08093D3
:10E3A000C6008091C00086FFFCCF8091C0008064D1
:10E3B0008093C000EACF08958DE08093C6008091DD
:10E3C000C00086FFFCCF8091C00080648093C000B5
:10E3D0008AE08093C6008091C00086FFFCCF8091C8
:10E3E000C00080648093C00008950F94C2F10F9420
:10E3F000DCF10895FC019081992359F09093C600B7
:10E400008091C00086FFFCCF8091C0008064809323
:10E41000C0003196992379F70895282F982F929567
:10E420009F70892F805D8A3308F0895F8093C600D2
:10E430008091C00086FFFCCF8091C00080648093F3
:10E44000C000822F8F70982F905D9A3308F0995FEB
:10E450009093C6008091C00086FFFCCF8091C000E1
:10E4600080648093C00008959C01FB01853691056E
:10E470001CF46330710594F0C90164E670E00F94F8
:10E480002EFE605D7F4F6093C6008091C00086FFC6
:10E49000FCCF8091C00080648093C0002B30310598
:10E4A00014F43297B4F0C90164E670E00F942EFEC4
:10E4B0006AE070E00F942EFE605D7F4F6093C600AF
:10E4C0008091C00086FFFCCF8091C0008064809363
:10E4D000C000C9016AE070E00F942EFEC0968093E0
:10E4E000C6008091C00086FFFCCF8091C000806490
:10E4F0008093C00008951F93182F8EE692EE60E07F
:10E500000F94C2F11093C6008091C00086FFFCCF2B
:10E510008091C00080648093C0000F94DCF11F9153
:10E5200008952F923F924F925F926F927F928F92B7
:10E530009F92AF92BF92CF92DF92EF92FF920F9392
:10E540001F93DF93CF93CDB7DEB762970FB6F894E2
:10E55000DEBF0FBECDBF382E622ECA01DB015C01CB
:10E560006D01772420E2222E2E010894411C511CBB
:10E570008BC081E0A81680E0B80681E0C80680E084
:10E58000D80628F0C601AA27BB270F940DF2BB2797
:10E59000AD2D9C2D8B2D0F940DF28A2D0F940DF225
:10E5A0002092C6008091C00086FFFCCF8091C00001
:10E5B00080648093C0009DE29093C6008091C0006B
:10E5C00086FFFCCF8091C00080648093C0002092C1
:10E5D000C6008091C00086FFFCCF8091C00080649F
:10E5E0008093C00019828601750188249924A1E0D6
:10E5F0003A1651F03A1620F0B2E03B1661F409C029
:10E600000BBFF701779007C0C7010F9477FE782EF4
:10E6100002C0F7017080872D0F940DF22092C60082
:10E620008091C00086FFFCCF8091C0008064809301
:10E63000C000872D8052F401EF70F0708F3520F408
:10E64000E40DF51D708204C0E40DF51D8EE280839B
:10E650000894E11CF11C011D111D0894811C911CE2
:10E6600090E18916910409F0C2CF80E190E0A0E02A
:10E67000B0E0A80EB91ECA1EDB1E198AC2010F9493
:10E68000FAF10F94DCF16A94662009F072CF629679
:10E690000FB6F894DEBF0FBECDBFCF91DF911F91B3
:10E6A0000F91FF90EF90DF90CF90BF90AF909F9031
:10E6B0008F907F906F905F904F903F902F90089534
:10E6C0002F923F924F925F926F927F928F929F9282
:10E6D000AF92BF92CF92DF92EF92FF920F931F9370
:10E6E000DF93CF93CDB7DEB7CD53D1400FB6F894BB
:10E6F000DEBF0FBECDBF01E20EBF0FEF0DBF94B75F
:10E70000F894A89514BE80916000886180936000A1
:10E7100010926000789493FF05C0E0910002F091A0
:10E7200001021995279A2F9A8091C00082608093E8
:10E73000C00080E18093C40088E18093C1000000A4
:10E74000EE24FF24870144E0A42EB12CCC24DD2448
:10E7500024C0C5010197F1F70894E11CF11C011DCB
:10E76000111D21E2E2162EE4F20620E0020720E06D
:10E77000120718F031E0C32ED12CC801B70127ECE5
:10E780003BE140E050E00F9441FE611571058105C9
:10E79000910519F485B1805885B98091C00087FD35
:10E7A00003C0C114D104A9F2A6014F5F5F4FC25E3E
:10E7B000DE4F59834883CE51D140C25EDE4F8881FF
:10E7C0009981CE51D140019711F00D9410FEC05D9A
:10E7D000DE4F19821882C053D14060E0C15DDE4F28
:10E7E0001882CF52D14088249924C35DDE4F19820C
:10E7F0001882CD52D140C05EDE4F188219821A8233
:10E800001B82C052D140CE5CDE4F188219821A8220
:10E810001B82C253D140EE24FF2487010BBFF701B6
:10E8200007911691C45CDE4F19830883CC53D14005
:10E830000D940BFEC25EDE4F28813981CE51D1404E
:10E840002130310509F52091C600C25EDE4F1982E4
:10E850001882CE51D14022C02F5F3F4F4F4F5F4FA4
:10E86000213082E138078AE7480780E0580780F0C6
:10E87000C45CDE4FE881F981CC53D140EF5FFF4F9C
:10E8800019F0EE27FF27099420E030E040E050E047
:10E890008091C00087FFE0CF2091C600C35DDE4FAE
:10E8A00048815981CD52D1404F5F5F4FC35DDE4FEC
:10E8B00059834883CD52D140213209F063C64A3092
:10E8C000510508F05FC60894811C911C53E0851621
:10E8D000910409F059C600E010E018C081E280936D
:10E8E000C6008091C00086FFFCCF8091C00080648C
:10E8F0008093C0002F5F3F4F2931310579F70F9486
:10E90000DCF10F5F1F4F0530110519F020E030E0FA
:10E91000E5CF10920A0210920B0210920C02109294
:10E920000D02109206021092070210920802109235
:10E930000902109202021092030210920402109235
:10E9400005028FEE90EE60E00F94F5F180E191EE1C
:10E9500060E00F94C2F18091C00087FFFCCF9091DE
:10E96000C600903608F09F759032B8F09093C600BC
:10E970008091C00086FFFCCF8091C00080648093AE
:10E98000C000A0E2A093C6008091C00086FFFCCF2B
:10E990008091C00080648093C000983409F4D7C18E
:10E9A0009934B8F4923409F459C1933458F490333B
:10E9B00019F1903308F4E3C59F33A1F1903409F0C5
:10E9C000DEC5BDC0953409F470C1963409F0D7C5D1
:10E9D00098C1923509F42BC2933538F49C3409F46C
:10E9E000F5C1913509F0CBC518C2963509F445C279
:10E9F000993509F0C4C567C483E792EE62E00F94CD
:10EA0000F5F110920602109207021092080210927D
:10EA1000090210920A0210920B0210920C0210923C
:10EA20000D0213C18FE792EE62E00F94F5F18FEEC5
:10EA300090EE60E00F94F5F181E291EE60E00F94CA
:10EA4000C2F187EB91EE60E00F94F5F180E391EE77
:10EA500060E00F94C2F184EE90EE60E00F94F5F167
:10EA60008FE391EE60E00F94C2F186E090E061E008
:10EA700070E00F9434F20F94DCF18DE591EE60E0DC
:10EA80000F94C2F189EC91EE60E00F94F5F18EE401
:10EA900091EE60E00F94C2F183EC91EE60E00F9490
:10EAA000F5F18CE691EE60E00F94C2F18EE10F94E7
:10EAB0000DF288E90F940DF281E00F940DF20F949E
:10EAC000DCF18BE791EE60E00F94C2F119E0E0E039
:10EAD000F0E010935700E4918E2F0F940DF20F94F5
:10EAE000DCF18AE891EE60E00F94C2F1E3E0F0E03F
:10EAF00010935700E4918E2F0F940DF20F94DCF1D8
:10EB000089E991EE60E00F94C2F1E2E0F0E0109349
:10EB10005700E4918E2F0F940DF20F94DCF188EAE8
:10EB200091EE60E00F94C2F1E1E0F0E01093570045
:10EB30001491812F0F940DF20F94DCF107CF8BE825
:10EB400092EE62E00F94F5F18BE492EE60E00F94A8
:10EB5000F5F10F94DCF100E010E019C0C8016F2D51
:10EB60000F947FFEFF2031F489E492EE60E00F9471
:10EB7000C2F10BC0F092C6008091C00086FFFCCFAE
:10EB80008091C00080648093C0000F5F1F4FC80158
:10EB900081519F41A0E0B0E0ABBFFC01F790BAE229
:10EBA000FB1621F0E2E000301E07C1F60F94DCF105
:10EBB0000F94DCF187E592EE60E00F94F5F10F948D
:10EBC000DCF1CC24DD2400E010E01EC0C8010F946D
:10EBD00077FEF82E882331F489E492EE60E00F94FA
:10EBE000C2F10BC08093C6008091C00086FFFCCFAD
:10EBF0008091C00080648093C000FE1419F00894D6
:10EC0000C11CD11C0F5F1F4FC80181519F41A0E063
:10EC1000B0E0ABBFFC01E790FAE2EF1621F022E092
:10EC20000030120799F60F94DCF10F94DCF182E6C4
:10EC300092EE60E00F94C2F1C60161E070E00F94C3
:10EC400034F20F94DCF10F94DCF110920202109276
:10EC50000302109204021092050278CE89E992EE26
:10EC600062E00F94F5F1279A2F9A16C02F9880E052
:10EC700090E0E0EDF7E03197F1F7019684369105E9
:10EC8000C1F72F9A80E090E0E0EDF7E03197F1F7DF
:10EC9000019684369105C1F78091C00087FFE6CFC9
:10ECA0008091C00087FFFCCF64C485EA92EE62E0E9
:10ECB0000F94F5F140910202509103026091040219
:10ECC0007091050281E020E10F9491F2809102029F
:10ECD00090910302A0910402B091050280509F4FD1
:10ECE000AF4FBF4F8093020290930302A0930402A0
:10ECF000B093050280509041A040B04008F426CE69
:10ED0000A4CF83EB92EE62E00F94F5F140910602FE
:10ED100050910702609108027091090280E020E1A1
:10ED20000F9491F28091060290910702A09108023F
:10ED3000B091090280509F4FAF4FBF4F80930602A2
:10ED400090930702A0930802B0930902FFCD80ECD4
:10ED500092EE62E00F94F5F183E792EE60E00F949B
:10ED6000F5F18FE792EE60E00F94F5F18BE892EE0B
:10ED700060E00F94F5F189E992EE60E00F94F5F10F
:10ED800085EA92EE60E00F94F5F183EB92EE60E09D
:10ED90000F94F5F180EC92EE60E00F94F5F187ECC2
:10EDA00092EE60E00F94F5F188ED92EE60E00F9442
:10EDB000F5F18FED92EE60E00F94F5F18AEE92EEB0
:10EDC00060E00F94F5F183E093EEBDCD87EC92EE19
:10EDD00062E00F94F5F181E40F947BF282E40F94EA
:10EDE0007BF283E40F947BF284E40F947BF285E45E
:10EDF0000F947BF286E40F947BF287E40F947BF20E
:10EE000088E40F947BF28AE40F947BF28BE40F94F6
:10EE10007BF28CE40F947BF299CD88ED92EE62E068
:10EE20000F94F5F1772473948824992409C48FED05
:10EE300092EE62E00F94F5F140910A0250910B02BC
:10EE400060910C0270910D0282E020E10F9491F22A
:10EE500080910A0290910B02A0910C02B0910D02D8
:10EE600080509F4FAF4FBF4F80930A0290930B0289
:10EE7000A0930C02B0930D0269CD8AEE92EE62E08F
:10EE80000F94F5F184EE90EE60E00F94F5F18FECC5
:10EE900091EE60E00F94F5F1662477244301CC5D98
:10EEA000DE4F19821882C452D140D401C301B695F5
:10EEB000A79597958795CA5DDE4F88839983AA8326
:10EEC000BB83C652D140CC5DDE4FA881B981C4520C
:10EED000D1401196CC5DDE4FB983A883C452D14096
:10EEE000CD0162E070E00F9434F2B0E2B093C6005E
:10EEF0008091C00086FFFCCF8091C0008064809329
:10EF0000C000EDE2E093C6008091C00086FFFCCF18
:10EF10008091C00080648093C000F0E2F093C6004E
:10EF20008091C00086FFFCCF8091C00080648093F8
:10EF3000C000CA5DDE4FE880F9800A811B81C6529D
:10EF4000D140BB27A12F902F8F2D0F940DF2CA5DBA
:10EF5000DE4F8881C652D1400F940DF2B0E2FB2EF5
:10EF6000F092C6008091C00086FFFCCF8091C00067
:10EF700080648093C0000DE30093C6008091C000C0
:10EF800086FFFCCF8091C00080648093C00010E2B7
:10EF90001093C6008091C00086FFFCCF8091C00016
:10EFA00080648093C0008BBEF3012791C65DDE4F65
:10EFB0002883CA52D140A22EBB24CC24DD2408943D
:10EFC000611C711C811C911C8BBEF3018791282E42
:10EFD0003324442455240894611C711C811C911C09
:10EFE0008BBEF3013791C55DDE4F3883CB52D140E4
:10EFF0000894611C711C811C911C8BBEF30147910C
:10F00000C45DDE4F4883CC52D140ADEFEA2EAFEF66
:10F01000FA2EAFEF0A2FAFEF1A2F6E0C7F1C801E57
:10F02000911E142D032DF22CEE24EA0CFB1C0C1D5A
:10F030001D1D0F940DF220E22093C6008091C000A8
:10F0400086FFFCCF8091C00080648093C000C65DC5
:10F05000DE4F8881CA52D1400F940DF230E23093D6
:10F06000C6008091C00086FFFCCF8091C000806404
:10F070008093C000C45DDE4F8881CC52D1400F9494
:10F080000DF240E24093C6008091C00086FFFCCFA5
:10F090008091C00080648093C000C55DDE4F888190
:10F0A000CB52D1400F940DF250E25093C6008091A4
:10F0B000C00086FFFCCF8091C00080648093C000B8
:10F0C0008FEFE8168FEFF80680E0080780E018075A
:10F0D00031F484E092EE60E00F94C2F1DFC0D80119
:10F0E000C7018070907CA070B0708050904CA040A0
:10F0F000B040D1F52FEF3FE340E050E0E222F322B1
:10F1000004231523CA5DDE4FA880B980CA80DB8046
:10F11000C652D140AE0CBF1CC01ED11EAA0CBB1CD7
:10F12000CC1CDD1C8EE092EE60E00F94C2F1BB2798
:10F13000A12F902F8F2D0F940DF28E2D0F940DF285
:10F1400030E23093C6008091C00086FFFCCF8091F2
:10F15000C00080648093C0004EE34093C60080915D
:10F16000C00086FFFCCF87C08EE09EEFA0E0B0E03D
:10F17000E822F9220A231B239CE0E91694E9F90608
:10F1800090E0090790E0190709F088C0C45DDE4FE0
:10F19000A881CC52D140EA2EFF2400E010E0102FCD
:10F1A0000F2DFE2CEE24C55DDE4FB881CB52D14031
:10F1B000EB0EF11C011D111DD601C501817090706F
:10F1C000A070B070DC0199278827E80EF91E0A1F8D
:10F1D0001B1F20EF30E040E050E0A222B322C42207
:10F1E000D52241E1AA0CBB1CCC1CDD1C4A95D1F7F1
:10F1F000EA0CFB1C0C1D1D1D81E090E0A0E0B0E0BE
:10F20000282239224A225B2235E1220C331C441C7D
:10F21000551C3A95D1F7E20CF31C041D151D57013E
:10F220006801AA0CBB1CCC1CDD1C85E192EE60E0E1
:10F230000F94C2F1C801AA27BB270F940DF2BB2778
:10F24000A12F902F8F2D0F940DF28E2D0F940DF274
:10F2500090E29093C6008091C00086FFFCCF809121
:10F26000C00080648093C000AEE3A093C60080918C
:10F27000C00086FFFCCF8091C00080648093C000F6
:10F28000C601AA27BB270F940DF2BB27AD2D9C2DDD
:10F290008B2D0F940DF28A2D0F940DF20F94DCF14B
:10F2A000CC5DDE4FE881F981C452D140F99709F471
:10F2B0004DCBF4E0EF2EF12C012D112D6E0C7F1CA7
:10F2C000801E911EF2CD83E093EE62E00F94F5F183
:10F2D0008AE192EE60E00F94C2F18091C00087FF56
:10F2E000FCCF1091C6001F751093C6008091C0001E
:10F2F00086FFFCCF8091C00080648093C0000F9493
:10F30000DCF1812F81548A3108F036C1163409F4BA
:10F3100095C0173490F4133409F44EC0143430F40B
:10F320001134F1F0123409F01DC130C0143409F465
:10F3300059C0153409F016C16BC01A3409F4C4C0A1
:10F340001B3438F4173409F48FC0183409F00AC19B
:10F35000A1C01B3409F4D2C01C3409F003C1E8C0B9
:10F360008FEF81B90DC082B1809582B980E090E0C5
:10F37000E0EDF7E03197F1F70196883C9105C1F790
:10F380008091C00087FFEFCF12B8EFC08FEF84B934
:10F390000DC085B1809585B980E090E0E0EDF7E0A3
:10F3A0003197F1F70196883C9105C1F78091C00033
:10F3B00087FFEFCF15B8D9C08FEF87B90DC088B1DF
:10F3C000809588B980E090E0E0EDF7E03197F1F7C3
:10F3D0000196883C9105C1F78091C00087FFEFCF6F
:10F3E00018B8C3C08FEF8AB90DC08BB180958BB9A7
:10F3F00080E090E0E0EDF7E03197F1F70196883C8E
:10F400009105C1F78091C00087FFEFCF1BB8ADC059
:10F410008FEF8DB90DC08EB180958EB980E090E0F0
:10F42000E0EDF7E03197F1F70196883C9105C1F7DF
:10F430008091C00087FFEFCF1EB897C08FEF80BBD1
:10F440000DC081B3809581BB80E090E0E0EDF7E0F6
:10F450003197F1F70196883C9105C1F78091C00082
:10F4600087FFEFCF11BA81C08FEF83BB0DC084B38C
:10F47000809584BB80E090E0E0EDF7E03197F1F714
:10F480000196883C9105C1F78091C00087FFEFCFBE
:10F4900014BA6BC08FEF809301010FC080910201FD
:10F4A00080958093020180E090E0E0EDF7E03197F5
:10F4B000F1F70196883C9105C1F78091C00087FF64
:10F4C000EDCF1092020151C08FEF809304010FC065
:10F4D0008091050180958093050180E090E0E0ED4A
:10F4E000F7E03197F1F70196883C9105C1F78091DB
:10F4F000C00087FFEDCF1092050137C08FEF8093DA
:10F5000007010FC08091080180958093080180E079
:10F5100090E0E0EDF7E03197F1F70196883C910536
:10F52000C1F78091C00087FFEDCF109208011DC088
:10F530008FEF80930A010FC080910B01809580931B
:10F540000B0180E090E0E0EDF7E03197F1F70196F4
:10F55000883C9105C1F78091C00087FFEDCF1092E4
:10F560000B0103C085E292EEEEC98091C00087FFD7
:10F57000FCCF8091C600EAC988E392EEE4C98CE131
:10F5800091EEE1C988249924933011F1943028F444
:10F59000913089F09230B8F408C0953061F195301F
:10F5A000F0F0963009F048C043C02B3109F042C951
:10F5B00091E06BE13FC96227C15DDE4F2883CF52E6
:10F5C000D14092E037C9B22FA0E0622793E032C960
:10F5D000822F90E0A82BB92B622794E02BC92E3004
:10F5E00009F039C3622795E0C05DDE4F19821882A9
:10F5F000C053D1401FC9E1E0F0E0EC0FFD1FC05D3A
:10F60000DE4F08811981C053D140E00FF11F2083E4
:10F610000F5F1F4FC05DDE4F19830883C053D14079
:10F6200062270A171B0709F005C9D80196E002C92D
:10F63000261709F010C303C0973009F0FBC87724E0
:10F640009981933109F412C19431C8F4963009F4C8
:10F65000D8C0973050F4923009F406C1933009F4C1
:10F660006DC0913009F059C253C0913109F477C08F
:10F67000923108F0BBC0903109F04FC2F5C098310B
:10F6800009F487C0993150F4953109F4EFC09531F0
:10F6900008F4C6C1963109F040C2C2C19A3109F4DA
:10F6A0006CC09A3108F491C09B3109F45BC09D3164
:10F6B00009F033C29D81903359F48F81882311F46E
:10F6C0009EE11CC0813011F091E018C098E916C08D
:10F6D000892F807591F0903539F4E0E0F0E089E011
:10F6E0008093570094910AC0983539F4E3E0F0E034
:10F6F00089E080935700949101C090E01A821B82A8
:10F700008D818C831D829E831F8227E030E009C299
:10F710001A8288E08B8381E48C8386E58D8382E581
:10F720008E8389E48F8383E5888780E589878FE5E9
:10F730008A8782E38B872BE030E0F3C18A818139AD
:10F7400041F0823941F0803911F48FE005C080E04A
:10F7500003C082E001C08AE01A828B8344C0772410
:10F76000739482C08D81882311F48EE12CC0813086
:10F7700011F081E028C088E926C01A82E1E0F0E0BB
:10F7800089E08093570084918B831C8224E030E0D1
:10F79000C8C18B81803589F48C81883039F4E2E0EE
:10F7A000F0E089E08093570084910DC0E0E0F0E044
:10F7B00089E080935700849106C0E3E0F0E089E09F
:10F7C0008093570084911A82DFCF8D81836C99E0FA
:10F7D000E1E0F0E0082E90935700E89507B600FCB2
:10F7E000FDCF1A821B8223E030E09BC180EC8A832C
:10F7F000CE5CDE4F188219821A821B82C253D1401E
:10F800008EC18A8190E0A0E0B0E0582F44273327D2
:10F8100022278B8190E0A0E0B0E0DC0199278827C7
:10F82000282B392B4A2B5B2B8D8190E0A0E0B0E098
:10F83000282B392B4A2B5B2B8C8190E0A0E0B0E089
:10F84000BA2FA92F982F8827282B392B4A2B5B2BCF
:10F85000220F331F441F551FC05EDE4F288339839C
:10F860004A835B83C052D1401A8259C13A81C95C34
:10F87000DE4F3883C753D140CA5CDE4F1882C6536F
:10F88000D1408B81C82EDD24CA5CDE4F488159816E
:10F89000C653D140C42AD52A933109F082C0CE5C28
:10F8A000DE4F88819981AA81BB81C253D1408050AB
:10F8B000904CA340B04030F583E0CE5CDE4FE88052
:10F8C000F9800A811B81C253D140F70100935B008C
:10F8D00080935700E89507B600FCFDCFCE5CDE4F65
:10F8E000088119812A813B81C253D14000501F4FAA
:10F8F0002F4F3F4FCE5CDE4F088319832A833B8313
:10F90000C253D140C05EDE4F488159816A817B81FC
:10F91000C052D140DE011B9631E08C9111962C91A2
:10F9200011971296C75CDE4F2883C953D140C85C3B
:10F93000DE4F1882C853D14090E0C85CDE4FE881AA
:10F94000F981C853D1408E2B9F2B0C01FA01609393
:10F950005B0030935700E89511244E5F5F4F6F4F67
:10F960007F4F0EEFE02E0FEFF02ECE0CDF1CC114F8
:10F97000D10499F685E0C05EDE4F088119812A81A5
:10F980003B81C052D140F80120935B008093570027
:10F99000E89507B600FCFDCF81E180935700E8951C
:10F9A00035C0C05EDE4F88819981AA81BB81C0527B
:10F9B000D140B695A795979587957C018601ABE0D8
:10F9C000AA2EB12CAC0EBD1E0BC0D5016D915D01F0
:10F9D000C7010F947FFE0894E11CF11C01501040F8
:10F9E0000115110591F7A60160E070E0440F551F65
:10F9F000661F771FC05EDE4FE880F9800A811B8199
:10FA0000C052D1404E0D5F1D601F711F1A82C05E33
:10FA1000DE4F488359836A837B83C052D1407FC0C5
:10FA2000FA80C55CDE4FF882CB53D140C65CDE4F16
:10FA30001882CA53D1408B81C82EDD24C65CDE4FAC
:10FA400008811981CA53D140C02AD12A1A828981DA
:10FA5000BE016D5F7F4F843121F59601C05EDE4FA0
:10FA6000E880F9800A811B81C052D1400BBFF701A9
:10FA700087919691DB018C9311969C936E5F7F4FDB
:10FA8000D801C7010296A11DB11DC05EDE4F88835B
:10FA90009983AA83BB83C052D14022503040F1F6F3
:10FAA00036C0C05EDE4F288139814A815B81C052F9
:10FAB000D1400894C108D108760100E010E0089414
:10FAC000C11CD11C0894E11CF11C011D111DE20E8A
:10FAD000F31E041F151F21BDBB27A52F942F832FB5
:10FAE00082BD2F5F3F4F4F4F5F4FF89A80B5DB01CC
:10FAF0008D93BD012E153F054007510761F7C05E8C
:10FB0000DE4F288339834A835B83C052D1409601FC
:10FB10002D5F3F4FFB01108204C080EC8A8322E0FE
:10FB200030E08BE18093C6008091C00086FFFCCF5F
:10FB30008091C00080648093C000C15DDE4FF88179
:10FB4000CF52D140F093C6008091C00086FFFCCF19
:10FB50008091C00080648093C000432F3093C60022
:10FB60008091C00086FFFCCF8091C00080648093AC
:10FB7000C000922F2093C6008091C00086FFFCCF6A
:10FB80008091C00080648093C0008EE08093C600A6
:10FB90008091C00086FFFCCF8091C000806480937C
:10FBA000C00065E1C15DDE4FE880CF52D1406E25D7
:10FBB00069276427FE01319610C090819093C6009A
:10FBC0008091C00086FFFCCF31968091C000806498
:10FBD0008093C0006927215030402115310569F715
:10FBE0006093C6008091C00086FFFCCF8091C0006A
:10FBF00080648093C00085B1805885B9772081F4F6
:10FC0000C15DDE4F0881CF52D1400F5FC15DDE4F35
:10FC10000883CF52D14090E0A0E0B0E00D941AF4F8
:10FC200027982F9880E090E020ED37E0F901319798
:10FC3000F1F7019684369105C9F700008091C00064
:10FC40008D7F8093C00081E180935700E895EE2777
:10FC5000FF270994FFCF90E00D941AF497FB092E2B
:10FC600007260AD077FD04D02ED006D000201AF443
:10FC7000709561957F4F0895F6F7909581959F4F08
:10FC80000895A1E21A2EAA1BBB1BFD010DC0AA1FDD
:10FC9000BB1FEE1FFF1FA217B307E407F50720F0F5
:10FCA000A21BB30BE40BF50B661F771F881F991F70
:10FCB0001A9469F760957095809590959B01AC01B9
:10FCC000BD01CF010895AA1BBB1B51E107C0AA1FAC
:10FCD000BB1FA617B70710F0A61BB70B881F991FED
:10FCE0005A95A9F780959095BC01CD010895F99991
:10FCF000FECF92BD81BDF89A992780B50895262F31
:10FD0000F999FECF1FBA92BD81BD20BD0FB6F89400
:0EFD1000FA9AF99A0FBE01960895F894FFCF63
:040000033000E000E9
:00000001FF
