:1000000077C100000C94A10F0C94760F0C944B0F49
:100010000C94200F0C94F50E0C94CA0E0C949F0EA9
:100020000C94740E96C1000094C1000092C10000AF
:100030000C94CC0F8EC100008CC100008AC100005E
:1000400088C1000086C1000084C1000082C1000098
:1000500080C100007EC100007CC100000C942A0E0B
:1000600078C100000C94F40D0C94CA0D72C100000C
:1000700070C100006EC100006CC100006AC10000C8
:1000800068C1000066C1000064C1000062C10000D8
:1000900060C100005EC100005CC100005AC10000E8
:1000A00058C1000056C1000054C1000052C10000F8
:1000B00050C100004EC100004CC100004AC1000008
:1000C00048C1000046C1000044C1000042C1000018
:1000D00040C100003EC100003CC100003AC1000028
:1000E00038C1000000407A10F35A00A0724E18097F
:1000F0000010A5D4E80000E87648170000E40B548F
:10010000020000CA9A3B000000E1F505000080965D
:100110009800000040420F000000A086010000008F
:10012000102700000000E803000000006400000049
:1001300000000A00000000000100000000002C7612
:10014000D888DC674F0823DFC1DFAE59E1B1B7962D
:10015000E5E3E453C63AE651997696E8E6C284268A
:10016000EB898C9B62ED407C6FFCEFBC9C9F40F266
:10017000BAA56FA5F490055A2AF75C936B6CF967E2
:100180006DC11BFCE0E40D47FEF520E6B500D0EDA7
:10019000902E0300943577050080841E080000200F
:1001A0004E0A000000C80C333333330F986E1283AD
:1001B0001141EF8D2114893BE65516CFFEE6DB1881
:1001C000D1844B381BF77C1D901DA4BBE424203246
:1001D00084725E228100C9F124ECA1E53D272575DA
:1001E0003B25753B25753B25753B25753B25730ADE
:1001F00000005EBCE2613FDD83C29C7E20A3FD1F48
:1002000041009D23BE46DB65F88C11AF32CA57E929
:100210007400002200250028002B002E003100343D
:100220000002010000050108010B0100002100246B
:100230000027002A002D00300033000101000004D7
:100240000107010A01000020002300260029002CDC
:10025000002F003200000100000301060109010522
:10026000050505070508080808020202020A0A082F
:100270000804040404010101010101010103030355
:100280000303030303040707070C0C0C0C0C0C0CF2
:100290000C0202020206060606060606060B0B0BF9
:1002A0000B0B0B0B0B010210202008081020401034
:1002B000204080020102010804020101020408102A
:1002C0002040808040201008040201800402018048
:1002D0004020100804020108040201010204081071
:1002E000204080010204081020408000EB0F84139E
:1002F00011241FBECFEFD1E2DEBFCDBF00E00CBFA7
:1003000013E0A0E0B2E0E2EFFAE300E00BBF02C0CE
:1003100007900D92AA33B107D9F725E0AAE3B3E01D
:1003200001C01D92A83BB207E1F711E0C7E7D1E099
:1003300000E006C021970109802FFE010E94191DCF
:10034000C637D10780E00807A9F70E94DD100C949A
:10035000681D56CEAF92BF92CF92DF92EF92FF927E
:100360000F931F93CF93DF936C017B018B01040FDD
:10037000151FEB015E01AE18BF08C017D10759F079
:100380006991D601ED91FC910190F081E02DC601BB
:100390001995892B79F7C501DF91CF911F910F91A5
:1003A000FF90EF90DF90CF90BF90AF900895FC0149
:1003B000538D448D252F30E0842F90E0821B930BCA
:1003C000541710F0CF96089501970895FC01918D70
:1003D000828D981761F0A28DAE0FBF2FB11D5D9673
:1003E0008C91928D9F5F9F73928F90E008958FEF15
:1003F0009FEF0895FC01918D828D981731F0828DC9
:10040000E80FF11D858D90E008958FEF9FEF08951F
:10041000FC01918D228D892F90E0805C9F4F821B83
:1004200091098F739927089585E594E0F1DF21E024
:10043000892B09F420E0822F0895FC01A48DA80FD8
:10044000B92FB11DA35ABF4F2C91848D90E0019616
:100450008F739927848FA689B7892C93A089B18936
:100460008C91837080648C93938D848D981306C0D7
:100470000288F389E02D80818F7D80830895EF923B
:10048000FF920F931F93CF93DF93EC0181E0888F4E
:100490009B8D8C8D98131AC0E889F989808185FF1E
:1004A00015C09FB7F894EE89FF896083E889F989C0
:1004B00080818370806480839FBF81E090E0DF91C2
:1004C000CF911F910F91FF90EF900895F62E0B8D15
:1004D00010E00F5F1F4F0F731127E02E8C8D8E11D0
:1004E0000BC00FB607FCFACFE889F989808185FF38
:1004F000F5CFCE01A2DFF2CFEB8DEC0FFD2FF11D7A
:10050000E35AFF4FF0829FB7F8940B8FEA89FB897B
:1005100080818062D0CFCF93DF93EC01888D8823D8
:10052000B1F0AA89BB89E889F9898C9185FD03C05E
:10053000808186FD0CC00FB607FCF7CF8C9185FF3C
:10054000F2CF808185FFEDCFCE0177DFEACFDF915B
:10055000CF91089580E090E0892B21F065DF811133
:100560000E94000080E090E0892B49F080E090E05C
:10057000892B29F00E94000081110E94000080E078
:1005800090E0892B49F080E090E0892B29F00E94CF
:10059000000081110E94000080E090E0892B49F06A
:1005A00080E090E0892B29F00E94000081110C94DA
:1005B000000008953FB7F89480914D0490914E0447
:1005C000A0914F04B091500426B5A89B05C02F3FC1
:1005D00019F00196A11DB11D3FBFBA2FA92F982F69
:1005E0008827BC01CD01620F711D811D911D42E064
:1005F000660F771F881F991F4A95D1F708958F922C
:100600009F92AF92BF92CF92DF92EF92FF926B01D7
:100610007C01D0DF4B015C01C114D104E104F10481
:10062000B1F0C8DF681979098A099B09683E7340EF
:100630008105910588F321E0C21AD108E108F1088B
:1006400088EE880E83E0981EA11CB11CE5CFFF90B8
:10065000EF90DF90CF90BF90AF909F908F900895D4
:100660000895DC0180E0615090F09D919827E92F7A
:10067000EF70F0E0EF50FE4F2491E92FE295EF701C
:10068000F0E0EF5FFD4FE491822F8E27ECCF0895CD
:10069000DC012C911196ED91FC91F8948181822BD3
:1006A00081839281322F30959323928387E090E06B
:1006B0000197F1F781818323818383E290E00197A1
:1006C000F1F790817894EFECF0E03197F1F7922315
:1006D00081E009F480E00895FC0190810180F281BD
:1006E000E02D292F209560FF14C0F8948281822389
:1006F00082838181892B8183A3E2B0E01197F1F796
:100700008281982B9283789487ED90E00197F1F79E
:100710000895F8948281822382838181892B818349
:10072000AFEFB0E01197F1F78281982B9283789424
:100730008FE090E0EBCFDF92EF92FF920F931F9349
:10074000CF93DF93EC01D62EE42E08E010E0FF24D7
:10075000F39461E08D2D8F2109F460E0CE01BCDFC0
:10076000FF0C01501109A9F7E11010C0F894E981BC
:10077000FA8191818881809589238183E981FA8139
:10078000928188818095892382837894DF91CF91AB
:100790001F910F91FF90EF90DF900895EF92FF92DD
:1007A0000F931F93CF93DF938C017B0140E065E5AE
:1007B000C2DFE70188E0E80EF11C699140E0C80162
:1007C000BADFCE15DF05C9F7DF91CF911F910F91E9
:1007D000FF90EF900895FC0190810180F281E02D5F
:1007E000F8948181292F20958223818378943DE795
:1007F00043E050E0315029F1DA011197F1F780819F
:100800008923C1F3F8948281822382838181892B99
:1008100081837894ABE7B7E01197F1F7F894818181
:1008200082238183A3E1B1E01197F1F780819823BE
:1008300081E009F080E07894E3E6F6E03197F1F7A3
:10084000089580E008956F927F928F929F92AF9269
:10085000BF92CF92DF92EF92FF920F931F93CF93AD
:10086000DF93EC017B018A018E819F81B4DF8111CE
:1008700002C090E032C0B7018E819F818FDF40E0DF
:100880006EEB8E819F8157DF7801680189E0C80E89
:10089000D11CAE80BF8088E0882E912C712C6624FC
:1008A0006394C501F5DE81117628660CE1E08E1AAD
:1008B0009108B9F7F70171927F01EC15FD0549F731
:1008C0008E819F8188DF8130A1F668E0C801C9DE92
:1008D00091E0F80120852813CCCF892FDF91CF91AB
:1008E0001F910F91FF90EF90DF90CF90BF90AF904E
:1008F0009F908F907F906F900895CF93DF9300D05B
:1009000000D000D0CDB7DEB7FB012081203191F0BF
:10091000AE014F5F5F4F97DF882331F08D818F33BA
:10092000A9F020F48F31A1F080E007C08F3521F0CD
:100930008F37D1F78CE001C08BE029960FB6F89481
:10094000DEBF0FBECDBFDF91CF9108958AE0F5CF16
:1009500089E0F3CF8F929F92AF92BF92CF92DF92B6
:10096000EF92FF920F931F93CF93DF938C017B0144
:10097000C4DFC82FD0E08823A1F0F80186819781D9
:100980002ADFB701F8018681978108DFF8014081ED
:1009900064E486819781CFDEF801D281D1110FC046
:1009A000D1E08D2FDF91CF911F910F91FF90EF90AC
:1009B000DF90CF90BF90AF909F908F900895C950D7
:1009C0006EEE72E0C33040F4EC2FF0E0EE0FFF1F4C
:1009D000E75EFD4F60817181F8018381882369F1B1
:1009E000808181112AC08FB7F89480905104909033
:1009F0005204A0905304B09054048FBF6B01770F42
:100A0000EE08FF08F8018681978142DE813041F2CD
:100A10002FB7F8948091510490915204A0915304FF
:100A2000B09154042FBF8C199D09AE09BF098815D8
:100A30009905AA05BB0530F3B3CF072E000C880B30
:100A4000990BDDDDAECFFC0190E080E068177907FF
:100A500060F0309751F08617970711F4CF01089591
:100A60000788F08DE02D0196F1CF0895EF92FF9267
:100A70000F931F93CF93DF93C82F880FDD0B009147
:100A80004B0510914C05C8010197C817D907CCF444
:100A90002196E0904D05F0904E050C171D0789F04A
:100AA000BE01C701D0DFFC018785882341F08C2F70
:100AB000DF91CF911F910F91FF90EF9008952196B4
:100AC000ECCF80E0F5CF08950895BF92CF92DF92EA
:100AD000EF92FF920F931F93CF93DF93EC01B62E0B
:100AE000C72E8D85811104C0CE0175DE81110EC027
:100AF0001B861D861C8680E0DF91CF911F910F9190
:100B0000FF90EF90DF90CF90BF90089540E060EFAE
:100B1000CE0111DE01E0E12CD12C11E0CE01B8DDD7
:100B2000F82ECE01B5DD91E0F91218C0813099F5AB
:100B30001134F0F2DB86D11002C081E08D878B8109
:100B40008823B1F22396EB2DFC2DCF010896299135
:100B50002193E817F907D9F781E0CECFEE2DF0E029
:100B6000F8120FC08B851817A0F4DE01AE0FBF1F5F
:100B700013968C91802379F4F12C193008F41C879A
:100B8000D12EEC0FFD1F8381902F909589238383B5
:100B90000AC08113F1CFFE01EE0DF11D8381802B80
:100BA0008383FF24F3946F2DCE0196DD1F5F000F2A
:100BB00011F4E39401E087E08E1508F0AFCFB8CFD1
:100BC000FC0101900020E9F73197AF01481B590B58
:100BD000BC0185E594E0BECB8F929F92AF92BF920D
:100BE0000F931F93CF93DF93CDB7DEB7A1970FB6C7
:100BF000F894DEBF0FBECDBF19A2423008F44AE020
:100C00008E010F5D1F4F842E912CB12CA12CA501BC
:100C100094010E94E31CE62FB901CA01EA30ECF40A
:100C2000E05DD801EE938D01232B242B252B79F742
:100C300090E080E0109711F0CD01C2DFA1960FB6D1
:100C4000F894DEBF0FBECDBFDF91CF911F910F9102
:100C5000BF90AF909F908F900895E95CE2CFCF93C3
:100C6000DF93AEDFEC0181E392E0AADF8C0F9D1FE2
:100C7000DF91CF91089584E392E0F1CF8F929F921C
:100C8000AF92BF92CF92DF92EF92FF926A017B0107
:100C900085E492E095DFA7019601C701B6010E94A5
:100CA000CC1C882371F08DE592E08ADF81E392E02D
:100CB000FF90EF90DF90CF90BF90AF909F908F907C
:100CC0007FCF46015701E894B7F82FEF3FEF4FE78A
:100CD0005FE7C501B4010E94CC1C81110DC02FEF4C
:100CE0003FEF4FE75FE7C501B4010E94ED1A181608
:100CF0001CF481E692E0D9CF2FEF3FEF4FE75FE49E
:100D0000C701B6010E94C81C18161CF485E692E0C3
:100D1000CCCF2FEF3FEF4FE75FECC701B6010E944A
:100D2000ED1A87FDF3CF20E030E0A901C701B6013D
:100D30000E94ED1A87FF08C06DE285E594E09FDB15
:100D4000F7FAF094F7F8F0942AE037ED43EA5BE322
:100D5000C701B6010E94381C4B015C010E949C1C1B
:100D60006B017C010E94F11A9B01AC01C501B40129
:100D70000E94371C4B015C014AE0C701B6012CDF21
:100D80006EE285E594E07BDB20E030E040E251E478
:100D9000C501B4010E94521B4B015C010E949C1CC6
:100DA0006B01F12CE12C4AE0C701B60115DFC70148
:100DB000B6010E94F11A9B01AC01C501B4010E9469
:100DC000371C20E030E040E251E40E94521B0E94B8
:100DD0009C1C90E080E04AE0FFDE68CF8F929F92FB
:100DE000AF92BF92CF92DF92EF92FF920F931F9339
:100DF000CF93DF9300D000D01F921F92CDB7DEB704
:100E00006B018E010F5F1F4F9C01285F3F4FF80160
:100E1000DC014D91CD014193A217B307C9F77601CB
:100E20004801B8E08B0E911C89E6A82E82E0B82E0E
:100E3000F80181918F011F928F93BF92AF92FF9221
:100E4000EF920E94391DF2E0EF0EF11C0F900F900F
:100E50000F900F900F900F900815190549F7D601C4
:100E600050961C9228960FB6F894DEBF0FBECDBFE9
:100E7000DF91CF911F910F91FF90EF90DF90CF9076
:100E8000BF90AF909F908F900895DF92EF92FF9266
:100E90000F931F93CF93DF93CDB7DEB7AE970FB607
:100EA000F894DEBF0FBECDBF88E090E00E94BA1379
:100EB0008C0188E2D8018C938EEE11968C93119759
:100EC0008FEA12968C93129787E413968C9313975C
:100ED0008AE114968C93149786E115968C93159756
:100EE00081E016968C93169786E217968C938091E4
:100EF0004B0590914C05F12CD12C181619060CF4C9
:100F000054C0F801DE015896C801089621912D932E
:100F1000E817F907D9F7809103058F5F80930305E0
:100F200021EA32E03DA32CA38EA31FA218A619A686
:100F300081E08AA78EE396E09CA78BA78BE396E0DF
:100F40009EA78DA787E1FE017896DE01119601909C
:100F50000D928A95E1F78BE190E00E94BA1327E1A8
:100F6000FE013196DC0101900D922A95E1F7FC011A
:100F7000108E178A128E118EE0914F05F091500558
:100F8000309709F050C090934E0580934D05909393
:100F9000500580934F0580914B0590914C0501962B
:100FA00090934C0580934B0530C06F2D70E080917D
:100FB0004B0590914C056817790724F580914D05F4
:100FC00090914E0540DDFC01D8019C01285F3F4F08
:100FD000EE24E39451914D915413E12C2E173F07C9
:100FE000C9F7EE2069F047DEBE016F5F7F4FC80191
:100FF000F5DE8EE692E0E4DDCE01019630DEDE2CF9
:10100000F394D3CFDD2009F47CCFAE960FB6F894DD
:10101000DEBF0FBECDBFDF91CF911F910F91FF902B
:10102000EF90DF900895DC015A96FC93EE93599768
:10103000908F878BACCF0F931F93CF93DF93EC01EF
:10104000E0E06115710551F0FB0101900020E9F726
:101050003197E61BF70BE931F10500F50E2F10E093
:101060008B818770980193E0220F331F9A95E1F7E7
:10107000822B8B838C818F718C83EE2329F0A801C6
:10108000CE0107960E942A1DFE01E00FF11F178274
:10109000CE01DF91CF911F910F910895E9E1DECF4D
:1010A0000F931F93CF93DF93EC018C8182958695EC
:1010B0008770A9F44B8146954695469550E0BE0150
:1010C000695F7F4F82EB93E00E942A1DEB81E695DA
:1010D000E695E695F0E0EE54FC4F108209C08130B1
:1010E000D9F58F814AE062EB73E090E00E944915E8
:1010F0008C8122EB33E03F932F939D811F929F932E
:1011000084FB992790F91F929F9387701F928F936A
:101110008E811F928F9389811F928F938EED91E024
:101120009F938F931F9288E78F938AE393E09F9317
:101130008F930E94B8158AE393E042DD8DB79EB786
:1011400042960FB6F8949EBF0FBE8DBF81E0DF912F
:10115000CF911F910F910895823031F44AE062EBF4
:1011600073E08F819885C2CF833041F44AE062EB0F
:1011700073E08F8198850E949F15BACF843051F417
:101180006F81788589859A852AE042EB53E00E9439
:101190005315AECF853051F46F81788589859A8556
:1011A0002AE042EB53E00E947E15A2CF873051F136
:1011B000A2EBB3E09E01295F3F4F40E0EB81E69553
:1011C000E695E6954E1780F5B901F9018081082E64
:1011D000000C990B54E0959587955A95E1F78F701F
:1011E0008A30F0F4805D8C932F5F3F4FFB0180814C
:1011F0008F708A30B8F4805D11968C9311974F5F91
:101200001296DCCF2B85293008F028E06F81788595
:1012100089859A8502EB13E042E00E949D1368CF16
:10122000895CE1CF895CE8CFF0E0EE0FFF1F53CF80
:10123000FC012281211101C033CF80E0089510927A
:10124000520510925305809357056093560590916F
:101250005505907E909355058F3F11F449EA52E071
:10126000BA0181E595E0E7DEE3CF2F923F924F92FE
:101270005F926F927F928F929F92AF92BF92CF9226
:10128000DF92EF92FF920F931F93CF93DF93CDB72F
:10129000DEB761970FB6F894DEBF0FBECDBF909159
:1012A000F4049923A9F19FB7F894C0905104D09009
:1012B0005204E0905304F09054049FBF4091F9040D
:1012C0005091FA046091FB047091FC04C416D50699
:1012D000E606F70668F04091FD045091FE04609127
:1012E000FF0470910005C416D506E606F70648F51A
:1012F000C092F904D092FA04E092FB04F092FC044C
:10130000C092FD04D092FE04E092FF04F09200052A
:1013100061960FB6F894DEBF0FBECDBFDF91CF91BF
:101320001F910F91FF90EF90DF90CF90BF90AF9003
:101330009F908F907F906F905F904F903F902F90F5
:101340000895282E80910205882309F4EDC080912C
:10135000F6049091F704480F591F611D711D4C153B
:101360005D056E057F0508F0DFC00091010510E006
:10137000B80180914D0590914E0565DBFC01878594
:10138000882309F49EC08189882309F49AC0118AB0
:10139000A0900705B0900805B80180914D05909187
:1013A0004E0551DB8C01AE014F5F5F4FBC01C501A3
:1013B0004ADA3090010580904D0590904E058823C3
:1013C00009F458C06A8170E0762F6627770F770F8F
:1013D000770F298148E0249F90011124262B372B79
:1013E000D8018C918031D1F4688570E08F81FB0148
:1013F000E81BF109CF019695982F88279795879537
:101400000E94D01CCB014097B90153E0660F771FB3
:101410005A95E1F760789C01260F371F2138F4EECA
:101420003F0744F1032D10E0B901330F880B990BEE
:101430000E94F31A20E030E040E05CE30E94521B7F
:101440002B013C01B801C401FEDA5C0120E030E070
:101450004EEF52ECC301B2010E94ED1A882351F005
:1014600020E030E04AEA52E4C301B2010E94ED1AE2
:101470008111AFC0032D10E0B801C401E4DADC0132
:1014800050961C92B80180914D0590914E05DBDA83
:10149000DC015596ED91FC91309709F0199560911A
:1014A000010570E080914D0590914E05CCDABE01AA
:1014B0006F5F7F4F93DC8FEA92E082DBCE01019673
:1014C000CEDB8091010520914B0530914C052150D8
:1014D0003109821713060CF00CC1C8DA882309F40D
:1014E00017CF80930105C092FD04D092FE04E092D4
:1014F000FF04F0920005082F10E0B80180914D051F
:1015000090914E05A0DA21E0DC0151962C93A09039
:101510000705B0900805B80180914D0590914E05E2
:1015200092DABC01C50116DA809102058111F0CE74
:101530004091F50428EE33E0429FC001439F900D97
:101540001124092E000CAA0BBB0B4091F9045091F9
:10155000FA046091FB047091FC04840F951FA61F90
:10156000B71F8C159D05AE05BF0518F0222009F4A4
:10157000CFCEC092F904D092FA04E092FB04F0922C
:10158000FC04C092FD04D092FE04E092FF04F092AD
:1015900000058FEF6BDA80930105FF24F394F0923E
:1015A0000205082F10E0B80180914D0590914E057D
:1015B0004ADAFC01F18AE0900705F0900805B801CD
:1015C00080914D0590914E053EDABC01C701C2D90C
:1015D0009FCE81E0F501808B8091F204A0904D05B3
:1015E000B0904E05882389F0B801C5012CDAA3011B
:1015F0009201DC0118966D917D918D919C911B97C4
:101600000E94ED1A882309F466C0B801C5011BDAEF
:10161000FC012289222309F44DC0868580930F05A1
:10162000B801C50110DADC0118964D915D916D91FC
:101630007C911B9780910C058770886280930C05C4
:1016400080910D054093100550931105609312058C
:101650007093130591E09093140510920A05807120
:10166000816E80930D0589E095E0E2DD80910405AF
:10167000882301F1A0904D05B0904E05B801C50139
:10168000E2D9FC01868580933005B801C501DBD91C
:10169000BE016F5F7F4FA2DBBE016F5F7F4F8AE2AB
:1016A00095E0C9DCFC0111829481907F9160948364
:1016B000CF01BEDD6091010570E080914D059091F4
:1016C0004E05C1D9DC015396ED91FC91309719F08C
:1016D000B301A20119956091010570E080914D055B
:1016E00090914E05B0D9FC01408651866286738682
:1016F000E8CE1092020518CF80E0B7CD8F929F926E
:10170000AF92BF92CF92DF92EF92FF920F931F930F
:10171000CF93DF93CDB7DEB769970FB6F894DEBFEE
:101720000FBECDBF10925205109253051FEF1093BC
:1017300057058BE08093560580915505807E836028
:101740008093550566EC72E081E595E074DC70DD10
:101750001092520510925305109357058CE0809318
:10176000560580915505807E8360809355056DED0B
:1017700072E081E595E05FDC5BDD80914B05909147
:101780004C0518161906D4F410E0612F70E0809112
:101790004B0590914C056817790784F480914D05AD
:1017A00090914E0550D9FC018289882329F0448507
:1017B000558566E0868543DD1F5FE7CF80914B0549
:1017C00090914C05892BB1F481E08093F4046996E3
:1017D0000FB6F894DEBF0FBECDBFDF91CF911F9142
:1017E0000F91FF90EF90DF90CF90BF90AF909F90C0
:1017F0008F9008950091070510910805D80116965D
:10180000ED91FC9117971386158614861286118622
:1018100010861782168215821482138214961C92E7
:10182000149715961C92FF24F394BE016F5F7F4FAF
:10183000F8018681978149D9882309F461C067E05E
:10184000CE0101960E94310398858913EECFD8010D
:101850008C91811125C016968D919C910E94EB036D
:10186000BE016F5F7F4FF801868197810E94CE0392
:1018700040E064EBD80116968D919C910E949B03E9
:10188000F801868197810E944803E82ED8011696B8
:101890008D919C910E94EB03E11002C0F801F0824F
:1018A000D8011196EC90BE016F5F7F4FC80125D81B
:1018B0008E15D0F4F8018181D80111968C9311977F
:1018C00014968C9114978F5F14968C93898188322B
:1018D00031F080F4803119F0823209F0A6CFF8019E
:1018E00085818F5F8583A1CFBE016F5F7F4FC80168
:1018F00004D8E2CF8B3399F3823409F096CFEFCF3F
:1019000000910705109108058CE0D80111968C9381
:10191000D12CC12C2FE5E22E3FE7A32E4FE1942ED0
:101920005FE3852EF80184818C151D0409F00CF409
:10193000C6C0BC2C0680F781E02D13861586148660
:1019400012861186108617821682158214821382DF
:10195000F12CBE016E5E7F4FD80116968D919C9141
:10196000B4D8882329F0BF1479F1F394BF1488F711
:10197000F801F180FCE0FF1580F59CE0F92EBE0136
:101980006E5E7F4FC8010E947D048F1509F48FC0E1
:10199000AE014F5F5F4FBE016E5E7F4FC8010E9478
:1019A0002304882309F483C08A89803109F47FC025
:1019B000ABE0FA1609F47FC0BCE0FB16A1F0EAE048
:1019C000FE127BC08D8210C067E0CE0142960E945D
:1019D0003103998D8913C9CFCBCF89E0F81678F6FA
:1019E00089E0F82ECCCFAD82D80116968D919C91CE
:1019F0000E94EB03BE016E5E7F4FF80186819781E6
:101A00000E94CE0340E06EE4D80116968D919C9121
:101A10000E949B0340E06B81F801868197810E94C0
:101A20009B0340E06C81D80116968D919C910E9499
:101A30009B038A89803139F040E06D81F80186810D
:101A400097810E949B03D80116968D919C910E94CC
:101A5000EB03BE016E5E7F4FF801868197810E9485
:101A6000CE03D8014C9168E416968D919C910E940A
:101A70009B0364E170E080E090E00E94FF02F801C7
:101A80008081882331F06AE070E080E090E00E947D
:101A9000FF02D80116968D919C910E94EB03F801EC
:101AA00081818F1508F48F2DD80111968C93BFEF8B
:101AB000CB1ADB0A37CFED8297CF9D8295CFE0918D
:101AC0000705F09108051282F12CEE24E3940F2D06
:101AD00010E080914B0590914C05081719070CF008
:101AE0004EC0C0900705D0900805B80180914D0503
:101AF00090914E050E942305AE014F5F5F4FBC01E0
:101B0000C6010E94230420914D0530914E05B80175
:101B1000882339F0C9010E942305FC01E786F3946C
:101B2000D6CFC9010E942305DC011F961C92A0900C
:101B30004D05B0904E056091010570E0C5010E9411
:101B40002305FC01C588D688C114D10431F0B80141
:101B5000C5010E942305F6011995B80180914D0534
:101B600090914E050E942305BE016F5F7F4F36D9CD
:101B700081EE92E025D8CE01019671D8D0CF81E0D8
:101B80008093F40472DB23CE43E352E061E18FEFF4
:101B900056DBB4CD1F920F920FB60F9211240BB6E5
:101BA0000F922F933F934F935F936F937F938F93F6
:101BB0009F93AF93BF93EF93FF9385E594E00E94CB
:101BC0001D02FF91EF91BF91AF919F918F917F91F6
:101BD0006F915F914F913F912F910F900BBE0F909E
:101BE0000FBE0F901F9018951F920F920FB60F9275
:101BF00011240BB60F922F938F939F93EF93FF9324
:101C0000E0916504F09166048081E0916B04F091AD
:101C10006C0482FD1DC0908180916E048F5F8F7374
:101C200020916F04821741F0E0916E04F0E0EB5ACE
:101C3000FB4F958F80936E04FF91EF919F918F9151
:101C40002F910F900BBE0F900FBE0F901F90189505
:101C50008081F2CF1F920F920FB60F9211242F9313
:101C60003F938F939F93AF93BF9380915104909133
:101C70005204A0915304B091540430914C0423E0D9
:101C8000230F2D3758F50196A11DB11D20934C044B
:101C90008093510490935204A0935304B09354043E
:101CA00080914D0490914E04A0914F04B091500446
:101CB0000196A11DB11D80934D0490934E04A093F5
:101CC0004F04B0935004BF91AF919F918F913F917A
:101CD0002F910F900FBE0F901F90189526E8230F9D
:101CE0000296A11DB11DD2CF1F920F920FB60F9277
:101CF00011240BB60F922F933F934F935F936F93E3
:101D00007F938F939F93AF93BF93EF93FF93E09154
:101D10001102F09112021995FF91EF91BF91AF91CD
:101D20009F918F917F916F915F914F913F912F91F3
:101D30000F900BBE0F900FBE0F901F9018951F9223
:101D40000F920FB60F9211240BB60F922F933F9361
:101D50004F935F936F937F938F939F93AF93BF93B3
:101D6000EF93FF93E0910F02F09110021995FF910C
:101D7000EF91BF91AF919F918F917F916F915F9103
:101D80004F913F912F910F900BBE0F900FBE0F9070
:101D90001F9018951F920F920FB60F9211240BB639
:101DA0000F922F933F934F935F936F937F938F93F4
:101DB0009F93AF93BF93EF93FF93E0910502F09150
:101DC00006021995FF91EF91BF91AF919F918F916D
:101DD0007F916F915F914F913F912F910F900BBE2B
:101DE0000F900FBE0F901F9018951F920F920FB675
:101DF0000F9211240BB60F922F933F934F935F9343
:101E00006F937F938F939F93AF93BF93EF93FF93C2
:101E1000E0910302F09104021995FF91EF91BF91B7
:101E2000AF919F918F917F916F915F914F913F9172
:101E30002F910F900BBE0F900FBE0F901F90189513
:101E40001F920F920FB60F9211240BB60F922F9381
:101E50003F934F935F936F937F938F939F93AF9332
:101E6000BF93EF93FF93E0910D02F0910E0219954D
:101E7000FF91EF91BF91AF919F918F917F916F9162
:101E80005F914F913F912F910F900BBE0F900FBE1E
:101E90000F901F9018951F920F920FB60F9211245A
:101EA0000BB60F922F933F934F935F936F937F9354
:101EB0008F939F93AF93BF93EF93FF93E0910B02A8
:101EC000F0910C021995FF91EF91BF91AF919F9105
:101ED0008F917F916F915F914F913F912F910F90D3
:101EE0000BBE0F900FBE0F901F9018951F920F9270
:101EF0000FB60F9211240BB60F922F933F934F936F
:101F00005F936F937F938F939F93AF93BF93EF9361
:101F1000FF93E0910902F0910A021995FF91EF9168
:101F2000BF91AF919F918F917F916F915F914F91F1
:101F30003F912F910F900BBE0F900FBE0F901F90EF
:101F400018951F920F920FB60F9211240BB60F9295
:101F50002F933F934F935F936F937F938F939F93B1
:101F6000AF93BF93EF93FF93E0910702F0910802C4
:101F70001995FF91EF91BF91AF919F918F917F91B3
:101F80006F915F914F913F912F910F900BBE0F90EA
:101F90000FBE0F901F9018951F920F920FB60F92C1
:101FA00011240F900FBE0F901F901895CF93DF93C1
:101FB000FC01108211821282148215821682DC01C9
:101FC00017968AE1ED0119928A95E9F782E08383F9
:101FD000DF91CF9108950F931F93CF93DF931092CA
:101FE00058041092570488EE93E0A0E0B0E080938C
:101FF000590490935A04A0935B04B0935C0483E269
:1020000092E0909356048093550485EC90E0909371
:1020100062048093610484EC90E090936404809364
:10202000630480EC90E0909366048093650481ECF7
:1020300090E0909368048093670482EC90E0909322
:102040006A048093690486EC90E090936C0480931A
:102050006B0410926E0410926F0410927004109230
:10206000710483E995E0A2DF82E795E09FDF81E5D7
:1020700095E09CDF1092F20486E88093F30480934D
:10208000030589E095E092DFC1E0C0930F0510924F
:102090000E058AE295E08ADFC09330058AE28093DC
:1020A0002F0510924C0510924B0510924E05109280
:1020B0004D051092500510924F051092F40486E0E1
:1020C0008093F5048EEE92E09093F7048093F604EB
:1020D00084E08093F8048EE090E04CD3EC0149EA70
:1020E00052E0FA01649183E692E0FC0124912223FC
:1020F000C9F030E0220F331FF901E55DFD4FA591D6
:10210000B491F901EF5EFD4F059114917FB7F894FA
:102110003C91262F209532233C93F80130812323D4
:1021200020837FBFFA0144914883FC018491E82F0A
:10213000F0E0EE0FFF1FEB5BFD4F859194919A83CA
:1021400089831B861D861C861A86198618861F821F
:102150001E821D821C821B82D0930605C09305053A
:1021600084E190E007D3FC01D783C68314821582F3
:10217000108289E0818381E082838383138A128ABB
:10218000F0930805E09307051092F9041092FA0401
:102190001092FB041092FC041092FD041092FE04B5
:1021A0001092FF041092000510920205809304051E
:1021B000DF91CF911F910F910895CF93DF93CDB70A
:1021C000DEB76B970FB6F894DEBF0FBECDBF789425
:1021D00084B5826084BD84B5816084BD85B582602C
:1021E00085BD85B5816085BD80916E0081608093DD
:1021F0006E00109281008091810082608093810046
:102200008091810081608093810080918000816055
:10221000809380008091B10084608093B1008091B0
:10222000B00081608093B0008091910082608093C3
:102230009100809191008160809391008091900045
:102240008160809390008091A10082608093A100C2
:102250008091A10081608093A1008091A0008160A5
:102260008093A00080912101826080932101809160
:102270002101816080932101809120018160809300
:10228000200180917A00846080937A0080917A00A6
:10229000826080937A0080917A00816080937A00D6
:1022A00080917A00806880937A001092C100A8958E
:1022B00080E090E0892B11F00E940000E09165041D
:1022C000F091660482E08083E0916104F091620401
:1022D0001082E0916304F091640480E180831092A5
:1022E0006D04E0916904F0916A0486E08083E091D6
:1022F0006704F0916804808180618083E0916704C5
:10230000F0916804808188608083E0916704F09197
:102310006804808180688083E0916704F09168049C
:1023200080818F7D808380914B048D7F80934B04CF
:102330000E94450741E050E063E071E08AE494E0E8
:102340000E94061C10925205109253058FEF809345
:1023500057058EE08093560580915505807E8360F9
:10236000809355056EE173E081E595E00E941B08BE
:102370000E94500809DC80914B0481FD04C08160FB
:10238000826080934B04A89599249A947BE1872ED0
:10239000E3E27E2EF0E0CF2EF0E0DF2EA89585E57B
:1023A00094E00E940802892B09F4AEC085E594E010
:1023B0000E94E60190914904933608F028C1E92F64
:1023C000F0E0EB51FC4F8A3009F01CC11082AE01E5
:1023D000465E5F4F68E373E085EE93E033D300E041
:1023E000F12CE12C10E0A12CB12C009709F486C04F
:1023F00026E0E216F10409F48BC023E0E216F104B2
:1024000009F44BC0BCF421E0E216F104B9F122E07A
:10241000E216F104B9F1D3D2809395058FEFE81A53
:10242000F80AAE01465E5F4F68E373E090E080E03B
:1024300009D3DBCF24E0E216F10409F43DC025E026
:10244000E216F10441F7FC01043009F045C0808137
:10245000882321F38A33A4F580538295807F91816C
:102460009A33A4F59053A1E0B0E0AC0FBD1FA10FCB
:10247000B11D890F8C931F5F3296E9CFA0D2809354
:102480009905CCCF9CD2082F80919705887F902FFB
:102490009770892B80939705C1CF20919705622E65
:1024A000E89463F88CD2892B29F088E0682A60923E
:1024B0009705B4CF80E0FACF82D280939805AECF53
:1024C000813614F08755C9CF8753C7CF913614F0A2
:1024D0009755C9CF9753C7CF01900020E9F7E81B64
:1024E000E250E80FF92FF11D20812D3009F4108200
:1024F00020812A3009F410825C0190CF25E0E21699
:10250000F10434F410924904F7D80E94AA0246CF8D
:102510001092940510929305809197058F7E809379
:102520009705043009F068C01A3108F019E190915C
:1025300096059770412F50E09A0163E0220F331FF8
:102540006A95E1F7922B909396058F71806C80933A
:102550009705BE016F5F7F4F8AE995E00E94211DBC
:102560001092490481E2E3E9F5E0A2E7B5E00190C9
:102570000D928A95E1F7109174051111C5CF8091E4
:10258000760583FF17C091E2E2E7F5E0A1E5B5E04B
:1025900001900D929A95E1F7877F806180935505B0
:1025A00010925205809173058093530581E595E063
:1025B0000E94500880917605982F9770933009F00B
:1025C000A3CF90917705923029F510925205109281
:1025D0005305909257059093560580915505807E3E
:1025E00083608093550569EA72E081E595E00E9479
:1025F0001B080E94500888CFB50183E995E00E942E
:102600001B08AECF80839F5F90934904C8CE109281
:102610004904C5CE0091730501114AC09D3059F49B
:1026200088E198E00FB6F894A895809360000FBEFB
:1026300090936000FFCF9B3109F466CF963099F4F8
:102640009091790581E0992319F09D3409F080E09B
:1026500080934A0441E050E063E071E08AE494E052
:102660000E94161C51CF933111F48EDA4DCF913068
:1026700009F04ACFC114D10409F446CF829586955A
:102680008770853059F46091790570917A05809151
:102690007B0590917C050E94000036CF811104C01B
:1026A00089E795E0A9D1F7CF60E070E0CB01F3CFE7
:1026B0009A3109F029CF8295869587708130E9F4A7
:1026C0001091790510925205009353059092570589
:1026D00080925605809154058770886080935405D8
:1026E0007092550581E0123008F480E0809358051F
:1026F00081E595E00E94180907CF8111E3CF89E7B2
:1027000095E05DD1182FDECF80914D0590914E055B
:10271000009791F0FC012789308D30934E0520936E
:102720004D05C4D080914B0590914C050197909335
:102730004C0580934B05E8CF0895EF920F931F93BC
:10274000CF93DF93E80134E047FD34E1042E000C21
:10275000550B57FF03C0519541955109E32E022FA8
:10276000242FAE0136D4CE01DF91CF911F910F916E
:10277000EF9008950F931F93CF93DF9382309105CD
:1027800010F482E090E0E091B605F091B70530E0FA
:1027900020E0B0E0A0E0309799F42115310509F46C
:1027A0004AC0281B390B24303105D8F58A819B811A
:1027B0006115710589F1FB0193838283FE0111C0CC
:1027C000408151810281138148175907E0F0481771
:1027D000590799F4109761F012960C93129713967B
:1027E0001C933296CF01DF91CF911F910F910895E5
:1027F0000093B6051093B705F4CF2115310551F0BC
:102800004217530738F0A901DB019A01BD01DF012E
:10281000F801C1CFEF01F9CF9093B7058093B605CA
:10282000CDCFFE01E20FF31F819391932250310926
:1028300039832883D7CF2091B4053091B505232B58
:1028400041F420911502309116023093B505209382
:10285000B40520911302309114022115310541F481
:102860002DB73EB74091170250911802241B350B2B
:10287000E091B405F091B505E217F307A0F42E1B23
:102880003F0B2817390778F0AC014E5F5F4F2417D4
:10289000350748F04E0F5F1F5093B5054093B405C0
:1028A000819391939FCFF0E0E0E09CCFCF93DF93B3
:1028B0000097E9F0FC01329713821282A091B605CD
:1028C000B091B705ED0130E020E01097A1F4208130
:1028D0003181820F931F2091B4053091B5052817DF
:1028E000390709F061C0F093B505E093B405DF91B5
:1028F000CF910895EA01CE17DF07E8F54A815B81A1
:102900009E0141155105B1F7E901FB83EA83499125
:102910005991C40FD51FEC17FD0761F48081918197
:102920000296840F951FE9019983888382819381A0
:102930009B838A83F0E0E0E012968D919C9113973F
:102940000097B9F52D913C911197CD010296820F18
:10295000931F2091B4053091B5052817390739F632
:10296000309751F51092B7051092B605B093B505A2
:10297000A093B405BCCFD383C28340815181840F1F
:10298000951FC817D90761F44E5F5F4F8881998101
:10299000480F591F518340838A819B81938382838F
:1029A0002115310509F0B0CFF093B705E093B605D6
:1029B0009ECFFD01DC01C0CF13821282D7CFFC0174
:1029C00088279927E89421912032E9F3293010F0E3
:1029D0002E30C8F32B3239F02D3231F4689403C015
:1029E00085D0820F911D219120532A30C8F31EF407
:1029F000909581959F4F08951F93FC0199278827F3
:102A0000BC01E89411911032E9F3193010F01E3036
:102A1000C8F31B3249F01D3241F4689405C051D00F
:102A2000610F711D811D911D119110531A30B8F362
:102A30003EF490958095709561957F4F8F4F9F4F95
:102A40001F910895FA01A191B081009719F4109790
:102A5000E1F0CD01DC01CD010D90002011F4C001A9
:102A600013C0FB012191222319F02015D9F7F3CFD0
:102A7000FB012191201519F41E92119606C0222304
:102A8000C1F70D900020A1F7D001FA01A193B08306
:102A90000895BB274A3031F4992322F4BDE2909582
:102AA00081959F4F4DC0BB272A3051F4992342F4A2
:102AB000BDE290958095709561957F4F8F4F9F4FA8
:102AC0001EC0592F482F372F262F660F771F881FBC
:102AD000991F660F771F881F991F620F731F841F2E
:102AE000951F660F771F881F991F08957AE0979F9B
:102AF000902D879F802D910D11240895BB27FA01F9
:102B0000A62F6217710581059105330B30FB66F026
:102B1000AA27660F771F881F991FAA1FA21710F0F8
:102B2000A21B63953850A9F7A05DAA3308F0A95DF0
:102B3000A19336F7B111B1931082CA01B0C4BB277B
:102B4000FB015527AA27880F991FAA1FA41710F069
:102B5000A41B83955051B9F7A05DAA3308F0A95D75
:102B6000A193009779F7B111B1931192CB0197C45A
:102B70000F931F93CF93DF93CDB7DEB72E970FB68A
:102B8000F894DEBF0FBECDBF0E891F89888D998D49
:102B90002EE02C831A83098397FF02C080E090E81F
:102BA00001979E838D83AE01445E5F4F6A8D7B8D5E
:102BB000CE01019619D04D815E8157FD0AC02F814B
:102BC0003885421753070CF49A01020F131FF801BE
:102BD00010822E960FB6F894DEBF0FBECDBFDF91E8
:102BE000CF911F910F9108952F923F924F925F9234
:102BF0006F927F928F929F92AF92BF92CF92DF920D
:102C0000EF92FF920F931F93CF93DF9300D000D0EA
:102C100000D01F921F92CDB7DEB77C013B018A0125
:102C2000FC0117821682838181FFD0C1CE010196FB
:102C30005C01F7019381F30193FD859193FF8191ED
:102C40003F01882309F449C1853239F493FD859108
:102C500093FF81913F01853221F4B70190E02FD499
:102C6000E8CF912C212C312CFFE1F31538F08B3279
:102C700011F190F4803209F1833229F137FC3CC024
:102C800020ED280F2A3050F536FE20C08AE0989EAD
:102C9000200D1124922E06C08D3291F0803371F7F1
:102CA000689430F8F30193FD859193FF81913F0182
:102CB0008111DACF21C0689431F8689432F8F2CFEC
:102CC000689433F8EFCF689434F8ECCFEAE02E9EA6
:102CD000200D1124222E689435F8E4CF8E3229F489
:102CE00036FCFBC0689436F8DDCF8C3619F4689456
:102CF00037F8D8CF8836B1F2982F9F7D955493300E
:102D0000D8F0833691F18337B1F1833509F05EC095
:102D10002801F2E04F0E511CF801C080D180692DCE
:102D200070E036FC02C06FEF7FEFC601A2D34C010A
:102D3000689437F882010AC00C5F1F4FFFE3F983E4
:102D400088248394912C6501E89437F833FE2AC0D7
:102D5000522C8114910459F5552009F46ACFB7011A
:102D600080E290E0ACD35A94F7CFF8018081898358
:102D70000E5F1F4FE5CF2801F2E04F0E511CF80106
:102D8000C080D180692D70E036FC02C06FEF7FEF0C
:102D9000C6017AD34C018201D7CFB70180E290E01F
:102DA0008ED32A942814190409F0B8F7D1CFF6016C
:102DB00037FC859137FE81916F01B70190E07FD399
:102DC00051105A94F1E08F1A9108C3CF843619F04C
:102DD000893609F073C0F80137FE67C060817181E0
:102DE000828193810C5F1F4FF32DFF763F2E97FF5B
:102DF00009C090958095709561957F4F8F4F9F4F3B
:102E0000689437F82AE030E0A50189D3C82ECA18A3
:102E10008C2C432C36FE0CC0E89440F8C91440F4C6
:102E200034FE05C032FC03C0F32DFE7E4F2E892CEC
:102E300044FEA6C0FE01EC0DF11D8081803309F037
:102E400098C0242D297E422E842D8870582E43FC54
:102E5000A5C040FE9FC09C2C821418F42C0C922C10
:102E6000981844FEA1C0B70180E390E028D342FE49
:102E700008C088E790E041FE02C088E590E0B70115
:102E80001ED3C91408F49CC0CA94D12C9FEFC91A50
:102E9000D90ACA0CDB1CF60182916F01B70190E0E0
:102EA0000ED3AC14BD04B9F757CF60817181072EE2
:102EB000000C880B990B0E5F1F4F96CFD32CE89414
:102EC000D4F82AE030E08537E1F1232D297FD22E96
:102ED0008F36A9F1F0F4883551F1F7018681978199
:102EE0002B960FB6F894DEBF0FBECDBFDF91CF910A
:102EF0001F910F91FF90EF90DF90CF90BF90AF9018
:102F00009F908F907F906F905F904F903F902F9009
:102F10000895803749F0883701F7D4FE02C06894DD
:102F2000D2F820E130E00DC06894D4F8F6CF34FE3A
:102F300003C0822F8660D82E20E132E002C028E054
:102F400030E0F801D7FE0EC06081718182819381EB
:102F50000C5F1F4FA501E3D2C82ECA183D2CE89480
:102F600037F856CF6081718190E080E00E5F1F4F8F
:102F7000F1CF42FC02C0839467CF8394839464CFE3
:102F8000842D867809F460CFF6CFB70180E290E017
:102F900096D283948214C8F3512C63CF522C5818C4
:102FA000821408F45ECFF8CF842D867809F469CFB7
:102FB0008BE241FE80E247FC8DE2B70190E060CFFA
:102FC000B70180E390E07BD29A945BCF8FEF9FEFC5
:102FD00087CF8F929F92AF92BF92CF92DF92EF9264
:102FE000FF920F931F93CF93DF9300D000D000D0B8
:102FF000CDB7DEB76A01F22EB02E102FFBE3AF2E55
:10300000A01608F41BE31F5F012F27E0AE014F5FFE
:103010005F4F57D1BC018981982F9970913009F485
:103020004EC09BE2E1FC04C09E2D9170E0FC49C0C3
:103030005E2D5071E82FE87083FF55C084E0911138
:1030400001C083E0EF2DE81B8F1508F0E0E0D6010A
:103050008E2F20E25523C9F1992329F0D6019C93A4
:10306000C60101966C0196012D5F3F4FE2FE33C011
:103070008EE4D6018C9391E411969C93119712964D
:103080008C93D9018E2F90E281112AC0E20FF32F89
:10309000F11D10828EEF9FEF29960FB6F894DEBFD8
:1030A0000FBECDBFDF91CF911F910F91FF90EF9099
:1030B000DF90CF90BF90AF909F908F9008959DE24A
:1030C000B7CF90E2B5CF2D9381508111FCCFCE0EBA
:1030D000D11CE0E0C1CF8EE6D6018C9391E6CCCF37
:1030E0009D938150D1CF482F447082FF3DC084E032
:1030F000911101C083E08F1510F4EF2DE81BD6016C
:103100008E2F20E2552309F1992329F0D6019C93B3
:10311000C60101966C0196012D5F3F4FE2FE1BC078
:1031200089E4D6018C938EE411968C93119786E4F2
:1031300012968C93D9018E2F90E2882309F4A6CFA2
:103140009D938150FACF2D9381508111FCCFCE0EEB
:10315000D11CE0E0D9CF89E6D6018C938EE611969A
:103160008C93119786E6E4CF9B0177FF02C030E095
:1031700020E0A1E0B0E0911102C0B0E0A0E0F901D0
:103180003196AE0FBF1F8B2C912CBB2009F461C070
:103190005401EFEFAE1ABE0AAA0DBB1DFA161B06AC
:1031A00019F014F04F2D4A1B511188C0E3FC59C08F
:1031B0007601A42FB0E2A1114FC0C40ED11C9923F7
:1031C00009F45BC040E0D6011196F60190836D01D1
:1031D000552309F448C0012F060F9A81582F5071CA
:1031E00084FF03C0913309F4015010160CF047C05E
:1031F000093008F008E0EEE2FE2E5B01A01AB108EB
:1032000085019194819491082F3F320729F4D601CA
:10321000FC92F60131966F016217730794F1021761
:1032200013077CF5DB01A21BB30BAA24A394B12CDA
:10323000AC0EBD1EAA0DBB1D11968C9121503109FB
:10324000D601119628153905F4F0F60180836D0139
:10325000DBCFB12CA12CA0CFF701B1937F01A150FE
:10326000AACF9111B0CFD601942F50E302C05D9345
:1032700091509111FCCFC40ED11C40E0ACCF01E0C5
:10328000BACF80E3DBCF6217730731F4963388F44B
:10329000953311F4552369F0F6018083FD01842FE5
:1032A00090E2811108C0A40FB11D1C9290E080E053
:1032B000F3CE81E3F1CF91938150F3CF911183CF7E
:1032C0008ACF283008F027E03327DA01990F311D23
:1032D00087FD916000966105710539F432602E5FBB
:1032E0003D9330E32A95E1F708959F3F30F0803811
:1032F0007105610509F03C5F3C5F3D93913008F03A
:103300008068911DDF93CF931F930F93FF92EF92ED
:10331000192F987F9695E92F96959695E90FFF2797
:10332000E25CFE4F99273327EE24FF24A701E70133
:1033300005900894079428F4360FE71EF81E491FDD
:10334000511D660F771F881F991F0694A1F70590DE
:10335000079428F4E70EF81E491F561FC11D770F6A
:10336000881F991F661F0694A1F70590079428F4FB
:10337000F80E491F561FC71FD11D880F991F661FC2
:10338000771F0694A1F70590079420F4490F561F64
:10339000C71FD81F990F661F771F881F0694A9F7AC
:1033A00084911095177041F0D695C795579547951C
:1033B000F794E7941A95C1F7E4EEF0E0689415905D
:1033C000159135916591959105907FE27395E1187E
:1033D000F10A430B560BC90BD009C0F7E10CF11EE3
:1033E000431F561FC91FD01D7EF4703311F48A95F8
:1033F000E6CFE894015030F0080F0AF400270217D6
:1034000008F4202F2395022F7A3328F079E37D9357
:103410002A95E9F710C07D932A9589F60694979529
:103420006795379517951794E118F10A430B560BDA
:10343000C90BD00998F023957E9173957A3308F0E3
:1034400070E37C932013B8F77E9170617D9330F028
:10345000839571E37D9370E32A95E1F71124EF9052
:10346000FF900F911F91CF91DF91992787FD909544
:103470000895FC010590615070400110D8F78095C7
:1034800090958E0F9F1F0895FC0161507040019030
:103490000110D8F7809590958E0F9F1F0895DC013D
:1034A000FC01672F71917723E1F7329704C07C917B
:1034B0006D9370836291AE17BF07C8F308950F93A1
:1034C0001F93CF93DF93182F092FEB018B8181FD81
:1034D00009C01FEF0FEF812F902FDF91CF911F9128
:1034E0000F91089582FF14C02E813F818C819D81B0
:1034F000281739073CF4E881F981CF0101969983B7
:10350000888310838E819F8101969F838E83E3CF72
:10351000E885F985812F1995892BA1F3DACFFA0176
:10352000AA27283051F1203181F1E8946F936E7F02
:103530006E5F7F4F8F4F9F4FAF4FB1E03ED0B4E0F3
:103540003CD0670F781F891F9A1FA11D680F791F34
:103550008A1F911DA11D6A0F711D811D911DA11D45
:1035600020D009F468943F912AE0269F1124301955
:10357000305D3193DEF6CF010895462F4770405DF0
:103580004193B3E00FD0C9F7F6CF462F4F70405D9F
:103590004A3318F0495D31FD4052419302D0A9F7FA
:1035A000EACFB4E0A6959795879577956795BA95F4
:1035B000C9F700976105710508959B01AC010A2EBA
:1035C00006945795479537952795BA95C9F7620F91
:1035D000731F841F951FA01D089540D008F481E03B
:1035E0000895E89409C097FB3EF4909580957095F6
:1035F00061957F4F8F4F9F4F9923A9F0F92F96E93F
:10360000BB279395F695879577956795B795F111B3
:10361000F8CFFAF4BB0F11F460FF1BC06F5F7F4F50
:103620008F4F9F4F16C0882311F096E911C0772362
:1036300021F09EE8872F762F05C0662371F096E86B
:10364000862F70E060E02AF09A95660F771F881F3A
:10365000DAF7880F9695879597F90895990F0008DE
:10366000550FAA0BE0E8FEEF16161706E807F90754
:10367000C0F012161306E407F50798F0621B730BEF
:10368000840B950B39F40A2661F0232B242B252B70
:1036900021F408950A2609F4A140A6958FEF811D13
:1036A000811D08950BD078C069D028F06ED018F035
:1036B000952309F05AC05FC01124A2C07ED0A0F3A8
:1036C000959FD1F3950F50E0551F629FF001729FB7
:1036D000BB27F00DB11D639FAA27F00DB11DAA1FD6
:1036E000649F6627B00DA11D661F829F2227B00D23
:1036F000A11D621F739FB00DA11D621F839FA00DAE
:10370000611D221F749F3327A00D611D231F849FFD
:10371000600D211D822F762F6A2F11249F57504054
:103720008AF0E1F088234AF0EE0FFF1FBB1F661FEF
:10373000771F881F91505040A9F79E3F510570F0A8
:1037400014C05EC05F3FECF3983EDCF3869577953E
:103750006795B795F795E7959F5FC1F7FE2B880FA3
:10376000911D9695879597F9089597F99F6780E839
:1037700070E060E008959FEF80EC089500240A94C3
:103780001616170618060906089500240A9412163C
:103790001306140605060895092E0394000C11F46F
:1037A000882352F0BB0F40F4BF2B11F460FF04C01C
:1037B0006F5F7F4F8F4F9F4F089557FD9058440F75
:1037C000551F59F05F3F71F04795880F97FB991F80
:1037D00061F09F3F79F0879508951216130614063D
:1037E000551FF2CF4695F1DF08C0161617061806CA
:1037F000991FF1CF86957105610508940895E894A5
:10380000BB2766277727CB0197F90895DC01CB0109
:10381000FC01F999FECF06C0F2BDE1BDF89A3196E0
:1038200000B40D9241505040B8F70895DC01A40F48
:10383000B51F4150504040F0CB01840F951F2E9191
:1038400005D041505040D8F70895262FF999FECF62
:1038500092BD81BDF89A019700B4021639F01FBAE3
:1038600020BD0FB6F894FA9AF99A0FBE08955058F1
:10387000BB27AA270ED090CF81DF30F086DF20F063
:1038800031F49F3F11F41EF476CF0EF4E095E7FB80
:103890006CCFE92F92DF80F3BA17620773078407B2
:1038A000950718F071F49EF5AACF0EF4E0950B2E53
:1038B000BA2FA02D0B01B90190010C01CA01A00182
:1038C0001124FF27591B99F0593F50F4503E68F1DD
:1038D0001A16F040A22F232F342F4427585FF3CF1E
:1038E000469537952795A795F0405395C9F77EF4EF
:1038F0001F16BA0B620B730B840BBAF09150A1F038
:10390000FF0FBB1F661F771F881FC2F70EC0BA0FBD
:10391000621F731F841F48F4879577956795B79545
:10392000F7959E3F08F0B3CF9395880F08F099273D
:10393000EE0F97958795089548DF88F09F5790F090
:10394000B92F9927B751A0F0D1F0660F771F881FC4
:10395000991F1AF0BA95C9F712C0B13081F04FDF44
:10396000B1E008954CCF672F782F8827B85F39F0E2
:10397000B93FCCF3869577956795B395D9F73EF423
:1039800090958095709561957F4F8F4F9F4F0895CB
:1039900065DE08F48FEF089561DE880B990B0895BA
:1039A00097FB072E16F4009406D077FD08D02DD093
:1039B00007FC05D03EF4909581959F4F0895709532
:1039C00061957F4F0895A1E21A2EAA1BBB1BFD0132
:1039D0000DC0AA1FBB1FEE1FFF1FA217B307E407EE
:1039E000F50720F0A21BB30BE40BF50B661F771F46
:1039F000881F991F1A9469F7609570958095909526
:103A00009B01AC01BD01CF010895AA1BBB1B51E175
:103A100007C0AA1FBB1FA617B70710F0A61BB70B3E
:103A2000881F991F5A95A9F780959095BC01CD01E3
:103A30000895EE0FFF1F881F8BBF0790F691E02DB2
:103A40001994FB01DC0102C001900D9241505040DD
:103A5000D8F70895FB01DC014150504048F0019037
:103A60000D920020C9F701C01D9241505040E0F76F
:103A700008950F931F93CF93DF93CDB7DEB72E97A3
:103A80000FB6F894DEBF0FBECDBF0E891F8986E04A
:103A90008C831A8309838FEF9FE79E838D83AE010A
:103AA000465E5F4F688D798DCE0101969DD82F813E
:103AB0003885020F131FF80110822E960FB6F89466
:103AC000DEBF0FBECDBFDF91CF911F910F91089543
:103AD00011E0C7E7D1E000E005C0802FFE01A9DFBB
:103AE0002196011DC837D10780E00807B1F7F89487
:023AF000FFCF06
:103AF200FFFFFF3003300330033003300330033065
:103B02000330030000B80580005E00BC00770100AE
:103B12000000003F02AA01D7018B020802E601FA67
:103B2200010D0A004572726F722072656164207421
:103B320065737420004F64637A7974616E6F2074C8
:103B4200656D70657261747572653A20006E616EA2
:103B520000696E66006F7666002530325800546840
:103B6200652073656E736F7220776974682074685C
:103B72006520676976656E2061646472657373207F
:103B8200616C7265616479206578697374733A2037
:103B9200004B7563686E696100322E332E3100531B
:103BA200656E736F722072656164696E67206572FB
:103BB200726F723A200044533138423230205365DA
:103BC2006E736F72204D616E6167657200312E32C5
:103BD200005468652073656E736F7220776974682C
:103BE2002074686520676976656E20616464726519
:103BF200737320776173206E6F7420666F756E64C5
:103C0200206F6E20746865206275733A20004761E8
:103C12007465776179207374617274757020636F53
:0A3C22006D706C6574652E003B00A8
:00000001FF
