:100000007DC100000C9495110C946A110C943F1161
:100010000C9414110C94E9100C94BE100C949310D1
:100020000C9468109CC100009AC1000098C10000A7
:100030000C94C01194C1000092C1000090C1000056
:100040008EC100008CC100008AC1000088C1000080
:1000500086C1000084C1000082C100000C941E1003
:100060007EC100000C94E80F0C94BE0F78C1000014
:1000700076C1000074C1000072C1000070C10000B0
:100080006EC100006CC100006AC1000068C10000C0
:100090000C94880F0C945E0F62C1000060C10000D8
:1000A0005EC100005CC100005AC1000058C10000E0
:1000B00056C1000054C1000052C1000050C10000F0
:1000C0004EC100004CC100004AC1000048C1000000
:1000D00046C1000044C1000042C1000040C1000010
:1000E0003EC1000000407A10F35A00A0724E180979
:1000F0000010A5D4E80000E87648170000E40B548F
:10010000020000CA9A3B000000E1F505000080965D
:100110009800000040420F000000A086010000008F
:10012000102700000000E803000000006400000049
:1001300000000A00000000000100000000002C7612
:10014000D888DC674F0823DFC1DFAE59E1B1B7962D
:10015000E5E3E453C63AE651997696E8E6C284268A
:10016000EB898C9B62ED407C6FFCEFBC9C9F40F266
:10017000BAA56FA5F490055A2AF75C936B6CF967E2
:100180006DC11BFCE0E40D47FEF520E6B500D0EDA7
:10019000902E0300943577050080841E080000200F
:1001A0004E0A000000C80C333333330F986E1283AD
:1001B0001141EF8D2114893BE65516CFFEE6DB1881
:1001C000D1844B381BF77C1D901DA4BBE424203246
:1001D00084725E228100C9F124ECA1E53D272575DA
:1001E0003B25753B25753B25753B25753B25730ADE
:1001F0000000000A0B02090C0D0E080703040100A1
:1002000000000000000000000000000000000000EE
:1002100000000000000000000000000000121110AB
:1002200000000000000000000000000000000000CE
:100230000000000000000000002200250028002B24
:10024000002E003100340002010000050108010BFE
:100250000100002100240027002A002D0030003377
:100260000001010000040107010A01050505050759
:100270000508080808020202020A0A080804040421
:10028000040101010101010101030303030303034D
:1002900003040707070C0C0C0C0C0C0C0C020202DC
:1002A0000206060606060606060B0B0B0B0B0B0BCF
:1002B0000B0102102020080810204010204080026E
:1002C000010201080402010102040810204080809C
:1002D0004020100804020180040201804020100820
:1002E00004020108040201010204081020408001F8
:1002F0000204081020408000DF11E31411241FBE07
:10030000CFEFD1E2DEBFCDBF00E00CBF12E0A0E036
:10031000B2E0E2E9FCE300E00BBF02C007900D92FF
:10032000A03FB107D9F727E0A0EFB2E001C01D92CE
:10033000A638B207E1F711E0CDE7D1E000E006C052
:1003400021970109802FFE010E94181ECC37D1078A
:1003500080E00807A9F70E943C120C94381E50CE8A
:10036000AF92BF92CF92DF92EF92FF920F931F93C3
:10037000CF93DF936C017B018B01040F151FEB0101
:100380005E01AE18BF08C017D10759F06991D601B8
:10039000ED91FC910190F081E02DC6011995892B1A
:1003A00079F7C501DF91CF911F910F91FF90EF90E9
:1003B000DF90CF90BF90AF900895FC01538D448D96
:1003C000252F30E0842F90E0821B930B541710F000
:1003D000CF96089501970895FC01918D828D98170D
:1003E00061F0A28DAE0FBF2FB11D5D968C91928DE5
:1003F0009F5F9F73928F90E008958FEF9FEF089516
:10040000FC01918D828D981731F0828DE80FF11DDE
:10041000858D90E008958FEF9FEF0895FC01918DF9
:10042000228D892F90E0805C9F4F821B91098F73F2
:100430009927089589EA94E0F1DF21E0892B09F4F6
:1004400020E0822F08958CE094E0E8DF21E0892B02
:1004500009F420E0822F0895FC01A48DA80FB92F84
:10046000B11DA35ABF4F2C91848D90E001968F73DC
:100470009927848FA689B7892C93A089B1898C91FB
:10048000837080648C93938D848D981306C002884A
:10049000F389E02D80818F7D80830895EF92FF9214
:1004A0000F931F93CF93DF93EC0181E0888F9B8D97
:1004B0008C8D98131AC0E889F989808185FF15C051
:1004C0009FB7F894EE89FF896083E889F989808174
:1004D0008370806480839FBF81E090E0DF91CF9143
:1004E0001F910F91FF90EF900895F62E0B8D10E065
:1004F0000F5F1F4F0F731127E02E8C8D8E110BC0D5
:100500000FB607FCFACFE889F989808185FFF5CF1E
:10051000CE01A2DFF2CFEB8DEC0FFD2FF11DE35AE0
:10052000FF4FF0829FB7F8940B8FEA89FB89808197
:100530008062D0CFCF93DF93EC01888D8823B1F018
:10054000AA89BB89E889F9898C9185FD03C08081DE
:1005500086FD0CC00FB607FCF7CF8C9185FFF2CF5C
:10056000808185FFEDCFCE0177DFEACFDF91CF919C
:10057000089580E090E0892B21F065DF81110E94D1
:10058000000080E090E0892B21F054DF81110E946F
:10059000000080E090E0892B49F080E090E0892B1A
:1005A00029F00E94000081110E94000080E090E08C
:1005B000892B49F080E090E0892B29F00E9400000F
:1005C00081110C9400000895282F30E0F901EF50BC
:1005D000FE4F9491F901EF54FD4F449125593D4F41
:1005E000F9012491222309F435C0992311F1915086
:1005F0009231F8F4E92FF0E08827EE5FFC4F8F4F3F
:100600000C94181E3303370314032B032F03190311
:100610003A03400344034A034E03520358035C0366
:100620001903600366036A03809180008F778093CB
:100630008000E22FF0E0EE0FFF1FE95CFD4FA59177
:10064000B4918FB7F894EC91611148C040954E2356
:100650004C938FBF0895809180008F7DE8CF80916B
:100660008000877FE4CF84B58F7784BDE2CF84B5E7
:100670008F7DFBCF8091B0008F778093B000D9CF72
:100680008091B0008F7DF9CF809190008F7780931B
:100690009000CFCF809190008F7DF9CF8091900016
:1006A000877FF5CF8091A0008F778093A000C1CF86
:1006B0008091A0008F7DF9CF8091A000877FF5CF3A
:1006C000809120018F7780932001B3CF809120010A
:1006D0008F7DF9CF80912001877FF5CF4E2BB8CF4A
:1006E00061E080910B0470CF60E080910B046CCFCF
:1006F0000895FC0190E080E06817790760F030977A
:1007000051F08617970711F4CF0108950280F38105
:10071000E02D0196F1CF0895EF92FF920F931F9372
:10072000CF93DF930091190710911A071016110645
:10073000DCF4D82FE0901B07F0901C07C0E06C2F72
:1007400070E06017710784F4C701D3DFFC012181D9
:100750002D1308C08081DF91CF911F910F91FF90E1
:10076000EF900895CF5FEBCF80E0F5CFCF92DF928F
:10077000EF92FF921F93CF93DF93E0901907F090D1
:100780001A071E141F04ACF4162FD82FC0901B0795
:10079000D0901C07C0E06C2F70E06E157F054CF404
:1007A000C601A7DFFC01808181130DC091E081812A
:1007B0008D1390E0892FDF91CF911F91FF90EF90E3
:1007C000DF90CF900895CF5FE6CFFC0190E080E00E
:1007D0006817790760F0309751F08617970711F482
:1007E000CF01089503A8F4A9E02D0196F1CF089553
:1007F00008950895FC0101900020E9F73197AF01B9
:10080000481B590BBC018CE094E0AACDCF93DF9339
:10081000F1DFEC018BE292E0EDDF8C0F9D1FDF91A9
:10082000CF9108958F929F92AF92BF92CF92DF9215
:10083000EF92FF920F931F93CF93DF93CDB7DEB765
:10084000E3970FB6F894DEBF0FBECDBF009147050A
:100850001091480510161106A4F4C0904905D090D7
:100860004A05F12C6F2D70E06017710754F4C60132
:10087000ACDFDC019D968C91813009F474C0F39457
:10088000F1CF809118078FA787E390E00E94311580
:1008900019824FE652E163E87AE34A835B836C8313
:1008A0007D832DECC22E2CECD22EED2C2DE3F22EDE
:1008B000CE82DF82E886F986CA86DB86EC86FD86F4
:1008C0004E875F87688B798B3AE0832E37ED932EC6
:1008D00033E2A32E3CE3B32E8A8A9B8AAC8ABD8A7C
:1008E0004E8B5F8B688F798FCA8EDB8EEC8EFD8E80
:1008F000CE8EDF8EE8A2F9A24AA35BA36CA37DA3F0
:100900008EA29FA2A8A6B9A621E02EA728AB29AB4C
:100910002EE232E03BAB2AAB23E3FE013196DC0151
:1009200001900D922A95E1F7FC0114AA13AA16AAC8
:1009300015AAE0914B05F0914C05309709F042C0A3
:1009400090934A058093490590934C0580934B05FD
:100950000F5F1F4F109348050093470580911807BC
:100960008E5F809318070091190710911A071016CF
:10097000110694F5C0901B07D0901C07F12C6F2D29
:1009800070E06017710744F5C601B3DEFC012081F9
:10099000213001F581818130E9F484E492E0E3962D
:1009A0000FB6F894DEBF0FBECDBFDF91CF911F9180
:1009B0000F91FF90EF90DF90CF90BF90AF909F90FE
:1009C0008F9024CFDC01D696FC93EE93D59794AB11
:1009D00083ABBACFF394D3CF86E090E00E94311579
:1009E000FC0181E08083818313821282158214824C
:1009F000A0911D07B0911E07109709F5F0931C07F1
:100A0000E0931B07F0931E07E0931D070F5F1F4F36
:100A100010931A0700931907E3960FB6F894DEBFF8
:100A20000FBECDBFDF91CF911F910F91FF90EF903F
:100A3000DF90CF90BF90AF909F908F900895B58337
:100A4000A4831396FC93EE931297DCCF0F931F931E
:100A5000CF93DF93EC01E0E06115710551F0FB01EC
:100A600001900020E9F73197E61BF70BE931F1051A
:100A700000F50E2F10E08B818770980193E0220F14
:100A8000331F9A95E1F7822B8B838C818F718C8336
:100A9000EE2329F0A801CE0107960E94291EFE012F
:100AA000E00FF11F1782CE01DF91CF911F910F91BF
:100AB0000895E9E1DECFCF9384EA80934605109252
:100AC00048051092470510924A0510924905109268
:100AD0004C0510924B05109262061092610610921E
:100AE000640610926306109266061092650687E609
:100AF00096E00E94CA11C1E0C0936D0681E1809327
:100B00006C0688E896E00E94CA11C0938E0682E1C6
:100B100080938D0689EA96E00E94CA11C093AF06C1
:100B200088E38093AE068AEC96E00E94CA11C093D7
:100B3000D00686E28093CF068BEE96E00E94CA1123
:100B4000C093F10687E28093F0068091460580937A
:100B5000180710921A071092190710921C0710928A
:100B60001B0710921E0710921D0729EA34E03093EC
:100B70000D0720930C079AE090930B0482E080937A
:100B80000E0790930F07E091B904F091BA048083A7
:100B9000E091B504F091B6041082E091B704F091B1
:100BA000B8048FEC80831092C104E091BD04F091F1
:100BB000BE0486E08083E091BB04F091BC04808198
:100BC00080618083E091BB04F091BC0480818860E7
:100BD0008083E091BB04F091BC04808180688083B5
:100BE000E091BB04F091BC0480818F7D80831092E2
:100BF00062061092610610926406109263061092CB
:100C0000660610926506C0934F0530934E052093FB
:100C10004D0510925A0610925C0610925B06EBEBA3
:100C2000F2E02491E5E7F2E08491882399F090E0E6
:100C3000880F991FFC01EF5AFD4FA591B491FC015B
:100C4000E95CFD4F859194918FB7F894EC91E22B7C
:100C5000EC938FBF80E793E09093640680936306E4
:100C600084E793E0909366068093650610921007E0
:100C70001092110710921207109213071092140786
:100C8000109215071092160710921707CF9108952A
:100C90000F931F93CF93DF93EC018C818295869500
:100CA0008770A9F44B8146954695469550E0BE0164
:100CB000695F7F4F88E693E00E94291EEB81E695ED
:100CC000E695E695F0E0E859FC4F108209C08130C6
:100CD000D9F58F814AE068E673E090E00E94C01683
:100CE0008C8128E633E03F932F939D811F929F9341
:100CF00084FB992790F91F929F9387701F928F937F
:100D00008E811F928F9389811F928F938EED91E038
:100D10009F938F931F9288E78F9380EF92E09F932A
:100D20008F930E942F1780EF92E064DD8DB79EB7FE
:100D300042960FB6F8949EBF0FBE8DBF81E0DF9143
:100D4000CF911F910F910895823031F44AE068E607
:100D500073E08F819885C2CF833041F44AE068E622
:100D600073E08F8198850E941617BACF843051F4B2
:100D70006F81788589859A852AE048E653E00E944C
:100D8000CA16AECF853051F46F81788589859A85F2
:100D90002AE048E653E00E94F516A2CF873051F1D1
:100DA000A8E6B3E09E01295F3F4F40E0EB81E69566
:100DB000E695E6954E1780F5B901F9018081082E78
:100DC000000C990B54E0959587955A95E1F78F7033
:100DD0008A30F0F4805D8C932F5F3F4FFB01808160
:100DE0008F708A30B8F4805D11968C9311974F5FA5
:100DF0001296DCCF2B85293008F028E06F817885AA
:100E000089859A8508E613E042E00E94141568CFB0
:100E1000895CE1CF895CE8CFF0E0EE0FFF1F53CF94
:100E2000FC012281211101C033CF80E00895FC0133
:100E300011829481907F91609483CF01F1CFAF9222
:100E4000BF92CF92DF92EF92FF920F931F93CF93B7
:100E5000DF93EC018881811112C0EBA5FCA53097CE
:100E600009F443C160E08DA5DF91CF911F910F91EF
:100E7000FF90EF90DF90CF90BF90AF90199488A92A
:100E8000882399F1CD80DE80EF80F884298D3A8D1A
:100E90004B8D5C8DC701B6010E94641C882329F12B
:100EA000C98EDA8EEB8EFC8E8EA58F5F8093D00676
:100EB0004D815E816F8178858091CD0687708862D3
:100EC0008093CD068091CE06806E8093CE064093AF
:100ED000D1065093D2066093D3067093D40681E076
:100EE0008093D5068AEC96E0A2DF8FA5882391F146
:100EF000C984DA84EB84FC84A70196016D8D7E8D14
:100F00008F8D98A10E94641C882321F1CD8EDE8EE6
:100F1000EF8EF8A28EA580936D0649855A856B8564
:100F20007C8580916A068770886280936A068091CA
:100F30006B06806E80936B0640936E0650936F062F
:100F4000609370067093710681E08093720687E665
:100F500096E06DDF88A9882399F1C980DA80EB805B
:100F6000FC80A70196016D897E898F89988D0E94EA
:100F7000641C882329F1CD8ADE8AEF8AF88E8EA53B
:100F80008F5F8093F10649815A816B817C818091CA
:100F9000EE06877088628093EE068091EF06806E81
:100FA0008093EF064093F2065093F3066093F406A5
:100FB0007093F50683E08093F6068BEE96E037DFBC
:100FC0008FA5882391F1CD84DE84EF84F888A70172
:100FD000960169A17AA18BA19CA10E94641C88231F
:100FE00021F1C9A2DAA2EBA2FCA28EA580938E0603
:100FF0004D855E856F85788980918B0687708862C4
:1010000080938B0680918C06806E80938C06409333
:101010008F0650939006609391067093920683E03A
:101020008093930688E896E002DF8FA5882391F1EC
:10103000C988DA88EB88FC88A70196016DA17EA19A
:101040008FA198A50E94641C882321F1CDA2DEA265
:10105000EFA2F8A68EA58093AF0649895A896B89BD
:101060007C898091AC06877088628093AC06809101
:10107000AD06806E8093AD064093B0065093B106E6
:101080006093B2067093B30682E08093B40689EA57
:1010900096E0CDDEE9A5FAA5309739F1A984BA84A6
:1010A000CB84DC84E980FA800B811C812D813E8118
:1010B0004F8158858C898F938B898F938A898F93E1
:1010C00089898F9388898F938F858F938E858F934E
:1010D0008D858F9360E08DA519958DB79EB7089685
:1010E0000FB6F8949EBF0FBE8DBFDF91CF911F91B9
:1010F0000F91FF90EF90DF90CF90BF90AF90089549
:101100002F923F924F925F926F927F928F929F9217
:10111000AF92BF92CF92DF92EF92FF920F931F9305
:10112000CF93DF93CDB7DEB7CF51D1400FB6F89450
:10113000DEBF0FBECDBF9FB7F8944090070450901C
:1011400008046090090470900A04CB5FDE4F488267
:1011500059826A827B82C550D1409FBFC0901007E0
:10116000D0901107E0901207F09013074C145D0423
:101170006E047F0488F44092100750921107609229
:10118000120770921307409214075092150760924D
:1011900016077092170749C0B82E811160C0809160
:1011A0000E0748EE53E0849F9001859F300D112477
:1011B000C901330FAA0BBB0B8C0D9D1DAE1DBF1DAE
:1011C000CB5FDE4F488059806A807B80C550D1401C
:1011D000481659066A067B0608F041C040910F0781
:1011E00028EE33E0429FC001439F900D1124092E49
:1011F000000CAA0BBB0B409114075091150760918E
:10120000160770911707840F951FA61FB71FCB5F96
:10121000DE4F488059806A807B80C550D140481697
:1012200059066A067B0608F0B8C2C15EDE4F0FB6EB
:10123000F894DEBF0FBECDBFDF91CF911F910F910C
:10124000FF90EF90DF90CF90BF90AF909F908F90E6
:101250007F906F905F904F903F902F900895809176
:10126000470590914805181619060CF083C2A12C69
:101270009E01295F3F4FCF5FDE4F39832883C150E6
:10128000D1406A2D70E0809147059091480568171C
:1012900079070CF06FC28091490590914A0595DA63
:1012A0007C01DC019D968C9180934F051092510535
:1012B00010925005E9E0F0E0F0935305E0935205F9
:1012C0008983F4E0FA831B821C821D8279E0472E19
:1012D0004E828E010F5F1F4FF8018FEF9FEF680165
:1012E0002191822728E030E0AC0141705527969586
:1012F0008795452B21F041E0842740EA942721502F
:10130000310991F7CF5FDE4F48805980C150D140FD
:101310004E165F0629F78F839887198680914D05B1
:1013200090914E05DC01ED91FC910284F385E02D56
:101330001995019699F7E0916306F091640630974C
:1013400009F019954801E8E08E0E911C80914D0539
:1013500090914E05D8016D918D01DC01ED91FC91CC
:101360000190F081E02D19958016910679F7809112
:101370004D0590914E05DC01ED91FC910680F781C1
:10138000E02D1995E0916506F0916606309709F019
:1013900019958FB7F8944090070450900804609016
:1013A000090470900A048FBF10E008E080914D0599
:1013B00090914E05DC01ED91FC910084F185E02DCA
:1013C0001995892B09F44AC080914D0590914E05DD
:1013D000DC01ED91FC910284F385E02D1995F60175
:1013E000E10FF11D808301501F5F153009F05EC0D1
:1013F000998180914F059813AEC1EA818E2F8F7726
:10140000843009F0AAC1E7FF32C08B8181116AC024
:101410004FEF5FEFA0E0212F30E0C90102976A2F64
:1014200070E0681779070CF040C16C0D7D1DFB0161
:101430006081462768E070E0FA01E170FF27569569
:101440004795EF2B21F0F1E04F27F0EA5F2761503D
:10145000710991F7AF5FE3CF82EE3EC0E091610684
:10146000F0916206309709F4C0CF1995BECFE450D1
:10147000E431E0F4F0E08827EF5BF54F8F4F0C94F8
:10148000181E550A1E0B1E0B560A560A560A560AF5
:10149000560A560A560A560A1E0B1E0B560A560ABA
:1014A000560A560A560A1C0B550A0B812FB7F89498
:1014B0008091070490910804A0910904B0910A0456
:1014C0002FBF84199509A609B709813D9740A10549
:1014D000B10508F0C1CF80E0002309F4B1C0882332
:1014E00009F464CF10925A0610925C0610925B06C3
:1014F00010925F06811138C181E0F701808360910D
:1015000054057091550590E080E00E94681C20E031
:1015100030E040E251E40E94B01DD70115966D9372
:101520007D938D939C93189730905C05212C0091AE
:101530005A0510915B0502291329B80190E080E05B
:101540000E94681C083E134030F420E030E040E286
:1015500051E40E94B01DF7016187728783879487E9
:10156000F0915805CC5FDE4FF883C450D140CD5F79
:10157000DE4F1882C350D1406091560570915705D7
:10158000CD5FDE4F48805980C350D1406429752912
:1015900090E080E00E94681C20E030E04AE754E4DC
:1015A0000E94B01DD70111966D937D938D939C93EE
:1015B0001497B0916005C65FDE4FB883CA50D14022
:1015C000C75FDE4F1882C950D14000915E0510916F
:1015D0005F05C75FDE4F48805980C950D14004295C
:1015E0001529B80190E080E00E94681C0031174284
:1015F00008F4B5C020E030E048EC52E40E94B01D91
:10160000D7011D966D937D938D939C935097609118
:1016100064057091650590E080E00E94681C20E000
:1016200030E048EC52E40E94B01DF701618B728BF0
:10163000838B948BA39425CE05E038CF03E036CF7F
:10164000811150CF153008F0E3CE8A81853030F417
:10165000833030F48130B8F580E044CF8731E1F752
:101660002B8130E0359527958091600640E0E42F8E
:10167000F0E0E217F3070CF06BC0403498F4CF01B0
:101680000296880F991FEE0FFF1FE35BFA4FDE01F2
:10169000A80FB91F5C918C0D9D1DDC018C91952FBD
:1016A00090878783842F4F5FE2CF8C0D9D1DDC01D7
:1016B0008C91841306C02C0F3D1FF9018081851782
:1016C00021F283EE0FCF5B81252F30E035952795F2
:1016D0006091600640E0842F90E082179307ECF45D
:1016E0004034C0F4880F991FFC01E35BFA4FA5E07A
:1016F000B0E0AC0FBD1FA80FB91F6C9174E0472E6E
:10170000512C4C0E5D1E840D951DDC018C91962F85
:1017100090878783642F4F5FDECF6093600650FF12
:101720009BCF403488F4880F991FFC01E35BFA4F8C
:1017300004E0402E512C4C0E5D1E840D951DDC01E5
:101740008C9190E0908787834F5F4093600684CFB1
:101750008093600681CF80EEC5CE81EEC3CE20E0BF
:1017600030E04AE754E44ACFD7011C928EE692E07B
:101770004DD860CFCB5FDE4F488059806A807B8038
:10178000C550D14040921007509211076092120745
:1017900070921307BB2009F421CD809147059091E9
:1017A0004805181619060CF0DEC2CB5EDE4F188213
:1017B000C551D1406090470570904805C95EDE4F25
:1017C00079826882C751D140CB5EDE4F7880C551A7
:1017D000D140672D70E0C95EDE4F48805980C75107
:1017E000D140641575050CF0BEC2209049053090BB
:1017F0004A05C1010E94E5038C01DC019D96FC9025
:101800008F2D0E948C03CD5FDE4F8883C350D14063
:1018100081110EC0C80113DBCB5EDE4FF881C551CC
:10182000D140FF5FCB5EDE4FF883C551D140C2CFC0
:10183000CD5FDE4F6881C350D1408F2D0E94B6032B
:10184000782E882349F34090190750901A07C75EF5
:10185000DE4F59824882C951D140141415040CF04E
:1018600010C140901B0750901C07C25EDE4F59828A
:101870004882CE51D140CA5EDE4F1882C651D14057
:10188000C12CD12C7601CF5EDE4FC882D982EA828C
:10189000FB82C151D140C35FDE4FC882D982EA8248
:1018A000FB82CD50D14046015701C75FDE4F888291
:1018B0009982AA82BB82C950D140612CCA5EDE4F98
:1018C0005880C651D140652D70E0C75EDE4F48801C
:1018D0005980C951D140641575050CF0AFC0C25E86
:1018E000DE4F88819981CE51D1400E947903C55E37
:1018F000DE4F99838883CB51D140DC018C91CD5F41
:10190000DE4F4880C350D14048128CC000E0602FA9
:1019100070E0C95EDE4F48805980C751D1406415E0
:1019200075050CF07FC0C1010E94E5032C01DC01AC
:101930009D969C91C55EDE4FE881F981CB51D140E7
:10194000818198136DC06394F1E06F1205C0C35E8E
:10195000DE4F0883CD51D140D2011C911111172DBA
:10196000F2012181328143815481C75FDE4F68815A
:1019700079818A819B81C950D1400E944C1DC75FEB
:10198000DE4F688379838A839B83C950D140D2011B
:1019900015962D913D914D915C911897C501B4011B
:1019A0000E944C1D4B015C01F2012185328543856B
:1019B0005485C35FDE4F688179818A819B81CD50D8
:1019C000D1400E944C1DC35FDE4F688379838A83B8
:1019D0009B83CD50D140D2011D962D913D914D91CB
:1019E0005C915097CF5EDE4F688179818A819B81BF
:1019F000C151D1400E944C1DCF5EDE4F6883798378
:101A00008A839B83C151D140F20121893289438964
:101A10005489C701B6010E944C1D6B017C01712ED7
:101A20000F5F75CFCA5EDE4FF881C651D140FF5FB0
:101A3000CA5EDE4FF883C651D14040CFC35EDE4F51
:101A40004880CD51D140042D10E0711038C087E896
:101A500092E00E940604B8018091490590914A05E0
:101A60000E94E503DC019B96ED91FC91309709F40F
:101A7000D3CE61E0CD5FDE4F8881C350D140199550
:101A8000CBCECF5EDE4F188219821A821B82C151E3
:101A9000D140C35FDE4F188219821A821B82CD505B
:101AA000D140C75FDE4F188219821A821B82C9504B
:101AB000D140C12CD12C760146015701612C662DF5
:101AC00070E090E080E00E946A1C2B013C01AC01B8
:101AD0009B01C501B4010E94B01D4B015C01A30133
:101AE0009201C701B6010E94B01D6B017C01C35E6B
:101AF000DE4F4880CD51D140042D10E0B801C10126
:101B00000E94E503FC0181A992A920A937A546A559
:101B10005FE6452E52E1552E53E8652E5AE3752EA9
:101B20004E8A5F8A688E798E6DEC462E6CEC562E4E
:101B3000652C6DE3762E4A8E5B8E6C8E7D8E4E8E7E
:101B40005F8E68A279A27FE6472E72E1572E73E876
:101B5000672E7AE3772E4AA25BA26CA27DA2EAE00E
:101B60004E2EE7ED5E2EE3E26E2EECE37E2E4EA2CD
:101B70005FA268A679A6552453945EA64FA738ABFA
:101B800029AB9BAB8AAB5982C75FDE4F4880598037
:101B90006A807B80C950D1404A825B826C827D82A0
:101BA0008E829F82A886B986C35FDE4F48805980A7
:101BB0006A807B80CD50D1404A865B866C867D866C
:101BC000CF5EDE4F488059806A807B80C151D14012
:101BD0004E865F86688A798ACA8ADB8AEC8AFD8AA1
:101BE000B801C1010E94E503FC0185899689A78996
:101BF000B08D8E8B9F8BA88FB98FB801C1010E94C9
:101C0000E503FC01818D928DA38DB48D8A8F9B8F0E
:101C1000AC8FBD8FB801C1010E94E503FC01858D29
:101C2000968DA78DB0A18E8F9F8FA8A3B9A3B80161
:101C3000C1010E94E503FC0181A192A1A3A1B4A16D
:101C40008AA39BA3ACA3BDA3B801C1010E94E50375
:101C5000FC0185A196A1A7A1B0A58EA39FA3A8A7CB
:101C6000B9A7CE010196EBD8E0904905F0904A055E
:101C7000B801C7010E94E5034E895F89688D798D9F
:101C8000DC0155964D935D936D937C935897B80105
:101C9000C7010E94E5034A8D5B8D6C8D7D8DFC0133
:101CA000418F528F638F748FB801C7010E94E50383
:101CB0004E8D5F8D68A179A1DC015D964D935D939A
:101CC0006D937C939097B801C7010E94E5034AA1E8
:101CD0005BA16CA17DA1FC0141A352A363A374A3EA
:101CE000B801C7010E94E5034EA15FA168A579A5CF
:101CF000DC0195964D935D936D937C939897B80115
:101D0000C7010E94E503DC019996ED91FC913097A3
:101D100009F482CDAE8CBF8CC8A0D9A0EE88FF8814
:101D2000088D198D2A8D3B8D4C8D5D8D89A58F93E6
:101D300088A58F938FA18F938EA18F938DA18F9361
:101D40008CA18F938BA18F938AA18F9361E0CD5F3C
:101D5000DE4F8881C350D14019950FB6F894DEBF8D
:101D60000FBECDBF59CDCB5FDE4F488059806A8012
:101D70007B80C550D14007CA80E0C2C910922007BD
:101D800010922107809325076093240790912307E1
:101D9000907E909323078F3F11F442EB52E0BA01FB
:101DA0008FE197E00E9426053BC8EF92FF920F93C8
:101DB0001F93CF93DF931092200710922107CFEF4C
:101DC000C09325078BE08093240780912307807EB2
:101DD00083608093230768EB72E08FE197E00E94B5
:101DE00026051ED81092200710922107C0932507C0
:101DF0008CE08093240780912307807E836080930A
:101E000023076FEC72E08FE197E00E94260508D867
:101E10008091470590914805181619060CF041C0AD
:101E200010E0E12EF12C8091470590914805E816CD
:101E3000F9067CF5B7018091490590914A050E9409
:101E4000E503EC010DA5802F0E948C03882331F05F
:101E5000682F802F0E94B6038823C9F08FA588239E
:101E600029F049A95AA96DE08EA588DFB7018091B4
:101E7000490590914A050E94E503FC0180A9882349
:101E800031F041A952A986A56EE18F5F77DF1F5F10
:101E9000C8CF81E0DF91CF911F910F91FF90EF901C
:101EA0002FC9DF91CF911F910F91FF90EF9008956F
:101EB0004DE252E061E18FEF61DF77CF1F920F9229
:101EC0000FB60F9211240BB60F922F933F934F939F
:101ED0005F936F937F938F939F93AF93BF93EF9392
:101EE000FF9389EA94E00E942C02FF91EF91BF9149
:101EF000AF919F918F917F916F915F914F913F91A2
:101F00002F910F900BBE0F900FBE0F901F90189542
:101F10001F920F920FB60F9211240BB60F922F93B0
:101F20008F939F93EF93FF93E091B904F091BA04DC
:101F30008081E091BF04F091C00482FD1DC09081BA
:101F40008091C2048F5F8F732091C304821741F088
:101F5000E091C204F0E0E755FB4F958F8093C204F7
:101F6000FF91EF919F918F912F910F900BBE0F904A
:101F70000FBE0F901F9018958081F2CF1F920F9285
:101F80000FB60F9211240BB60F922F933F934F93DE
:101F90005F936F937F938F939F93AF93BF93EF93D1
:101FA000FF938CE094E00E942C02FF91EF91BF918F
:101FB000AF919F918F917F916F915F914F913F91E1
:101FC0002F910F900BBE0F900FBE0F901F90189582
:101FD0001F920F920FB60F9211240BB60F922F93F0
:101FE0008F939F93EF93FF93E0911C04F0911D0456
:101FF0008081E0912204F091230482FD1DC0908134
:10200000809125048F5F8F7320912604821741F001
:10201000E0912504F0E0E45FFB4F958F8093250469
:10202000FF91EF919F918F912F910F900BBE0F9089
:102030000FBE0F901F9018958081F2CF1F920F92C4
:102040000FB60F9211242F933F938F939F93AF93CB
:10205000BF938091070490910804A0910904B09166
:102060000A043091060423E0230F2D3758F501961A
:10207000A11DB11D209306048093070490930804CA
:10208000A0930904B0930A04809102049091030480
:10209000A0910404B09105040196A11DB11D809387
:1020A000020490930304A0930404B0930504BF9129
:1020B000AF919F918F913F912F910F900FBE0F90F5
:1020C0001F90189526E8230F0296A11DB11DD2CFAF
:1020D0001F920F920FB60F9211240BB60F922F93EF
:1020E0003F934F935F936F937F938F939F93AF93A0
:1020F000BF93EF93FF93E0911102F09112021995B3
:10210000FF91EF91BF91AF919F918F917F916F91CF
:102110005F914F913F912F910F900BBE0F900FBE8B
:102120000F901F9018951F920F920FB60F921124C7
:102130000BB60F922F933F934F935F936F937F93C1
:102140008F939F93AF93BF93EF93FF93E0910F0211
:10215000F09110021995FF91EF91BF91AF919F916E
:102160008F917F916F915F914F913F912F910F9040
:102170000BBE0F900FBE0F901F9018951F920F92DD
:102180000FB60F9211240BB60F922F933F934F93DC
:102190005F936F937F938F939F93AF93BF93EF93CF
:1021A000FF93E0910502F09106021995FF91EF91DE
:1021B000BF91AF919F918F917F916F915F914F915F
:1021C0003F912F910F900BBE0F900FBE0F901F905D
:1021D00018951F920F920FB60F9211240BB60F9203
:1021E0002F933F934F935F936F937F938F939F931F
:1021F000AF93BF93EF93FF93E0910302F09104023A
:102200001995FF91EF91BF91AF919F918F917F9120
:102210006F915F914F913F912F910F900BBE0F9057
:102220000FBE0F901F9018951F920F920FB60F922E
:1022300011240BB60F922F933F934F935F936F939D
:102240007F938F939F93AF93BF93EF93FF93E0910F
:102250000D02F0910E021995FF91EF91BF91AF9190
:102260009F918F917F916F915F914F913F912F91AE
:102270000F900BBE0F900FBE0F901F9018951F92DE
:102280000F920FB60F9211240BB60F922F933F931C
:102290004F935F936F937F938F939F93AF93BF936E
:1022A000EF93FF93E0910B02F0910C021995FF91CF
:1022B000EF91BF91AF919F918F917F916F915F91BE
:1022C0004F913F912F910F900BBE0F900FBE0F902B
:1022D0001F9018951F920F920FB60F9211240BB6F4
:1022E0000F922F933F934F935F936F937F938F93AF
:1022F0009F93AF93BF93EF93FF93E0910902F09107
:102300000A021995FF91EF91BF91AF919F918F9123
:102310007F916F915F914F913F912F910F900BBEE5
:102320000F900FBE0F901F9018951F920F920FB62F
:102330000F9211240BB60F922F933F934F935F93FD
:102340006F937F938F939F93AF93BF93EF93FF937D
:10235000E0910702F09108021995FF91EF91BF916A
:10236000AF919F918F917F916F915F914F913F912D
:102370002F910F900BBE0F900FBE0F901F901895CE
:102380001F920F920FB60F9211240F900FBE0F9055
:102390001F901895CF93DF93FC0110821182128257
:1023A000148215821682DC0117968AE1ED011992DA
:1023B0008A95E9F782E08383DF91CF910895E9EA76
:1023C000F4E01382128248EE53E060E070E0448350
:1023D0005583668377838DE192E0918380832DEC32
:1023E00030E0358724872CEC30E03787268728ECCF
:1023F00030E0318B208B29EC30E0338B228B2AECC0
:1024000030E0358B248B2EEC30E0378B268B118E11
:10241000128E138E148EECE0F4E013821282448349
:102420005583668377839183808385EC90E09587DD
:10243000848784EC90E09787868780EC90E0918B8E
:10244000808B81EC90E0938B828B82EC90E0958B7B
:10245000848B86EC90E0978B868B118E128E138E78
:10246000148E81E697E096DF80E497E093DF8FE1BA
:1024700097E090DF0C945B05CF93DF93CDB7DEB789
:102480006B970FB6F894DEBF0FBECDBF789484B5BE
:10249000826084BD84B5816084BD85B5826085BD60
:1024A00085B5816085BD80916E00816080936E00EE
:1024B00010928100809181008260809381008091E0
:1024C0008100816080938100809180008160809391
:1024D00080008091B10084608093B1008091B00051
:1024E00081608093B0008091910082608093910020
:1024F0008091910081608093910080919000816033
:10250000809390008091A10082608093A1008091CF
:10251000A10081608093A1008091A00081608093E0
:10252000A00080912101826080932101809121018E
:10253000816080932101809120018160809320013E
:1025400080917A00846080937A0080917A00826022
:1025500080937A0080917A00816080937A008091E4
:102560007A00806880937A001092C100A89580E07C
:1025700090E0892B11F00E940000E0911C04F09182
:102580001D0482E08083E0911804F0911904108208
:10259000E0911A04F0911B0480E1808310922404DE
:1025A000E0912004F091210486E08083E0911E04F4
:1025B000F0911F04808180618083E0911E04F0917E
:1025C0001F04808188608083E0911E04F0911F04C5
:1025D000808180688083E0911E04F0911F048081D7
:1025E0008F7D8083809101048D7F809301040E9400
:1025F000120441E050E063E071E080E094E00E946A
:102600001A1D10922007109221078FEF8093250743
:102610008EE08093240780912307807E83608093DF
:10262000230763ED72E08FE197E00E9426050E9488
:1026300048063EDC8091010481FD04C08160826017
:1026400080930104A89599249A947BE1872EE3E274
:102650007E2EF0E0CF2EF0E0DF2EA8958CE094E007
:102660000E940E02892B09F4AEC08CE094E00E9417
:10267000EC019091FF03933608F028C1E92FF0E0B8
:10268000E556FC4F8A3009F01CC11082AE01465E4F
:102690005F4F6DEE72E08BE993E04BD300E0F12CDD
:1026A000E12C10E0A12CB12C009709F486C026E0A3
:1026B000E216F10409F48BC023E0E216F10409F4F8
:1026C0004BC0BCF421E0E216F104B9F122E0E216BD
:1026D000F104B9F1EBD2809363078FEFE81AF80A9F
:1026E000AE01465E5F4F6DEE72E090E080E021D378
:1026F000DBCF24E0E216F10409F43DC025E0E21648
:10270000F10441F7FC01043009F045C080818823C1
:1027100021F38A33A4F580538295807F91819A3387
:10272000A4F59053A1E0B0E0AC0FBD1FA10FB11D07
:10273000890F8C931F5F3296E9CFB8D280936707D9
:10274000CCCFB4D2082F80916507887F902F9770E7
:10275000892B80936507C1CF20916507622EE8948D
:1027600063F8A4D2892B29F088E0682A6092650773
:10277000B4CF80E0FACF9AD280936607AECF81368D
:1027800014F08755C9CF8753C7CF913614F09755AA
:10279000C9CF9753C7CF01900020E9F7E81BE2505B
:1027A000E80FF92FF11D20812D3009F410822081CE
:1027B0002A3009F410825C0190CF25E0E216F10482
:1027C00034F41092FF03D8DA0E94B90246CF109277
:1027D000620710926107809165078F7E809365077D
:1027E000043009F068C01A3108F019E190916407CB
:1027F0009770412F50E09A0163E0220F331F6A95D2
:10280000E1F7922B909364078F71806C809365073A
:10281000BE016F5F7F4F88E697E00E94201E1092F6
:10282000FF0381E2E1E6F7E0A0E4B7E001900D925A
:102830008A95E1F7109142071111C5CF80914407A5
:1028400083FF17C091E2E0E4F7E0AFE1B7E0019069
:102850000D929A95E1F7877F80618093230710920C
:10286000200780914107809321078FE197E00E9424
:10287000480680914407982F9770933009F0A3CFB2
:1028800090914507923029F5109220071092210768
:10289000909225079093240780912307807E836080
:1028A0008093230762EB72E08FE197E00E94260598
:1028B0000E94480688CFB50181E697E00E94260570
:1028C000AECF80839F5F9093FF03C8CE1092FF032B
:1028D000C5CE0091410701114AC09D3059F488E1ED
:1028E00098E00FB6F894A895809360000FBE90937F
:1028F0006000FFCF9B3109F466CF963099F4909138
:10290000470781E0992319F09D3409F080E0809316
:10291000000441E050E063E071E080E094E00E9458
:102920002A1D51CF933111F4C3DA4DCF913009F004
:102930004ACFC114D10409F446CF82958695877099
:10294000853059F460914707709148078091490795
:1029500090914A070E94000036CF811104C087E49D
:1029600097E0C1D1F7CF60E070E0CB01F3CF9A31AF
:1029700009F029CF8295869587708130E9F410910E
:102980004707109220070093210790922507809215
:1029900024078091220787708860809322077092B5
:1029A000230781E0123008F480E0809326078FE14E
:1029B00097E00E94100707CF8111E3CF87E497E0EB
:1029C00075D1182FDECF80911B0790911C070097BF
:1029D00091F0FC012281338130931C0720931B0767
:1029E000DCD08091190790911A07019790931A07EC
:1029F00080931907E8CF8091490590914A05009787
:102A000091F0FC0123A934A930934A05209349058C
:102A1000C4D080914705909148050197909348054F
:102A200080934705E8CF0895EF920F931F93CF93BC
:102A3000DF93E80134E047FD34E1042E000C550B30
:102A400057FF03C0519541955109E32E022F242FC2
:102A5000AE0136D4CE01DF91CF911F910F91EF904F
:102A600008950F931F93CF93DF938230910510F455
:102A700082E090E0E0918407F091850730E020E06B
:102A8000B0E0A0E0309799F42115310509F44AC06F
:102A9000281B390B24303105D8F58A819B816115BB
:102AA000710589F1FB0193838283FE0111C040818E
:102AB00051810281138148175907E0F048175907DF
:102AC00099F4109761F012960C93129713961C9339
:102AD0003296CF01DF91CF911F910F91089500930E
:102AE000840710938507F4CF2115310551F0421763
:102AF000530738F0A901DB019A01BD01DF01F8019C
:102B0000C1CFEF01F9CF9093850780938407CDCF94
:102B1000FE01E20FF31F8193919322503109398313
:102B20002883D7CF2091820730918307232B41F44C
:102B3000209115023091160230938307209382076B
:102B400020911302309114022115310541F42DB763
:102B50003EB74091170250911802241B350BE091AB
:102B60008207F0918307E217F307A0F42E1B3F0BB7
:102B70002817390778F0AC014E5F5F4F24173507EF
:102B800048F04E0F5F1F5093830740938207819355
:102B900091939FCFF0E0E0E09CCFCF93DF9300973D
:102BA000E9F0FC01329713821282A0918407B09160
:102BB0008507ED0130E020E01097A1F420813181FC
:102BC000820F931F209182073091830728173907BE
:102BD00009F061C0F0938307E0938207DF91CF9102
:102BE0000895EA01CE17DF07E8F54A815B819E016F
:102BF00041155105B1F7E901FB83EA8349915991E8
:102C0000C40FD51FEC17FD0761F4808191810296F6
:102C1000840F951FE90199838883828193819B8327
:102C20008A83F0E0E0E012968D919C9113970097D3
:102C3000B9F52D913C911197CD010296820F931F0A
:102C400020918207309183072817390739F630978A
:102C500051F51092850710928407B0938307A093D3
:102C60008207BCCFD383C28340815181840F951FDB
:102C7000C817D90761F44E5F5F4F88819981480F6B
:102C8000591F518340838A819B81938382832115BD
:102C9000310509F0B0CFF0938507E09384079ECF0C
:102CA000FD01DC01C0CF13821282D7CFFC0188273F
:102CB0009927E89421912032E9F3293010F02E3041
:102CC000C8F32B3239F02D3231F4689403C085D02B
:102CD000820F911D219120532A30C8F31EF4909544
:102CE00081959F4F08951F93FC0199278827BC0168
:102CF000E89411911032E9F3193010F01E30C8F346
:102D00001B3249F01D3241F4689405C051D0610F67
:102D1000711D811D911D119110531A30B8F33EF4AD
:102D200090958095709561957F4F8F4F9F4F1F9124
:102D30000895FA01A191B081009719F41097E1F07C
:102D4000CD01DC01CD010D90002011F4C00113C0B4
:102D5000FB012191222319F02015D9F7F3CFFB01B4
:102D60002191201519F41E92119606C02223C1F755
:102D70000D900020A1F7D001FA01A193B08308952E
:102D8000BB274A3031F4992322F4BDE29095819516
:102D90009F4F4DC0BB272A3051F4992342F4BDE226
:102DA00090958095709561957F4F8F4F9F4F1EC076
:102DB000592F482F372F262F660F771F881F991FEF
:102DC000660F771F881F991F620F731F841F951F3F
:102DD000660F771F881F991F08957AE0979F902D9F
:102DE000879F802D910D11240895BB27FA01A62FEE
:102DF0006217710581059105330B30FB66F0AA2738
:102E0000660F771F881F991FAA1FA21710F0A21B19
:102E100063953850A9F7A05DAA3308F0A95DA19386
:102E200036F7B111B1931082CA01B0C4BB27FB01C0
:102E30005527AA27880F991FAA1FA41710F0A41BB3
:102E400083955051B9F7A05DAA3308F0A95DA1930D
:102E5000009779F7B111B1931192CB0197C40F93F9
:102E60001F93CF93DF93CDB7DEB72E970FB6F894AD
:102E7000DEBF0FBECDBF0E891F89888D998D2EE0D4
:102E80002C831A83098397FF02C080E090E80197A2
:102E90009E838D83AE01445E5F4F6A8D7B8DCE0134
:102EA000019619D04D815E8157FD0AC02F8138856A
:102EB000421753070CF49A01020F131FF8011082F6
:102EC0002E960FB6F894DEBF0FBECDBFDF91CF9127
:102ED0001F910F9108952F923F924F925F926F92A0
:102EE0007F928F929F92AF92BF92CF92DF92EF929A
:102EF000FF920F931F93CF93DF9300D000D000D0A9
:102F00001F921F92CDB7DEB77C013B018A01FC0105
:102F100017821682838181FFD0C1CE0101965C01A8
:102F2000F7019381F30193FD859193FF81913F0117
:102F3000882309F449C1853239F493FD859193FFC3
:102F400081913F01853221F4B70190E02FD4E8CF81
:102F5000912C212C312CFFE1F31538F08B3211F13B
:102F600090F4803209F1833229F137FC3CC020ED26
:102F7000280F2A3050F536FE20C08AE0989E200D9A
:102F80001124922E06C08D3291F0803371F768942F
:102F900030F8F30193FD859193FF81913F018111F9
:102FA000DACF21C0689431F8689432F8F2CF68948F
:102FB00033F8EFCF689434F8ECCFEAE02E9E200D82
:102FC0001124222E689435F8E4CF8E3229F436FC91
:102FD000FBC0689436F8DDCF8C3619F4689437F866
:102FE000D8CF8836B1F2982F9F7D95549330D8F082
:102FF000833691F18337B1F1833509F05EC0280142
:10300000F2E04F0E511CF801C080D180692D70E0B4
:1030100036FC02C06FEF7FEFC601A2D34C0168946B
:1030200037F882010AC00C5F1F4FFFE3F983882441
:103030008394912C6501E89437F833FE2AC0522C12
:103040008114910459F5552009F46ACFB70180E243
:1030500090E0ACD35A94F7CFF801808189830E5F5A
:103060001F4FE5CF2801F2E04F0E511CF801C08040
:10307000D180692D70E036FC02C06FEF7FEFC60192
:103080007AD34C018201D7CFB70180E290E08ED392
:103090002A942814190409F0B8F7D1CFF60137FCA7
:1030A000859137FE81916F01B70190E07FD3511078
:1030B0005A94F1E08F1A9108C3CF843619F08936FB
:1030C00009F073C0F80137FE67C0608171818281A9
:1030D00093810C5F1F4FF32DFF763F2E97FF09C0A2
:1030E00090958095709561957F4F8F4F9F4F689415
:1030F00037F82AE030E0A50189D3C82ECA188C2CF5
:10310000432C36FE0CC0E89440F8C91440F434FE59
:1031100005C032FC03C0F32DFE7E4F2E892C44FEE9
:10312000A6C0FE01EC0DF11D8081803309F098C02E
:10313000242D297E422E842D8870582E43FCA5C054
:1031400040FE9FC09C2C821418F42C0C922C9818D2
:1031500044FEA1C0B70180E390E028D342FE08C03E
:1031600088E790E041FE02C088E590E0B7011ED3F9
:10317000C91408F49CC0CA94D12C9FEFC91AD90A6B
:10318000CA0CDB1CF60182916F01B70190E00ED3EF
:10319000AC14BD04B9F757CF60817181072E000CC4
:1031A000880B990B0E5F1F4F96CFD32CE894D4F861
:1031B0002AE030E08537E1F1232D297FD22E8F36AA
:1031C000A9F1F0F4883551F1F701868197812B96AA
:1031D0000FB6F894DEBF0FBECDBFDF91CF911F9128
:1031E0000F91FF90EF90DF90CF90BF90AF909F90A6
:1031F0008F907F906F905F904F903F902F900895A9
:10320000803749F0883701F7D4FE02C06894D2F8BD
:1032100020E130E00DC06894D4F8F6CF34FE03C04E
:10322000822F8660D82E20E132E002C028E030E014
:10323000F801D7FE0EC060817181828193810C5F9D
:103240001F4FA501E3D2C82ECA183D2CE89437F8C9
:1032500056CF6081718190E080E00E5F1F4FF1CF0B
:1032600042FC02C0839467CF8394839464CF842DFF
:10327000867809F460CFF6CFB70180E290E096D26D
:1032800083948214C8F3512C63CF522C58188214A3
:1032900008F45ECFF8CF842D867809F469CF8BE2ED
:1032A00041FE80E247FC8DE2B70190E060CFB701BC
:1032B00080E390E07BD29A945BCF8FEF9FEF87CF34
:1032C0008F929F92AF92BF92CF92DF92EF92FF9236
:1032D0000F931F93CF93DF9300D000D000D0CDB7D2
:1032E000DEB76A01F22EB02E102FFBE3AF2EA01630
:1032F00008F41BE31F5F012F27E0AE014F5F5F4F14
:1033000057D1BC018981982F9970913009F44EC032
:103310009BE2E1FC04C09E2D9170E0FC49C05E2D53
:103320005071E82FE87083FF55C084E0911101C00F
:1033300083E0EF2DE81B8F1508F0E0E0D6018E2F1B
:1033400020E25523C9F1992329F0D6019C93C601A7
:1033500001966C0196012D5F3F4FE2FE33C08EE473
:10336000D6018C9391E411969C93119712968C93AD
:10337000D9018E2F90E281112AC0E20FF32FF11DA7
:1033800010828EEF9FEF29960FB6F894DEBF0FBE26
:10339000CDBFDF91CF911F910F91FF90EF90DF9004
:1033A000CF90BF90AF909F908F9008959DE2B7CF40
:1033B00090E2B5CF2D9381508111FCCFCE0ED11C60
:1033C000E0E0C1CF8EE6D6018C9391E6CCCF9D9301
:1033D0008150D1CF482F447082FF3DC084E09111CD
:1033E00001C083E08F1510F4EF2DE81BD6018E2F5E
:1033F00020E2552309F1992329F0D6019C93C601B7
:1034000001966C0196012D5F3F4FE2FE1BC089E4DF
:10341000D6018C938EE411968C93119786E41296C4
:103420008C93D9018E2F90E2882309F4A6CF9D9327
:103430008150FACF2D9381508111FCCFCE0ED11C3B
:10344000E0E0D9CF89E6D6018C938EE611968C9375
:10345000119786E6E4CF9B0177FF02C030E020E0C1
:10346000A1E0B0E0911102C0B0E0A0E0F901319616
:10347000AE0FBF1F8B2C912CBB2009F461C05401EF
:10348000EFEFAE1ABE0AAA0DBB1DFA161B0619F005
:1034900014F04F2D4A1B511188C0E3FC59C076012E
:1034A000A42FB0E2A1114FC0C40ED11C992309F47E
:1034B0005BC040E0D6011196F60190836D01552363
:1034C00009F448C0012F060F9A81582F507184FFCC
:1034D00003C0913309F4015010160CF047C00930B5
:1034E00008F008E0EEE2FE2E5B01A01AB1088501AB
:1034F0009194819491082F3F320729F4D601FC92D0
:10350000F60131966F016217730794F102171307E2
:103510007CF5DB01A21BB30BAA24A394B12CAC0E47
:10352000BD1EAA0DBB1D11968C9121503109D601EB
:10353000119628153905F4F0F60180836D01DBCF73
:10354000B12CA12CA0CFF701B1937F01A150AACF3C
:103550009111B0CFD601942F50E302C05D939150EA
:103560009111FCCFC40ED11C40E0ACCF01E0BACF2A
:1035700080E3DBCF6217730731F4963388F4953319
:1035800011F4552369F0F6018083FD01842F90E248
:10359000811108C0A40FB11D1C9290E080E0F3CE11
:1035A00081E3F1CF91938150F3CF911183CF8ACFF3
:1035B000283008F027E03327DA01990F311D87FD05
:1035C000916000966105710539F432602E5F3D937C
:1035D00030E32A95E1F708959F3F30F08038710578
:1035E000610509F03C5F3C5F3D93913008F08068D5
:1035F000911DDF93CF931F930F93FF92EF92192F9B
:10360000987F9695E92F96959695E90FFF27E25CAE
:10361000FE4F99273327EE24FF24A701E7010590E9
:103620000894079428F4360FE71EF81E491F511D11
:10363000660F771F881F991F0694A1F705900794BE
:1036400028F4E70EF81E491F561FC11D770F881F6B
:10365000991F661F0694A1F70590079428F4F80EA9
:10366000491F561FC71FD11D880F991F661F771F3F
:103670000694A1F70590079420F4490F561FC71F21
:10368000D81F990F661F771F881F0694A9F784918A
:103690001095177041F0D695C79557954795F794B3
:1036A000E7941A95C1F7E4EEF0E06894159015914F
:1036B00035916591959105907FE27395E118F10A36
:1036C000430B560BC90BD009C0F7E10CF11E431F89
:1036D000561FC91FD01D7EF4703311F48A95E6CFB2
:1036E000E894015030F0080F0AF40027021708F49C
:1036F000202F2395022F7A3328F079E37D932A95A2
:10370000E9F710C07D932A9589F6069497956795F9
:10371000379517951794E118F10A430B560BC90B0F
:10372000D00998F023957E9173957A3308F070E371
:103730007C932013B8F77E9170617D9330F0839570
:1037400071E37D9370E32A95E1F71124EF90FF90E8
:103750000F911F91CF91DF91992787FD9095089543
:10376000FC010590615070400110D8F7809590954C
:103770008E0F9F1F0895FC01615070400190011051
:10378000D8F7809590958E0F9F1F0895DC01FC015E
:10379000672F71917723E1F7329704C07C916D9385
:1037A00070836291AE17BF07C8F308950F931F93FC
:1037B000CF93DF93182F092FEB018B8181FD09C077
:1037C0001FEF0FEF812F902FDF91CF911F910F915E
:1037D000089582FF14C02E813F818C819D8128171E
:1037E00039073CF4E881F981CF01019699838883F8
:1037F00010838E819F8101969F838E83E3CFE8851E
:10380000F985812F1995892BA1F3DACFFA01AA271F
:10381000283051F1203181F1E8946F936E7F6E5F13
:103820007F4F8F4F9F4FAF4FB1E03ED0B4E03CD0C1
:10383000670F781F891F9A1FA11D680F791F8A1FA4
:10384000911DA11D6A0F711D811D911DA11D20D00B
:1038500009F468943F912AE0269F11243019305DC5
:103860003193DEF6CF010895462F4770405D4193B6
:10387000B3E00FD0C9F7F6CF462F4F70405D4A3303
:1038800018F0495D31FD4052419302D0A9F7EACFCB
:10389000B4E0A6959795879577956795BA95C9F7FA
:1038A00000976105710508959B01AC010A2E0694ED
:1038B0005795479537952795BA95C9F7620F731FA6
:1038C000841F951FA01D089540D008F481E008953D
:1038D000E89409C097FB3EF49095809570956195AA
:1038E0007F4F8F4F9F4F9923A9F0F92F96E9BB2760
:1038F0009395F695879577956795B795F111F8CFDC
:10390000FAF4BB0F11F460FF1BC06F5F7F4F8F4F46
:103910009F4F16C0882311F096E911C0772321F03C
:103920009EE8872F762F05C0662371F096E8862FD4
:1039300070E060E02AF09A95660F771F881FDAF72B
:10394000880F9695879597F90895990F0008550F58
:10395000AA0BE0E8FEEF16161706E807F907C0F015
:1039600012161306E407F50798F0621B730B840B1D
:10397000950B39F40A2661F0232B242B252B21F4F7
:1039800008950A2609F4A140A6958FEF811D811D97
:10399000089597F99F6780E870E060E008959FEFD1
:1039A00080EC089500240A941616170618060906D6
:1039B000089500240A9412161306140605060895A5
:1039C000092E0394000C11F4882352F0BB0F40F42D
:1039D000BF2B11F460FF04C06F5F7F4F8F4F9F4F6D
:1039E000089557FD9058440F551F59F05F3F71F0EF
:1039F0004795880F97FB991F61F09F3F79F0879556
:103A00000895121613061406551FF2CF4695F1DFDE
:103A100008C0161617061806991FF1CF869571056E
:103A2000610508940895E894BB2766277727CB01A2
:103A300097F90895DC01CB01FC01F999FECF06C08E
:103A4000F2BDE1BDF89A319600B40D92415050405C
:103A5000B8F70895DC01A40FB51F4150504040F065
:103A6000CB01840F951F2E9105D041505040D8F7BF
:103A70000895262FF999FECF92BD81BDF89A01973E
:103A800000B4021639F01FBA20BD0FB6F894FA9AA6
:103A9000F99A0FBE08955058BB27AA270ED090CF91
:103AA00081DF30F086DF20F031F49F3F11F41EF407
:103AB00076CF0EF4E095E7FB6CCFE92F92DF80F331
:103AC000BA17620773078407950718F071F49EF51B
:103AD000AACF0EF4E0950B2EBA2FA02D0B01B90141
:103AE00090010C01CA01A0011124FF27591B99F074
:103AF000593F50F4503E68F11A16F040A22F232F80
:103B0000342F4427585FF3CF469537952795A795CF
:103B1000F0405395C9F77EF41F16BA0B620B730B76
:103B2000840BBAF09150A1F0FF0FBB1F661F771FE7
:103B3000881FC2F70EC0BA0F621F731F841F48F49C
:103B4000879577956795B795F7959E3F08F0B3CF22
:103B50009395880F08F09927EE0F9795879508950C
:103B60000CD02ECF26DF40F01DDF30F021F45F3F78
:103B700019F00FCF511158CF12CF33DF98F399239B
:103B8000C9F35523B1F3951B550BBB27AA27621721
:103B90007307840738F09F5F5F4F220F331F441F66
:103BA000AA1FA9F333D00E2E3AF0E0E830D091509E
:103BB0005040E695001CCAF729D0FE2F27D0660F8B
:103BC000771F881FBB1F261737074807AB07B0E8CA
:103BD00009F0BB0B802DBF01FF2793585F4F2AF0E0
:103BE0009E3F510568F0D5CE1FCF5F3FECF3983E66
:103BF000DCF3869577956795B795F7959F5FC9F73D
:103C0000880F911D9695879597F90895E1E0660FC5
:103C1000771F881FBB1F621773078407BA0720F03E
:103C2000621B730B840BBA0BEE1F88F7E0950895A7
:103C3000EE0FFF1F881F8BBF0790F691E02D1994A0
:103C4000FB01DC0102C001900D9241505040D8F7B9
:103C50000895FB01DC014150504048F001900D9265
:103C60000020C9F701C01D9241505040E0F708956F
:103C700011E0CDE7D1E000E005C0802FFE01D8DFE4
:103C80002196011DCE37D10780E00807B1F7F894DF
:023C9000FFCF64
:103C9200FFFFFF78037803780378037803780378CB
:103CA200037803000086078000000000004E02B087
:103CB20001DD019A020E02EC0100020D0A00505AC7
:103CC200454D3031362047727570612054657374EA
:103CD2006F776100505A454D20616472657373209D
:103CE200616C6C72656164792065786973747320A4
:103CF200696E20746869732067726F75700045720F
:103D0200726F7220647572696E67207265616420D9
:103D12006465766963650073656E6447726F75707A
:103D2200202D3E206E6F7420616C6C206465766974
:103D3200636573207265616420636F727265637478
:103D42002100322E332E3100505A454D303136206B
:103D520053656E736F72204D616E616765720031DB
:103D62002E310047617465776179207374617274D2
:103D7200757020636F6D706C6574652E003B00007A
:020000023000CC
:10E000000D9489F10D94B2F10D94B2F10D94B2F129
:10E010000D94B2F10D94B2F10D94B2F10D94B2F1F0
:10E020000D94B2F10D94B2F10D94B2F10D94B2F1E0
:10E030000D94B2F10D94B2F10D94B2F10D94B2F1D0
:10E040000D94B2F10D94B2F10D94B2F10D94B2F1C0
:10E050000D94B2F10D94B2F10D94B2F10D94B2F1B0
:10E060000D94B2F10D94B2F10D94B2F10D94B2F1A0
:10E070000D94B2F10D94B2F10D94B2F10D94B2F190
:10E080000D94B2F10D94B2F10D94B2F10D94B2F180
:10E090000D94B2F10D94B2F10D94B2F10D94B2F170
:10E0A0000D94B2F10D94B2F10D94B2F10D94B2F160
:10E0B0000D94B2F10D94B2F10D94B2F10D94B2F150
:10E0C0000D94B2F10D94B2F10D94B2F10D94B2F140
:10E0D0000D94B2F10D94B2F10D94B2F10D94B2F130
:10E0E0000D94B2F141546D656761323536300041AF
:10E0F000726475696E6F206578706C6F72657220DE
:10E1000073746B3530305632206279204D4C530099
:10E11000426F6F746C6F616465723E004875683F52
:10E1200000436F6D70696C6564206F6E203D200048
:10E130004350552054797065202020203D20005FF9
:10E140005F4156525F415243485F5F3D2000415658
:10E1500052204C696243205665723D20004743437C
:10E160002056657273696F6E203D20004350552024
:10E1700049442020202020203D20004C6F7720663D
:10E18000757365202020203D20004869676820665F
:10E190007573652020203D200045787420667573D6
:10E1A00065202020203D20004C6F636B2066757336
:10E1B000652020203D20004D617220203720323024
:10E1C000313300312E362E3800342E332E350056A2
:10E1D00023202020414444522020206F7020636F70
:10E1E00064652020202020696E73747275637469E1
:10E1F0006F6E2061646472202020496E74657272B3
:10E20000757074006E6F20766563746F7200726A49
:10E210006D702020006A6D70200057686174207056
:10E220006F72743A00506F7274206E6F7420737541
:10E2300070706F72746564004D7573742062652030
:10E2400061206C6574746572002000577269747483
:10E25000696E672045450052656164696E672045B7
:10E26000450045452065727220636E743D00504F35
:10E27000525400303D5A65726F2061646472003FF1
:10E280003D43505520737461747300403D454550C3
:10E29000524F4D207465737400423D426C696E6B41
:10E2A000204C454400453D44756D70204545505215
:10E2B0004F4D00463D44756D7020464C415348001B
:10E2C000483D48656C70004C3D4C69737420492F83
:10E2D0004F20506F72747300513D51756974005234
:10E2E0003D44756D702052414D00563D73686F7707
:10E2F00020696E7465727275707420566563746FF0
:10E30000727300593D506F727420626C696E6B00BD
:10E310002A0011241FBECFEFD1E2DEBFCDBF01E046
:10E320000CBF12E0A0E0B2E0EEE1FDEF03E00BBFB6
:10E3300002C007900D92A030B107D9F712E0A0E01B
:10E34000B2E001C01D92AE30B107E1F70F9460F367
:10E350000D948DFE01E20EBF0FEF0DBF11241FBE05
:10E360000D9460F30D9400F020E030E040ED57E0B4
:10E3700005C0FA013197F1F72F5F3F4F2817390792
:10E38000C0F308959C01260F311DC901A0E0B0E043
:10E390002F5F3F4FABBFFC018791882361F08093D3
:10E3A000C6008091C00086FFFCCF8091C0008064D1
:10E3B0008093C000EACF08958DE08093C6008091DD
:10E3C000C00086FFFCCF8091C00080648093C000B5
:10E3D0008AE08093C6008091C00086FFFCCF8091C8
:10E3E000C00080648093C00008950F94C2F10F9420
:10E3F000DCF10895FC019081992359F09093C600B7
:10E400008091C00086FFFCCF8091C0008064809323
:10E41000C0003196992379F70895282F982F929567
:10E420009F70892F805D8A3308F0895F8093C600D2
:10E430008091C00086FFFCCF8091C00080648093F3
:10E44000C000822F8F70982F905D9A3308F0995FEB
:10E450009093C6008091C00086FFFCCF8091C000E1
:10E4600080648093C00008959C01FB01853691056E
:10E470001CF46330710594F0C90164E670E00F94F8
:10E480002EFE605D7F4F6093C6008091C00086FFC6
:10E49000FCCF8091C00080648093C0002B30310598
:10E4A00014F43297B4F0C90164E670E00F942EFEC4
:10E4B0006AE070E00F942EFE605D7F4F6093C600AF
:10E4C0008091C00086FFFCCF8091C0008064809363
:10E4D000C000C9016AE070E00F942EFEC0968093E0
:10E4E000C6008091C00086FFFCCF8091C000806490
:10E4F0008093C00008951F93182F8EE692EE60E07F
:10E500000F94C2F11093C6008091C00086FFFCCF2B
:10E510008091C00080648093C0000F94DCF11F9153
:10E5200008952F923F924F925F926F927F928F92B7
:10E530009F92AF92BF92CF92DF92EF92FF920F9392
:10E540001F93DF93CF93CDB7DEB762970FB6F894E2
:10E55000DEBF0FBECDBF382E622ECA01DB015C01CB
:10E560006D01772420E2222E2E010894411C511CBB
:10E570008BC081E0A81680E0B80681E0C80680E084
:10E58000D80628F0C601AA27BB270F940DF2BB2797
:10E59000AD2D9C2D8B2D0F940DF28A2D0F940DF225
:10E5A0002092C6008091C00086FFFCCF8091C00001
:10E5B00080648093C0009DE29093C6008091C0006B
:10E5C00086FFFCCF8091C00080648093C0002092C1
:10E5D000C6008091C00086FFFCCF8091C00080649F
:10E5E0008093C00019828601750188249924A1E0D6
:10E5F0003A1651F03A1620F0B2E03B1661F409C029
:10E600000BBFF701779007C0C7010F9477FE782EF4
:10E6100002C0F7017080872D0F940DF22092C60082
:10E620008091C00086FFFCCF8091C0008064809301
:10E63000C000872D8052F401EF70F0708F3520F408
:10E64000E40DF51D708204C0E40DF51D8EE280839B
:10E650000894E11CF11C011D111D0894811C911CE2
:10E6600090E18916910409F0C2CF80E190E0A0E02A
:10E67000B0E0A80EB91ECA1EDB1E198AC2010F9493
:10E68000FAF10F94DCF16A94662009F072CF629679
:10E690000FB6F894DEBF0FBECDBFCF91DF911F91B3
:10E6A0000F91FF90EF90DF90CF90BF90AF909F9031
:10E6B0008F907F906F905F904F903F902F90089534
:10E6C0002F923F924F925F926F927F928F929F9282
:10E6D000AF92BF92CF92DF92EF92FF920F931F9370
:10E6E000DF93CF93CDB7DEB7CD53D1400FB6F894BB
:10E6F000DEBF0FBECDBF01E20EBF0FEF0DBF94B75F
:10E70000F894A89514BE80916000886180936000A1
:10E7100010926000789493FF05C0E0910002F091A0
:10E7200001021995279A2F9A8091C00082608093E8
:10E73000C00080E18093C40088E18093C1000000A4
:10E74000EE24FF24870144E0A42EB12CCC24DD2448
:10E7500024C0C5010197F1F70894E11CF11C011DCB
:10E76000111D21E2E2162EE4F20620E0020720E06D
:10E77000120718F031E0C32ED12CC801B70127ECE5
:10E780003BE140E050E00F9441FE611571058105C9
:10E79000910519F485B1805885B98091C00087FD35
:10E7A00003C0C114D104A9F2A6014F5F5F4FC25E3E
:10E7B000DE4F59834883CE51D140C25EDE4F8881FF
:10E7C0009981CE51D140019711F00D9410FEC05D9A
:10E7D000DE4F19821882C053D14060E0C15DDE4F28
:10E7E0001882CF52D14088249924C35DDE4F19820C
:10E7F0001882CD52D140C05EDE4F188219821A8233
:10E800001B82C052D140CE5CDE4F188219821A8220
:10E810001B82C253D140EE24FF2487010BBFF701B6
:10E8200007911691C45CDE4F19830883CC53D14005
:10E830000D940BFEC25EDE4F28813981CE51D1404E
:10E840002130310509F52091C600C25EDE4F1982E4
:10E850001882CE51D14022C02F5F3F4F4F4F5F4FA4
:10E86000213082E138078AE7480780E0580780F0C6
:10E87000C45CDE4FE881F981CC53D140EF5FFF4F9C
:10E8800019F0EE27FF27099420E030E040E050E047
:10E890008091C00087FFE0CF2091C600C35DDE4FAE
:10E8A00048815981CD52D1404F5F5F4FC35DDE4FEC
:10E8B00059834883CD52D140213209F063C64A3092
:10E8C000510508F05FC60894811C911C53E0851621
:10E8D000910409F059C600E010E018C081E280936D
:10E8E000C6008091C00086FFFCCF8091C00080648C
:10E8F0008093C0002F5F3F4F2931310579F70F9486
:10E90000DCF10F5F1F4F0530110519F020E030E0FA
:10E91000E5CF10920A0210920B0210920C02109294
:10E920000D02109206021092070210920802109235
:10E930000902109202021092030210920402109235
:10E9400005028FEE90EE60E00F94F5F180E191EE1C
:10E9500060E00F94C2F18091C00087FFFCCF9091DE
:10E96000C600903608F09F759032B8F09093C600BC
:10E970008091C00086FFFCCF8091C00080648093AE
:10E98000C000A0E2A093C6008091C00086FFFCCF2B
:10E990008091C00080648093C000983409F4D7C18E
:10E9A0009934B8F4923409F459C1933458F490333B
:10E9B00019F1903308F4E3C59F33A1F1903409F0C5
:10E9C000DEC5BDC0953409F470C1963409F0D7C5D1
:10E9D00098C1923509F42BC2933538F49C3409F46C
:10E9E000F5C1913509F0CBC518C2963509F445C279
:10E9F000993509F0C4C567C483E792EE62E00F94CD
:10EA0000F5F110920602109207021092080210927D
:10EA1000090210920A0210920B0210920C0210923C
:10EA20000D0213C18FE792EE62E00F94F5F18FEEC5
:10EA300090EE60E00F94F5F181E291EE60E00F94CA
:10EA4000C2F187EB91EE60E00F94F5F180E391EE77
:10EA500060E00F94C2F184EE90EE60E00F94F5F167
:10EA60008FE391EE60E00F94C2F186E090E061E008
:10EA700070E00F9434F20F94DCF18DE591EE60E0DC
:10EA80000F94C2F189EC91EE60E00F94F5F18EE401
:10EA900091EE60E00F94C2F183EC91EE60E00F9490
:10EAA000F5F18CE691EE60E00F94C2F18EE10F94E7
:10EAB0000DF288E90F940DF281E00F940DF20F949E
:10EAC000DCF18BE791EE60E00F94C2F119E0E0E039
:10EAD000F0E010935700E4918E2F0F940DF20F94F5
:10EAE000DCF18AE891EE60E00F94C2F1E3E0F0E03F
:10EAF00010935700E4918E2F0F940DF20F94DCF1D8
:10EB000089E991EE60E00F94C2F1E2E0F0E0109349
:10EB10005700E4918E2F0F940DF20F94DCF188EAE8
:10EB200091EE60E00F94C2F1E1E0F0E01093570045
:10EB30001491812F0F940DF20F94DCF107CF8BE825
:10EB400092EE62E00F94F5F18BE492EE60E00F94A8
:10EB5000F5F10F94DCF100E010E019C0C8016F2D51
:10EB60000F947FFEFF2031F489E492EE60E00F9471
:10EB7000C2F10BC0F092C6008091C00086FFFCCFAE
:10EB80008091C00080648093C0000F5F1F4FC80158
:10EB900081519F41A0E0B0E0ABBFFC01F790BAE229
:10EBA000FB1621F0E2E000301E07C1F60F94DCF105
:10EBB0000F94DCF187E592EE60E00F94F5F10F948D
:10EBC000DCF1CC24DD2400E010E01EC0C8010F946D
:10EBD00077FEF82E882331F489E492EE60E00F94FA
:10EBE000C2F10BC08093C6008091C00086FFFCCFAD
:10EBF0008091C00080648093C000FE1419F00894D6
:10EC0000C11CD11C0F5F1F4FC80181519F41A0E063
:10EC1000B0E0ABBFFC01E790FAE2EF1621F022E092
:10EC20000030120799F60F94DCF10F94DCF182E6C4
:10EC300092EE60E00F94C2F1C60161E070E00F94C3
:10EC400034F20F94DCF10F94DCF110920202109276
:10EC50000302109204021092050278CE89E992EE26
:10EC600062E00F94F5F1279A2F9A16C02F9880E052
:10EC700090E0E0EDF7E03197F1F7019684369105E9
:10EC8000C1F72F9A80E090E0E0EDF7E03197F1F7DF
:10EC9000019684369105C1F78091C00087FFE6CFC9
:10ECA0008091C00087FFFCCF64C485EA92EE62E0E9
:10ECB0000F94F5F140910202509103026091040219
:10ECC0007091050281E020E10F9491F2809102029F
:10ECD00090910302A0910402B091050280509F4FD1
:10ECE000AF4FBF4F8093020290930302A0930402A0
:10ECF000B093050280509041A040B04008F426CE69
:10ED0000A4CF83EB92EE62E00F94F5F140910602FE
:10ED100050910702609108027091090280E020E1A1
:10ED20000F9491F28091060290910702A09108023F
:10ED3000B091090280509F4FAF4FBF4F80930602A2
:10ED400090930702A0930802B0930902FFCD80ECD4
:10ED500092EE62E00F94F5F183E792EE60E00F949B
:10ED6000F5F18FE792EE60E00F94F5F18BE892EE0B
:10ED700060E00F94F5F189E992EE60E00F94F5F10F
:10ED800085EA92EE60E00F94F5F183EB92EE60E09D
:10ED90000F94F5F180EC92EE60E00F94F5F187ECC2
:10EDA00092EE60E00F94F5F188ED92EE60E00F9442
:10EDB000F5F18FED92EE60E00F94F5F18AEE92EEB0
:10EDC00060E00F94F5F183E093EEBDCD87EC92EE19
:10EDD00062E00F94F5F181E40F947BF282E40F94EA
:10EDE0007BF283E40F947BF284E40F947BF285E45E
:10EDF0000F947BF286E40F947BF287E40F947BF20E
:10EE000088E40F947BF28AE40F947BF28BE40F94F6
:10EE10007BF28CE40F947BF299CD88ED92EE62E068
:10EE20000F94F5F1772473948824992409C48FED05
:10EE300092EE62E00F94F5F140910A0250910B02BC
:10EE400060910C0270910D0282E020E10F9491F22A
:10EE500080910A0290910B02A0910C02B0910D02D8
:10EE600080509F4FAF4FBF4F80930A0290930B0289
:10EE7000A0930C02B0930D0269CD8AEE92EE62E08F
:10EE80000F94F5F184EE90EE60E00F94F5F18FECC5
:10EE900091EE60E00F94F5F1662477244301CC5D98
:10EEA000DE4F19821882C452D140D401C301B695F5
:10EEB000A79597958795CA5DDE4F88839983AA8326
:10EEC000BB83C652D140CC5DDE4FA881B981C4520C
:10EED000D1401196CC5DDE4FB983A883C452D14096
:10EEE000CD0162E070E00F9434F2B0E2B093C6005E
:10EEF0008091C00086FFFCCF8091C0008064809329
:10EF0000C000EDE2E093C6008091C00086FFFCCF18
:10EF10008091C00080648093C000F0E2F093C6004E
:10EF20008091C00086FFFCCF8091C00080648093F8
:10EF3000C000CA5DDE4FE880F9800A811B81C6529D
:10EF4000D140BB27A12F902F8F2D0F940DF2CA5DBA
:10EF5000DE4F8881C652D1400F940DF2B0E2FB2EF5
:10EF6000F092C6008091C00086FFFCCF8091C00067
:10EF700080648093C0000DE30093C6008091C000C0
:10EF800086FFFCCF8091C00080648093C00010E2B7
:10EF90001093C6008091C00086FFFCCF8091C00016
:10EFA00080648093C0008BBEF3012791C65DDE4F65
:10EFB0002883CA52D140A22EBB24CC24DD2408943D
:10EFC000611C711C811C911C8BBEF3018791282E42
:10EFD0003324442455240894611C711C811C911C09
:10EFE0008BBEF3013791C55DDE4F3883CB52D140E4
:10EFF0000894611C711C811C911C8BBEF30147910C
:10F00000C45DDE4F4883CC52D140ADEFEA2EAFEF66
:10F01000FA2EAFEF0A2FAFEF1A2F6E0C7F1C801E57
:10F02000911E142D032DF22CEE24EA0CFB1C0C1D5A
:10F030001D1D0F940DF220E22093C6008091C000A8
:10F0400086FFFCCF8091C00080648093C000C65DC5
:10F05000DE4F8881CA52D1400F940DF230E23093D6
:10F06000C6008091C00086FFFCCF8091C000806404
:10F070008093C000C45DDE4F8881CC52D1400F9494
:10F080000DF240E24093C6008091C00086FFFCCFA5
:10F090008091C00080648093C000C55DDE4F888190
:10F0A000CB52D1400F940DF250E25093C6008091A4
:10F0B000C00086FFFCCF8091C00080648093C000B8
:10F0C0008FEFE8168FEFF80680E0080780E018075A
:10F0D00031F484E092EE60E00F94C2F1DFC0D80119
:10F0E000C7018070907CA070B0708050904CA040A0
:10F0F000B040D1F52FEF3FE340E050E0E222F322B1
:10F1000004231523CA5DDE4FA880B980CA80DB8046
:10F11000C652D140AE0CBF1CC01ED11EAA0CBB1CD7
:10F12000CC1CDD1C8EE092EE60E00F94C2F1BB2798
:10F13000A12F902F8F2D0F940DF28E2D0F940DF285
:10F1400030E23093C6008091C00086FFFCCF8091F2
:10F15000C00080648093C0004EE34093C60080915D
:10F16000C00086FFFCCF87C08EE09EEFA0E0B0E03D
:10F17000E822F9220A231B239CE0E91694E9F90608
:10F1800090E0090790E0190709F088C0C45DDE4FE0
:10F19000A881CC52D140EA2EFF2400E010E0102FCD
:10F1A0000F2DFE2CEE24C55DDE4FB881CB52D14031
:10F1B000EB0EF11C011D111DD601C501817090706F
:10F1C000A070B070DC0199278827E80EF91E0A1F8D
:10F1D0001B1F20EF30E040E050E0A222B322C42207
:10F1E000D52241E1AA0CBB1CCC1CDD1C4A95D1F7F1
:10F1F000EA0CFB1C0C1D1D1D81E090E0A0E0B0E0BE
:10F20000282239224A225B2235E1220C331C441C7D
:10F21000551C3A95D1F7E20CF31C041D151D57013E
:10F220006801AA0CBB1CCC1CDD1C85E192EE60E0E1
:10F230000F94C2F1C801AA27BB270F940DF2BB2778
:10F24000A12F902F8F2D0F940DF28E2D0F940DF274
:10F2500090E29093C6008091C00086FFFCCF809121
:10F26000C00080648093C000AEE3A093C60080918C
:10F27000C00086FFFCCF8091C00080648093C000F6
:10F28000C601AA27BB270F940DF2BB27AD2D9C2DDD
:10F290008B2D0F940DF28A2D0F940DF20F94DCF14B
:10F2A000CC5DDE4FE881F981C452D140F99709F471
:10F2B0004DCBF4E0EF2EF12C012D112D6E0C7F1CA7
:10F2C000801E911EF2CD83E093EE62E00F94F5F183
:10F2D0008AE192EE60E00F94C2F18091C00087FF56
:10F2E000FCCF1091C6001F751093C6008091C0001E
:10F2F00086FFFCCF8091C00080648093C0000F9493
:10F30000DCF1812F81548A3108F036C1163409F4BA
:10F3100095C0173490F4133409F44EC0143430F40B
:10F320001134F1F0123409F01DC130C0143409F465
:10F3300059C0153409F016C16BC01A3409F4C4C0A1
:10F340001B3438F4173409F48FC0183409F00AC19B
:10F35000A1C01B3409F4D2C01C3409F003C1E8C0B9
:10F360008FEF81B90DC082B1809582B980E090E0C5
:10F37000E0EDF7E03197F1F70196883C9105C1F790
:10F380008091C00087FFEFCF12B8EFC08FEF84B934
:10F390000DC085B1809585B980E090E0E0EDF7E0A3
:10F3A0003197F1F70196883C9105C1F78091C00033
:10F3B00087FFEFCF15B8D9C08FEF87B90DC088B1DF
:10F3C000809588B980E090E0E0EDF7E03197F1F7C3
:10F3D0000196883C9105C1F78091C00087FFEFCF6F
:10F3E00018B8C3C08FEF8AB90DC08BB180958BB9A7
:10F3F00080E090E0E0EDF7E03197F1F70196883C8E
:10F400009105C1F78091C00087FFEFCF1BB8ADC059
:10F410008FEF8DB90DC08EB180958EB980E090E0F0
:10F42000E0EDF7E03197F1F70196883C9105C1F7DF
:10F430008091C00087FFEFCF1EB897C08FEF80BBD1
:10F440000DC081B3809581BB80E090E0E0EDF7E0F6
:10F450003197F1F70196883C9105C1F78091C00082
:10F4600087FFEFCF11BA81C08FEF83BB0DC084B38C
:10F47000809584BB80E090E0E0EDF7E03197F1F714
:10F480000196883C9105C1F78091C00087FFEFCFBE
:10F4900014BA6BC08FEF809301010FC080910201FD
:10F4A00080958093020180E090E0E0EDF7E03197F5
:10F4B000F1F70196883C9105C1F78091C00087FF64
:10F4C000EDCF1092020151C08FEF809304010FC065
:10F4D0008091050180958093050180E090E0E0ED4A
:10F4E000F7E03197F1F70196883C9105C1F78091DB
:10F4F000C00087FFEDCF1092050137C08FEF8093DA
:10F5000007010FC08091080180958093080180E079
:10F5100090E0E0EDF7E03197F1F70196883C910536
:10F52000C1F78091C00087FFEDCF109208011DC088
:10F530008FEF80930A010FC080910B01809580931B
:10F540000B0180E090E0E0EDF7E03197F1F70196F4
:10F55000883C9105C1F78091C00087FFEDCF1092E4
:10F560000B0103C085E292EEEEC98091C00087FFD7
:10F57000FCCF8091C600EAC988E392EEE4C98CE131
:10F5800091EEE1C988249924933011F1943028F444
:10F59000913089F09230B8F408C0953061F195301F
:10F5A000F0F0963009F048C043C02B3109F042C951
:10F5B00091E06BE13FC96227C15DDE4F2883CF52E6
:10F5C000D14092E037C9B22FA0E0622793E032C960
:10F5D000822F90E0A82BB92B622794E02BC92E3004
:10F5E00009F039C3622795E0C05DDE4F19821882A9
:10F5F000C053D1401FC9E1E0F0E0EC0FFD1FC05D3A
:10F60000DE4F08811981C053D140E00FF11F2083E4
:10F610000F5F1F4FC05DDE4F19830883C053D14079
:10F6200062270A171B0709F005C9D80196E002C92D
:10F63000261709F010C303C0973009F0FBC87724E0
:10F640009981933109F412C19431C8F4963009F4C8
:10F65000D8C0973050F4923009F406C1933009F4C1
:10F660006DC0913009F059C253C0913109F477C08F
:10F67000923108F0BBC0903109F04FC2F5C098310B
:10F6800009F487C0993150F4953109F4EFC09531F0
:10F6900008F4C6C1963109F040C2C2C19A3109F4DA
:10F6A0006CC09A3108F491C09B3109F45BC09D3164
:10F6B00009F033C29D81903359F48F81882311F46E
:10F6C0009EE11CC0813011F091E018C098E916C08D
:10F6D000892F807591F0903539F4E0E0F0E089E011
:10F6E0008093570094910AC0983539F4E3E0F0E034
:10F6F00089E080935700949101C090E01A821B82A8
:10F700008D818C831D829E831F8227E030E009C299
:10F710001A8288E08B8381E48C8386E58D8382E581
:10F720008E8389E48F8383E5888780E589878FE5E9
:10F730008A8782E38B872BE030E0F3C18A818139AD
:10F7400041F0823941F0803911F48FE005C080E04A
:10F7500003C082E001C08AE01A828B8344C0772410
:10F76000739482C08D81882311F48EE12CC0813086
:10F7700011F081E028C088E926C01A82E1E0F0E0BB
:10F7800089E08093570084918B831C8224E030E0D1
:10F79000C8C18B81803589F48C81883039F4E2E0EE
:10F7A000F0E089E08093570084910DC0E0E0F0E044
:10F7B00089E080935700849106C0E3E0F0E089E09F
:10F7C0008093570084911A82DFCF8D81836C99E0FA
:10F7D000E1E0F0E0082E90935700E89507B600FCB2
:10F7E000FDCF1A821B8223E030E09BC180EC8A832C
:10F7F000CE5CDE4F188219821A821B82C253D1401E
:10F800008EC18A8190E0A0E0B0E0582F44273327D2
:10F8100022278B8190E0A0E0B0E0DC0199278827C7
:10F82000282B392B4A2B5B2B8D8190E0A0E0B0E098
:10F83000282B392B4A2B5B2B8C8190E0A0E0B0E089
:10F84000BA2FA92F982F8827282B392B4A2B5B2BCF
:10F85000220F331F441F551FC05EDE4F288339839C
:10F860004A835B83C052D1401A8259C13A81C95C34
:10F87000DE4F3883C753D140CA5CDE4F1882C6536F
:10F88000D1408B81C82EDD24CA5CDE4F488159816E
:10F89000C653D140C42AD52A933109F082C0CE5C28
:10F8A000DE4F88819981AA81BB81C253D1408050AB
:10F8B000904CA340B04030F583E0CE5CDE4FE88052
:10F8C000F9800A811B81C253D140F70100935B008C
:10F8D00080935700E89507B600FCFDCFCE5CDE4F65
:10F8E000088119812A813B81C253D14000501F4FAA
:10F8F0002F4F3F4FCE5CDE4F088319832A833B8313
:10F90000C253D140C05EDE4F488159816A817B81FC
:10F91000C052D140DE011B9631E08C9111962C91A2
:10F9200011971296C75CDE4F2883C953D140C85C3B
:10F93000DE4F1882C853D14090E0C85CDE4FE881AA
:10F94000F981C853D1408E2B9F2B0C01FA01609393
:10F950005B0030935700E89511244E5F5F4F6F4F67
:10F960007F4F0EEFE02E0FEFF02ECE0CDF1CC114F8
:10F97000D10499F685E0C05EDE4F088119812A81A5
:10F980003B81C052D140F80120935B008093570027
:10F99000E89507B600FCFDCF81E180935700E8951C
:10F9A00035C0C05EDE4F88819981AA81BB81C0527B
:10F9B000D140B695A795979587957C018601ABE0D8
:10F9C000AA2EB12CAC0EBD1E0BC0D5016D915D01F0
:10F9D000C7010F947FFE0894E11CF11C01501040F8
:10F9E0000115110591F7A60160E070E0440F551F65
:10F9F000661F771FC05EDE4FE880F9800A811B8199
:10FA0000C052D1404E0D5F1D601F711F1A82C05E33
:10FA1000DE4F488359836A837B83C052D1407FC0C5
:10FA2000FA80C55CDE4FF882CB53D140C65CDE4F16
:10FA30001882CA53D1408B81C82EDD24C65CDE4FAC
:10FA400008811981CA53D140C02AD12A1A828981DA
:10FA5000BE016D5F7F4F843121F59601C05EDE4FA0
:10FA6000E880F9800A811B81C052D1400BBFF701A9
:10FA700087919691DB018C9311969C936E5F7F4FDB
:10FA8000D801C7010296A11DB11DC05EDE4F88835B
:10FA90009983AA83BB83C052D14022503040F1F6F3
:10FAA00036C0C05EDE4F288139814A815B81C052F9
:10FAB000D1400894C108D108760100E010E0089414
:10FAC000C11CD11C0894E11CF11C011D111DE20E8A
:10FAD000F31E041F151F21BDBB27A52F942F832FB5
:10FAE00082BD2F5F3F4F4F4F5F4FF89A80B5DB01CC
:10FAF0008D93BD012E153F054007510761F7C05E8C
:10FB0000DE4F288339834A835B83C052D1409601FC
:10FB10002D5F3F4FFB01108204C080EC8A8322E0FE
:10FB200030E08BE18093C6008091C00086FFFCCF5F
:10FB30008091C00080648093C000C15DDE4FF88179
:10FB4000CF52D140F093C6008091C00086FFFCCF19
:10FB50008091C00080648093C000432F3093C60022
:10FB60008091C00086FFFCCF8091C00080648093AC
:10FB7000C000922F2093C6008091C00086FFFCCF6A
:10FB80008091C00080648093C0008EE08093C600A6
:10FB90008091C00086FFFCCF8091C000806480937C
:10FBA000C00065E1C15DDE4FE880CF52D1406E25D7
:10FBB00069276427FE01319610C090819093C6009A
:10FBC0008091C00086FFFCCF31968091C000806498
:10FBD0008093C0006927215030402115310569F715
:10FBE0006093C6008091C00086FFFCCF8091C0006A
:10FBF00080648093C00085B1805885B9772081F4F6
:10FC0000C15DDE4F0881CF52D1400F5FC15DDE4F35
:10FC10000883CF52D14090E0A0E0B0E00D941AF4F8
:10FC200027982F9880E090E020ED37E0F901319798
:10FC3000F1F7019684369105C9F700008091C00064
:10FC40008D7F8093C00081E180935700E895EE2777
:10FC5000FF270994FFCF90E00D941AF497FB092E2B
:10FC600007260AD077FD04D02ED006D000201AF443
:10FC7000709561957F4F0895F6F7909581959F4F08
:10FC80000895A1E21A2EAA1BBB1BFD010DC0AA1FDD
:10FC9000BB1FEE1FFF1FA217B307E407F50720F0F5
:10FCA000A21BB30BE40BF50B661F771F881F991F70
:10FCB0001A9469F760957095809590959B01AC01B9
:10FCC000BD01CF010895AA1BBB1B51E107C0AA1FAC
:10FCD000BB1FA617B70710F0A61BB70B881F991FED
:10FCE0005A95A9F780959095BC01CD010895F99991
:10FCF000FECF92BD81BDF89A992780B50895262F31
:10FD0000F999FECF1FBA92BD81BD20BD0FB6F89400
:0EFD1000FA9AF99A0FBE01960895F894FFCF63
:040000033000E000E9
:00000001FF
