:100000007DC10000F9C60000CCC600009FC60000FC
:1000100072C6000045C6000018C60000EBC500000F
:10002000BEC500009BC1000099C1000097C100003F
:100030000EC7000093C1000091C100008FC10000F5
:100040008DC100008BC1000089C1000087C1000084
:1000500085C1000083C1000081C1000056C50000B9
:100060007DC100001CC50000F1C4000077C1000084
:1000700075C1000073C1000071C100006FC10000B4
:100080006DC100006BC1000069C1000067C10000C4
:10009000A7C400007CC4000061C100005FC1000073
:1000A0005DC100005BC1000059C1000057C10000E4
:1000B00055C1000053C1000051C100004FC10000F4
:1000C0004DC100004BC1000049C1000047C1000004
:1000D00045C1000043C1000041C100003FC1000014
:1000E0003DC1000000407A10F35A00A0724E18097A
:1000F0000010A5D4E80000E87648170000E40B548F
:10010000020000CA9A3B000000E1F505000080965D
:100110009800000040420F000000A086010000008F
:10012000102700000000E803000000006400000049
:1001300000000A00000000000100000000002C7612
:10014000D888DC674F0823DFC1DFAE59E1B1B7962D
:10015000E5E3E453C63AE651997696E8E6C284268A
:10016000EB898C9B62ED407C6FFCEFBC9C9F40F266
:10017000BAA56FA5F490055A2AF75C936B6CF967E2
:100180006DC11BFCE0E40D47FEF520E6B500D0EDA7
:10019000902E0300943577050080841E080000200F
:1001A0004E0A000000C80C333333330F986E1283AD
:1001B0001141EF8D2114893BE65516CFFEE6DB1881
:1001C000D1844B381BF77C1D901DA4BBE424203246
:1001D00084725E228100C9F124ECA1E53D272575DA
:1001E0003B25753B25753B25753B25753B25730ADE
:1001F0000000000A0B02090C0D0E080703040100A1
:1002000000000000000000000000000000000000EE
:1002100000000000000000000000000000121110AB
:1002200000000000000000000000000000000000CE
:100230000000000000000000002200250028002B24
:10024000002E003100340002010000050108010BFE
:100250000100002100240027002A002D0030003377
:100260000001010000040107010A01050505050759
:100270000508080808020202020A0A080804040421
:10028000040101010101010101030303030303034D
:1002900003040707070C0C0C0C0C0C0C0C020202DC
:1002A0000206060606060606060B0B0B0B0B0B0BCF
:1002B0000B0102102020080810204010204080026E
:1002C000010201080402010102040810204080809C
:1002D0004020100804020180040201804020100820
:1002E00004020108040201010204081020408001F8
:1002F00002040810204080004607760B11241FBE20
:10030000CFEFD1E2DEBFCDBF00E00CBF12E0A0E036
:10031000B2E0E2EBF6E200E00BBF02C007900D9204
:10032000AE36B107D9F727E0AEE6B2E001C01D92C4
:10033000A430B207E1F711E0CDE7D1E000E006C05C
:1003400021970109802FFE010E942813CC37D10785
:1003500080E00807A9F70DD70C94481351CEAF924F
:10036000BF92CF92DF92EF92FF920F931F93CF93A2
:10037000DF936C017B018B01040F151FEB015E0104
:10038000AE18BF08C017D10759F06991D601ED9199
:10039000FC910190F081E02DC6011995892B79F728
:1003A000C501DF91CF911F910F91FF90EF90DF90EA
:1003B000CF90BF90AF900895FC01538D448D252FB1
:1003C00030E0842F90E0821B930B541710F0CF96EF
:1003D000089501970895FC01918D828D981761F021
:1003E000A28DAE0FBF2FB11D5D968C91928D9F5F38
:1003F0009F73928F90E008958FEF9FEF0895FC0117
:10040000918D828D981731F0828DE80FF11D858DC9
:1004100090E008958FEF9FEF0895FC01918D228D5C
:10042000892F90E0805C9F4F821B91098F739927E1
:10043000089587E294E0F1DF21E0892B09F420E0C0
:10044000822F089589E893E0E8DF21E0892B09F401
:1004500020E0822F0895FC01A48DA80FB92FB11DB3
:10046000A35ABF4F2C91848D90E001968F739927EA
:10047000848FA689B7892C93A089B1898C918370C8
:1004800080648C93938D848D981306C00288F389C1
:10049000E02D80818F7D80830895EF92FF920F93EE
:1004A0001F93CF93DF93EC0181E0888F9B8D8C8D20
:1004B00098131AC0E889F989808185FF15C09FB714
:1004C000F894EE89FF896083E889F98980818370D7
:1004D000806480839FBF81E090E0DF91CF911F9186
:1004E0000F91FF90EF900895F62E0B8D10E00F5FA7
:1004F0001F4F0F731127E02E8C8D8E110BC00FB67E
:1005000007FCFACFE889F989808185FFF5CFCE0114
:10051000A2DFF2CFEB8DEC0FFD2FF11DE35AFF4F61
:10052000F0829FB7F8940B8FEA89FB898081806203
:10053000D0CFCF93DF93EC01888D8823B1F0AA89C7
:10054000BB89E889F9898C9185FD03C0808186FD8E
:100550000CC00FB607FCF7CF8C9185FFF2CF8081DE
:1005600085FFEDCFCE0177DFEACFDF91CF91089500
:1005700080E090E0892B21F065DF81110E9400006E
:1005800080E090E0892B21F054DF81110E9400006F
:1005900080E090E0892B49F080E090E0892B29F001
:1005A0000E94000081110E94000080E090E0892BF1
:1005B00049F080E090E0892B29F00E940000811131
:1005C0000C9400000895282F30E0F901EF50FE4F01
:1005D0009491F901EF54FD4F449125593D4FF90194
:1005E0002491222309F435C0992311F191509231BD
:1005F000F8F4E92FF0E08827EF5FFC4F8F4F0C9461
:1006000028133203360313032A032E031803390376
:100610003F03430349034D03510357035B0318038F
:100620005F0365036903809180008F77809380006A
:10063000E22FF0E0EE0FFF1FE95CFD4FA591B491B2
:100640008FB7F894EC91611148C040954E234C93BC
:100650008FBF0895809180008F7DE8CF80918000CA
:10066000877FE4CF84B58F7784BDE2CF84B58F7D5B
:10067000FBCF8091B0008F778093B000D9CF80916D
:10068000B0008F7DF9CF809190008F77809390009C
:10069000CFCF809190008F7DF9CF80919000877FA0
:1006A000F5CF8091A0008F778093A000C1CF80917B
:1006B000A0008F7DF9CF8091A000877FF5CF80913A
:1006C00020018F7780932001B3CF809120018F7D0F
:1006D000F9CF80912001877FF5CF4E2BB8CF61E015
:1006E0008091260470CF60E0809126046CCF08953D
:1006F00008950895089508950F931F93CF93DF935E
:100700008C0180E06115710551F0EB01099000202A
:10071000E9F721978C2F861B8A3108F089E1F801CF
:10072000C381C770F8E08F9FC0011124C82BF80166
:10073000C38384818F718483C695C695C695CA315B
:1007400008F0C9E1D0E0AE01C80107960E94391354
:10075000C00FD11F1F82C801DF91CF911F910F9150
:1007600008950F931F93CF93DF93EC018C818295B3
:1007700086958770D9F44B814695469546954A31C2
:1007800008F049E150E0BE01695F7F4F86EE92E0DC
:100790000E943913EB81E695E695E695EA3108F07B
:1007A000E9E1F0E0EA51FD4F10820AC0813009F022
:1007B00043C08F814AE066EE72E090E00E94530DE4
:1007C0008C8126EE32E03F932F939D811F929F9361
:1007D00084FB992790F91F929F9387701F928F93A4
:1007E0008E811F928F9389811F928F938EED91E05E
:1007F0009F938F931F9288E78F93CEE6D2E0DF938B
:10080000CF930E94C20D09900020E9F7AE014F5628
:1008100052406EE672E089E893E0A1DDEDB7FEB7E5
:1008200072960FB6F894FEBF0FBEEDBF81E0DF9168
:10083000CF911F910F910895823031F44AE066EE16
:1008400072E08F819885BACF833041F44AE066EE3A
:1008500072E08F8198850E94A90DB2CF843051F447
:100860006F81788589859A852AE046EE52E00E945C
:100870005D0DA6CF853051F46F81788589859A8585
:100880002AE046EE52E00E94880D9ACF20E08730A1
:1008900069F42B85293008F028E06F8178858985F7
:1008A0009A8506EE12E042E052D78ACFEB81E695B8
:1008B000E695E695EA3108F0E9E12E1738F5E22FE2
:1008C000F0E0AF01440F551FDA01AA51BD4FEC0F04
:1008D000FD1F8781082E000C990B34E095958795B4
:1008E0003A95E1F78F708A3068F4805D8C934951B6
:1008F0005D4F87818F708A3038F4805DFA01808384
:100900002F5FD4CF895CF2CF895CF8CFF0E0EE0F97
:10091000FF1F48CFFC012281211101C022CF80E0BE
:1009200008951F93CF93DF93CDE9D6E019821A8201
:100930001FEF1E838BE08D838C81807E83608C8390
:100940006BE272E0CE01D8DEE5DF19821A821E83E7
:100950008CE08D838C81807E83608C8362E472E086
:10096000CE01CADEDF91CF911F91D4CFEDE9F6E041
:10097000118212828FEF868381E185838481807E5C
:10098000848366E472E0CF01B7DEC4DFCACF1F9272
:100990000F920FB60F9211240BB60F922F933F9325
:1009A0004F935F936F937F938F939F93AF93BF9377
:1009B000EF93FF9387E294E04EDDFF91EF91BF91BB
:1009C000AF919F918F917F916F915F914F913F91E7
:1009D0002F910F900BBE0F900FBE0F901F90189588
:1009E0001F920F920FB60F9211240BB60F922F93F6
:1009F0008F939F93EF93FF93E0913704F091380426
:100A00008081E0913D04F0913E0482FD1DC0908103
:100A1000809140048F5F8F7320914104821741F0D1
:100A2000E0914004F0E0E95DFB4F958F8093400436
:100A3000FF91EF919F918F912F910F900BBE0F908F
:100A40000FBE0F901F9018958081F2CF1F920F92CA
:100A50000FB60F9211240BB60F922F933F934F9323
:100A60005F936F937F938F939F93AF93BF93EF9316
:100A7000FF9389E893E0EFDCFF91EF91BF91AF9195
:100A80009F918F917F916F915F914F913F912F91A6
:100A90000F900BBE0F900FBE0F901F9018951F92D6
:100AA0000F920FB60F9211240BB60F922F938F93C4
:100AB0009F93EF93FF93E0919903F0919A038081C4
:100AC000E0919F03F091A00382FD1DC09081809171
:100AD000A2038F5F8F732091A303821741F0E091EF
:100AE000A203F0E0E757FC4F958F8093A203FF919C
:100AF000EF919F918F912F910F900BBE0F900FBE92
:100B00000F901F9018958081F2CF1F920F920FB611
:100B10000F9211242F933F938F939F93AF93BF9383
:100B20008091850390918603A0918703B0918803FB
:100B30003091840323E0230F2D3758F50196A11D32
:100B4000B11D209384038093850390938603A09323
:100B50008703B09388038091800390918103A091D3
:100B60008203B09183030196A11DB11D8093800380
:100B700090938103A0938203B0938303BF91AF91BD
:100B80009F918F913F912F910F900FBE0F901F90CB
:100B9000189526E8230F0296A11DB11DD2CF1F92F2
:100BA0000F920FB60F9211240BB60F922F933F9313
:100BB0004F935F936F937F938F939F93AF93BF9365
:100BC000EF93FF93E0911102F09112021995FF91BA
:100BD000EF91BF91AF919F918F917F916F915F91B5
:100BE0004F913F912F910F900BBE0F900FBE0F9022
:100BF0001F9018951F920F920FB60F9211240BB6EB
:100C00000F922F933F934F935F936F937F938F93A5
:100C10009F93AF93BF93EF93FF93E0910F02F091F7
:100C200010021995FF91EF91BF91AF919F918F9114
:100C30007F916F915F914F913F912F910F900BBEDC
:100C40000F900FBE0F901F9018951F920F920FB626
:100C50000F9211240BB60F922F933F934F935F93F4
:100C60006F937F938F939F93AF93BF93EF93FF9374
:100C7000E0910502F09106021995FF91EF91BF9165
:100C8000AF919F918F917F916F915F914F913F9124
:100C90002F910F900BBE0F900FBE0F901F901895C5
:100CA0001F920F920FB60F9211240BB60F922F9333
:100CB0003F934F935F936F937F938F939F93AF93E4
:100CC000BF93EF93FF93E0910302F0910402199513
:100CD000FF91EF91BF91AF919F918F917F916F9114
:100CE0005F914F913F912F910F900BBE0F900FBED0
:100CF0000F901F9018951F920F920FB60F9211240C
:100D00000BB60F922F933F934F935F936F937F9305
:100D10008F939F93AF93BF93EF93FF93E0910D0257
:100D2000F0910E021995FF91EF91BF91AF919F91B4
:100D30008F917F916F915F914F913F912F910F9084
:100D40000BBE0F900FBE0F901F9018951F920F9221
:100D50000FB60F9211240BB60F922F933F934F9320
:100D60005F936F937F938F939F93AF93BF93EF9313
:100D7000FF93E0910B02F0910C021995FF91EF9116
:100D8000BF91AF919F918F917F916F915F914F91A3
:100D90003F912F910F900BBE0F900FBE0F901F90A1
:100DA00018951F920F920FB60F9211240BB60F9247
:100DB0002F933F934F935F936F937F938F939F9363
:100DC000AF93BF93EF93FF93E0910902F0910A0272
:100DD0001995FF91EF91BF91AF919F918F917F9165
:100DE0006F915F914F913F912F910F900BBE0F909C
:100DF0000FBE0F901F9018951F920F920FB60F9273
:100E000011240BB60F922F933F934F935F936F93E1
:100E10007F938F939F93AF93BF93EF93FF93E09153
:100E20000702F09108021995FF91EF91BF91AF91E0
:100E30009F918F917F916F915F914F913F912F91F2
:100E40000F900BBE0F900FBE0F901F9018951F9222
:100E50000F920FB60F9211240F900FBE0F901F909C
:100E60001895CF93DF93FC011082118212821482B5
:100E700015821682DC0117968AE1ED0119928A9596
:100E8000E9F782E08383DF91CF9108950F931F9359
:100E9000CF9307E214E010922A041092290448EE3E
:100EA00053E060E070E040932B0450932C04609377
:100EB0002D0470932E048DE192E09093280480938A
:100EC00027042DEC30E030933404209333042CECD1
:100ED00030E0309336042093350428EC30E0309332
:100EE00038042093370429EC30E030933A042093FF
:100EF00039042AEC30E030933C0420933B042EEC80
:100F000030E030933E0420933D0410924004109250
:100F10004104109242041092430410928C031092E8
:100F20008B0340938D0350938E0360938F037093D4
:100F3000900390938A038093890385EC90E09093CB
:100F400096038093950384EC90E0909398038093AC
:100F5000970380EC90E090939A038093990381EC3F
:100F600090E090939C0380939B0382EC90E090939D
:100F70009E0380939D0386EC90E09093A003809362
:100F80009F031092A2031092A3031092A403109245
:100F9000A5038FED96E065DF8EEB96E062DF8DE9CD
:100FA00096E05FDF84EA8093C4041092C604109236
:100FB000C5041092C8041092C7041092CA0410927B
:100FC000C9041092E0051092DF051092E20510921C
:100FD000E1051092E4051092E30585EE95E041DF0E
:100FE000C1E0C093EB0581E18093EA0586E096E0DD
:100FF00038DFC0930C0682E180930B0687E296E00F
:1010000030DFC0932D0688E380932C0688E496E0B9
:1010100028DFC0934E0686E280934D0689E696E06F
:1010200020DFC0936F0687E280936E068091C40430
:1010300080939606109298061092970610929A0640
:101040001092990610929C0610929B0610938B06A4
:1010500000938A069AE09093260482E080938C069F
:1010600090938D06E0913704F09138048083E091ED
:101070003304F09134041082E0913504F091360489
:101080008FEC808310923F04E0913B04F0913C048C
:1010900086E08083E0913904F0913A048081806198
:1010A0008083E0913904F0913A04808188608083E4
:1010B000E0913904F0913A04808180688083E09166
:1010C0003904F0913A0480818F7D80831092E0058D
:1010D0001092DF051092E2051092E1051092E405EE
:1010E0001092E305C093CD041093CC040093CB047D
:1010F0001092D8051092DA051092D905EBEBF2E0C8
:101100002491E5E7F2E08491882399F090E0880F3C
:10111000991FFC01EF5AFD4FA591B491FC01E95CC8
:10112000FD4F859194918FB7F894EC91E22BEC935D
:101130008FBF8FE693E09093E2058093E10583E70C
:1011400093E09093E4058093E30510928E0610924D
:101150008F061092900610929106109292061092AD
:1011600093061092940610929506CF911F910F91BD
:101170000895CF93DF93CDB7DEB76B970FB6F89492
:10118000DEBF0FBECDBF789484B5826084BD84B5C8
:10119000816084BD85B5826085BD85B5816085BD72
:1011A00080916E00816080936E001092810080912A
:1011B00081008260809381008091810081608093B2
:1011C0008100809180008160809380008091B100D7
:1011D00084608093B1008091B00081608093B00002
:1011E0008091910082608093910080919100816054
:1011F0008093910080919000816080939000809115
:10120000A10082608093A1008091A1008160809301
:10121000A1008091A00081608093A00080912101B5
:10122000826080932101809121018160809321015E
:101230008091200181608093200180917A008460F8
:1012400080937A0080917A00826080937A00809106
:101250007A00816080937A0080917A008068809320
:101260007A001092C100A89580E090E0892B11F0DF
:101270000E940000E0919903F0919A0382E080833C
:10128000E0919503F09196031082E0919703F0911D
:10129000980380E180831092A103E0919D03F09177
:1012A0009E0386E08083E0919B03F0919C03808104
:1012B00080618083E0919B03F0919C038081886032
:1012C0008083E0919B03F0919C0380818068808300
:1012D000E0919B03F0919C0380818F7D80838091BE
:1012E0007F038D7F80937F0341E050E063E071E0F6
:1012F0008EE793E00E94F71210929E0610929F06CE
:101300008FEF8093A3068EE08093A2068091A106C2
:10131000807E83608093A10661E572E08DE996E0AE
:10132000EBD91FDA23DB80917F0381FD04C081604C
:10133000826080937F03A895FF24FA945BE1E52EF9
:1013400063E2B62E70E0872E70E0972EE6E1AE2EB7
:10135000A89589E893E061D8892B09F4D6C089E87B
:1013600093E039D890917D03933608F0E8C0E92FD7
:10137000F0E0E75EFC4F8A3009F0DCC0108210928A
:10138000E0061092DF068091E3068F7E8093E306ED
:10139000AE01465E5F4F6BE672E089E193E05CD39D
:1013A00047E0C42ED12C10E0009709F46AC1153033
:1013B00009F47BC10ED31230C9F070F4113099F0EA
:1013C0008093E106AE01465E5F4F6BE672E090E00F
:1013D00080E042D31F5FE8CF133091F0143081F7E3
:1013E0008093E406EFCF8093E506ECCF6C0180910B
:1013F000E306887F9C2D9770892B8093E306E2CFCC
:101400002091E306277F41E050E0892B11F450E062
:1014100040E0CA0133E0880F991F3A95E1F7822B2B
:10142000ECCF913614F097554FC197534DC13136DB
:1014300014F0375550C137534EC14091E206477002
:101440002A3108F029E188E0289F90011124422BDD
:101450004093E2068091E3068F71806C8093E306EF
:101460004695469546954A3108F049E150E0BE015F
:101470006F5F7F4F86EE96E00E94301310927D03DF
:1014800081E2EFEDF6E0AEEBB6E001900D928A95C9
:10149000E1F71091C006111138C08091C20683FF98
:1014A00016C091E2EEEBF6E0ADE9B6E001900D92E8
:1014B0009A95E1F7877E80618093A10610929E063F
:1014C0008091BF0680939F068DE996E04AD980916E
:1014D000C206982F97709330C1F49091C306923052
:1014E00089F510929E0610929F06F092A3069093A3
:1014F000A2068091A106807E83608093A10666E4A7
:1015000072E08DE996E0F8D82CD932D821CF01903D
:101510000020E9F7E81BE250E80FF92FF11D2081C8
:101520002D3011F02A3009F41082BC018FED96E0C5
:10153000E3D8A4CF80839F5F90937D030ACF10925E
:101540007D0307CFC090BF06C11073C09D3059F412
:1015500088E198E00FB6F894A895809360000FBEDC
:1015600090936000FFCF9B3181F2963099F4909177
:10157000C50681E0992319F09D3409F080E080933D
:101580007E0341E050E063E071E08EE793E00E946B
:101590000713BBCF933111F4E9D9B7CF923141F59D
:1015A0008FB7F8944091850350918603609187032B
:1015B000709188038FBF10929E0610929F06F09242
:1015C000A306A092A2068091A006877080628093F5
:1015D000A00683EA8093A1064093A4065093A50633
:1015E0006093A6067093A7068DE996E093D98DCFF8
:1015F000913009F08ACF8114910409F486CF829545
:1016000086958770853059F46091C5067091C6063D
:101610008091C7069091C8060E94000076CF811184
:1016200004C085EC96E0F2D1F7CF60E070E0CB012A
:10163000F3CF9A3109F069CF829586958770813012
:10164000C9F41091C50610929E06C0929F06F092B2
:10165000A306E092A2068091A0068770886080931E
:10166000A006B092A10681E0123008F480E08093D9
:10167000A406BACF8111E7CF85EC96E0AAD1182F46
:10168000E2CF8091E206877088608093E2068091C5
:10169000E3068F7180628093E3061092E606109253
:1016A0007D03153009F4ECCE30CFFC0124E0C216E6
:1016B000D10409F02CCF20E09081992309F4BDCE0C
:1016C0009A330CF0AECE90539295907F31813A339D
:1016D0000CF0ADCE3053A1E0B0E0AC0FBD1FA20FB7
:1016E000B11D930F9C932F5F3296E6CF80919906A0
:1016F00090919A06009791F0FC01228133813093FA
:101700009A0620939906DCD08091970690919806CE
:1017100001979093980680939706E8CF8091C7042D
:101720009091C804009791F0FC0123A934A930934B
:10173000C8042093C704C4D08091C5049091C60406
:1017400001979093C6048093C504E8CF0895EF9263
:101750000F931F93CF93DF93E80134E047FD34E10B
:10176000042E000C550B57FF03C0519541955109AC
:10177000E32E022F242FAE0136D4CE01DF91CF917C
:101780001F910F91EF9008950F931F93CF93DF93C5
:101790008230910510F482E090E0E0910207F09130
:1017A000030730E020E0B0E0A0E0309799F4211585
:1017B000310509F44AC0281B390B24303105D8F50E
:1017C0008A819B816115710589F1FB019383828375
:1017D000FE0111C0408151810281138148175907D0
:1017E000E0F04817590799F4109761F012960C939E
:1017F000129713961C933296CF01DF91CF911F91D0
:101800000F9108950093020710930307F4CF211559
:10181000310551F04217530738F0A901DB019A0155
:10182000BD01DF01F801C1CFEF01F9CF90930307AC
:1018300080930207CDCFFE01E20FF31F81939193B6
:101840002250310939832883D7CF20910007309166
:101850000107232B41F42091150230911602309399
:1018600001072093000720911302309114022115E3
:10187000310541F42DB73EB740911702509118023F
:10188000241B350BE0910007F0910107E217F307E5
:10189000A0F42E1B3F0B2817390778F0AC014E5FE0
:1018A0005F4F2417350748F04E0F5F1F5093010715
:1018B00040930007819391939FCFF0E0E0E09CCFAD
:1018C000CF93DF930097E9F0FC01329713821282E5
:1018D000A0910207B0910307ED0130E020E01097DE
:1018E000A1F420813181820F931F20910007309154
:1018F00001072817390709F061C0F0930107E09349
:101900000007DF91CF910895EA01CE17DF07E8F5D0
:101910004A815B819E0141155105B1F7E901FB83C5
:10192000EA8349915991C40FD51FEC17FD0761F463
:10193000808191810296840F951FE90199838883A4
:10194000828193819B838A83F0E0E0E012968D91FF
:101950009C9113970097B9F52D913C911197CD016A
:101960000296820F931F20910007309101072817DC
:10197000390739F6309751F5109203071092020794
:10198000B0930107A0930007BCCFD383C2834081EB
:101990005181840F951FC817D90761F44E5F5F4FBF
:1019A00088819981480F591F518340838A819B8187
:1019B000938382832115310509F0B0CFF09303079B
:1019C000E09302079ECFFD01DC01C0CF138212829B
:1019D000D7CFFC0188279927E89421912032E9F399
:1019E000293010F02E30C8F32B3239F02D3231F47B
:1019F000689403C085D0820F911D219120532A3015
:101A0000C8F31EF4909581959F4F08951F93FC0194
:101A100099278827BC01E89411911032E9F3193015
:101A200010F01E30C8F31B3249F01D3241F46894A7
:101A300005C051D0610F711D811D911D1191105371
:101A40001A30B8F33EF490958095709561957F4F6C
:101A50008F4F9F4F1F910895FA01A191B081009778
:101A600019F41097E1F0CD01DC01CD010D900020BB
:101A700011F4C00113C0FB012191222319F020159C
:101A8000D9F7F3CFFB012191201519F41E9211967D
:101A900006C02223C1F70D900020A1F7D001FA0162
:101AA000A193B0830895BB274A3031F4992322F4DF
:101AB000BDE2909581959F4F4DC0BB272A3051F4D0
:101AC000992342F4BDE290958095709561957F4F82
:101AD0008F4F9F4F1EC0592F482F372F262F660F2D
:101AE000771F881F991F660F771F881F991F620F26
:101AF000731F841F951F660F771F881F991F0895F6
:101B00007AE0979F902D879F802D910D1124089545
:101B1000BB27FA01A62F6217710581059105330BCA
:101B200030FB66F0AA27660F771F881F991FAA1F30
:101B3000A21710F0A21B63953850A9F7A05DAA3335
:101B400008F0A95DA19336F7B111B1931082CA01D3
:101B5000B0C4BB27FB015527AA27880F991FAA1FCE
:101B6000A41710F0A41B83955051B9F7A05DAA33B8
:101B700008F0A95DA193009779F7B111B193119283
:101B8000CB0197C40F931F93CF93DF93CDB7DEB7ED
:101B90002E970FB6F894DEBF0FBECDBF0E891F89FA
:101BA000888D998D2EE02C831A83098397FF02C0BC
:101BB00080E090E801979E838D83AE01445E5F4F85
:101BC0006A8D7B8DCE01019619D04D815E8157FDC6
:101BD0000AC02F813885421753070CF49A01020F6F
:101BE000131FF80110822E960FB6F894DEBF0FBEB9
:101BF000CDBFDF91CF911F910F9108952F923F920A
:101C00004F925F926F927F928F929F92AF92BF920C
:101C1000CF92DF92EF92FF920F931F93CF93DF93B8
:101C200000D000D000D01F921F92CDB7DEB77C014C
:101C30003B018A01FC0117821682838181FFD0C19A
:101C4000CE0101965C01F7019381F30193FD85912B
:101C500093FF81913F01882309F449C1853239F40A
:101C600093FD859193FF81913F01853221F4B70166
:101C700090E02FD4E8CF912C212C312CFFE1F315EB
:101C800038F08B3211F190F4803209F1833229F16E
:101C900037FC3CC020ED280F2A3050F536FE20C01E
:101CA0008AE0989E200D1124922E06C08D3291F06C
:101CB000803371F7689430F8F30193FD859193FFB9
:101CC00081913F018111DACF21C0689431F8689485
:101CD00032F8F2CF689433F8EFCF689434F8ECCF51
:101CE000EAE02E9E200D1124222E689435F8E4CFD0
:101CF0008E3229F436FCFBC0689436F8DDCF8C3682
:101D000019F4689437F8D8CF8836B1F2982F9F7DB0
:101D100095549330D8F0833691F18337B1F1833500
:101D200009F05EC02801F2E04F0E511CF801C0809E
:101D3000D180692D70E036FC02C06FEF7FEFC601E5
:101D4000A2D34C01689437F882010AC00C5F1F4F80
:101D5000FFE3F98388248394912C6501E89437F894
:101D600033FE2AC0522C8114910459F5552009F4F0
:101D70006ACFB70180E290E0ACD35A94F7CFF80174
:101D8000808189830E5F1F4FE5CF2801F2E04F0E5F
:101D9000511CF801C080D180692D70E036FC02C072
:101DA0006FEF7FEFC6017AD34C018201D7CFB70125
:101DB00080E290E08ED32A942814190409F0B8F731
:101DC000D1CFF60137FC859137FE81916F01B701C4
:101DD00090E07FD351105A94F1E08F1A9108C3CF4D
:101DE000843619F0893609F073C0F80137FE67C0F0
:101DF00060817181828193810C5F1F4FF32DFF768B
:101E00003F2E97FF09C090958095709561957F4F03
:101E10008F4F9F4F689437F82AE030E0A50189D3AF
:101E2000C82ECA188C2C432C36FE0CC0E89440F8FF
:101E3000C91440F434FE05C032FC03C0F32DFE7E0D
:101E40004F2E892C44FEA6C0FE01EC0DF11D8081B1
:101E5000803309F098C0242D297E422E842D88706D
:101E6000582E43FCA5C040FE9FC09C2C821418F441
:101E70002C0C922C981844FEA1C0B70180E390E08E
:101E800028D342FE08C088E790E041FE02C088E502
:101E900090E0B7011ED3C91408F49CC0CA94D12C99
:101EA0009FEFC91AD90ACA0CDB1CF60182916F0197
:101EB000B70190E00ED3AC14BD04B9F757CF6081E1
:101EC0007181072E000C880B990B0E5F1F4F96CF68
:101ED000D32CE894D4F82AE030E08537E1F1232DC3
:101EE000297FD22E8F36A9F1F0F4883551F1F70110
:101EF000868197812B960FB6F894DEBF0FBECDBFBB
:101F0000DF91CF911F910F91FF90EF90DF90CF90D5
:101F1000BF90AF909F908F907F906F905F904F9009
:101F20003F902F900895803749F0883701F7D4FE0D
:101F300002C06894D2F820E130E00DC06894D4F873
:101F4000F6CF34FE03C0822F8660D82E20E132E027
:101F500002C028E030E0F801D7FE0EC06081718138
:101F6000828193810C5F1F4FA501E3D2C82ECA184E
:101F70003D2CE89437F856CF6081718190E080E085
:101F80000E5F1F4FF1CF42FC02C0839467CF839452
:101F9000839464CF842D867809F460CFF6CFB7019F
:101FA00080E290E096D283948214C8F3512C63CFE0
:101FB000522C5818821408F45ECFF8CF842D8678FE
:101FC00009F469CF8BE241FE80E247FC8DE2B70164
:101FD00090E060CFB70180E390E07BD29A945BCF32
:101FE0008FEF9FEF87CF8F929F92AF92BF92CF924A
:101FF000DF92EF92FF920F931F93CF93DF9300D066
:1020000000D000D0CDB7DEB76A01F22EB02E102F6F
:10201000FBE3AF2EA01608F41BE31F5F012F27E0A0
:10202000AE014F5F5F4F57D1BC018981982F9970E6
:10203000913009F44EC09BE2E1FC04C09E2D9170EA
:10204000E0FC49C05E2D5071E82FE87083FF55C059
:1020500084E0911101C083E0EF2DE81B8F1508F09B
:10206000E0E0D6018E2F20E25523C9F1992329F013
:10207000D6019C93C60101966C0196012D5F3F4FDE
:10208000E2FE33C08EE4D6018C9391E411969C93CA
:10209000119712968C93D9018E2F90E281112AC04C
:1020A000E20FF32FF11D10828EEF9FEF29960FB6EE
:1020B000F894DEBF0FBECDBFDF91CF911F910F917E
:1020C000FF90EF90DF90CF90BF90AF909F908F9058
:1020D00008959DE2B7CF90E2B5CF2D938150811145
:1020E000FCCFCE0ED11CE0E0C1CF8EE6D6018C93A2
:1020F00091E6CCCF9D938150D1CF482F447082FF81
:102100003DC084E0911101C083E08F1510F4EF2DE4
:10211000E81BD6018E2F20E2552309F1992329F0DF
:10212000D6019C93C60101966C0196012D5F3F4F2D
:10213000E2FE1BC089E4D6018C938EE411968C9349
:10214000119786E412968C93D9018E2F90E2882302
:1021500009F4A6CF9D938150FACF2D938150811120
:10216000FCCFCE0ED11CE0E0D9CF89E6D6018C930E
:102170008EE611968C93119786E6E4CF9B0177FF4C
:1021800002C030E020E0A1E0B0E0911102C0B0E078
:10219000A0E0F9013196AE0FBF1F8B2C912CBB2014
:1021A00009F461C05401EFEFAE1ABE0AAA0DBB1DBF
:1021B000FA161B0619F014F04F2D4A1B511188C056
:1021C000E3FC59C07601A42FB0E2A1114FC0C40EA8
:1021D000D11C992309F45BC040E0D6011196F601A9
:1021E00090836D01552309F448C0012F060F9A8191
:1021F000582F507184FF03C0913309F40150101619
:102200000CF047C0093008F008E0EEE2FE2E5B015A
:10221000A01AB10885019194819491082F3F32074B
:1022200029F4D601FC92F60131966F01621773070B
:1022300094F1021713077CF5DB01A21BB30BAA2450
:10224000A394B12CAC0EBD1EAA0DBB1D11968C9192
:1022500021503109D601119628153905F4F0F601FF
:1022600080836D01DBCFB12CA12CA0CFF701B193FE
:102270007F01A150AACF9111B0CFD601942F50E386
:1022800002C05D9391509111FCCFC40ED11C40E06F
:10229000ACCF01E0BACF80E3DBCF6217730731F434
:1022A000963388F4953311F4552369F0F601808351
:1022B000FD01842F90E2811108C0A40FB11D1C9272
:1022C00090E080E0F3CE81E3F1CF91938150F3CFA2
:1022D000911183CF8ACF283008F027E03327DA0125
:1022E000990F311D87FD916000966105710539F4E4
:1022F00032602E5F3D9330E32A95E1F708959F3FCA
:1023000030F080387105610509F03C5F3C5F3D931A
:10231000913008F08068911DDF93CF931F930F9346
:10232000FF92EF92192F987F9695E92F96959695A3
:10233000E90FFF27E25CFE4F99273327EE24FF24A5
:10234000A701E70105900894079428F4360FE71ECB
:10235000F81E491F511D660F771F881F991F06948D
:10236000A1F70590079428F4E70EF81E491F561FA1
:10237000C11D770F881F991F661F0694A1F705904E
:10238000079428F4F80E491F561FC71FD11D880F48
:10239000991F661F771F0694A1F70590079420F4F4
:1023A000490F561FC71FD81F990F661F771F881F19
:1023B0000694A9F784911095177041F0D695C795AA
:1023C00057954795F794E7941A95C1F7E4EEF0E036
:1023D00068941590159135916591959105907FE2DE
:1023E0007395E118F10A430B560BC90BD009C0F7DE
:1023F000E10CF11E431F561FC91FD01D7EF4703320
:1024000011F48A95E6CFE894015030F0080F0AF4F1
:102410000027021708F4202F2395022F7A3328F083
:1024200079E37D932A95E9F710C07D932A9589F683
:10243000069497956795379517951794E118F10AC3
:10244000430B560BC90BD00998F023957E917395D9
:102450007A3308F070E37C932013B8F77E917061B3
:102460007D9330F0839571E37D9370E32A95E1F7D6
:102470001124EF90FF900F911F91CF91DF91992739
:1024800087FD90950895FC01059061507040011002
:10249000D8F7809590958E0F9F1F0895FC0161508D
:1024A000704001900110D8F7809590958E0F9F1F76
:1024B0000895DC01FC01672F71917723E1F73297D2
:1024C00004C07C916D9370836291AE17BF07C8F30F
:1024D00008950F931F93CF93DF93182F092FEB01CC
:1024E0008B8181FD09C01FEF0FEF812F902FDF91AE
:1024F000CF911F910F91089582FF14C02E813F81CB
:102500008C819D81281739073CF4E881F981CF013E
:1025100001969983888310838E819F8101969F8382
:102520008E83E3CFE885F985812F1995892BA1F357
:10253000DACFFA01AA27283051F1203181F1E8944D
:102540006F936E7F6E5F7F4F8F4F9F4FAF4FB1E0A6
:102550003ED0B4E03CD0670F781F891F9A1FA11DA1
:10256000680F791F8A1F911DA11D6A0F711D811DA2
:10257000911DA11D20D009F468943F912AE0269F67
:1025800011243019305D3193DEF6CF010895462FC6
:102590004770405D4193B3E00FD0C9F7F6CF462FA7
:1025A0004F70405D4A3318F0495D31FD4052419310
:1025B00002D0A9F7EACFB4E0A695979587957795CD
:1025C0006795BA95C9F700976105710508959B0154
:1025D000AC010A2E06945795479537952795BA95DD
:1025E000C9F7620F731F841F951FA01D0895DC019A
:1025F000CB01FC01F999FECF06C0F2BDE1BDF89A0E
:10260000319600B40D9241505040B8F70895DC0166
:10261000A40FB51F4150504040F0CB01840F951FCF
:102620002E9105D041505040D8F70895262FF999A2
:10263000FECF92BD81BDF89A019700B4021639F021
:102640001FBA20BD0FB6F894FA9AF99A0FBE0895F2
:10265000EE0FFF1F881F8BBF0790F691E02D199496
:10266000FB01DC0102C001900D9241505040D8F7AF
:102670000895FB01DC014150504048F001900D925B
:102680000020C9F701C01D9241505040E0F7089565
:1026900011E0CDE7D1E000E005C0802FFE01D8DFDA
:1026A0002196011DCE37D10780E00807B1F7F894D5
:0226B000FFCF5A
:1026B200FFFFFF77037703770377037703770377C8
:1026C200037703000004078000000000004D02AF02
:1026D20001DC0199020D02EB01FF014D7953656E98
:1026E200736F727320486F757365204865617465F6
:1026F2007200312E3000322E332E322D72632E3183
:1027020000476174657761792073746172747570C2
:0E27120020636F6D706C6574652E003B0000D7
:00000001FF
