:10000000F9C0000070C5000043C5000016C500001F
:10001000E9C40000BCC400008FC4000062C400003A
:1000200035C4000017C1000015C1000013C1000055
:1000300085C500000FC100000DC100000BC100000C
:1000400009C1000007C1000005C1000003C1000094
:1000500001C10000FFC00000FDC00000CDC30000D2
:10006000F9C0000093C3000068C30000F3C00000A3
:10007000F1C00000EFC00000EDC00000EBC00000C8
:10008000E9C00000E7C00000E5C00000E3C00000D8
:10009000E1C00000DFC00000DDC00000DBC00000E8
:1000A000D9C00000D7C00000D5C00000D3C00000F8
:1000B000D1C00000CFC00000CDC00000CBC0000008
:1000C000C9C00000C7C00000C5C00000C3C0000018
:1000D000C1C00000BFC00000BDC00000BBC0000028
:1000E000B9C0000000407A10F35A00A0724E1809FF
:1000F0000010A5D4E80000E87648170000E40B548F
:10010000020000CA9A3B000000E1F505000080965D
:100110009800000040420F000000A086010000008F
:10012000102700000000E803000000006400000049
:1001300000000A00000000000100000000002C7612
:10014000D888DC674F0823DFC1DFAE59E1B1B7962D
:10015000E5E3E453C63AE651997696E8E6C284268A
:10016000EB898C9B62ED407C6FFCEFBC9C9F40F266
:10017000BAA56FA5F490055A2AF75C936B6CF967E2
:100180006DC11BFCE0E40D47FEF520E6B500D0EDA7
:10019000902E0300943577050080841E080000200F
:1001A0004E0A000000C80C333333330F986E1283AD
:1001B0001141EF8D2114893BE65516CFFEE6DB1881
:1001C000D1844B381BF77C1D901DA4BBE424203246
:1001D00084725E228100C9F124ECA1E53D272575DA
:1001E0003B25753B25753B25753B25753B25730ADE
:1001F0000000BD0511241FBECFEFD1E2DEBFCDBF91
:1002000000E00CBF12E0A0E0B2E0E0E1FEE100E0BF
:100210000BBF02C007900D92A236B107D9F724E0B8
:10022000A2E6B2E001C01D92AD37B207E1F710E0DF
:10023000CAEFD0E000E006C021970109802FFE013F
:100240000E94E60EC93FD10780E00807A9F7CAD48B
:100250000C94060FD5CEAF92BF92CF92DF92EF9261
:10026000FF920F931F93CF93DF936C017B018B0160
:10027000040F151FEB015E01AE18BF08C017D107B0
:1002800059F06991D601ED91FC910190F081E02D3A
:10029000C6011995892B79F7C501DF91CF911F917F
:1002A0000F91FF90EF90DF90CF90BF90AF900895A7
:1002B000FC01538D448D252F30E0842F90E0821B6C
:1002C000930B541710F0CF96089501970895FC01F1
:1002D000918D828D981761F0A28DAE0FBF2FB11D49
:1002E0005D968C91928D9F5F9F73928F90E00895A1
:1002F0008FEF9FEF0895FC01918D828D981731F05B
:10030000828DE80FF11D858D90E008958FEF9FEFAE
:100310000895FC01918D228D892F90E0805C9F4F84
:10032000821B91098F73992708958DE793E0F1DF80
:1003300021E0892B09F420E0822F0895FC01A48D8F
:10034000A80FB92FB11DA35ABF4F2C91848D90E0F7
:1003500001968F739927848FA689B7892C93A089DA
:10036000B1898C91837080648C93938D848D981364
:1003700006C00288F389E02D80818F7D80830895F7
:10038000EF92FF920F931F93CF93DF93EC0181E0E5
:10039000888F9B8D8C8D98131AC0E889F98980818C
:1003A00085FF15C09FB7F894EE89FF896083E889BF
:1003B000F98980818370806480839FBF81E090E0B1
:1003C000DF91CF911F910F91FF90EF900895F62E3E
:1003D0000B8D10E00F5F1F4F0F731127E02E8C8DD8
:1003E0008E110BC00FB607FCFACFE889F98980811E
:1003F00085FFF5CFCE01A2DFF2CFEB8DEC0FFD2F05
:10040000F11DE35AFF4FF0829FB7F8940B8FEA89F2
:10041000FB8980818062D0CFCF93DF93EC01888D00
:100420008823B1F0AA89BB89E889F9898C9185FD77
:1004300003C0808186FD0CC00FB607FCF7CF8C91FE
:1004400085FFF2CF808185FFEDCFCE0177DFEACF48
:10045000DF91CF91089580E090E0892B21F065DF56
:1004600081110E94000080E090E0892B49F080E03B
:1004700090E0892B29F00E94000081110E94000069
:1004800080E090E0892B49F080E090E0892B29F012
:100490000E94000081110E94000080E090E0892B02
:1004A00049F080E090E0892B29F00E940000811142
:1004B0000C940000089508950895089508950895EE
:1004C0000F931F93CF93DF93EC01E0E0611571056B
:1004D00051F0FB0101900020E9F73197E61BF70B83
:1004E000E931F10500F50E2F10E08B81877098013E
:1004F00093E0220F331F9A95E1F7822B8B838C8137
:100500008F718C83EE2329F0A801CE0107960E94FB
:10051000F70EFE01E00FF11F1782CE01DF91CF91A0
:100520001F910F910895E9E1DECF0F931F93CF93B1
:10053000DF93EC018C81829586958770A9F44B81BD
:1005400046954695469550E0BE01695F7F4F8AED1E
:1005500092E00E94F70EEB81E695E695E695F0E0D5
:10056000E652FD4F108209C0813009F041C08F81F1
:100570004AE06AED72E090E054D68C812AED32E0D8
:100580003F932F939D811F929F9384FB992790F90E
:100590001F929F9387701F928F938E811F928F93CC
:1005A00089811F928F938EED91E09F938F931F927D
:1005B00088E78F93C2E6D2E0DF93CF93A1D609906C
:1005C0000020E9F7AE014356524062E672E08DE743
:1005D00093E041DEEDB7FEB772960FB6F894FEBF1A
:1005E0000FBEEDBF81E0DF91CF911F910F91089574
:1005F000823031F44AE06AED72E08F819885BCCF99
:10060000833039F44AE06AED72E08F8198855FD6D5
:10061000B4CF843049F46F81788589859A852AE042
:100620004AED52E008D6A9CF853049F46F8178852C
:1006300089859A852AE04AED52E028D69ECF8730F8
:1006400051F1AAEDB2E09E01295F3F4F40E0EB81FE
:10065000E695E695E6954E1778F5B901F9018081A2
:10066000082E000C990B54E0959587955A95E1F763
:100670008F708A30E8F4805D8C932F5F3F4FFB01D1
:1006800080818F708A30B0F4805D11968C931197C1
:100690004F5F1296DCCF2B85293008F028E06F8160
:1006A000788589859A850AED12E042E033D565CFD9
:1006B000895CE2CF895CE9CFF0E0EE0FFF1F50CFFD
:1006C000FC012281211101C030CF80E008951F93E9
:1006D000CF93DF93CAE1D4E019821A821FEF1E8301
:1006E0008BE08D838C81807E83608C8365E272E0F9
:1006F000CE01E6DEE5DF19821A821E838CE08D834F
:100700008C81807E83608C836CE372E0CE01D8DEC6
:10071000DF91CF911F91D4CFEAE1F4E011821282F0
:100720008FEF868381E185838481807E848360E48A
:1007300072E0CF01C5DEC4DFCACF1F920F920FB6A1
:100740000F9211240BB60F922F933F934F935F9309
:100750006F937F938F939F93AF93BF93EF93FF9389
:100760008DE793E0EBDDFF91EF91BF91AF919F910A
:100770008F917F916F915F914F913F912F910F904A
:100780000BBE0F900FBE0F901F9018951F920F92E7
:100790000FB60F9211240BB60F922F938F939F9346
:1007A000EF93FF93E0918D03F0918E038081E091B0
:1007B0009303F091940382FD1DC090818091960374
:1007C0008F5F8F7320919703821741F0E09196031A
:1007D000F0E0E358FC4F958F80939603FF91EF91E3
:1007E0009F918F912F910F900BBE0F900FBE0F9086
:1007F0001F9018958081F2CF1F920F920FB60F9223
:1008000011242F933F938F939F93AF93BF93809126
:10081000790390917A03A0917B03B0917C0330918E
:10082000780323E0230F2D3758F50196A11DB11D44
:10083000209378038093790390937A03A0937B03AA
:10084000B0937C038091740390917503A09176031B
:10085000B09177030196A11DB11D8093740390930D
:100860007503A0937603B0937703BF91AF919F91E7
:100870008F913F912F910F900FBE0F901F90189561
:1008800026E8230F0296A11DB11DD2CF1F920F9211
:100890000FB60F9211240BB60F922F933F934F93E5
:1008A0005F936F937F938F939F93AF93BF93EF93D8
:1008B000FF93E0911102F09112021995FF91EF91CF
:1008C000BF91AF919F918F917F916F915F914F9168
:1008D0003F912F910F900BBE0F900FBE0F901F9066
:1008E00018951F920F920FB60F9211240BB60F920C
:1008F0002F933F934F935F936F937F938F939F9328
:10090000AF93BF93EF93FF93E0910F02F09110022A
:100910001995FF91EF91BF91AF919F918F917F9129
:100920006F915F914F913F912F910F900BBE0F9060
:100930000FBE0F901F9018951F920F920FB60F9237
:1009400011240BB60F922F933F934F935F936F93A6
:100950007F938F939F93AF93BF93EF93FF93E09118
:100960000502F09106021995FF91EF91BF91AF91A9
:100970009F918F917F916F915F914F913F912F91B7
:100980000F900BBE0F900FBE0F901F9018951F92E7
:100990000F920FB60F9211240BB60F922F933F9325
:1009A0004F935F936F937F938F939F93AF93BF9377
:1009B000EF93FF93E0910302F09104021995FF91E8
:1009C000EF91BF91AF919F918F917F916F915F91C7
:1009D0004F913F912F910F900BBE0F900FBE0F9034
:1009E0001F9018951F920F920FB60F9211240BB6FD
:1009F0000F922F933F934F935F936F937F938F93B8
:100A00009F93AF93BF93EF93FF93E0910D02F0910B
:100A10000E021995FF91EF91BF91AF919F918F9128
:100A20007F916F915F914F913F912F910F900BBEEE
:100A30000F900FBE0F901F9018951F920F920FB638
:100A40000F9211240BB60F922F933F934F935F9306
:100A50006F937F938F939F93AF93BF93EF93FF9386
:100A6000E0910B02F0910C021995FF91EF91BF916B
:100A7000AF919F918F917F916F915F914F913F9136
:100A80002F910F900BBE0F900FBE0F901F901895D7
:100A90001F920F920FB60F9211240BB60F922F9345
:100AA0003F934F935F936F937F938F939F93AF93F6
:100AB000BF93EF93FF93E0910902F0910A02199519
:100AC000FF91EF91BF91AF919F918F917F916F9126
:100AD0005F914F913F912F910F900BBE0F900FBEE2
:100AE0000F901F9018951F920F920FB60F9211241E
:100AF0000BB60F922F933F934F935F936F937F9318
:100B00008F939F93AF93BF93EF93FF93E09107026F
:100B1000F09108021995FF91EF91BF91AF919F91CC
:100B20008F917F916F915F914F913F912F910F9096
:100B30000BBE0F900FBE0F901F9018951F920F9233
:100B40000FB60F9211240F900FBE0F901F901895A3
:100B5000CF93DF93FC0110821182128214821582DE
:100B60001682DC0117968AE1ED0119928A95E9F760
:100B700082E08383DF91CF910895EDE7F3E0138264
:100B8000128288EE93E0A0E0B0E084839583A68390
:100B9000B78387E192E09183808385EC90E095872D
:100BA000848784EC90E09787868780EC90E0918B37
:100BB000808B81EC90E0938B828B82EC90E0958B24
:100BC000848B86EC90E0978B868B118E128E138E21
:100BD000148E8CE594E0BCDF8BE394E0B9DF8AE10E
:100BE00094E0B6CFCF93DF93CDB7DEB76B970FB658
:100BF000F894DEBF0FBECDBF789484B5826084BD0B
:100C000084B5816084BD85B5826085BD85B5816010
:100C100085BD80916E00816080936E00109281008E
:100C20008091810082608093810080918100816049
:100C3000809381008091800081608093800080910A
:100C4000B10084608093B1008091B0008160809396
:100C5000B00080919100826080939100809191001A
:100C600081608093910080919000816080939000DA
:100C70008091A10082608093A1008091A100816099
:100C80008093A1008091A00081608093A00080915A
:100C900021018260809321018091210181608093F4
:100CA00021018091200181608093200180917A0050
:100CB000846080937A0080917A00826080937A00C9
:100CC00080917A00816080937A0080917A008068B8
:100CD00080937A001092C100A89580E090E0892B63
:100CE00011F00E940000E0918D03F0918E0382E0EC
:100CF0008083E0918903F0918A031082E0918B0355
:100D0000F0918C0380E1808310929503E091910330
:100D1000F091920386E08083E0918F03F09190033D
:100D2000808180618083E0918F03F09190038081C6
:100D300088608083E0918F03F091900380818068C8
:100D40008083E0918F03F091900380818F7D808379
:100D5000809173038D7F8093730341E050E063E0E3
:100D600071E082E793E00E94B50E10921B0410928E
:100D70001C048FEF809320048EE080931F048091E9
:100D80001E04807E836080931E0466E472E08AE124
:100D900094E096DBCADBC0DC8091730381FD04C064
:100DA0008160826080937303A89599249A947BE173
:100DB000872EE3E27E2EF0E0CF2EF0E0DF2EA89526
:100DC0008DE793E0A6DA892B09F4ADC08DE793E0B7
:100DD0007EDA90917103933608F021C1E92FF0E09B
:100DE000E35FFC4F8A3009F015C11082AE01465E08
:100DF0005F4F60E672E08DE093E0ECD100E0F12C13
:100E0000E12C10E0A12CB12C009709F486C026E05B
:100E1000E216F10409F489C023E0E216F10409F4B2
:100E20004BC0BCF421E0E216F104B9F122E0E21675
:100E3000F104B9F18CD180935E048FEFE81AF80ABF
:100E4000AE01465E5F4F60E672E090E080E0C2D1A6
:100E5000DBCF24E0E216F10409F43DC025E0E21600
:100E6000F10441F7FC01043009F045C0808188237A
:100E700021F38A33A4F580538295807F91819A3340
:100E8000A4F59053A1E0B0E0AC0FBD1FA10FB11DC0
:100E9000890F8C931F5F3296E9CF59D180936204FA
:100EA000CCCF55D1082F80916004887F902F977008
:100EB000892B80936004C1CF20916004622EE89456
:100EC00063F845D1892B29F088E0682A6092600494
:100ED000B4CF80E0FACF3BD180936104AECF8136AE
:100EE00014F08755C9CF8753C7CF913614F0975563
:100EF000C9CF9753C7CF01900020E9F7E81BE25014
:100F0000E80FF92FF11D20812D3009F41082208186
:100F10002A3009F410825C0190CF25E0E216F1043A
:100F200024F41092710397DA4ACF10925D04109264
:100F30005C04809160048F7E80936004043009F02B
:100F400064C01A3108F019E190915F049770412F45
:100F500050E09A0163E0220F331F6A95E1F7922B6C
:100F600090935F048F71806C80936004BE016F5F0B
:100F70007F4F83E694E032D71092710381E2ECE573
:100F8000F4E0ABE3B4E001900D928A95E1F71091A3
:100F90003D041111C8CF80913F0483FF16C091E238
:100FA000EBE3F4E0AAE1B4E001900D929A95E1F749
:100FB000877F806180931E0410921B0480913C0403
:100FC00080931C048AE194E0B0DA80913F04982F6A
:100FD0009770933009F0A7CF90914004923011F5AB
:100FE00010921B0410921C049092200490931F04F2
:100FF00080911E04807E836080931E0460E472E012
:101000008AE194E05DDA91DA8ECFB5018CE594E067
:1010100057DAB2CF80839F5F90937103D1CE109245
:101020007103CECE00913C04011149C09D3059F4AA
:1010300088E198E00FB6F894A895809360000FBE01
:1010400090936000FFCF9B3109F46DCF963091F4FF
:101050009091420481E0992319F09D3409F080E0D9
:101060008093720341E050E063E071E082E793E037
:101070008CD659CF933111F44FDB55CF913009F015
:1010800052CFC114D10409F44ECF82958695877052
:10109000853059F460914204709143048091440476
:1010A000909145040E9400003ECF811104C082E46B
:1010B00094E06AD0F7CF60E070E0CB01F3CF9A31D3
:1010C00009F031CF8295869587708130E1F41091D7
:1010D000420410921B0400931C04909220048092FE
:1010E0001F0480911D048770886080931D04709296
:1010F0001E0481E0123008F480E0809321048AE12C
:1011000094E0DEDA10CF8111E4CF82E494E01FD0C6
:10111000182FDFCFEF920F931F93CF93DF93E80148
:1011200034E047FD34E1042E000C550B57FF03C09B
:10113000519541955109E32E022F242FAE0111D371
:10114000CE01DF91CF911F910F91EF900895FC0197
:1011500088279927E89421912032E9F3293010F06B
:101160002E30C8F32B3239F02D3231F4689403C09D
:1011700085D0820F911D219120532A30C8F31EF48F
:10118000909581959F4F08951F93FC01992788277B
:10119000BC01E89411911032E9F3193010F01E30BF
:1011A000C8F31B3249F01D3241F4689405C051D098
:1011B000610F711D811D911D119110531A30B8F3EB
:1011C0003EF490958095709561957F4F8F4F9F4F1E
:1011D0001F910895FA01A191B081009719F4109719
:1011E000E1F0CD01DC01CD010D90002011F4C00132
:1011F00013C0FB012191222319F02015D9F7F3CF59
:10120000FB012191201519F41E92119606C022238C
:10121000C1F70D900020A1F7D001FA01A193B0838E
:101220000895BB274A3031F4992322F4BDE290950A
:1012300081959F4F4DC0BB272A3051F4992342F42A
:10124000BDE290958095709561957F4F8F4F9F4F30
:101250001EC0592F482F372F262F660F771F881F44
:10126000991F660F771F881F991F620F731F841FB6
:10127000951F660F771F881F991F08957AE0979F23
:10128000902D879F802D910D11240895BB27FA0181
:10129000A62F6217710581059105330B30FB66F0AF
:1012A000AA27660F771F881F991FAA1FA21710F081
:1012B000A21B63953850A9F7A05DAA3308F0A95D79
:1012C000A19336F7B111B1931082CA01B0C4BB2704
:1012D000FB015527AA27880F991FAA1FA41710F0F2
:1012E000A41B83955051B9F7A05DAA3308F0A95DFE
:1012F000A193009779F7B111B1931192CB0197C4E3
:101300000F931F93CF93DF93CDB7DEB72E970FB612
:10131000F894DEBF0FBECDBF0E891F89888D998DD1
:101320002EE02C831A83098397FF02C080E090E8A7
:1013300001979E838D83AE01445E5F4F6A8D7B8DE6
:10134000CE01019619D04D815E8157FD0AC02F81D3
:101350003885421753070CF49A01020F131FF80146
:1013600010822E960FB6F894DEBF0FBECDBFDF9170
:10137000CF911F910F9108952F923F924F925F92BC
:101380006F927F928F929F92AF92BF92CF92DF9295
:10139000EF92FF920F931F93CF93DF9300D000D073
:1013A00000D01F921F92CDB7DEB77C013B018A01AE
:1013B000FC0117821682838181FFD0C1CE01019684
:1013C0005C01F7019381F30193FD859193FF819176
:1013D0003F01882309F449C1853239F493FD859191
:1013E00093FF81913F01853221F4B70190E02FD422
:1013F000E8CF912C212C312CFFE1F31538F08B3202
:1014000011F190F4803209F1833229F137FC3CC0AC
:1014100020ED280F2A3050F536FE20C08AE0989E35
:10142000200D1124922E06C08D3291F0803371F779
:10143000689430F8F30193FD859193FF81913F010A
:101440008111DACF21C0689431F8689432F8F2CF74
:10145000689433F8EFCF689434F8ECCFEAE02E9E2E
:10146000200D1124222E689435F8E4CF8E3229F411
:1014700036FCFBC0689436F8DDCF8C3619F46894DE
:1014800037F8D8CF8836B1F2982F9F7D9554933096
:10149000D8F0833691F18337B1F1833509F05EC01E
:1014A0002801F2E04F0E511CF801C080D180692D57
:1014B00070E036FC02C06FEF7FEFC601A2D34C0193
:1014C000689437F882010AC00C5F1F4FFFE3F9836D
:1014D00088248394912C6501E89437F833FE2AC060
:1014E000522C8114910459F5552009F46ACFB701A3
:1014F00080E290E0ACD35A94F7CFF80180818983E1
:101500000E5F1F4FE5CF2801F2E04F0E511CF8018E
:10151000C080D180692D70E036FC02C06FEF7FEF94
:10152000C6017AD34C018201D7CFB70180E290E0A7
:101530008ED32A942814190409F0B8F7D1CFF601F4
:1015400037FC859137FE81916F01B70190E07FD321
:1015500051105A94F1E08F1A9108C3CF843619F0D4
:10156000893609F073C0F80137FE67C06081718168
:10157000828193810C5F1F4FF32DFF763F2E97FFE3
:1015800009C090958095709561957F4F8F4F9F4FC3
:10159000689437F82AE030E0A50189D3C82ECA182C
:1015A0008C2C432C36FE0CC0E89440F8C91440F44F
:1015B00034FE05C032FC03C0F32DFE7E4F2E892C75
:1015C00044FEA6C0FE01EC0DF11D8081803309F0C0
:1015D00098C0242D297E422E842D8870582E43FCDD
:1015E000A5C040FE9FC09C2C821418F42C0C922C99
:1015F000981844FEA1C0B70180E390E028D342FED2
:1016000008C088E790E041FE02C088E590E0B7019D
:101610001ED3C91408F49CC0CA94D12C9FEFC91AD8
:10162000D90ACA0CDB1CF60182916F01B70190E068
:101630000ED3AC14BD04B9F757CF60817181072E6A
:10164000000C880B990B0E5F1F4F96CFD32CE8949C
:10165000D4F82AE030E08537E1F1232D297FD22E1E
:101660008F36A9F1F0F4883551F1F7018681978121
:101670002B960FB6F894DEBF0FBECDBFDF91CF9192
:101680001F910F91FF90EF90DF90CF90BF90AF90A0
:101690009F908F907F906F905F904F903F902F9092
:1016A0000895803749F0883701F7D4FE02C0689466
:1016B000D2F820E130E00DC06894D4F8F6CF34FEC3
:1016C00003C0822F8660D82E20E132E002C028E0DD
:1016D00030E0F801D7FE0EC0608171818281938174
:1016E0000C5F1F4FA501E3D2C82ECA183D2CE89409
:1016F00037F856CF6081718190E080E00E5F1F4F18
:10170000F1CF42FC02C0839467CF8394839464CF6B
:10171000842D867809F460CFF6CFB70180E290E09F
:1017200096D283948214C8F3512C63CF522C58184C
:10173000821408F45ECFF8CF842D867809F469CF3F
:101740008BE241FE80E247FC8DE2B70190E060CF82
:10175000B70180E390E07BD29A945BCF8FEF9FEF4D
:1017600087CF8F929F92AF92BF92CF92DF92EF92EC
:10177000FF920F931F93CF93DF9300D000D000D040
:10178000CDB7DEB76A01F22EB02E102FFBE3AF2EDD
:10179000A01608F41BE31F5F012F27E0AE014F5F87
:1017A0005F4F57D1BC018981982F9970913009F40E
:1017B0004EC09BE2E1FC04C09E2D9170E0FC49C04C
:1017C0005E2D5071E82FE87083FF55C084E09111C1
:1017D00001C083E0EF2DE81B8F1508F0E0E0D60193
:1017E0008E2F20E25523C9F1992329F0D6019C932D
:1017F000C60101966C0196012D5F3F4FE2FE33C09A
:101800008EE4D6018C9391E411969C9311971296D5
:101810008C93D9018E2F90E281112AC0E20FF32F11
:10182000F11D10828EEF9FEF29960FB6F894DEBF60
:101830000FBECDBFDF91CF911F910F91FF90EF9021
:10184000DF90CF90BF90AF909F908F9008959DE2D2
:10185000B7CF90E2B5CF2D9381508111FCCFCE0E42
:10186000D11CE0E0C1CF8EE6D6018C9391E6CCCFBF
:101870009D938150D1CF482F447082FF3DC084E0BA
:10188000911101C083E08F1510F4EF2DE81BD601F4
:101890008E2F20E2552309F1992329F0D6019C933C
:1018A000C60101966C0196012D5F3F4FE2FE1BC001
:1018B00089E4D6018C938EE411968C93119786E47B
:1018C00012968C93D9018E2F90E2882309F4A6CF2B
:1018D0009D938150FACF2D9381508111FCCFCE0E74
:1018E000D11CE0E0D9CF89E6D6018C938EE6119623
:1018F0008C93119786E6E4CF9B0177FF02C030E01E
:1019000020E0A1E0B0E0911102C0B0E0A0E0F90158
:101910003196AE0FBF1F8B2C912CBB2009F461C0F8
:101920005401EFEFAE1ABE0AAA0DBB1DFA161B0634
:1019300019F014F04F2D4A1B511188C0E3FC59C017
:101940007601A42FB0E2A1114FC0C40ED11C99237F
:1019500009F45BC040E0D6011196F60190836D0159
:10196000552309F448C0012F060F9A81582F507152
:1019700084FF03C0913309F4015010160CF047C0E6
:10198000093008F008E0EEE2FE2E5B01A01AB10873
:1019900085019194819491082F3F320729F4D60153
:1019A000FC92F60131966F016217730794F10217EA
:1019B00013077CF5DB01A21BB30BAA24A394B12C63
:1019C000AC0EBD1EAA0DBB1D11968C912150310984
:1019D000D601119628153905F4F0F60180836D01C2
:1019E000DBCFB12CA12CA0CFF701B1937F01A15087
:1019F000AACF9111B0CFD601942F50E302C05D93CE
:101A000091509111FCCFC40ED11C40E0ACCF01E04D
:101A1000BACF80E3DBCF6217730731F4963388F4D3
:101A2000953311F4552369F0F6018083FD01842F6D
:101A300090E2811108C0A40FB11D1C9290E080E0DB
:101A4000F3CE81E3F1CF91938150F3CF911183CF06
:101A50008ACF283008F027E03327DA01990F311DAB
:101A600087FD916000966105710539F432602E5F43
:101A70003D9330E32A95E1F708959F3F30F0803899
:101A80007105610509F03C5F3C5F3D93913008F0C2
:101A90008068911DDF93CF931F930F93FF92EF9276
:101AA000192F987F9695E92F96959695E90FFF2720
:101AB000E25CFE4F99273327EE24FF24A701E701BC
:101AC00005900894079428F4360FE71EF81E491F66
:101AD000511D660F771F881F991F0694A1F7059067
:101AE000079428F4E70EF81E491F561FC11D770FF3
:101AF000881F991F661F0694A1F70590079428F484
:101B0000F80E491F561FC71FD11D880F991F661F4A
:101B1000771F0694A1F70590079420F4490F561FEC
:101B2000C71FD81F990F661F771F881F0694A9F734
:101B300084911095177041F0D695C79557954795A4
:101B4000F794E7941A95C1F7E4EEF0E068941590E5
:101B5000159135916591959105907FE27395E11806
:101B6000F10A430B560BC90BD009C0F7E10CF11E6B
:101B7000431F561FC91FD01D7EF4703311F48A9580
:101B8000E6CFE894015030F0080F0AF4002702175E
:101B900008F4202F2395022F7A3328F079E37D93E0
:101BA0002A95E9F710C07D932A9589F606949795B2
:101BB0006795379517951794E118F10A430B560B63
:101BC000C90BD00998F023957E9173957A3308F06C
:101BD00070E37C932013B8F77E9170617D9330F0B1
:101BE000839571E37D9370E32A95E1F71124EF90DB
:101BF000FF900F911F91CF91DF91992787FD9095CD
:101C00000895FC010590615070400110D8F780954F
:101C100090958E0F9F1F0895FC01615070400190B8
:101C20000110D8F7809590958E0F9F1F0895DC01C5
:101C3000FC01672F71917723E1F7329704C07C9103
:101C40006D9370836291AE17BF07C8F308950F9329
:101C50001F93CF93DF93182F092FEB018B8181FD09
:101C600009C01FEF0FEF812F902FDF91CF911F91B0
:101C70000F91089582FF14C02E813F818C819D8138
:101C8000281739073CF4E881F981CF01019699833F
:101C9000888310838E819F8101969F838E83E3CFFB
:101CA000E885F985812F1995892BA1F3DACFFA01FF
:101CB000AA27283051F1203181F1E8946F936E7F8B
:101CC0006E5F7F4F8F4F9F4FAF4FB1E03ED0B4E07C
:101CD0003CD0670F781F891F9A1FA11D680F791FBD
:101CE0008A1F911DA11D6A0F711D811D911DA11DCE
:101CF00020D009F468943F912AE0269F11243019DE
:101D0000305D3193DEF6CF010895462F4770405D78
:101D10004193B3E00FD0C9F7F6CF462F4F70405D27
:101D20004A3318F0495D31FD4052419302D0A9F782
:101D3000EACFB4E0A6959795879577956795BA957C
:101D4000C9F700976105710508959B01AC010A2E42
:101D500006945795479537952795BA95C9F7620F19
:101D6000731F841F951FA01D0895DC01CB01FC018A
:101D7000F999FECF06C0F2BDE1BDF89A319600B4E4
:101D80000D9241505040B8F70895DC01A40FB51FE3
:101D90004150504040F0CB01840F951F2E9105D04B
:101DA00041505040D8F70895262FF999FECF92BDA3
:101DB00081BDF89A019700B4021639F01FBA20BD10
:101DC0000FB6F894FA9AF99A0FBE0895EE0FFF1F16
:101DD000881F8BBF0790F691E02D1994FB01DC0161
:101DE00002C001900D9241505040D8F70895FB0178
:101DF000DC014150504048F001900D920020C9F79D
:101E000001C01D9241505040E0F70895F894FFCF73
:101E1000FFFFFF5B025B025B025B025B025B025B3C
:101E2000025B0200000000C0012B0158010C028976
:101E30000167017B014D7953656E736F72732048A2
:101E40006F7573652048656174657200312E3000CE
:101E5000322E332E310047617465776179207374B7
:101E6000617274757020636F6D706C6574652E009F
:021E70003B0035
:00000001FF
