:100000007DC10000F9C60000CCC600009FC60000FC
:1000100072C6000045C6000018C60000EBC500000F
:10002000BEC500009BC1000099C1000097C100003F
:100030000EC7000093C1000091C100008FC10000F5
:100040008DC100008BC1000089C1000087C1000084
:1000500085C1000083C1000081C1000056C50000B9
:100060007DC100001CC50000F1C4000077C1000084
:1000700075C1000073C1000071C100006FC10000B4
:100080006DC100006BC1000069C1000067C10000C4
:10009000A7C400007CC4000061C100005FC1000073
:1000A0005DC100005BC1000059C1000057C10000E4
:1000B00055C1000053C1000051C100004FC10000F4
:1000C0004DC100004BC1000049C1000047C1000004
:1000D00045C1000043C1000041C100003FC1000014
:1000E0003DC1000000407A10F35A00A0724E18097A
:1000F0000010A5D4E80000E87648170000E40B548F
:10010000020000CA9A3B000000E1F505000080965D
:100110009800000040420F000000A086010000008F
:10012000102700000000E803000000006400000049
:1001300000000A00000000000100000000002C7612
:10014000D888DC674F0823DFC1DFAE59E1B1B7962D
:10015000E5E3E453C63AE651997696E8E6C284268A
:10016000EB898C9B62ED407C6FFCEFBC9C9F40F266
:10017000BAA56FA5F490055A2AF75C936B6CF967E2
:100180006DC11BFCE0E40D47FEF520E6B500D0EDA7
:10019000902E0300943577050080841E080000200F
:1001A0004E0A000000C80C333333330F986E1283AD
:1001B0001141EF8D2114893BE65516CFFEE6DB1881
:1001C000D1844B381BF77C1D901DA4BBE424203246
:1001D00084725E228100C9F124ECA1E53D272575DA
:1001E0003B25753B25753B25753B25753B25730ADE
:1001F0000000000A0B02090C0D0E080703040100A1
:1002000000000000000000000000000000000000EE
:1002100000000000000000000000000000121110AB
:1002200000000000000000000000000000000000CE
:100230000000000000000000002200250028002B24
:10024000002E003100340002010000050108010BFE
:100250000100002100240027002A002D0030003377
:100260000001010000040107010A01050505050759
:100270000508080808020202020A0A080804040421
:10028000040101010101010101030303030303034D
:1002900003040707070C0C0C0C0C0C0C0C020202DC
:1002A0000206060606060606060B0B0B0B0B0B0BCF
:1002B0000B0102102020080810204010204080026E
:1002C000010201080402010102040810204080809C
:1002D0004020100804020180040201804020100820
:1002E00004020108040201010204081020408001F8
:1002F00002040810204080004607760B11241FBE20
:10030000CFEFD1E2DEBFCDBF00E00CBF12E0A0E036
:10031000B2E0E2EBF6E200E00BBF02C007900D9204
:10032000AE36B107D9F727E0AEE6B2E001C01D92C4
:10033000A430B207E1F711E0CDE7D1E000E006C05C
:1003400021970109802FFE010E942813CC37D10785
:1003500080E00807A9F70DD70C94481351CEAF924F
:10036000BF92CF92DF92EF92FF920F931F93CF93A2
:10037000DF936C017B018B01040F151FEB015E0104
:10038000AE18BF08C017D10759F06991D601ED9199
:10039000FC910190F081E02DC6011995892B79F728
:1003A000C501DF91CF911F910F91FF90EF90DF90EA
:1003B000CF90BF90AF900895FC01538D448D252FB1
:1003C00030E0842F90E0821B930B541710F0CF96EF
:1003D000089501970895FC01918D828D981761F021
:1003E000A28DAE0FBF2FB11D5D968C91928D9F5F38
:1003F0009F73928F90E008958FEF9FEF0895FC0117
:10040000918D828D981731F0828DE80FF11D858DC9
:1004100090E008958FEF9FEF0895FC01918D228D5C
:10042000892F90E0805C9F4F821B91098F739927E1
:10043000089587E294E0F1DF21E0892B09F420E0C0
:10044000822F089589E893E0E8DF21E0892B09F401
:1004500020E0822F0895FC01A48DA80FB92FB11DB3
:10046000A35ABF4F2C91848D90E001968F739927EA
:10047000848FA689B7892C93A089B1898C918370C8
:1004800080648C93938D848D981306C00288F389C1
:10049000E02D80818F7D80830895EF92FF920F93EE
:1004A0001F93CF93DF93EC0181E0888F9B8D8C8D20
:1004B00098131AC0E889F989808185FF15C09FB714
:1004C000F894EE89FF896083E889F98980818370D7
:1004D000806480839FBF81E090E0DF91CF911F9186
:1004E0000F91FF90EF900895F62E0B8D10E00F5FA7
:1004F0001F4F0F731127E02E8C8D8E110BC00FB67E
:1005000007FCFACFE889F989808185FFF5CFCE0114
:10051000A2DFF2CFEB8DEC0FFD2FF11DE35AFF4F61
:10052000F0829FB7F8940B8FEA89FB898081806203
:10053000D0CFCF93DF93EC01888D8823B1F0AA89C7
:10054000BB89E889F9898C9185FD03C0808186FD8E
:100550000CC00FB607FCF7CF8C9185FFF2CF8081DE
:1005600085FFEDCFCE0177DFEACFDF91CF91089500
:1005700080E090E0892B21F065DF81110E9400006E
:1005800080E090E0892B21F054DF81110E9400006F
:1005900080E090E0892B49F080E090E0892B29F001
:1005A0000E94000081110E94000080E090E0892BF1
:1005B00049F080E090E0892B29F00E940000811131
:1005C0000C9400000895282F30E0F901EF50FE4F01
:1005D0009491F901EF54FD4F449125593D4FF90194
:1005E0002491222309F435C0992311F191509231BD
:1005F000F8F4E92FF0E08827EF5FFC4F8F4F0C9461
:1006000028133203360313032A032E031803390376
:100610003F03430349034D03510357035B0318038F
:100620005F0365036903809180008F77809380006A
:10063000E22FF0E0EE0FFF1FE95CFD4FA591B491B2
:100640008FB7F894EC91611148C040954E234C93BC
:100650008FBF0895809180008F7DE8CF80918000CA
:10066000877FE4CF84B58F7784BDE2CF84B58F7D5B
:10067000FBCF8091B0008F778093B000D9CF80916D
:10068000B0008F7DF9CF809190008F77809390009C
:10069000CFCF809190008F7DF9CF80919000877FA0
:1006A000F5CF8091A0008F778093A000C1CF80917B
:1006B000A0008F7DF9CF8091A000877FF5CF80913A
:1006C00020018F7780932001B3CF809120018F7D0F
:1006D000F9CF80912001877FF5CF4E2BB8CF61E015
:1006E0008091260470CF60E0809126046CCF08953D
:1006F00008950895089508950F931F93CF93DF935E
:100700008C0180E06115710551F0EB01099000202A
:10071000E9F721978C2F861B8A3108F089E1F801CF
:10072000C381C770F8E08F9FC0011124C82BF80166
:10073000C38384818F718483C695C695C695CA315B
:1007400008F0C9E1D0E0AE01C80107960E94391354
:10075000C00FD11F1F82C801DF91CF911F910F9150
:1007600008950F931F93CF93DF93EC018C818295B3
:1007700086958770D9F44B814695469546954A31C2
:1007800008F049E150E0BE01695F7F4F86EE92E0DC
:100790000E943913EB81E695E695E695EA3108F07B
:1007A000E9E1F0E0EA51FD4F10820AC0813009F022
:1007B00043C08F814AE066EE72E090E00E94530DE4
:1007C0008C8126EE32E03F932F939D811F929F9361
:1007D00084FB992790F91F929F9387701F928F93A4
:1007E0008E811F928F9389811F928F938EED91E05E
:1007F0009F938F931F9288E78F93CEE6D2E0DF938B
:10080000CF930E94C20D09900020E9F7AE014F5628
:1008100052406EE672E089E893E0A1DDEDB7FEB7E5
:1008200072960FB6F894FEBF0FBEEDBF81E0DF9168
:10083000CF911F910F910895823031F44AE066EE16
:1008400072E08F819885BACF833041F44AE066EE3A
:1008500072E08F8198850E94A90DB2CF843051F447
:100860006F81788589859A852AE046EE52E00E945C
:100870005D0DA6CF853051F46F81788589859A8585
:100880002AE046EE52E00E94880D9ACF20E08730A1
:1008900069F42B85293008F028E06F8178858985F7
:1008A0009A8506EE12E042E052D78ACFEB81E695B8
:1008B000E695E695EA3108F0E9E12E1738F5E22FE2
:1008C000F0E0AF01440F551FDA01AA51BD4FEC0F04
:1008D000FD1F8781082E000C990B34E095958795B4
:1008E0003A95E1F78F708A3068F4805D8C934951B6
:1008F0005D4F87818F708A3038F4805DFA01808384
:100900002F5FD4CF895CF2CF895CF8CFF0E0EE0F97
:10091000FF1F48CFFC012281211101C022CF80E0BE
:1009200008951F93CF93DF93CDE9D6E019821A8201
:100930001FEF1E838BE08D838C81807E83608C8390
:100940006BE272E0CE01D8DEE5DF19821A821E83E7
:100950008CE08D838C81807E83608C8362E472E086
:10096000CE01CADEDF91CF911F91D4CFEDE9F6E041
:10097000118212828FEF868381E185838481807E5C
:10098000848366E472E0CF01B7DEC4DFCACF1F9272
:100990000F920FB60F9211240BB60F922F933F9325
:1009A0004F935F936F937F938F939F93AF93BF9377
:1009B000EF93FF9387E294E04EDDFF91EF91BF91BB
:1009C000AF919F918F917F916F915F914F913F91E7
:1009D0002F910F900BBE0F900FBE0F901F90189588
:1009E0001F920F920FB60F9211240BB60F922F93F6
:1009F0008F939F93EF93FF93E0913704F091380426
:100A00008081E0913D04F0913E0482FD1DC0908103
:100A1000809140048F5F8F7320914104821741F0D1
:100A2000E0914004F0E0E95DFB4F958F8093400436
:100A3000FF91EF919F918F912F910F900BBE0F908F
:100A40000FBE0F901F9018958081F2CF1F920F92CA
:100A50000FB60F9211240BB60F922F933F934F9323
:100A60005F936F937F938F939F93AF93BF93EF9316
:100A7000FF9389E893E0EFDCFF91EF91BF91AF9195
:100A80009F918F917F916F915F914F913F912F91A6
:100A90000F900BBE0F900FBE0F901F9018951F92D6
:100AA0000F920FB60F9211240BB60F922F938F93C4
:100AB0009F93EF93FF93E0919903F0919A038081C4
:100AC000E0919F03F091A00382FD1DC09081809171
:100AD000A2038F5F8F732091A303821741F0E091EF
:100AE000A203F0E0E757FC4F958F8093A203FF919C
:100AF000EF919F918F912F910F900BBE0F900FBE92
:100B00000F901F9018958081F2CF1F920F920FB611
:100B10000F9211242F933F938F939F93AF93BF9383
:100B20008091850390918603A0918703B0918803FB
:100B30003091840323E0230F2D3758F50196A11D32
:100B4000B11D209384038093850390938603A09323
:100B50008703B09388038091800390918103A091D3
:100B60008203B09183030196A11DB11D8093800380
:100B700090938103A0938203B0938303BF91AF91BD
:100B80009F918F913F912F910F900FBE0F901F90CB
:100B9000189526E8230F0296A11DB11DD2CF1F92F2
:100BA0000F920FB60F9211240BB60F922F933F9313
:100BB0004F935F936F937F938F939F93AF93BF9365
:100BC000EF93FF93E0911102F09112021995FF91BA
:100BD000EF91BF91AF919F918F917F916F915F91B5
:100BE0004F913F912F910F900BBE0F900FBE0F9022
:100BF0001F9018951F920F920FB60F9211240BB6EB
:100C00000F922F933F934F935F936F937F938F93A5
:100C10009F93AF93BF93EF93FF93E0910F02F091F7
:100C200010021995FF91EF91BF91AF919F918F9114
:100C30007F916F915F914F913F912F910F900BBEDC
:100C40000F900FBE0F901F9018951F920F920FB626
:100C50000F9211240BB60F922F933F934F935F93F4
:100C60006F937F938F939F93AF93BF93EF93FF9374
:100C7000E0910502F09106021995FF91EF91BF9165
:100C8000AF919F918F917F916F915F914F913F9124
:100C90002F910F900BBE0F900FBE0F901F901895C5
:100CA0001F920F920FB60F9211240BB60F922F9333
:100CB0003F934F935F936F937F938F939F93AF93E4
:100CC000BF93EF93FF93E0910302F0910402199513
:100CD000FF91EF91BF91AF919F918F917F916F9114
:100CE0005F914F913F912F910F900BBE0F900FBED0
:100CF0000F901F9018951F920F920FB60F9211240C
:100D00000BB60F922F933F934F935F936F937F9305
:100D10008F939F93AF93BF93EF93FF93E0910D0257
:100D2000F0910E021995FF91EF91BF91AF919F91B4
:100D30008F917F916F915F914F913F912F910F9084
:100D40000BBE0F900FBE0F901F9018951F920F9221
:100D50000FB60F9211240BB60F922F933F934F9320
:100D60005F936F937F938F939F93AF93BF93EF9313
:100D7000FF93E0910B02F0910C021995FF91EF9116
:100D8000BF91AF919F918F917F916F915F914F91A3
:100D90003F912F910F900BBE0F900FBE0F901F90A1
:100DA00018951F920F920FB60F9211240BB60F9247
:100DB0002F933F934F935F936F937F938F939F9363
:100DC000AF93BF93EF93FF93E0910902F0910A0272
:100DD0001995FF91EF91BF91AF919F918F917F9165
:100DE0006F915F914F913F912F910F900BBE0F909C
:100DF0000FBE0F901F9018951F920F920FB60F9273
:100E000011240BB60F922F933F934F935F936F93E1
:100E10007F938F939F93AF93BF93EF93FF93E09153
:100E20000702F09108021995FF91EF91BF91AF91E0
:100E30009F918F917F916F915F914F913F912F91F2
:100E40000F900BBE0F900FBE0F901F9018951F9222
:100E50000F920FB60F9211240F900FBE0F901F909C
:100E60001895CF93DF93FC011082118212821482B5
:100E700015821682DC0117968AE1ED0119928A9596
:100E8000E9F782E08383DF91CF9108950F931F9359
:100E9000CF9307E214E010922A041092290448EE3E
:100EA00053E060E070E040932B0450932C04609377
:100EB0002D0470932E048DE192E09093280480938A
:100EC00027042DEC30E030933404209333042CECD1
:100ED00030E0309336042093350428EC30E0309332
:100EE00038042093370429EC30E030933A042093FF
:100EF00039042AEC30E030933C0420933B042EEC80
:100F000030E030933E0420933D0410924004109250
:100F10004104109242041092430410928C031092E8
:100F20008B0340938D0350938E0360938F037093D4
:100F3000900390938A038093890385EC90E09093CB
:100F400096038093950384EC90E0909398038093AC
:100F5000970380EC90E090939A038093990381EC3F
:100F600090E090939C0380939B0382EC90E090939D
:100F70009E0380939D0386EC90E09093A003809362
:100F80009F031092A2031092A3031092A403109245
:100F9000A5038FED96E065DF8EEB96E062DF8DE9CD
:100FA00096E05FDF84EA8093C4041092C604109236
:100FB000C5041092C8041092C7041092CA0410927B
:100FC000C9041092E0051092DF051092E20510921C
:100FD000E1051092E4051092E30585EE95E041DF0E
:100FE000C1E0C093EB0581E18093EA0586E096E0DD
:100FF00038DFC0930C0682E180930B0687E296E00F
:1010000030DFC0932D0688E380932C0688E496E0B9
:1010100028DFC0934E0686E280934D0689E696E06F
:1010200020DFC0936F0687E280936E068091C40430
:1010300080939606109298061092970610929A0640
:101040001092990610929C0610929B0610938B06A4
:1010500000938A069AE09093260482E080938C069F
:1010600090938D06E0913704F09138048083E091ED
:101070003304F09134041082E0913504F091360489
:101080008FEC808310923F04E0913B04F0913C048C
:1010900086E08083E0913904F0913A048081806198
:1010A0008083E0913904F0913A04808188608083E4
:1010B000E0913904F0913A04808180688083E09166
:1010C0003904F0913A0480818F7D80831092E0058D
:1010D0001092DF051092E2051092E1051092E405EE
:1010E0001092E305C093CD041093CC040093CB047D
:1010F0001092D8051092DA051092D905EBEBF2E0C8
:101100002491E5E7F2E08491882399F090E0880F3C
:10111000991FFC01EF5AFD4FA591B491FC01E95CC8
:10112000FD4F859194918FB7F894EC91E22BEC935D
:101130008FBF8FE693E09093E2058093E10583E70C
:1011400093E09093E4058093E30510928E0610924D
:101150008F061092900610929106109292061092AD
:1011600093061092940610929506CF911F910F91BD
:101170000895CF93DF93CDB7DEB76B970FB6F89492
:10118000DEBF0FBECDBF789484B5826084BD84B5C8
:10119000816084BD85B5826085BD85B5816085BD72
:1011A00080916E00816080936E001092810080912A
:1011B00081008260809381008091810081608093B2
:1011C0008100809180008160809380008091B100D7
:1011D00084608093B1008091B00081608093B00002
:1011E0008091910082608093910080919100816054
:1011F0008093910080919000816080939000809115
:10120000A10082608093A1008091A1008160809301
:10121000A1008091A00081608093A00080912101B5
:10122000826080932101809121018160809321015E
:101230008091200181608093200180917A008460F8
:1012400080937A0080917A00826080937A00809106
:101250007A00816080937A0080917A008068809320
:101260007A001092C100A89580E090E0892B11F0DF
:101270000E940000E0919903F0919A0382E080833C
:10128000E0919503F09196031082E0919703F0911D
:10129000980380E180831092A103E0919D03F09177
:1012A0009E0386E08083E0919B03F0919C03808104
:1012B00080618083E0919B03F0919C038081886032
:1012C0008083E0919B03F0919C0380818068808300
:1012D000E0919B03F0919C0380818F7D80838091BE
:1012E0007F038D7F80937F0341E050E063E071E0F6
:1012F0008EE793E00E94F71210929E0610929F06CE
:101300008FEF8093A3068EE08093A2068091A106C2
:10131000807E83608093A10661E572E08DE996E0AE
:10132000EBD91FDA23DB80917F0381FD04C081604C
:10133000826080937F03A895FF24FA945BE1E52EF9
:1013400063E2B62E70E0872E70E0972EE6E1AE2EB7
:10135000A89589E893E061D8892B09F4D6C089E87B
:1013600093E039D890917D03933608F0E8C0E92FD7
:10137000F0E0E75EFC4F8A3009F0DCC0108210928A
:10138000E0061092DF068091E3068F7E8093E306ED
:10139000AE01465E5F4F6BE672E089E193E05CD39D
:1013A00047E0C42ED12C10E0009709F46AC1153033
:1013B00009F47BC10ED31230C9F070F4113099F0EA
:1013C0008093E106AE01465E5F4F6BE672E090E00F
:1013D00080E042D31F5FE8CF133091F0143081F7E3
:1013E0008093E406EFCF8093E506ECCF6C0180910B
:1013F000E306887F9C2D9770892B8093E306E2CFCC
:101400002091E306277F41E050E0892B11F450E062
:1014100040E0CA0133E0880F991F3A95E1F7822B2B
:10142000ECCF913614F097554FC197534DC13136DB
:1014300014F0375550C137534EC14091E206477002
:101440002A3108F029E188E0289F90011124422BDD
:101450004093E2068091E3068F71806C8093E306EF
:101460004695469546954A3108F049E150E0BE015F
:101470006F5F7F4F86EE96E00E94301310927D03DF
:1014800081E2EFEDF6E0AEEBB6E001900D928A95C9
:10149000E1F71091C006111138C08091C20683FF98
:1014A00016C091E2EEEBF6E0ADE9B6E001900D92E8
:1014B0009A95E1F7877E80618093A10610929E063F
:1014C0008091BF0680939F068DE996E04AD980916E
:1014D000C206982F97709330C1F49091C306923052
:1014E00089F510929E0610929F06F092A3069093A3
:1014F000A2068091A106807E83608093A10666E4A7
:1015000072E08DE996E0F8D82CD932D821CF01903D
:101510000020E9F7E81BE250E80FF92FF11D2081C8
:101520002D3011F02A3009F41082BC018FED96E0C5
:10153000E3D8A4CF80839F5F90937D030ACF10925E
:101540007D0307CFC090BF06C11073C09D3059F412
:1015500088E198E00FB6F894A895809360000FBEDC
:1015600090936000FFCF9B3181F2963099F4909177
:10157000C50681E0992319F09D3409F080E080933D
:101580007E0341E050E063E071E08EE793E00E946B
:101590000713BBCF933111F4E9D9B7CF923141F59D
:1015A0008FB7F8944091850350918603609187032B
:1015B000709188038FBF10929E0610929F06F09242
:1015C000A306A092A2068091A006877080628093F5
:1015D000A00683EA8093A1064093A4065093A50633
:1015E0006093A6067093A7068DE996E093D98DCFF8
:1015F000913009F08ACF8114910409F486CF829545
:1016000086958770853059F46091C5067091C6063D
:101610008091C7069091C8060E94000076CF811184
:1016200004C085EC96E0F2D1F7CF60E070E0CB012A
:10163000F3CF9A3109F069CF829586958770813012
:10164000C9F41091C50610929E06C0929F06F092B2
:10165000A306E092A2068091A0068770886080931E
:10166000A006B092A10681E0123008F480E08093D9
:10167000A406BACF8111E7CF85EC96E0AAD1182F46
:10168000E2CF8091E206877088608093E2068091C5
:10169000E3068F7180628093E3061092E606109253
:1016A0007D03153009F4ECCE30CFFC0124E0C216E6
:1016B000D10409F02CCF20E09081992309F4BDCE0C
:1016C0009A330CF0AECE90539295907F31813A339D
:1016D0000CF0ADCE3053A1E0B0E0AC0FBD1FA20FB7
:1016E000B11D930F9C932F5F3296E6CF80919906A0
:1016F00090919A06009791F0FC01228133813093FA
:101700009A0620939906DCD08091970690919806CE
:1017100001979093980680939706E8CF8091C7042D
:101720009091C804009791F0FC0123A934A930934B
:10173000C8042093C704C4D08091C5049091C60406
:1017400001979093C6048093C504E8CF0895EF9263
:101750000F931F93CF93DF93E80134E047FD34E10B
:10176000042E000C550B57FF03C0519541955109AC
:10177000E32E022F242FAE0136D4CE01DF91CF917C
:101780001F910F91EF9008950F931F93CF93DF93C5
:101790008230910510F482E090E0E0910207F09130
:1017A000030730E020E0B0E0A0E0309799F4211585
:1017B000310509F44AC0281B390B24303105D8F50E
:1017C0008A819B816115710589F1FB019383828375
:1017D000FE0111C0408151810281138148175907D0
:1017E000E0F04817590799F4109761F012960C939E
:1017F000129713961C933296CF01DF91CF911F91D0
:101800000F9108950093020710930307F4CF211559
:10181000310551F04217530738F0A901DB019A0155
:10182000BD01DF01F801C1CFEF01F9CF90930307AC
:1018300080930207CDCFFE01E20FF31F81939193B6
:101840002250310939832883D7CF20910007309166
:101850000107232B41F42091150230911602309399
:1018600001072093000720911302309114022115E3
:10187000310541F42DB73EB740911702509118023F
:10188000241B350BE0910007F0910107E217F307E5
:10189000A0F42E1B3F0B2817390778F0AC014E5FE0
:1018A0005F4F2417350748F04E0F5F1F5093010715
:1018B00040930007819391939FCFF0E0E0E09CCFAD
:1018C000CF93DF930097E9F0FC01329713821282E5
:1018D000A0910207B0910307ED0130E020E01097DE
:1018E000A1F420813181820F931F20910007309154
:1018F00001072817390709F061C0F0930107E09349
:101900000007DF91CF910895EA01CE17DF07E8F5D0
:101910004A815B819E0141155105B1F7E901FB83C5
:10192000EA8349915991C40FD51FEC17FD0761F463
:10193000808191810296840F951FE90199838883A4
:10194000828193819B838A83F0E0E0E012968D91FF
:101950009C9113970097B9F52D913C911197CD016A
:101960000296820F931F20910007309101072817DC
:10197000390739F6309751F5109203071092020794
:10198000B0930107A0930007BCCFD383C2834081EB
:101990005181840F951FC817D90761F44E5F5F4FBF
:1019A00088819981480F591F518340838A819B8187
:1019B000938382832115310509F0B0CFF09303079B
:1019C000E09302079ECFFD01DC01C0CF138212829B
:1019D000D7CFFC0188279927E89421912032E9F399
:1019E000293010F02E30C8F32B3239F02D3231F47B
:1019F000689403C085D0820F911D219120532A3015
:101A0000C8F31EF4909581959F4F08951F93FC0194
:101A100099278827BC01E89411911032E9F3193015
:101A200010F01E30C8F31B3249F01D3241F46894A7
:101A300005C051D0610F711D811D911D1191105371
:101A40001A30B8F33EF490958095709561957F4F6C
:101A50008F4F9F4F1F910895FA01A191B081009778
:101A600019F41097E1F0CD01DC01CD010D900020BB
:101A700011F4C00113C0FB012191222319F020159C
:101A8000D9F7F3CFFB012191201519F41E9211967D
:101A900006C02223C1F70D900020A1F7D001FA0162
:101AA000A193B0830895BB274A3031F4992322F4DF
:101AB000BDE2909581959F4F4DC0BB272A3051F4D0
:101AC000992342F4BDE290958095709561957F4F82
:101AD0008F4F9F4F1EC0592F482F372F262F660F2D
:101AE000771F881F991F660F771F881F991F620F26
:101AF000731F841F951F660F771F881F991F0895F6
:101B00007AE0979F902D879F802D910D1124089545
:101B1000BB27FA01A62F6217710581059105330BCA
:101B200030FB66F0AA27660F771F881F991FAA1F30
:101B3000A21710F0A21B63953850A9F7A05DAA3335
:101B400008F0A95DA19336F7B111B1931082CA01D3
:101B5000B0C4BB27FB015527AA27880F991FAA1FCE
:101B6000A41710F0A41B83955051B9F7A05DAA33B8
:101B700008F0A95DA193009779F7B111B193119283
:101B8000CB0197C40F931F93CF93DF93CDB7DEB7ED
:101B90002E970FB6F894DEBF0FBECDBF0E891F89FA
:101BA000888D998D2EE02C831A83098397FF02C0BC
:101BB00080E090E801979E838D83AE01445E5F4F85
:101BC0006A8D7B8DCE01019619D04D815E8157FDC6
:101BD0000AC02F813885421753070CF49A01020F6F
:101BE000131FF80110822E960FB6F894DEBF0FBEB9
:101BF000CDBFDF91CF911F910F9108952F923F920A
:101C00004F925F926F927F928F929F92AF92BF920C
:101C1000CF92DF92EF92FF920F931F93CF93DF93B8
:101C200000D000D000D01F921F92CDB7DEB77C014C
:101C30003B018A01FC0117821682838181FFD0C19A
:101C4000CE0101965C01F7019381F30193FD85912B
:101C500093FF81913F01882309F449C1853239F40A
:101C600093FD859193FF81913F01853221F4B70166
:101C700090E02FD4E8CF912C212C312CFFE1F315EB
:101C800038F08B3211F190F4803209F1833229F16E
:101C900037FC3CC020ED280F2A3050F536FE20C01E
:101CA0008AE0989E200D1124922E06C08D3291F06C
:101CB000803371F7689430F8F30193FD859193FFB9
:101CC00081913F018111DACF21C0689431F8689485
:101CD00032F8F2CF689433F8EFCF689434F8ECCF51
:101CE000EAE02E9E200D1124222E689435F8E4CFD0
:101CF0008E3229F436FCFBC0689436F8DDCF8C3682
:101D000019F4689437F8D8CF8836B1F2982F9F7DB0
:101D100095549330D8F0833691F18337B1F1833500
:101D200009F05EC02801F2E04F0E511CF801C0809E
:101D3000D180692D70E036FC02C06FEF7FEFC601E5
:101D4000A2D34C01689437F882010AC00C5F1F4F80
:101D5000FFE3F98388248394912C6501E89437F894
:101D600033FE2AC0522C8114910459F5552009F4F0
:101D70006ACFB70180E290E0ACD35A94F7CFF80174
:101D8000808189830E5F1F4FE5CF2801F2E04F0E5F
:101D9000511CF801C080D180692D70E036FC02C072
:101DA0006FEF7FEFC6017AD34C018201D7CFB70125
:101DB00080E290E08ED32A942814190409F0B8F731
:101DC000D1CFF60137FC859137FE81916F01B701C4
:101DD00090E07FD351105A94F1E08F1A9108C3CF4D
:101DE000843619F0893609F073C0F80137FE67C0F0
:101DF00060817181828193810C5F1F4FF32DFF768B
:101E00003F2E97FF09C090958095709561957F4F03
:101E10008F4F9F4F689437F82AE030E0A50189D3AF
:101E2000C82ECA188C2C432C36FE0CC0E89440F8FF
:101E3000C91440F434FE05C032FC03C0F32DFE7E0D
:101E40004F2E892C44FEA6C0FE01EC0DF11D8081B1
:101E5000803309F098C0242D297E422E842D88706D
:101E6000582E43FCA5C040FE9FC09C2C821418F441
:101E70002C0C922C981844FEA1C0B70180E390E08E
:101E800028D342FE08C088E790E041FE02C088E502
:101E900090E0B7011ED3C91408F49CC0CA94D12C99
:101EA0009FEFC91AD90ACA0CDB1CF60182916F0197
:101EB000B70190E00ED3AC14BD04B9F757CF6081E1
:101EC0007181072E000C880B990B0E5F1F4F96CF68
:101ED000D32CE894D4F82AE030E08537E1F1232DC3
:101EE000297FD22E8F36A9F1F0F4883551F1F70110
:101EF000868197812B960FB6F894DEBF0FBECDBFBB
:101F0000DF91CF911F910F91FF90EF90DF90CF90D5
:101F1000BF90AF909F908F907F906F905F904F9009
:101F20003F902F900895803749F0883701F7D4FE0D
:101F300002C06894D2F820E130E00DC06894D4F873
:101F4000F6CF34FE03C0822F8660D82E20E132E027
:101F500002C028E030E0F801D7FE0EC06081718138
:101F6000828193810C5F1F4FA501E3D2C82ECA184E
:101F70003D2CE89437F856CF6081718190E080E085
:101F80000E5F1F4FF1CF42FC02C0839467CF839452
:101F9000839464CF842D867809F460CFF6CFB7019F
:101FA00080E290E096D283948214C8F3512C63CFE0
:101FB000522C5818821408F45ECFF8CF842D8678FE
:101FC00009F469CF8BE241FE80E247FC8DE2B70164
:101FD00090E060CFB70180E390E07BD29A945BCF32
:101FE0008FEF9FEF87CF8F929F92AF92BF92CF924A
:101FF000DF92EF92FF920F931F93CF93DF9300D066
:1020000000D000D0CDB7DEB76A01F22EB02E102F6F
:10201000FBE3AF2EA01608F41BE31F5F012F27E0A0
:10202000AE014F5F5F4F57D1BC018981982F9970E6
:10203000913009F44EC09BE2E1FC04C09E2D9170EA
:10204000E0FC49C05E2D5071E82FE87083FF55C059
:1020500084E0911101C083E0EF2DE81B8F1508F09B
:10206000E0E0D6018E2F20E25523C9F1992329F013
:10207000D6019C93C60101966C0196012D5F3F4FDE
:10208000E2FE33C08EE4D6018C9391E411969C93CA
:10209000119712968C93D9018E2F90E281112AC04C
:1020A000E20FF32FF11D10828EEF9FEF29960FB6EE
:1020B000F894DEBF0FBECDBFDF91CF911F910F917E
:1020C000FF90EF90DF90CF90BF90AF909F908F9058
:1020D00008959DE2B7CF90E2B5CF2D938150811145
:1020E000FCCFCE0ED11CE0E0C1CF8EE6D6018C93A2
:1020F00091E6CCCF9D938150D1CF482F447082FF81
:102100003DC084E0911101C083E08F1510F4EF2DE4
:10211000E81BD6018E2F20E2552309F1992329F0DF
:10212000D6019C93C60101966C0196012D5F3F4F2D
:10213000E2FE1BC089E4D6018C938EE411968C9349
:10214000119786E412968C93D9018E2F90E2882302
:1021500009F4A6CF9D938150FACF2D938150811120
:10216000FCCFCE0ED11CE0E0D9CF89E6D6018C930E
:102170008EE611968C93119786E6E4CF9B0177FF4C
:1021800002C030E020E0A1E0B0E0911102C0B0E078
:10219000A0E0F9013196AE0FBF1F8B2C912CBB2014
:1021A00009F461C05401EFEFAE1ABE0AAA0DBB1DBF
:1021B000FA161B0619F014F04F2D4A1B511188C056
:1021C000E3FC59C07601A42FB0E2A1114FC0C40EA8
:1021D000D11C992309F45BC040E0D6011196F601A9
:1021E00090836D01552309F448C0012F060F9A8191
:1021F000582F507184FF03C0913309F40150101619
:102200000CF047C0093008F008E0EEE2FE2E5B015A
:10221000A01AB10885019194819491082F3F32074B
:1022200029F4D601FC92F60131966F01621773070B
:1022300094F1021713077CF5DB01A21BB30BAA2450
:10224000A394B12CAC0EBD1EAA0DBB1D11968C9192
:1022500021503109D601119628153905F4F0F601FF
:1022600080836D01DBCFB12CA12CA0CFF701B193FE
:102270007F01A150AACF9111B0CFD601942F50E386
:1022800002C05D9391509111FCCFC40ED11C40E06F
:10229000ACCF01E0BACF80E3DBCF6217730731F434
:1022A000963388F4953311F4552369F0F601808351
:1022B000FD01842F90E2811108C0A40FB11D1C9272
:1022C00090E080E0F3CE81E3F1CF91938150F3CFA2
:1022D000911183CF8ACF283008F027E03327DA0125
:1022E000990F311D87FD916000966105710539F4E4
:1022F00032602E5F3D9330E32A95E1F708959F3FCA
:1023000030F080387105610509F03C5F3C5F3D931A
:10231000913008F08068911DDF93CF931F930F9346
:10232000FF92EF92192F987F9695E92F96959695A3
:10233000E90FFF27E25CFE4F99273327EE24FF24A5
:10234000A701E70105900894079428F4360FE71ECB
:10235000F81E491F511D660F771F881F991F06948D
:10236000A1F70590079428F4E70EF81E491F561FA1
:10237000C11D770F881F991F661F0694A1F705904E
:10238000079428F4F80E491F561FC71FD11D880F48
:10239000991F661F771F0694A1F70590079420F4F4
:1023A000490F561FC71FD81F990F661F771F881F19
:1023B0000694A9F784911095177041F0D695C795AA
:1023C00057954795F794E7941A95C1F7E4EEF0E036
:1023D00068941590159135916591959105907FE2DE
:1023E0007395E118F10A430B560BC90BD009C0F7DE
:1023F000E10CF11E431F561FC91FD01D7EF4703320
:1024000011F48A95E6CFE894015030F0080F0AF4F1
:102410000027021708F4202F2395022F7A3328F083
:1024200079E37D932A95E9F710C07D932A9589F683
:10243000069497956795379517951794E118F10AC3
:10244000430B560BC90BD00998F023957E917395D9
:102450007A3308F070E37C932013B8F77E917061B3
:102460007D9330F0839571E37D9370E32A95E1F7D6
:102470001124EF90FF900F911F91CF91DF91992739
:1024800087FD90950895FC01059061507040011002
:10249000D8F7809590958E0F9F1F0895FC0161508D
:1024A000704001900110D8F7809590958E0F9F1F76
:1024B0000895DC01FC01672F71917723E1F73297D2
:1024C00004C07C916D9370836291AE17BF07C8F30F
:1024D00008950F931F93CF93DF93182F092FEB01CC
:1024E0008B8181FD09C01FEF0FEF812F902FDF91AE
:1024F000CF911F910F91089582FF14C02E813F81CB
:102500008C819D81281739073CF4E881F981CF013E
:1025100001969983888310838E819F8101969F8382
:102520008E83E3CFE885F985812F1995892BA1F357
:10253000DACFFA01AA27283051F1203181F1E8944D
:102540006F936E7F6E5F7F4F8F4F9F4FAF4FB1E0A6
:102550003ED0B4E03CD0670F781F891F9A1FA11DA1
:10256000680F791F8A1F911DA11D6A0F711D811DA2
:10257000911DA11D20D009F468943F912AE0269F67
:1025800011243019305D3193DEF6CF010895462FC6
:102590004770405D4193B3E00FD0C9F7F6CF462FA7
:1025A0004F70405D4A3318F0495D31FD4052419310
:1025B00002D0A9F7EACFB4E0A695979587957795CD
:1025C0006795BA95C9F700976105710508959B0154
:1025D000AC010A2E06945795479537952795BA95DD
:1025E000C9F7620F731F841F951FA01D0895DC019A
:1025F000CB01FC01F999FECF06C0F2BDE1BDF89A0E
:10260000319600B40D9241505040B8F70895DC0166
:10261000A40FB51F4150504040F0CB01840F951FCF
:102620002E9105D041505040D8F70895262FF999A2
:10263000FECF92BD81BDF89A019700B4021639F021
:102640001FBA20BD0FB6F894FA9AF99A0FBE0895F2
:10265000EE0FFF1F881F8BBF0790F691E02D199496
:10266000FB01DC0102C001900D9241505040D8F7AF
:102670000895FB01DC014150504048F001900D925B
:102680000020C9F701C01D9241505040E0F7089565
:1026900011E0CDE7D1E000E005C0802FFE01D8DFDA
:1026A0002196011DCE37D10780E00807B1F7F894D5
:0226B000FFCF5A
:1026B200FFFFFF77037703770377037703770377C8
:1026C200037703000004078000000000004D02AF02
:1026D20001DC0199020D02EB01FF014D7953656E98
:1026E200736F727320486F757365204865617465F6
:1026F2007200312E3000322E332E322D72632E3183
:1027020000476174657761792073746172747570C2
:0E27120020636F6D706C6574652E003B0000D7
:020000023000CC
:10E000000D9489F10D94B2F10D94B2F10D94B2F129
:10E010000D94B2F10D94B2F10D94B2F10D94B2F1F0
:10E020000D94B2F10D94B2F10D94B2F10D94B2F1E0
:10E030000D94B2F10D94B2F10D94B2F10D94B2F1D0
:10E040000D94B2F10D94B2F10D94B2F10D94B2F1C0
:10E050000D94B2F10D94B2F10D94B2F10D94B2F1B0
:10E060000D94B2F10D94B2F10D94B2F10D94B2F1A0
:10E070000D94B2F10D94B2F10D94B2F10D94B2F190
:10E080000D94B2F10D94B2F10D94B2F10D94B2F180
:10E090000D94B2F10D94B2F10D94B2F10D94B2F170
:10E0A0000D94B2F10D94B2F10D94B2F10D94B2F160
:10E0B0000D94B2F10D94B2F10D94B2F10D94B2F150
:10E0C0000D94B2F10D94B2F10D94B2F10D94B2F140
:10E0D0000D94B2F10D94B2F10D94B2F10D94B2F130
:10E0E0000D94B2F141546D656761323536300041AF
:10E0F000726475696E6F206578706C6F72657220DE
:10E1000073746B3530305632206279204D4C530099
:10E11000426F6F746C6F616465723E004875683F52
:10E1200000436F6D70696C6564206F6E203D200048
:10E130004350552054797065202020203D20005FF9
:10E140005F4156525F415243485F5F3D2000415658
:10E1500052204C696243205665723D20004743437C
:10E160002056657273696F6E203D20004350552024
:10E1700049442020202020203D20004C6F7720663D
:10E18000757365202020203D20004869676820665F
:10E190007573652020203D200045787420667573D6
:10E1A00065202020203D20004C6F636B2066757336
:10E1B000652020203D20004D617220203720323024
:10E1C000313300312E362E3800342E332E350056A2
:10E1D00023202020414444522020206F7020636F70
:10E1E00064652020202020696E73747275637469E1
:10E1F0006F6E2061646472202020496E74657272B3
:10E20000757074006E6F20766563746F7200726A49
:10E210006D702020006A6D70200057686174207056
:10E220006F72743A00506F7274206E6F7420737541
:10E2300070706F72746564004D7573742062652030
:10E2400061206C6574746572002000577269747483
:10E25000696E672045450052656164696E672045B7
:10E26000450045452065727220636E743D00504F35
:10E27000525400303D5A65726F2061646472003FF1
:10E280003D43505520737461747300403D454550C3
:10E29000524F4D207465737400423D426C696E6B41
:10E2A000204C454400453D44756D70204545505215
:10E2B0004F4D00463D44756D7020464C415348001B
:10E2C000483D48656C70004C3D4C69737420492F83
:10E2D0004F20506F72747300513D51756974005234
:10E2E0003D44756D702052414D00563D73686F7707
:10E2F00020696E7465727275707420566563746FF0
:10E30000727300593D506F727420626C696E6B00BD
:10E310002A0011241FBECFEFD1E2DEBFCDBF01E046
:10E320000CBF12E0A0E0B2E0EEE1FDEF03E00BBFB6
:10E3300002C007900D92A030B107D9F712E0A0E01B
:10E34000B2E001C01D92AE30B107E1F70F9460F367
:10E350000D948DFE01E20EBF0FEF0DBF11241FBE05
:10E360000D9460F30D9400F020E030E040ED57E0B4
:10E3700005C0FA013197F1F72F5F3F4F2817390792
:10E38000C0F308959C01260F311DC901A0E0B0E043
:10E390002F5F3F4FABBFFC018791882361F08093D3
:10E3A000C6008091C00086FFFCCF8091C0008064D1
:10E3B0008093C000EACF08958DE08093C6008091DD
:10E3C000C00086FFFCCF8091C00080648093C000B5
:10E3D0008AE08093C6008091C00086FFFCCF8091C8
:10E3E000C00080648093C00008950F94C2F10F9420
:10E3F000DCF10895FC019081992359F09093C600B7
:10E400008091C00086FFFCCF8091C0008064809323
:10E41000C0003196992379F70895282F982F929567
:10E420009F70892F805D8A3308F0895F8093C600D2
:10E430008091C00086FFFCCF8091C00080648093F3
:10E44000C000822F8F70982F905D9A3308F0995FEB
:10E450009093C6008091C00086FFFCCF8091C000E1
:10E4600080648093C00008959C01FB01853691056E
:10E470001CF46330710594F0C90164E670E00F94F8
:10E480002EFE605D7F4F6093C6008091C00086FFC6
:10E49000FCCF8091C00080648093C0002B30310598
:10E4A00014F43297B4F0C90164E670E00F942EFEC4
:10E4B0006AE070E00F942EFE605D7F4F6093C600AF
:10E4C0008091C00086FFFCCF8091C0008064809363
:10E4D000C000C9016AE070E00F942EFEC0968093E0
:10E4E000C6008091C00086FFFCCF8091C000806490
:10E4F0008093C00008951F93182F8EE692EE60E07F
:10E500000F94C2F11093C6008091C00086FFFCCF2B
:10E510008091C00080648093C0000F94DCF11F9153
:10E5200008952F923F924F925F926F927F928F92B7
:10E530009F92AF92BF92CF92DF92EF92FF920F9392
:10E540001F93DF93CF93CDB7DEB762970FB6F894E2
:10E55000DEBF0FBECDBF382E622ECA01DB015C01CB
:10E560006D01772420E2222E2E010894411C511CBB
:10E570008BC081E0A81680E0B80681E0C80680E084
:10E58000D80628F0C601AA27BB270F940DF2BB2797
:10E59000AD2D9C2D8B2D0F940DF28A2D0F940DF225
:10E5A0002092C6008091C00086FFFCCF8091C00001
:10E5B00080648093C0009DE29093C6008091C0006B
:10E5C00086FFFCCF8091C00080648093C0002092C1
:10E5D000C6008091C00086FFFCCF8091C00080649F
:10E5E0008093C00019828601750188249924A1E0D6
:10E5F0003A1651F03A1620F0B2E03B1661F409C029
:10E600000BBFF701779007C0C7010F9477FE782EF4
:10E6100002C0F7017080872D0F940DF22092C60082
:10E620008091C00086FFFCCF8091C0008064809301
:10E63000C000872D8052F401EF70F0708F3520F408
:10E64000E40DF51D708204C0E40DF51D8EE280839B
:10E650000894E11CF11C011D111D0894811C911CE2
:10E6600090E18916910409F0C2CF80E190E0A0E02A
:10E67000B0E0A80EB91ECA1EDB1E198AC2010F9493
:10E68000FAF10F94DCF16A94662009F072CF629679
:10E690000FB6F894DEBF0FBECDBFCF91DF911F91B3
:10E6A0000F91FF90EF90DF90CF90BF90AF909F9031
:10E6B0008F907F906F905F904F903F902F90089534
:10E6C0002F923F924F925F926F927F928F929F9282
:10E6D000AF92BF92CF92DF92EF92FF920F931F9370
:10E6E000DF93CF93CDB7DEB7CD53D1400FB6F894BB
:10E6F000DEBF0FBECDBF01E20EBF0FEF0DBF94B75F
:10E70000F894A89514BE80916000886180936000A1
:10E7100010926000789493FF05C0E0910002F091A0
:10E7200001021995279A2F9A8091C00082608093E8
:10E73000C00080E18093C40088E18093C1000000A4
:10E74000EE24FF24870144E0A42EB12CCC24DD2448
:10E7500024C0C5010197F1F70894E11CF11C011DCB
:10E76000111D21E2E2162EE4F20620E0020720E06D
:10E77000120718F031E0C32ED12CC801B70127ECE5
:10E780003BE140E050E00F9441FE611571058105C9
:10E79000910519F485B1805885B98091C00087FD35
:10E7A00003C0C114D104A9F2A6014F5F5F4FC25E3E
:10E7B000DE4F59834883CE51D140C25EDE4F8881FF
:10E7C0009981CE51D140019711F00D9410FEC05D9A
:10E7D000DE4F19821882C053D14060E0C15DDE4F28
:10E7E0001882CF52D14088249924C35DDE4F19820C
:10E7F0001882CD52D140C05EDE4F188219821A8233
:10E800001B82C052D140CE5CDE4F188219821A8220
:10E810001B82C253D140EE24FF2487010BBFF701B6
:10E8200007911691C45CDE4F19830883CC53D14005
:10E830000D940BFEC25EDE4F28813981CE51D1404E
:10E840002130310509F52091C600C25EDE4F1982E4
:10E850001882CE51D14022C02F5F3F4F4F4F5F4FA4
:10E86000213082E138078AE7480780E0580780F0C6
:10E87000C45CDE4FE881F981CC53D140EF5FFF4F9C
:10E8800019F0EE27FF27099420E030E040E050E047
:10E890008091C00087FFE0CF2091C600C35DDE4FAE
:10E8A00048815981CD52D1404F5F5F4FC35DDE4FEC
:10E8B00059834883CD52D140213209F063C64A3092
:10E8C000510508F05FC60894811C911C53E0851621
:10E8D000910409F059C600E010E018C081E280936D
:10E8E000C6008091C00086FFFCCF8091C00080648C
:10E8F0008093C0002F5F3F4F2931310579F70F9486
:10E90000DCF10F5F1F4F0530110519F020E030E0FA
:10E91000E5CF10920A0210920B0210920C02109294
:10E920000D02109206021092070210920802109235
:10E930000902109202021092030210920402109235
:10E9400005028FEE90EE60E00F94F5F180E191EE1C
:10E9500060E00F94C2F18091C00087FFFCCF9091DE
:10E96000C600903608F09F759032B8F09093C600BC
:10E970008091C00086FFFCCF8091C00080648093AE
:10E98000C000A0E2A093C6008091C00086FFFCCF2B
:10E990008091C00080648093C000983409F4D7C18E
:10E9A0009934B8F4923409F459C1933458F490333B
:10E9B00019F1903308F4E3C59F33A1F1903409F0C5
:10E9C000DEC5BDC0953409F470C1963409F0D7C5D1
:10E9D00098C1923509F42BC2933538F49C3409F46C
:10E9E000F5C1913509F0CBC518C2963509F445C279
:10E9F000993509F0C4C567C483E792EE62E00F94CD
:10EA0000F5F110920602109207021092080210927D
:10EA1000090210920A0210920B0210920C0210923C
:10EA20000D0213C18FE792EE62E00F94F5F18FEEC5
:10EA300090EE60E00F94F5F181E291EE60E00F94CA
:10EA4000C2F187EB91EE60E00F94F5F180E391EE77
:10EA500060E00F94C2F184EE90EE60E00F94F5F167
:10EA60008FE391EE60E00F94C2F186E090E061E008
:10EA700070E00F9434F20F94DCF18DE591EE60E0DC
:10EA80000F94C2F189EC91EE60E00F94F5F18EE401
:10EA900091EE60E00F94C2F183EC91EE60E00F9490
:10EAA000F5F18CE691EE60E00F94C2F18EE10F94E7
:10EAB0000DF288E90F940DF281E00F940DF20F949E
:10EAC000DCF18BE791EE60E00F94C2F119E0E0E039
:10EAD000F0E010935700E4918E2F0F940DF20F94F5
:10EAE000DCF18AE891EE60E00F94C2F1E3E0F0E03F
:10EAF00010935700E4918E2F0F940DF20F94DCF1D8
:10EB000089E991EE60E00F94C2F1E2E0F0E0109349
:10EB10005700E4918E2F0F940DF20F94DCF188EAE8
:10EB200091EE60E00F94C2F1E1E0F0E01093570045
:10EB30001491812F0F940DF20F94DCF107CF8BE825
:10EB400092EE62E00F94F5F18BE492EE60E00F94A8
:10EB5000F5F10F94DCF100E010E019C0C8016F2D51
:10EB60000F947FFEFF2031F489E492EE60E00F9471
:10EB7000C2F10BC0F092C6008091C00086FFFCCFAE
:10EB80008091C00080648093C0000F5F1F4FC80158
:10EB900081519F41A0E0B0E0ABBFFC01F790BAE229
:10EBA000FB1621F0E2E000301E07C1F60F94DCF105
:10EBB0000F94DCF187E592EE60E00F94F5F10F948D
:10EBC000DCF1CC24DD2400E010E01EC0C8010F946D
:10EBD00077FEF82E882331F489E492EE60E00F94FA
:10EBE000C2F10BC08093C6008091C00086FFFCCFAD
:10EBF0008091C00080648093C000FE1419F00894D6
:10EC0000C11CD11C0F5F1F4FC80181519F41A0E063
:10EC1000B0E0ABBFFC01E790FAE2EF1621F022E092
:10EC20000030120799F60F94DCF10F94DCF182E6C4
:10EC300092EE60E00F94C2F1C60161E070E00F94C3
:10EC400034F20F94DCF10F94DCF110920202109276
:10EC50000302109204021092050278CE89E992EE26
:10EC600062E00F94F5F1279A2F9A16C02F9880E052
:10EC700090E0E0EDF7E03197F1F7019684369105E9
:10EC8000C1F72F9A80E090E0E0EDF7E03197F1F7DF
:10EC9000019684369105C1F78091C00087FFE6CFC9
:10ECA0008091C00087FFFCCF64C485EA92EE62E0E9
:10ECB0000F94F5F140910202509103026091040219
:10ECC0007091050281E020E10F9491F2809102029F
:10ECD00090910302A0910402B091050280509F4FD1
:10ECE000AF4FBF4F8093020290930302A0930402A0
:10ECF000B093050280509041A040B04008F426CE69
:10ED0000A4CF83EB92EE62E00F94F5F140910602FE
:10ED100050910702609108027091090280E020E1A1
:10ED20000F9491F28091060290910702A09108023F
:10ED3000B091090280509F4FAF4FBF4F80930602A2
:10ED400090930702A0930802B0930902FFCD80ECD4
:10ED500092EE62E00F94F5F183E792EE60E00F949B
:10ED6000F5F18FE792EE60E00F94F5F18BE892EE0B
:10ED700060E00F94F5F189E992EE60E00F94F5F10F
:10ED800085EA92EE60E00F94F5F183EB92EE60E09D
:10ED90000F94F5F180EC92EE60E00F94F5F187ECC2
:10EDA00092EE60E00F94F5F188ED92EE60E00F9442
:10EDB000F5F18FED92EE60E00F94F5F18AEE92EEB0
:10EDC00060E00F94F5F183E093EEBDCD87EC92EE19
:10EDD00062E00F94F5F181E40F947BF282E40F94EA
:10EDE0007BF283E40F947BF284E40F947BF285E45E
:10EDF0000F947BF286E40F947BF287E40F947BF20E
:10EE000088E40F947BF28AE40F947BF28BE40F94F6
:10EE10007BF28CE40F947BF299CD88ED92EE62E068
:10EE20000F94F5F1772473948824992409C48FED05
:10EE300092EE62E00F94F5F140910A0250910B02BC
:10EE400060910C0270910D0282E020E10F9491F22A
:10EE500080910A0290910B02A0910C02B0910D02D8
:10EE600080509F4FAF4FBF4F80930A0290930B0289
:10EE7000A0930C02B0930D0269CD8AEE92EE62E08F
:10EE80000F94F5F184EE90EE60E00F94F5F18FECC5
:10EE900091EE60E00F94F5F1662477244301CC5D98
:10EEA000DE4F19821882C452D140D401C301B695F5
:10EEB000A79597958795CA5DDE4F88839983AA8326
:10EEC000BB83C652D140CC5DDE4FA881B981C4520C
:10EED000D1401196CC5DDE4FB983A883C452D14096
:10EEE000CD0162E070E00F9434F2B0E2B093C6005E
:10EEF0008091C00086FFFCCF8091C0008064809329
:10EF0000C000EDE2E093C6008091C00086FFFCCF18
:10EF10008091C00080648093C000F0E2F093C6004E
:10EF20008091C00086FFFCCF8091C00080648093F8
:10EF3000C000CA5DDE4FE880F9800A811B81C6529D
:10EF4000D140BB27A12F902F8F2D0F940DF2CA5DBA
:10EF5000DE4F8881C652D1400F940DF2B0E2FB2EF5
:10EF6000F092C6008091C00086FFFCCF8091C00067
:10EF700080648093C0000DE30093C6008091C000C0
:10EF800086FFFCCF8091C00080648093C00010E2B7
:10EF90001093C6008091C00086FFFCCF8091C00016
:10EFA00080648093C0008BBEF3012791C65DDE4F65
:10EFB0002883CA52D140A22EBB24CC24DD2408943D
:10EFC000611C711C811C911C8BBEF3018791282E42
:10EFD0003324442455240894611C711C811C911C09
:10EFE0008BBEF3013791C55DDE4F3883CB52D140E4
:10EFF0000894611C711C811C911C8BBEF30147910C
:10F00000C45DDE4F4883CC52D140ADEFEA2EAFEF66
:10F01000FA2EAFEF0A2FAFEF1A2F6E0C7F1C801E57
:10F02000911E142D032DF22CEE24EA0CFB1C0C1D5A
:10F030001D1D0F940DF220E22093C6008091C000A8
:10F0400086FFFCCF8091C00080648093C000C65DC5
:10F05000DE4F8881CA52D1400F940DF230E23093D6
:10F06000C6008091C00086FFFCCF8091C000806404
:10F070008093C000C45DDE4F8881CC52D1400F9494
:10F080000DF240E24093C6008091C00086FFFCCFA5
:10F090008091C00080648093C000C55DDE4F888190
:10F0A000CB52D1400F940DF250E25093C6008091A4
:10F0B000C00086FFFCCF8091C00080648093C000B8
:10F0C0008FEFE8168FEFF80680E0080780E018075A
:10F0D00031F484E092EE60E00F94C2F1DFC0D80119
:10F0E000C7018070907CA070B0708050904CA040A0
:10F0F000B040D1F52FEF3FE340E050E0E222F322B1
:10F1000004231523CA5DDE4FA880B980CA80DB8046
:10F11000C652D140AE0CBF1CC01ED11EAA0CBB1CD7
:10F12000CC1CDD1C8EE092EE60E00F94C2F1BB2798
:10F13000A12F902F8F2D0F940DF28E2D0F940DF285
:10F1400030E23093C6008091C00086FFFCCF8091F2
:10F15000C00080648093C0004EE34093C60080915D
:10F16000C00086FFFCCF87C08EE09EEFA0E0B0E03D
:10F17000E822F9220A231B239CE0E91694E9F90608
:10F1800090E0090790E0190709F088C0C45DDE4FE0
:10F19000A881CC52D140EA2EFF2400E010E0102FCD
:10F1A0000F2DFE2CEE24C55DDE4FB881CB52D14031
:10F1B000EB0EF11C011D111DD601C501817090706F
:10F1C000A070B070DC0199278827E80EF91E0A1F8D
:10F1D0001B1F20EF30E040E050E0A222B322C42207
:10F1E000D52241E1AA0CBB1CCC1CDD1C4A95D1F7F1
:10F1F000EA0CFB1C0C1D1D1D81E090E0A0E0B0E0BE
:10F20000282239224A225B2235E1220C331C441C7D
:10F21000551C3A95D1F7E20CF31C041D151D57013E
:10F220006801AA0CBB1CCC1CDD1C85E192EE60E0E1
:10F230000F94C2F1C801AA27BB270F940DF2BB2778
:10F24000A12F902F8F2D0F940DF28E2D0F940DF274
:10F2500090E29093C6008091C00086FFFCCF809121
:10F26000C00080648093C000AEE3A093C60080918C
:10F27000C00086FFFCCF8091C00080648093C000F6
:10F28000C601AA27BB270F940DF2BB27AD2D9C2DDD
:10F290008B2D0F940DF28A2D0F940DF20F94DCF14B
:10F2A000CC5DDE4FE881F981C452D140F99709F471
:10F2B0004DCBF4E0EF2EF12C012D112D6E0C7F1CA7
:10F2C000801E911EF2CD83E093EE62E00F94F5F183
:10F2D0008AE192EE60E00F94C2F18091C00087FF56
:10F2E000FCCF1091C6001F751093C6008091C0001E
:10F2F00086FFFCCF8091C00080648093C0000F9493
:10F30000DCF1812F81548A3108F036C1163409F4BA
:10F3100095C0173490F4133409F44EC0143430F40B
:10F320001134F1F0123409F01DC130C0143409F465
:10F3300059C0153409F016C16BC01A3409F4C4C0A1
:10F340001B3438F4173409F48FC0183409F00AC19B
:10F35000A1C01B3409F4D2C01C3409F003C1E8C0B9
:10F360008FEF81B90DC082B1809582B980E090E0C5
:10F37000E0EDF7E03197F1F70196883C9105C1F790
:10F380008091C00087FFEFCF12B8EFC08FEF84B934
:10F390000DC085B1809585B980E090E0E0EDF7E0A3
:10F3A0003197F1F70196883C9105C1F78091C00033
:10F3B00087FFEFCF15B8D9C08FEF87B90DC088B1DF
:10F3C000809588B980E090E0E0EDF7E03197F1F7C3
:10F3D0000196883C9105C1F78091C00087FFEFCF6F
:10F3E00018B8C3C08FEF8AB90DC08BB180958BB9A7
:10F3F00080E090E0E0EDF7E03197F1F70196883C8E
:10F400009105C1F78091C00087FFEFCF1BB8ADC059
:10F410008FEF8DB90DC08EB180958EB980E090E0F0
:10F42000E0EDF7E03197F1F70196883C9105C1F7DF
:10F430008091C00087FFEFCF1EB897C08FEF80BBD1
:10F440000DC081B3809581BB80E090E0E0EDF7E0F6
:10F450003197F1F70196883C9105C1F78091C00082
:10F4600087FFEFCF11BA81C08FEF83BB0DC084B38C
:10F47000809584BB80E090E0E0EDF7E03197F1F714
:10F480000196883C9105C1F78091C00087FFEFCFBE
:10F4900014BA6BC08FEF809301010FC080910201FD
:10F4A00080958093020180E090E0E0EDF7E03197F5
:10F4B000F1F70196883C9105C1F78091C00087FF64
:10F4C000EDCF1092020151C08FEF809304010FC065
:10F4D0008091050180958093050180E090E0E0ED4A
:10F4E000F7E03197F1F70196883C9105C1F78091DB
:10F4F000C00087FFEDCF1092050137C08FEF8093DA
:10F5000007010FC08091080180958093080180E079
:10F5100090E0E0EDF7E03197F1F70196883C910536
:10F52000C1F78091C00087FFEDCF109208011DC088
:10F530008FEF80930A010FC080910B01809580931B
:10F540000B0180E090E0E0EDF7E03197F1F70196F4
:10F55000883C9105C1F78091C00087FFEDCF1092E4
:10F560000B0103C085E292EEEEC98091C00087FFD7
:10F57000FCCF8091C600EAC988E392EEE4C98CE131
:10F5800091EEE1C988249924933011F1943028F444
:10F59000913089F09230B8F408C0953061F195301F
:10F5A000F0F0963009F048C043C02B3109F042C951
:10F5B00091E06BE13FC96227C15DDE4F2883CF52E6
:10F5C000D14092E037C9B22FA0E0622793E032C960
:10F5D000822F90E0A82BB92B622794E02BC92E3004
:10F5E00009F039C3622795E0C05DDE4F19821882A9
:10F5F000C053D1401FC9E1E0F0E0EC0FFD1FC05D3A
:10F60000DE4F08811981C053D140E00FF11F2083E4
:10F610000F5F1F4FC05DDE4F19830883C053D14079
:10F6200062270A171B0709F005C9D80196E002C92D
:10F63000261709F010C303C0973009F0FBC87724E0
:10F640009981933109F412C19431C8F4963009F4C8
:10F65000D8C0973050F4923009F406C1933009F4C1
:10F660006DC0913009F059C253C0913109F477C08F
:10F67000923108F0BBC0903109F04FC2F5C098310B
:10F6800009F487C0993150F4953109F4EFC09531F0
:10F6900008F4C6C1963109F040C2C2C19A3109F4DA
:10F6A0006CC09A3108F491C09B3109F45BC09D3164
:10F6B00009F033C29D81903359F48F81882311F46E
:10F6C0009EE11CC0813011F091E018C098E916C08D
:10F6D000892F807591F0903539F4E0E0F0E089E011
:10F6E0008093570094910AC0983539F4E3E0F0E034
:10F6F00089E080935700949101C090E01A821B82A8
:10F700008D818C831D829E831F8227E030E009C299
:10F710001A8288E08B8381E48C8386E58D8382E581
:10F720008E8389E48F8383E5888780E589878FE5E9
:10F730008A8782E38B872BE030E0F3C18A818139AD
:10F7400041F0823941F0803911F48FE005C080E04A
:10F7500003C082E001C08AE01A828B8344C0772410
:10F76000739482C08D81882311F48EE12CC0813086
:10F7700011F081E028C088E926C01A82E1E0F0E0BB
:10F7800089E08093570084918B831C8224E030E0D1
:10F79000C8C18B81803589F48C81883039F4E2E0EE
:10F7A000F0E089E08093570084910DC0E0E0F0E044
:10F7B00089E080935700849106C0E3E0F0E089E09F
:10F7C0008093570084911A82DFCF8D81836C99E0FA
:10F7D000E1E0F0E0082E90935700E89507B600FCB2
:10F7E000FDCF1A821B8223E030E09BC180EC8A832C
:10F7F000CE5CDE4F188219821A821B82C253D1401E
:10F800008EC18A8190E0A0E0B0E0582F44273327D2
:10F8100022278B8190E0A0E0B0E0DC0199278827C7
:10F82000282B392B4A2B5B2B8D8190E0A0E0B0E098
:10F83000282B392B4A2B5B2B8C8190E0A0E0B0E089
:10F84000BA2FA92F982F8827282B392B4A2B5B2BCF
:10F85000220F331F441F551FC05EDE4F288339839C
:10F860004A835B83C052D1401A8259C13A81C95C34
:10F87000DE4F3883C753D140CA5CDE4F1882C6536F
:10F88000D1408B81C82EDD24CA5CDE4F488159816E
:10F89000C653D140C42AD52A933109F082C0CE5C28
:10F8A000DE4F88819981AA81BB81C253D1408050AB
:10F8B000904CA340B04030F583E0CE5CDE4FE88052
:10F8C000F9800A811B81C253D140F70100935B008C
:10F8D00080935700E89507B600FCFDCFCE5CDE4F65
:10F8E000088119812A813B81C253D14000501F4FAA
:10F8F0002F4F3F4FCE5CDE4F088319832A833B8313
:10F90000C253D140C05EDE4F488159816A817B81FC
:10F91000C052D140DE011B9631E08C9111962C91A2
:10F9200011971296C75CDE4F2883C953D140C85C3B
:10F93000DE4F1882C853D14090E0C85CDE4FE881AA
:10F94000F981C853D1408E2B9F2B0C01FA01609393
:10F950005B0030935700E89511244E5F5F4F6F4F67
:10F960007F4F0EEFE02E0FEFF02ECE0CDF1CC114F8
:10F97000D10499F685E0C05EDE4F088119812A81A5
:10F980003B81C052D140F80120935B008093570027
:10F99000E89507B600FCFDCF81E180935700E8951C
:10F9A00035C0C05EDE4F88819981AA81BB81C0527B
:10F9B000D140B695A795979587957C018601ABE0D8
:10F9C000AA2EB12CAC0EBD1E0BC0D5016D915D01F0
:10F9D000C7010F947FFE0894E11CF11C01501040F8
:10F9E0000115110591F7A60160E070E0440F551F65
:10F9F000661F771FC05EDE4FE880F9800A811B8199
:10FA0000C052D1404E0D5F1D601F711F1A82C05E33
:10FA1000DE4F488359836A837B83C052D1407FC0C5
:10FA2000FA80C55CDE4FF882CB53D140C65CDE4F16
:10FA30001882CA53D1408B81C82EDD24C65CDE4FAC
:10FA400008811981CA53D140C02AD12A1A828981DA
:10FA5000BE016D5F7F4F843121F59601C05EDE4FA0
:10FA6000E880F9800A811B81C052D1400BBFF701A9
:10FA700087919691DB018C9311969C936E5F7F4FDB
:10FA8000D801C7010296A11DB11DC05EDE4F88835B
:10FA90009983AA83BB83C052D14022503040F1F6F3
:10FAA00036C0C05EDE4F288139814A815B81C052F9
:10FAB000D1400894C108D108760100E010E0089414
:10FAC000C11CD11C0894E11CF11C011D111DE20E8A
:10FAD000F31E041F151F21BDBB27A52F942F832FB5
:10FAE00082BD2F5F3F4F4F4F5F4FF89A80B5DB01CC
:10FAF0008D93BD012E153F054007510761F7C05E8C
:10FB0000DE4F288339834A835B83C052D1409601FC
:10FB10002D5F3F4FFB01108204C080EC8A8322E0FE
:10FB200030E08BE18093C6008091C00086FFFCCF5F
:10FB30008091C00080648093C000C15DDE4FF88179
:10FB4000CF52D140F093C6008091C00086FFFCCF19
:10FB50008091C00080648093C000432F3093C60022
:10FB60008091C00086FFFCCF8091C00080648093AC
:10FB7000C000922F2093C6008091C00086FFFCCF6A
:10FB80008091C00080648093C0008EE08093C600A6
:10FB90008091C00086FFFCCF8091C000806480937C
:10FBA000C00065E1C15DDE4FE880CF52D1406E25D7
:10FBB00069276427FE01319610C090819093C6009A
:10FBC0008091C00086FFFCCF31968091C000806498
:10FBD0008093C0006927215030402115310569F715
:10FBE0006093C6008091C00086FFFCCF8091C0006A
:10FBF00080648093C00085B1805885B9772081F4F6
:10FC0000C15DDE4F0881CF52D1400F5FC15DDE4F35
:10FC10000883CF52D14090E0A0E0B0E00D941AF4F8
:10FC200027982F9880E090E020ED37E0F901319798
:10FC3000F1F7019684369105C9F700008091C00064
:10FC40008D7F8093C00081E180935700E895EE2777
:10FC5000FF270994FFCF90E00D941AF497FB092E2B
:10FC600007260AD077FD04D02ED006D000201AF443
:10FC7000709561957F4F0895F6F7909581959F4F08
:10FC80000895A1E21A2EAA1BBB1BFD010DC0AA1FDD
:10FC9000BB1FEE1FFF1FA217B307E407F50720F0F5
:10FCA000A21BB30BE40BF50B661F771F881F991F70
:10FCB0001A9469F760957095809590959B01AC01B9
:10FCC000BD01CF010895AA1BBB1B51E107C0AA1FAC
:10FCD000BB1FA617B70710F0A61BB70B881F991FED
:10FCE0005A95A9F780959095BC01CD010895F99991
:10FCF000FECF92BD81BDF89A992780B50895262F31
:10FD0000F999FECF1FBA92BD81BD20BD0FB6F89400
:0EFD1000FA9AF99A0FBE01960895F894FFCF63
:040000033000E000E9
:00000001FF
